:100000000C94D6000C94FE000C94FE000C946D141D
:100010000C9497140C94FA120C94FE000C94FE00AD
:100020000C94FE000C94FE000C94FE000C94FE0058
:100030000C94FE000C94FE000C94FE000C94FE0048
:100040000C944C1B0C94FE000C94561D0C94A41D97
:100050000C94FE000C94FE000C94FE000C94FE0028
:100060000C94FE000C94FE002C0330033003B30309
:100070003403B303B303B303B3035F035F03AB03FF
:10008000AB03AB03AB03AB03AB03AB03AB03AB0300
:10009000AB03AF03AB03AB03AB03AB03AB03AF03E8
:1000A000AB03AB03AB03AF03AB03AB03AB03AB03DC
:1000B00000C201000100110011000C0000E100006D
:1000C0000A002500250021000096000019003900D3
:1000D00039003600127A00001F0046004600440036
:1000E0008070000022004D004D004A00004B0000CF
:1000F0003600750075007200403800004A009C0010
:100100009C009900802500007200EC00EC00E900E2
:10011000C0120000E900DA01DA01D701600900002D
:10012000D701B603B603B303B0040000B3036E07F0
:100130006E076B07580200006E07DC0EDC0ED80E4F
:100140002C010000DC0EC11DC11DBE1D0000000001
:10015000240027002A0000000000250028002B00B2
:100160000000000023002600290004040404040405
:100170000404020202020202030303030303010256
:100180000408102040800102040810200102040825
:100190001020000000070002010000030406000018
:1001A0000000000000000518101FFE1711241FBEDC
:1001B000CFEFD8E0DEBFCDBF11E0A0E0B1E0ECE2D0
:1001C000F2E402C005900D92A03AB107D9F717E00A
:1001D000A0EAB1E001C01D92A83EB107E1F711E02D
:1001E000CAEAD1E004C02297FE010E940521C63A66
:1001F000D107C9F70E94661F0C9409210C940000D6
:10020000AF92BF92DF92EF92FF920F931F93CF9323
:10021000DF93D42E78018901A0918404B0918504E4
:100220005D01A60EB11CB50130E0482F50E0C1E0E1
:10023000D0E01FC0E0FE16C0FB0193E0F695E79505
:100240009A95E1F7E40FF51FEE55FE4FCB0187704D
:1002500090705E0102C0AA0CBB1C8A95E2F7208157
:100260002A29208316950795F794E7943F5F6F5FDF
:100270007F4F3D15F8F2AD0DB11DB0938504A093ED
:100280008404DF91CF911F910F91FF90EF90DF9049
:10029000BF90AF900895CF92DF92EF92FF920F93AD
:1002A0001F93CF93DF93E42EF42EC0918404D0915A
:1002B0008504DE011197A60FB11D242F332727FDDA
:1002C0003095A20FB31F00E010E020E030E0C82E10
:1002D000DD2429C0B901A801440F551F661F771FEF
:1002E000FD0123E0F695E7952A95E1F7EE55FE4FDF
:1002F000EC0DFD1D808190E09D012770307002C0E3
:10030000959587952A95E2F78C01222717FD209570
:10031000322F0170107020703070042B152B262B9B
:10032000372BFA941197FF20A9F6CE0DD11DD0934B
:100330008504C0938404B801C901DF91CF911F9156
:100340000F91FF90EF90DF90CF90089520E061151E
:1003500071058105910549F02F5F203229F09695AE
:10036000879577956795F3CF2FE1822F08956F9248
:100370007F929F92AF92BF92CF92DF92EF92FF92C5
:100380000F93CF93DF938091A301809322028091FA
:10039000A401809323021092850410928404FEE449
:1003A000AF2EF2E0BF2ECC24DD24F601EE5DFD4F32
:1003B00080818952823008F065C083E060E048E0C7
:1003C0000E944B01F601E45BFD4F608383E060E037
:1003D00043E00E944B016F5FF50160839924360171
:1003E000E3E0660C771CEA95E1F747C0C92DD0E041
:1003F00083E060E047E00E944B01C60DD71DFE017F
:10040000E05BFD4F660F608383E060E042E00E94A6
:100410004B01FE01EC5DFD4F608361FF2DC083E069
:1004200060E044E00E944B0170E6E72E72E0F72E98
:10043000EC0EFD1EF701608383E060E044E00E9463
:100440004B01FE01E059FD4F608300E054E0CC0F0A
:10045000DD1F5A95E1F70CC083E060E048E00E94A0
:100460004B01FE01E00FF11DE058FD4F60830F5F6F
:10047000F7018081081780F39394F5018081981625
:1004800008F4B4CF0894C11CD11C0894A11CB11C61
:10049000F2E0CF16D10409F088CFDF91CF910F9110
:1004A000FF90EF90DF90CF90BF90AF909F907F90A4
:1004B0006F9008952F923F924F925F926F927F922A
:1004C0008F929F92AF92BF92CF92DF92EF92FF9264
:1004D0000F931F93DF93CF93CDB7DEB72E970FB651
:1004E000F894DEBF0FBECDBF80E0E82FF0E0EE5500
:1004F000FE4F10828F5F8038C1F719821A821B82EB
:100500001C821092850410928404E4E3AE2EE2E093
:10051000BE2E75E0E72EF12CEC0EFD1E63E0C62E1C
:10052000D12CCC0EDD1E4E010894811C911C772429
:100530007394D5012D913D914D915C91F7012083EC
:1005400031834283538357FF0DC0D4017C928827A7
:100550009927DC01821B930BA40BB50B808391833D
:10056000A283B383D7016D917D918D919C910E945F
:10057000A601F6018083882311F08F5F8083D60166
:100580000D916D0110E020E030E081E060E045E099
:100590000E940001E4E0F0E0AE0EBF1EEE0EFF1E72
:1005A0000894811C911CFCE3AF16F2E0BF0609F62B
:1005B0000D811E812F813885000F111F221F331FCF
:1005C000898190E0A0E0B0E0082B192B2A2B3B2B6F
:1005D0000D831E832F83388781E060E04B810E946A
:1005E00000010A8110E020E030E089859A85AB8522
:1005F000BC85880F991FAA1FBB1F082B192B2A2BFC
:100600003B2B81E060E04C810E9400012CE3422EF4
:1006100022E0522E97E2892E95E0992E8EE4282E24
:1006200082E0382E66247724F301EE5DFD4F808151
:1006300090E0FC01B097E432F10508F094C0EC5C66
:10064000FF4FD2010D911D912D913C91EE0FFF1F97
:100650000590F491E02D099481E060E041E08BC0C9
:1006600081E060E048E087C081E060E043E00E9414
:100670000001F4010681178120E030E081E060E0B4
:100680004AE00E940001D4010D911C9120E030E06D
:1006900081E060E04AE00E940001F40102811381E0
:1006A00020E030E081E060E04AE00E940001D401F7
:1006B00014960D911C91159720E030E059C081E00F
:1006C00060E0F10140810E940001EE24C30103E0DB
:1006D000880F991F0A95E1F79E878D8737C02E2DC9
:1006E00030E0F20180819181A281B3810E2C04C09F
:1006F000B595A795979587950A94D2F780FF25C061
:10070000FF248D859E85820F931F10E7A12E12E096
:10071000B12EA80EB91E6C01B4E0CC0CDD1CBA954C
:10072000E1F70FC0F601EF0DF11DE058FC4F00811D
:1007300010E020E030E081E060E048E00E9400014D
:10074000F394D5018C91F81668F3E394F10180815C
:10075000E81628F212C081E060E040E10CC081E0C0
:1007600060E040E208C0D2010D911D912D913C91B5
:1007700081E060E04AE00E9400010894611C711C65
:10078000E4E0F0E04E0E5F1E88E090E0880E991ED7
:100790000894211C311C92E06916710409F044CFC1
:1007A00080918404909185040796A3E0969587959F
:1007B000AA95E1F78F5F8093A1012E960FB6F8946A
:1007C000DEBF0FBECDBFCF91DF911F910F91FF9084
:1007D000EF90DF90CF90BF90AF909F908F907F90E1
:1007E0006F905F904F903F902F9008952F923F927F
:1007F0004F925F926F927F928F929F92AF92BF9231
:10080000CF92DF92EF92FF920F931F93DF93CF93DC
:10081000CDB7DEB72B970FB6F894DEBF0FBECDBFB6
:100820003CE3232E32E0332E1B861A862A85298349
:10083000EA85FB85EE5DFD4FE081E33498F4EB3211
:1008400008F0C8C0E332B9F1E43240F4E13249F1D2
:10085000E23260F5E03209F0DDC011C0E93208F49F
:1008600041C044C0E43409F4BDC0E43408F4B6C067
:10087000E53409F4C0C0E63409F0CCC0C6C08A85AE
:100880000E941D0C8059914028F481E090E0A0E086
:10089000B0E0C5C0D1011D921D921D921C9213970C
:1008A000C3C08A850E94080D90E0B7C085E290E041
:1008B000A0E0B0E0B4C08A8560E00E94C00C84E192
:1008C00090E00E94FB1B8A850E941D0CA0E0B0E016
:1008D000F10180839183A283B3838A8564E00E94BF
:1008E000C00CA2C08A850E94891197C0D1011D92B7
:1008F0001D921D921C92139710E0EA85FB85E25B26
:10090000FD4FFD83EC838A859B8523E0880F991F2B
:100910002A95E1F79F838E83AA85BB85A45BBD4F93
:10092000B987A88750C0F101608071808280938070
:10093000412E5524EE81FF81E40DF51DDF01AC5DF4
:10094000BD4F2C912170CF01805A9D4F9B838A838C
:100950007F0104E0EE0CFF1C0A95E1F7B0E7CB2E17
:10096000B2E0DB2ECE0EDF1EA0E8AA2EA3E0BA2E48
:10097000AE0CBF1C8981E05BFD4F6081A885B98505
:100980004C91EA81FB810081A0E8B2E0EA0EFB1EF7
:10099000F601C0800E94CE0B90E081709070012E15
:1009A00002C0880F991F0A94E2F7AA2797FDA09525
:1009B000BA2F86299729A829B929F1018083918323
:1009C000A283B3831F5FAC81BD818C91181708F49B
:1009D000AACF2AC08A850E949B1807C08A850E94D8
:1009E0004E180CC08A850E940C18F1016083718337
:1009F0008283938319C08A850E946C17D1016D93FD
:100A00007D938D939C9313970FC082E090E0A0E0BC
:100A1000B0E005C089810E941D0CA0E0B0E0F101AA
:100A200080839183A283B3838A859B8501969B876C
:100A30008A87A4E0B0E02A0E3B1E029709F0F6CEAA
:100A40002B960FB6F894DEBF0FBECDBFCF91DF91CE
:100A50001F910F91FF90EF90DF90CF90BF90AF90DC
:100A60009F908F907F906F905F904F903F902F90CE
:100A70000895EF92FF920F931F93CF93DF930E94FD
:100A8000371B40E5E42E42E0F42E0CE412E0C0E017
:100A9000D0E08C2FFE01EE5DFD4F6081693209F4DC
:100AA00046C06A32E8F4643289F1653278F4613222
:100AB00031F1623220F4603209F054C01DC062325C
:100AC00009F452C0633209F04DC01DC0663231F1E5
:100AD0006632F8F0673229F1683209F043C024C069
:100AE0006334E1F1643418F46A3281F523C064346C
:100AF000A9F16534B9F52EC08C2F60E033C08C2F7E
:100B00000E94260D31C08C2F64E02CC08C2F6DE02C
:100B100002C08C2F6EE00E94541126C08C2F6FE013
:100B2000FACF8C2F60E1F7CF8C2F61E1F4CF8C2FBF
:100B300060E002C08C2F64E00E94C00C8C2FF70193
:100B40006081F80140810E94F5080EC08C2F0E9440
:100B5000D2190AC08C2F60E00E94C00C8C2F0E941A
:100B60005A1702C00E94C00C219688E090E0E80E5F
:100B7000F91E0F5F1F4FC230D10509F08ACFDF91F8
:100B8000CF911F910F91FF90EF9008956F927F92F8
:100B90008F929F92AF92BF92CF92DF92EF92FF928D
:100BA0000F931F93CF93DF931092850410928404C8
:100BB000C4E4D2E081E060E041E00E944B016115B5
:100BC00071058105910569F181E060E045E00E94D1
:100BD0004B01462F4F5F81E060E00E944B019B017B
:100BE000AC01288339834A835B8360FF0BC088276D
:100BF0009927DC01821B930BA40BB50B8883998387
:100C0000AA83BB83688179818A819B8122E030E05D
:100C100040E050E00E94E820288339834A835B83C8
:100C200004C0188219821A821B82249682E0CC3476
:100C3000D80709F0BFCFE0904402F0904502009140
:100C4000460210914702E114F1040105110561F417
:100C50008091480290914902A0914A02B0914B02C2
:100C60000097A105B10561F0209148023091490239
:100C700040914A0250914B02C801B7010E94C9122B
:100C800081E060E04AE00E944B019B01AC0180E002
:100C9000B9010E94991381E060E04AE00E944B0193
:100CA0009B01AC0181E0B9010E949913CC24DD24A1
:100CB000F601EE5DFD4F80818952823008F048C018
:100CC000EE247EE4672E72E0772E6C0C7D1C4601CC
:100CD00063E0880C991C6A95E1F736C0E401CE0DFB
:100CE000D11DFE01EC5DFD4F808181FD2CC081E0B6
:100CF00060E044E00E944B018E01005A1D4FF80154
:100D0000608381E060E044E00E944B01FE01E05915
:100D1000FD4F6083FF2458018E0154E0000F111F26
:100D20005A95E1F70CC081E060E048E00E944B0179
:100D3000F801EF0DF11DE058FD4F6083F394F501CC
:100D40008081F81680F3E394F3018081E81630F295
:100D50000894C11CD11CF2E0CF16D10409F0A8CF31
:100D6000DF91CF911F910F91FF90EF90DF90CF9087
:100D7000BF90AF909F908F907F906F900895EF926B
:100D8000FF920F931F9381EA91E062EA71E041E0E4
:100D900050E00E94D1078093A0018823B1F40E9403
:100DA000941B6093800470938104809382049093D9
:100DB00083041091A201143021F485B1807C85B99F
:100DC00089C0113009F086C017C0813009F082C097
:100DD0000E94941B6093800470938104809382042A
:100DE000909383041091A201143021F485B1807C8A
:100DF00085B96BC0113011F58091A101823009F0E5
:100E000069C080E060E00E94C00C80E00E941D0C80
:100E10008A3F910580F49091A301892F81508E3FE4
:100E200050F4892F0E94E0081093A20181E062EA49
:100E300071E00E949E080E9439054CC0123029F4CE
:100E40000E94B7010E9439053EC0133089F40E9408
:100E5000C6050E94F60384E392E068E372E00E9414
:100E6000AE120E945A021093A2018091A1012EC0DD
:100E7000153081F52091A60130E040E050E0542F7C
:100E8000432F322F22278091A501280F311D411DAC
:100E9000511DA901332722279091A40180E0609180
:100EA000A301860F911DAA2797FDA095BA2F280FA1
:100EB000391F4A1F5B1F20932B0130932C01409355
:100EC0002D0150932E011093A20181E062EA71E09E
:100ED0000E949E0880912B0190912C01A0912D01E0
:100EE000B0912E010097A105B105F1F00E94941B6D
:100EF00020912B0130912C0140912D0150912E0118
:100F0000E0908004F09081040091820410918304A9
:100F10002E0D3F1D401F511F261737074807590741
:100F200018F485B1807C85B980912202843219F44D
:100F300080E00E94041180912302843219F481E040
:100F40000E9404111F910F91FF90EF90089560E2AD
:100F500071EA87E090E00E94D7080E9496120E94F2
:100F6000EB0C0895F999FECF72BD61BDF89A80B57A
:100F70000895F999FECF1FBA72BD61BD40BD0FB68D
:100F8000F894FA9AF99A0FBE089504C086EC97E097
:100F90000E94971E86EC97E00E94661E892BB1F78F
:100FA00008956F927F928F929F92AF92BF92CF924D
:100FB000DF92EF92FF920F931F93CF93DF934C0139
:100FC0003B01EA010E94941B5B016C017E0100273A
:100FD000F7FC0095102F0FC0209769F00E94941B1A
:100FE0006A197B098C099D096E157F058007910799
:100FF00010F08EEF94C086EC97E00E94661E892B5D
:1010000059F3FF2409C086EC97E00E94661EF82E73
:1010100082E390E00E94FB1B0F2D10E086EC97E02E
:101020000E94661E0817190774F382E08F1520F0DE
:101030000E94C5078CEF73C0C0E0D0E086EC97E05B
:101040000E94971EFE01E957FB4F80832196CF1522
:10105000A8F360918704E090880490918904F401DA
:10106000908380910705681721F0662311F08DEFBA
:1010700056C0292F30E0035010402017310711F0DF
:101080008AEF4DC0260F311DEAE8F4E08DEFF80E2F
:101090004F2D50E04E0F5F1F03C08191280F311D6F
:1010A000E417F507D1F73070309309052093080550
:1010B0008E2D90E08217930711F490E029C086EC02
:1010C00097E060E071E00E947D2086EC97E06E2D55
:1010D0004AE050E00E946B2086EC97E064E171E00A
:1010E0000E947D20609108057091090586EC97E0CB
:1010F0004AE050E00E944E208BEF11C0E92FF0E053
:10110000D301AE0FBF1FE957FB4F83818C939F5FC5
:10111000F4018081981790F3862F611181E0DF91AF
:10112000CF911F910F91FF90EF90DF90CF90BF90E4
:10113000AF909F908F907F906F900895CF93DF93A3
:10114000482FA82FB0E0C9E8D4E0FB0104C081918A
:10115000A80FB11D89938E2F861B8417C0F3CD0174
:1011600090709093090580930805809387044093BD
:1011700088044E5F86EC97E067E874E050E00E94D8
:10118000751FDF91CF91089586E894E060E070E0EC
:101190000E94B207982F81508E3F20F4909307054C
:1011A00081E008958EEF8093070580E00895AB01FC
:1011B000BC0186EC97E00E94DF1D0E94C4080895E0
:1011C0001F93182F86E894E060E070E00E94B20759
:1011D000811739F086E894E060E070E0412F0E94CA
:1011E000B907109307051F910895823010F081E030
:1011F000089540930B0580930A0560930E0588239C
:1012000041F487B18A7F87B988B18A7F88B980E045
:10121000089587B1857F87B988B1857F88B980E0D7
:10122000089527B181E090E000900A0502C0880F80
:10123000991F0A94E2F7282B27B980910B05882380
:1012400019F090E00E94FB1B0895CF93DF9327B124
:1012500081E090E000900A0502C0880F991F0A946F
:10126000E2F78095822387B9C0E0D0E086B190E0B4
:1012700000900A0502C0959587950A94E2F780FFD1
:1012800002C080E00AC081E090E00E94FB1B219632
:1012900087E0C830D80751F781E0DF91CF910895FA
:1012A000CF93DF9327B184E090E000900A0502C05D
:1012B000880F991F0A94E2F78095822387B9C0E0CE
:1012C000D0E026B130E080910A0590E0029602C09D
:1012D000359527958A95E2F720FF02C080E00AC085
:1012E00081E090E00E94FB1B219687E0C830D80780
:1012F00041F781E0DF91CF910895EF92FF920F9334
:101300001F93CF93DF93EC01062F188227B1309102
:101310000A0584E090E0032E02C0880F991F0A940A
:10132000E2F7282B27B927B181E090E002C0880FAF
:10133000991F3A95E2F78095822387B918E084E0F7
:10134000E82EF12C87B1970100900A0502C0220F08
:10135000331F0A94E2F7822B87B98881880F88832C
:1013600080910B05882319F090E00E94FB1B0E94DE
:101370005009882309F05AC086B190E000900A0510
:1013800002C0959587950A94E2F781702881282BF1
:10139000288380910B05882319F090E00E94FB1BA5
:1013A000115081F627B130910A0584E090E0032EB8
:1013B00002C0880F991F0A94E2F7282B27B900234F
:1013C00051F027B181E090E002C0880F991F3A9553
:1013D000E2F7282B27B980910B05882319F090E0BC
:1013E0000E94FB1B0E945009882301F580910B0588
:1013F000882319F090E00E94FB1B27B130910A0569
:1014000084E090E0032E02C0880F991F0A94E2F74F
:10141000282B27B927B181E090E002C0880F991FDF
:101420003A95E2F7282B27B980E001C082E0DF91EE
:10143000CF911F910F91FF90EF900895EF92FF923F
:101440000F931F93CF93DF93082F18E094E0E92EBA
:10145000F12CC1E0D0E027B130910A05C701032E7D
:1014600002C0880F991F0A94E2F7282B27B907FFBB
:101470000BC027B1CE0102C0880F991F3A95E2F741
:101480008095822387B909C027B1CE0102C0880F99
:10149000991F3A95E2F7282B27B980910B058823ED
:1014A00019F090E00E94FB1B0E945009882309F06C
:1014B00059C080910B05882319F090E00E94FB1B16
:1014C000115011F0000FC7CF27B130910A0584E009
:1014D00090E0032E02C0880F991F0A94E2F7282B90
:1014E00027B927B181E090E002C0880F991F3A9593
:1014F000E2F78095822387B980910B05882319F044
:1015000090E00E94FB1B0E945009882359F506B108
:1015100010910A0580910B05882319F090E00E9434
:10152000FB1B802F90E002C0959587951A95E2F7F6
:10153000482F417027B130910A0584E090E0032ED6
:1015400002C0880F991F0A94E2F7282B27B927B108
:1015500081E090E002C0880F991F3A95E2F7282BAE
:1015600027B901C042E0842FDF91CF911F910F91E5
:10157000FF90EF90089580910B05882319F090E07B
:101580000E94FB1B0E945009882341F00E942509FC
:10159000882311F482E0089586E0089580910B0578
:1015A000882319F090E00E94FB1B0E9425098823E4
:1015B00011F084E0089580910B05882321F090E0DC
:1015C0000E94FB1B80E008958F929F92AF92BF9282
:1015D000CF92DF92EF92FF920F931F93DF93CF93FF
:1015E0000F92CDB7DEB7982F962E872E815080317F
:1015F00010F008E06FC09F5F90930C05915090939E
:101600000D0580910E05816080930F0520E1C22EAB
:1016100025E0D22E7601892F90E08C0D9D1D03C010
:10162000D7011D927D01E816F906D1F70E94110934
:1016300080910F050E941E0A082F882331F410E0C4
:101640005E010894A11CB11C2EC00E94BB0A10921E
:101650000C0540C06150611BC5010E947D09082F27
:101660008230D0F027B130910A0584E090E0032E5B
:1016700002C0880F991F0A94E2F78095822387B9E8
:1016800027B181E090E002C0880F991F3A95E2F7F8
:101690008095822387B91EC0E12FF0E0E15FFA4F09
:1016A000898181831F5F60910D05161798F20E9452
:1016B000BB0A082F10920C0510920D05892D982D4C
:1016C0009C01F90104C0D6018D916D018193CE1466
:1016D000DF04C9F7802F0F90CF91DF911F910F91F9
:1016E000FF90EF90DF90CF90BF90AF909F908F9042
:1016F00008950F931F93482F8150803110F008E018
:1017000049C080910E058E7F80930F05A0E1B5E062
:10171000FB0102C081918D938E2F861B8417D0F31D
:101720004F5F40930C050E94110910E02AC0E12F81
:10173000F0E0E15FFA4F80810E941E0A082F8823A3
:10174000F9F0813019F40E94BB0A22C027B1309110
:101750000A0584E090E0032E02C0880F991F0A94C6
:10176000E2F78095822387B927B181E090E002C03B
:10177000880F991F3A95E2F78095822387B908C0B0
:101780001F5F80910C05181790F20E94BB0A082F6A
:1017900010920C05802F1F910F910895AF92BF9268
:1017A000CF92EF92FF920F931F93122F8230E0F5AA
:1017B00040930B0580930A0560930E05002331F0DA
:1017C000802FB7010E94790B882371F5CC2011F48A
:1017D00081E02BC01123F1F027B184E090E000906C
:1017E0000A0502C0880F991F0A94E2F7282B27B92F
:1017F00080910B05882319F090E00E94FB1B0E944A
:101800005009882389F480910B05882319F090E012
:101810000E94FB1B8C2DB5010E94E40A982F8111B8
:1018200091E081E0892701C080E01F910F91FF9036
:10183000EF90CF90BF90AF9008958A5F883018F0F6
:1018400020E030E016C0877080937C0080917A00A1
:10185000806480937A0080917A0086FDFCCF30917D
:10186000780020917900922F80E0232F30E0282B00
:10187000392BC9010895883018F020E030E016C0F7
:10188000877080937C0080917A00806480937A00D6
:1018900080917A0086FDFCCF30917800209179000C
:1018A000922F80E0232F30E0282B392BC901089597
:1018B000382F662361F027B184E090E0032E02C048
:1018C000880F991F0A94E2F7282B27B90CC027B17B
:1018D00084E090E0032E02C0880F991F0A94E2F77B
:1018E0008095822387B9442359F028B184E090E0A1
:1018F00002C0880F991F3A95E2F7282B28B908955E
:1019000028B184E090E002C0880F991F3A95E2F771
:101910008095822388B90895382F662361F027B116
:1019200081E090E0032E02C0880F991F0A94E2F72D
:10193000282B27B90CC027B181E090E0032E02C00C
:10194000880F991F0A94E2F78095822387B9442370
:1019500059F028B181E090E002C0880F991F3A95B4
:10196000E2F7282B28B9089528B181E090E002C061
:10197000880F991F3A95E2F78095822388B90895D8
:101980000F931F93082F162F823010F080E020C095
:101990006170412F48700E94580C612F6270412F76
:1019A0004071802F0E948C0C2AB180E490E002C02C
:1019B000880F991F0A95E2F7982F282B2AB912FF52
:1019C00003C08BB1982B03C08BB1909598239BB922
:1019D0001F910F910895EAE7F0E080818E7F808368
:1019E00080818D7F808380818B7F808380818460F4
:1019F000808380818160808380818068808380E0B3
:101A000060E00E94C00C81E060E00E94C00C08957C
:101A1000AF92BF92CF92EF92FF920F93EFE1F5E07A
:101A200092E490931F0562E047E021E001E07F012E
:101A3000CC24C3945F010E94CE0B80911F050F91AF
:101A4000FF90EF90CF90BF90AF9008951F93182F05
:101A500062E047E00E94F508882311F080E005C0AD
:101A6000812F64E00E94C00C81E01F9108956F9265
:101A70007F928F929F92AF92BF92CF92DF92EF921E
:101A8000FF920F931F93CF93DF9380913705E82E3A
:101A9000FF24E70193E0CC0FDD1F9A95E1F7FE01EB
:101AA000E85BFA4F868097809401442737FD409584
:101AB000542FFE01E45AFA4F80819181A281B381B3
:101AC000281739074A075B0724F482E0682E712C37
:101AD00010C066247724C85ADA4F88819981AA8178
:101AE000BB81281739074A075B071CF401E0602E09
:101AF000712CC70113E0880F991F1A95E1F7B8E41C
:101B0000AB2EB5E0BB2EA80EB91EE701CC0FDD1F32
:101B1000CE0DDF1DC60DD71DF4E0CC0FDD1FFA95ED
:101B2000E1F7C859DA4F8C01085C1A4FCC24DD2448
:101B3000F501608171818616970688F46819790924
:101B400080E090E0288139814A815B810E94802079
:101B5000BC0188279927F8017183608303C0F801CD
:101B6000118210820894C11CD11C42E050E0A40EE6
:101B7000B51E24960E5F1F4F53E0C516D104C1F663
:101B800088E4881691041CF420E030E003C094013E
:101B900027543040870153E0000F111F5A95E1F799
:101BA000085C1A4F84E690E0FC012E9FC0012F9F35
:101BB000900D3E9F900D11246CE170E00E94B320C7
:101BC000882777FD8095982FF701EE0FFF1FEE0D08
:101BD000FF1DE60DF71D34E0EE0FFF1F3A95E1F70C
:101BE000E859FA4F24853585468557850E9480201F
:101BF000BC0188279927F80177836683DF91CF910D
:101C00001F910F91FF90EF90DF90CF90BF90AF901A
:101C10009F908F907F906F900895CF93DF93E09186
:101C20003705F0E073E0EE0FFF1F7A95E1F7CF0183
:101C3000885C9A4FDC014D915C91DF01A45CBA4F46
:101C40000D90BC91A02DE65CFA4F0190F081E02D43
:101C5000EC016E817F81A417B5070CF049C0E41731
:101C6000F5070CF045C0413451050CF4EEC0683264
:101C7000710524F44E3651050CF4E7C0CD0195955D
:101C80008795959587959D01359527953595279548
:101C900035952795820F931F8A0F9B1F8E179F07DD
:101CA0003CF4CF01880F991F481759070CF4CFC097
:101CB000CF01880F991F9F01359527953595279559
:101CC000821B930B8417950714F485E0C7C0A634D4
:101CD000B1050CF4BAC0E634F1050CF4B6C06C38AA
:101CE00071050CF0B6C04C3851050CF4AEC0B1C053
:101CF000AE17BF07CCF5E832F1050CF4A6C06E3183
:101D0000710524F4E634F1050CF49FC0CD01880F71
:101D1000991F841795070CF49AC0CA019595879569
:101D200095958795840F951F8E179F070CF493C088
:101D3000CD0195958795959587958A0F9B1F8E1751
:101D40009F070CF488C0463451050CF47EC0A634BD
:101D5000B1050CF47AC06C3871050CF07AC0EC381F
:101D6000F1050CF472C075C0A033B1050CF46DC060
:101D70006931710524F4A535B1050CF466C020E382
:101D800030E0429FC001439F900D529F900D11245F
:101D9000689414F8959587951694E1F78A179B0730
:101DA00084F4E29FC001E39F900DF29F900D1124F7
:101DB00025E0959587952A95E1F78A179B070CF4FE
:101DC0004CC02AE330E0429FC001439F900D529FD8
:101DD000900D1124689414F8959587951694E1F761
:101DE0008A179B07D4F1E29FC001E39F900DF29FF9
:101DF000900D112425E0959587952A95E1F78A178E
:101E00009B075CF14C33510504F1EC33F105ECF028
:101E10006E3671051CF4A837B105BCF0CA0133E079
:101E2000959587953A95E1F7840F951F8A179B073B
:101E3000A4F0CF0123E0959587952A95E1F78E0FC1
:101E40009F1F8A179B072CF408C081E007C084E01D
:101E500005C086E003C083E001C082E0DF91CF913E
:101E600008950F931F9327B13091370504E010E0D8
:101E7000C801032E02C0880F991F0A94E2F7282B8D
:101E800027B928B1822B88B927B181E090E002C040
:101E9000880F991F3A95E2F7282B27B928B1822B92
:101EA00088B961E070E080E090E00E94A21B27B159
:101EB000C8010090370502C0880F991F0A94E2F705
:101EC000282B27B928B18095822388B961E070E07A
:101ED00080E090E00E94A21B27B1C8010090370566
:101EE00002C0880F991F0A94E2F7282B27B928B15E
:101EF000822B88B961E070E080E090E00E94A21B34
:101F000087B10090370502C0000F111F0A94E2F755
:101F1000802B87B988B10095082308B964E670E082
:101F200080E090E00E94A21B1F910F910895CF9234
:101F3000DF92EF92FF921F93CF93DF9310E0C0E008
:101F4000D0E0F4E0EF2EF12CE1E0CE2ED12C27B141
:101F5000C7010090370502C0880F991F0A94E2F765
:101F6000282B27B928B1822B88B988E090E00E94FD
:101F7000FB1B169527B130913705C601032E02C011
:101F8000880F991F0A94E2F78095822387B986B15A
:101F900090E0032E02C0959587950A94E2F780FDA4
:101FA000106887B1A70102C0440F551F3A95E2F7A8
:101FB0009A01842B87B988B12095282328B92196C6
:101FC000C830D10521F6812FDF91CF911F91FF906D
:101FD000EF90DF90CF900895AF92BF92CF92DF92B3
:101FE000EF92FF920F931F93CF93DF9327B181E07E
:101FF00090E00090370502C0880F991F0A94E2F71D
:102000008095822387B9AA24BB244DC00E94970FD4
:1020100020E030E02F5F3F4F28303105D9F790E0C6
:10202000A0E0B0E00C2E04C0880F991FAA1FBB1FB0
:102030000A94D2F7E82AF92A0A2B1B2B2896C032D9
:10204000D10521F78091370590E0FC01EE0FFF1FCD
:10205000E80FF91FEA0DFB1DEE0FFF1FEE0FFF1F2C
:10206000EC0DFD1DEE0FFF1FEE0FFF1FE859FA4F9D
:10207000E082F182028313830894C11CD11C84E0A6
:10208000C816D10431F0EE24FF248701C0E0D0E06F
:10209000BDCF0894A11CB11C83E0A816B10419F4AB
:1020A000CC24DD2437C0CC24DD24EDCF28960E943B
:1020B000970F20E030E02F5F3F4F28303105D9F7F0
:1020C00090E00C2E02C0880F991F0A94E2F7AA270D
:1020D00097FDA095BA2FE82AF92A0A2B1B2BC830A6
:1020E000D10521F7E0913705F0E0EE0FFF1FEC0D71
:1020F000FD1DEE0FFF1FEE0FFF1FE85AFA4FE082A3
:10210000F182028313830894C11CD11C82E0C8169B
:10211000D10431F0EE24FF248701C0E0D0E0C7CF26
:102120000E94970F0E94970F62E070E080E090E0BD
:102130000E94A21B81E0DF91CF911F910F91FF9030
:10214000EF90DF90CF90BF90AF900895CF92DF9245
:10215000EF92FF920F931F93CF93DF93582F00E0DE
:1021600010E064E0E62EF12C41E0C42ED12C47B102
:1021700020913705C701022E02C0880F991F0A94CB
:10218000E2F7482B47B948B1842B88B987B1B6012B
:1021900002C0660F771F2A95E2F79B01862B87B94D
:1021A000C52FD0E050FF03C088B1282B03C088B1F1
:1021B0002095282328B98EE190E00E94FB1B87B16F
:1021C00097010090370502C0220F331F0A94E2F7EF
:1021D000822B87B988B12095282328B98EE190E019
:1021E0000E94FB1B0F5F1F4F0830110521F0D59592
:1021F000C7955C2FBCCFDF91CF911F910F91FF90BE
:10220000EF90DF90CF9008950F931F93823008F0E6
:1022100048C08093370527B104E010E0A80102C050
:10222000440F551F8A95E2F7CA01242B27B928B11C
:10223000822B88B984E190E00E94FB1B27B1C80182
:102240000090370502C0880F991F0A94E2F7282BE7
:1022500027B928B18095822388B984E190E00E9453
:10226000FB1B27B1C8010090370502C0880F991FDA
:102270000A94E2F7282B27B928B1822B88B984E188
:1022800090E00E94FB1B87B10090370502C0000F51
:10229000111F0A94E2F7802B87B988B100950823B3
:1022A00008B91F910F9108951F93162F8230D8F40B
:1022B00080933705E82FF0E0EE0FFF1FE853FA4F49
:1022C000608311820E94310F812F0E94A61080E846
:1022D0009CE00E94FB1B0E94EC0F68E770E080E02E
:1022E00090E00E94A21B1F910895809137050E94E3
:1022F0003B0C22E330E0AC01429FC001439F900DB4
:10230000529F900D112461E270E00E949F20CB014A
:1023100008950F931F93CF93DF93823018F0A0E0BE
:10232000B0E0FEC08093370527B1C82FD0E081E030
:1023300090E00C2E02C0880F991F0A94E2F7809556
:10234000282327B928B1822388B9FE01EE0FFF1F89
:10235000E853FA4F008111810D30110509F0B7C023
:102360000E947511F3E0CC0FDD1FFA95E1F7C95D0E
:10237000DA4F9F838E8327B104E010E0C8010090FC
:10238000370502C0880F991F0A94E2F7282B27B956
:1023900028B1822B88B984E190E00E94FB1B8091D8
:1023A0003705C82FD0E00E947511E3E0CC0FDD1F88
:1023B000EA95E1F7C95DDA4F9983888327B1C801AF
:1023C0000090370502C0880F991F0A94E2F7282B66
:1023D00027B928B18095822388B984E190E00E94D2
:1023E000FB1B80913705C82FD0E00E94751173E068
:1023F000CC0FDD1F7A95E1F7C75DDA4F99838883AB
:1024000027B1C8010090370502C0880F991F0A94B0
:10241000E2F7282B27B928B1822B88B984E190E014
:102420000E94FB1B80913705C82FD0E00E947511D8
:1024300063E0CC0FDD1F6A95E1F7C55DDA4F998344
:10244000888387B1A0913705B0E00A2E02C0000F43
:10245000111F0A94E2F7802B87B988B100950823F1
:1024600008B9FD0153E0EE0FFF1F5A95E1F79F01F8
:10247000285B3A4FE95DFA4F86819781E9019F8396
:102480008E83808191819983888343E0AA0FBB1F4B
:102490004A95E1F7FD013296CF01895D9A4FEC0133
:1024A00088819981E85BFA4F918380831496FD01BE
:1024B000E95DFA4F80819181A85BBA4F8D939C931F
:1024C0000E94370D0E940D0EA82FB0E029C00E9477
:1024D0007511CC0FDD1FCC0FDD1FC00FD11FCC0F2E
:1024E000DD1FC55FDA4F99838883E0913705F0E0FF
:1024F000EE0FFF1FDF01A853BA4F8D919C910E97ED
:10250000EE0FFF1FE80FF91FEE0FFF1FDF01A95DA0
:10251000BA4F0D90BC91A02DE85BFA4FB183A08318
:10252000CD01DF91CF911F910F9108958AB1837CE6
:102530008AB98BB1837C8BB9EDE6F0E080818C6346
:102540008083E8E6F0E080818460808385B1807CD0
:10255000836085B984B18F6384B90895FC0180914B
:10256000CF059091D005A091D105B091D20580837F
:102570009183A283B3838091D3059091D405A091D8
:10258000D505B091D605FB0180839183A283B383E7
:102590000895EF92FF920F931F93E090CF05F09074
:1025A000D0050091D1051091D205E61AF70A080B63
:1025B000190BE092CF05F092D0050093D10510934E
:1025C000D2058091D3059091D405A091D505B09105
:1025D000D605821B930BA40BB50B8093D305909368
:1025E000D405A093D505B093D6051F910F91FF9008
:1025F000EF9008951F920F920FB60F9211242F9310
:102600003F934F935F936F937F938F939F93AF937A
:10261000BF93EF93FF9399B18091CC058927909355
:10262000CC058C73682F70E0CB0184719070892B7E
:10263000A9F13091CD0529B189B12695227090E09C
:10264000B4E095958795BA95E1F78170282B330F03
:10265000330F322B3F703093CD052091CF05309151
:10266000D0054091D1055091D205E091CD05F0E023
:10267000EE0FFF1FE05AFE4F80819181AA2797FD40
:10268000A095BA2F820F931FA41FB51F8093CF056B
:102690009093D005A093D105B093D2056872707065
:1026A000672BB1F13091CE0529B189B126952695D8
:1026B000227090E075E0959587957A95E1F78170A5
:1026C000282B330F330F322B3F703093CE052091E0
:1026D000D3053091D4054091D5055091D605E091B0
:1026E000CE05F0E0EE0FFF1FE05AFE4F8081918192
:1026F000AA2797FDA095BA2F820F931FA41FB51F7D
:102700008093D3059093D405A093D505B093D605B7
:10271000FF91EF91BF91AF919F918F917F916F91B9
:102720005F914F913F912F910F900FBE0F901F908F
:1027300018950F931F93CF93DF93EB01882371F5C7
:102740008B010170107060FF1AC0289A6C7F737043
:10275000C1FF0CC0769567957695679560957095E5
:1027600070708AE00E94621C2C9A0AC07695679568
:10277000769567958AE00E94621C2C9801C0289883
:10278000CC7FD370CD2B11F00023C1F58AE060E03F
:1027900070E00E94621C85B18B7E2FC0813071F584
:1027A0008B010170107060FF1AC0299A6C7F7370E2
:1027B000C1FF0CC076956795769567956095709585
:1027C00070708BE00E94621C2D9A0AC07695679506
:1027D000769567958BE00E94621C2D9801C0299820
:1027E000CC7FD370CD2B11F0002341F48BE060E05F
:1027F00070E00E94621C85B1877D85B9DF91CF9121
:102800001F910F9108950F931F93CF93DF93FC01B6
:10281000738D76957170A685B7859585772329F098
:102820008C91892309F454C004C08C91892309F048
:102830004FC08389948920E001972FEF8F3F920743
:10284000D9F7C589D689A685B785158560E031E0B9
:1028500040E050E000E0CE01202F01972FEF8F3FA6
:102860009207D9F78C91812311F0632B03C0832F3A
:1028700080956823330F4F5F5F4F4830510559F7FC
:102880008789908D20E001972FEF8F3F9207D9F72E
:10289000711160958091590620915A0690E0019639
:1028A0008F77907030E08217930779F0E0915906A6
:1028B000F0E0E752FA4F60838091590690E001966C
:1028C0008F7790708093590603C0838D8160838FCA
:1028D000DF91CF911F910F9108951F920F920FB624
:1028E0000F9211242F933F934F935F936F937F9396
:1028F0008F939F93AF93BF93EF93FF938091D705EF
:102900009091D805009711F00E940314FF91EF9168
:10291000BF91AF919F918F917F916F915F914F91F7
:102920003F912F910F900FBE0F901F9018951F92FF
:102930000F920FB60F9211242F933F934F935F93F3
:102940006F937F938F939F93AF93BF93EF93FF9377
:102950008091D7059091D805009711F00E9403143B
:10296000FF91EF91BF91AF919F918F917F916F9167
:102970005F914F913F912F910F900FBE0F901F903D
:102980001895CF92DF92EF92FF920F931F93CF9300
:10299000DF93EC017A018B011A8E198E188E1F8A33
:1029A0001E8A1D8A1C8A1B8A20E030E06901CC0C3B
:1029B000DD1CC20ED31EB601660F771F660F771F90
:1029C000AB0140555F4FFA0185919591A591B49166
:1029D0008E159F05A007B107E9F4FB01EC54FF4FEA
:1029E000859194919C8B8B8BFB01EA54FF4F8591D1
:1029F00094919E8B8D8BFB01E854FF4F85919491B0
:102A0000988F8F8BFB01E654FF4F859194919A8F9D
:102A1000898F06C02F5F3F4F2D30310509F0C6CF9B
:102A20008F89988D892B09F449C04C85463108F06F
:102A30003DC090916800483010F484E005C04E30ED
:102A400010F082E001C081E0892B8093680048305B
:102A500028F4EDE6F0E0ADE6B0E00BC04E3028F033
:102A6000ECE6F0E0ACE6B0E004C0EBE6F0E0ABE6AC
:102A7000B0E05081483040F481E090E002C0880F1F
:102A8000991F4A95E2F710C0242F30E04E3018F419
:102A90002850304002C02E50304081E090E002C00B
:102AA000880F991F2A95E2F7852B8C93898D9A8D33
:102AB00020E001972FEF8F3F9207D9F78091D7053C
:102AC0009091D8058C179D0781F08B8D8E7F8B8F11
:102AD0009FB7F894109259068091590680935A0630
:102AE000D093D805C093D7059FBFDF91CF911F9199
:102AF0000F91FF90EF90DF90CF900895FC014485F7
:102B0000463180F5483028F4EDE6F0E0ADE6B0E07F
:102B10000BC04E3028F4EBE6F0E0ABE6B0E004C0CA
:102B2000ECE6F0E0ACE6B0E05081483040F481E003
:102B300090E002C0880F991F4A95E2F710C0242F39
:102B400030E04E3018F42850304002C02E50304053
:102B500081E090E002C0880F991F2A95E2F78095E6
:102B600085238C930895FC0184E891E09183808310
:102B7000CF010E947E1508952091D7053091D80588
:102B80002817390731F490915A0680915906981701
:102B900019F42FEF3FEF0FC0E0915A06F0E0E75233
:102BA000FA4F208180915A0690E001968F779070BD
:102BB00080935A0630E0C90108952091D7053091DD
:102BC000D8052817390719F020E030E00EC08091B1
:102BD000590620915A0690E080589F4F821B910918
:102BE00060E870E00E94B3209C01C90108950F9332
:102BF0001F93DC0159968D919C915A97892B49F42A
:102C000081E090E013969C938E93129720E030E041
:102C100097C00FB7F8945B968C915B975196ED91A6
:102C2000FC91529750962C91509781FF8DC08081D6
:102C3000822B808359968D919C915A97059620E01E
:102C400001972FEF8F3F9207D9F75B968C915B9797
:102C500081FF35C031E040E050E070E010E0832FAC
:102C600090E0862397235196ED91FC9152975096D0
:102C70002C915097892B29F080812095282320833F
:102C800003C08081822B808359968D919C915A97A5
:102C9000212F01972FEF8F3F9207D9F7330F4F5F07
:102CA0005F4F48305105D9F65196ED91FC915297FE
:102CB000908150968C9150978095892333C031E054
:102CC00040E050E070E010E0832F90E086239723EF
:102CD0005196ED91FC91529750962C915097892BDB
:102CE00021F08081822B808304C08081209528235D
:102CF000208359968D919C915A97212F01972FEF00
:102D00008F3F9207D9F7330F4F5F5F4F4830510520
:102D1000D9F65196ED91FC915297808150969C91F5
:102D20005097892B80830FBF59968D919C915A970C
:102D300020E001972FEF8F3F9207D9F721E030E095
:102D4000C9011F910F910895808120952823208328
:102D500071CF2091D7053091D8052817390749F44C
:102D60009FB7F894109259068091590680935A069D
:102D70009FBF08952091D7053091D80528173907AE
:102D800031F490915A0680915906981719F42FEF53
:102D90003FEF0AC0E0915A06F0E0E752FA4F808117
:102DA000282F332727FD3095C90108951F93CF930E
:102DB000DF93EC01162F862F60E00E94C21C8B8DE2
:102DC00081FD04C0812F61E00E94011D1C87212F1D
:102DD00030E0C90182589E4FFC0184918D872659AD
:102DE0003E4FF9016491E62FF0E0EE0FFF1FE05A2D
:102DF000FE4F859194919F878E87DF91CF911F9190
:102E00000895FF920F931F938C01F62E862F61E099
:102E10000E94C21C8F2D61E00E94011D8F2D90E049
:102E2000FC01E258FE4FE491D8015096EC93509784
:102E300086599E4FFC016491E62FF0E0EE0FFF1FD4
:102E4000EA5AFE4F8591949152969C938E93519796
:102E50001F910F91FF900895FF920F931F938C0184
:102E6000F62EFC011382128288EE93E0A0E0B0E01F
:102E700084839583A683B78384E891E091838083DC
:102E8000148A138A168A158A108E178A128E118E4A
:102E9000838D2170220F8C7F822B838FC801642F3A
:102EA0000E940117C8016F2D0E94D6161F910F9125
:102EB000FF9008951092AB061092AA061092AD06EC
:102EC0001092AC061092A7061092A6061092A906C0
:102ED0001092A80680E00895882369F586E0809323
:102EE0007C0080917A00806480937A0080917A00DF
:102EF00086FDFCCF8091780060917900E0E0F0E001
:102F0000362F20E090E0282B392B40E050E020596C
:102F100031404040504014F4E1E0F0E08091AA06D6
:102F20009091AB068E179F0709F43DC0F093AB0656
:102F3000E093AA0632C0813029F02FEF3FEF4FEF28
:102F40005FEF36C087E080937C0080917A008064D8
:102F500080937A0080917A0086FDFCCF8091780082
:102F600060917900E0E0F0E0362F20E090E0282B3F
:102F7000392B40E050E0205931404040504014F49B
:102F8000E1E0F0E08091A8069091A9068E179F07D6
:102F900051F0F093A906E093A8069C01442737FD61
:102FA0004095542F05C09F01442737FD4095542F6D
:102FB000B901CA0108958130910591F46F5F7F4F87
:102FC000E1F48BE596E06EE040E120E00E942C17F2
:102FD00087E796E06FE041E120E00E942C1708951A
:102FE000892B59F46F5F7F4F41F487E796E00E9489
:102FF000B3158BE596E00E94B315089580E090E04C
:103000006FEF7FEF0E94DB17089581E090E06FEF94
:103010007FEF0E94DB1708958823B1F48EE00E94B1
:10302000401C60E070E08D5F934014F061E070E060
:103030008091A6069091A7068617970739F170939D
:10304000A7066093A6061CC0813029F02FEF3FEF42
:103050004FEF5FEF20C08FE00E94401C60E070E007
:103060008D5F934014F061E070E08091A80690912C
:10307000A9068617970751F07093A9066093A806D2
:103080009C01442737FD4095542F05C09B014427E0
:1030900037FD4095542FB901CA010895EF92FF9270
:1030A0000F931F93CF93DF938823A9F4EE24FF247B
:1030B0008701C0E0D0E08EE00E94401CAA2797FD67
:1030C000A095BA2FE80EF91E0A1F1B1F2196C431C6
:1030D000D10589F71BC0813029F02FEF3FEF4FEF6B
:1030E0005FEF20C0EE24FF248701C0E0D0E08FE036
:1030F0000E94401CAA2797FDA095BA2FE80EF91E42
:103100000A1F1B1F2196C431D10589F7C801B701D9
:1031100024E130E040E050E00E94E820C901DA01FB
:103120009C01AD01B901CA01DF91CF911F910F91AF
:10313000FF90EF900895EF92FF920F931F93CF931C
:10314000DF93882309F085C08BE596E062E00E945A
:10315000F7158BE596E00E94DD15892B09F476C002
:103160008BE596E00E94BC15282F80939306807C07
:10317000803C09F06BC01092B1061092B20610921A
:10318000B3061092B406F22EF094EE244DC0CE2D6C
:10319000D0E08BE596E00E94BC15FE01EC56F94F9D
:1031A00080838091AF06882311F4A0E005C08BE5F1
:1031B00096E00E94BC15A82FFE01E456F94FA083AB
:1031C000CC56D94FE8812091B1063091B20640919A
:1031D000B3065091B4068091AF06882319F468E0D5
:1031E00070E002C060E170E0FE26FA2604C0220F03
:1031F000331F441F551F6A95D2F71A2F00E08E2FF8
:1032000090E0802B912BAA2797FDA095BA2F282B11
:10321000392B4A2B5B2B2093B1063093B206409397
:10322000B3065093B406E3948091A406E81608F41C
:10323000AECF8BE596E00E94BC152F2D30E08217B3
:10324000930709F48BC08BE596E093C08BE596E07D
:1032500099C0813029F02AEF3FEF4FEF5FEF99C01F
:1032600087E796E062E00E94F71587E796E00E9404
:10327000DD15892B09F484C087E796E00E94BC1510
:10328000282F80939306807C803C09F079C01092AF
:10329000B1061092B2061092B3061092B406F22E46
:1032A000F094EE244DC0CE2DD0E087E796E00E944A
:1032B000BC15FE01EC56F94F80838091B00688233F
:1032C00011F4A0E005C087E796E00E94BC15A82F86
:1032D000FE01E456F94FA083CC56D94FE8812091E6
:1032E000B1063091B2064091B3065091B406809178
:1032F000B006882319F468E070E002C060E170E075
:10330000FE26FA2604C0220F331F441F551F6A955C
:10331000D2F71A2F00E08E2F90E0802B912BAA2756
:1033200097FDA095BA2F282B392B4A2B5B2B209386
:10333000B1063093B2064093B3065093B406E394BB
:103340008091A506E81608F4AECF87E796E00E94C4
:10335000BC152F2D30E08217930749F42091B10658
:103360003091B2064091B3065091B40612C087E77F
:1033700096E00E94A9162EEF3FEF4FEF5FEF09C0D6
:1033800087E796E062E00E94F7152CEF3FEF4FEFE2
:103390005FEFB901CA01DF91CF911F910F91FF90AB
:1033A000EF9008950F931F93882309F0ADC03A9AC8
:1033B0003898623318F4162F1B5210C0683318F473
:1033C000162F12530BC06D3318F4162F185306C066
:1033D000633410F010E002C0162F1D53E62FF0E00A
:1033E000BB97DF01A15DBE4F8C918093AF06E95B77
:1033F000FE4F80818093A4068BE596E040E659E07D
:1034000060E070E00E94C1148BE596E064E00E94E9
:10341000F7151092AE0601E057C08BE596E00E94CA
:10342000DD15892B09F450C08BE596E00E94BC1590
:10343000049709F049C061E070E080E090E00E94EC
:10344000A21B8BE596E064E00E94F71561E070E056
:1034500080E090E00E94A21B8BE596E064E00E9471
:10346000F7158BE596E00E947E158BE596E00E94AD
:10347000A9168BE596E040E051EE60E070E00E9416
:10348000C1146AE070E080E090E00E94A21B8BE52E
:1034900096E00E94BC15807C9070803C910541F4C0
:1034A0008BE596E062E00E94F7150093AE060CC033
:1034B0008BE596E00E947E158BE596E040E659E0AC
:1034C00060E070E00E94C1148091AE06882309F488
:1034D000A4CF8BE596E062E00E94F715112389F0F6
:1034E0008BE596E063E40E94F7158BE596E0612F8B
:1034F0000E94F7158CEB18278BE596E0612F0E9450
:10350000F7158BE596E0ACC03B9A3998623318F416
:10351000162F1B5210C0683318F4162F12530BC00D
:103520006D3318F4162F185306C0633410F010E0F2
:1035300002C0162F1D53E62FF0E0BB97DF01A15DFF
:10354000BE4F8C918093B006E95BFE4F80818093E3
:10355000A50687E796E040E659E060E070E00E944B
:10356000C11487E796E064E00E94F7151092AE065A
:1035700001E057C087E796E00E94DD15892B09F42A
:1035800050C087E796E00E94BC15049709F049C037
:1035900061E070E080E090E00E94A21B87E796E087
:1035A00064E00E94F71561E070E080E090E00E9426
:1035B000A21B87E796E064E00E94F71587E796E094
:1035C0000E947E1587E796E00E94A91687E796E09D
:1035D00040E051EE60E070E00E94C1146AE070E0EB
:1035E00080E090E00E94A21B87E796E00E94BC1555
:1035F000807C9070803C910541F487E796E062E022
:103600000E94F7150093AE060CC087E796E00E9473
:103610007E1587E796E040E659E060E070E00E94A2
:10362000C1148091AE06882309F4A4CF87E796E001
:1036300062E00E94F715112389F087E796E063E4C2
:103640000E94F71587E796E0612F0E94F7158CEB33
:10365000182787E796E0612F0E94F71587E796E025
:1036600062E00E94F71580E01F910F9108950F937B
:103670001F930BE516E0C8010E94A916C8010E941D
:103680007E1507E716E0C8010E94A916C8010E942E
:103690007E151F910F9108951F920F920FB60F92F2
:1036A00011242F933F938F939F93AF93BF93809158
:1036B000B9069091BA06A091BB06B091BC063091B4
:1036C000BD060196A11DB11D232F2D5F2D3720F0C2
:1036D0002D570196A11DB11D2093BD068093B906FB
:1036E0009093BA06A093BB06B093BC068091B50632
:1036F0009091B606A091B706B091B8060196A11DAB
:10370000B11D8093B5069093B606A093B706B0930B
:10371000B806BF91AF919F918F913F912F910F90DC
:103720000FBE0F901F9018958FB7F8942091B9068F
:103730003091BA064091BB065091BC068FBFB901CB
:10374000CA0108959B01AC017FB7F8948091B5063A
:103750009091B606A091B706B091B80666B5A89B41
:1037600005C06F3F19F00196A11DB11D7FBFBA2F93
:10377000A92F982F8827860F911DA11DB11D62E0EA
:10378000880F991FAA1FBB1F6A95D1F7BC012DC0D6
:10379000FFB7F8948091B5069091B606A091B70650
:1037A000B091B806E6B5A89B05C0EF3F19F00196A9
:1037B000A11DB11DFFBFBA2FA92F982F88278E0FEB
:1037C000911DA11DB11DE2E0880F991FAA1FBB1F0B
:1037D000EA95D1F7861B970B885E9340C8F221507B
:1037E00030404040504068517C4F21153105410523
:1037F000510571F60895019739F0880F991F880FC8
:10380000991F02970197F1F70895789484B5826023
:1038100084BD84B5816084BD85B5826085BD85B574
:10382000816085BDEEE6F0E0808181608083E1E823
:10383000F0E010828081826080838081816080835B
:10384000E0E8F0E0808181608083E1EBF0E080815E
:1038500084608083E0EBF0E0808181608083EAE730
:10386000F0E08081846080838081826080838081B9
:10387000816080838081806880831092C100089578
:10388000982F8E3008F09E50977080915F0182953E
:10389000880F880F807C892B80937C0080917A0030
:1038A000806480937A0080917A0086FDFCCF20911D
:1038B000780040917900942F80E030E0282B392B5C
:1038C000C90108951F93CF93DF93182FEB0161E097
:1038D0000E94C21C209709F44AC0CF3FD10509F4C9
:1038E00049C0E12FF0E0EE56FE4F84918330C1F0E5
:1038F000843028F4813051F08230B1F50CC086302C
:1039000019F1873049F1843079F514C084B58068A5
:1039100084BDC7BD33C084B5806284BDC8BD2EC020
:1039200080918000806880938000D0938900C0934C
:10393000880024C080918000806280938000D093B2
:103940008B00C0938A001AC08091B0008068809379
:10395000B000C093B30012C08091B0008062809329
:10396000B000C093B4000AC0C038D1051CF4812F48
:1039700060E002C0812F61E00E94011DDF91CF91C4
:103980001F910895CF93DF93482F50E0CA018258CA
:103990009E4FFC01349146595E4FFA018491882371
:1039A00069F190E0880F991FFC01E45BFE4FA5913F
:1039B000B491FC01EA5AFE4FC591D491662351F4AB
:1039C0002FB7F8948C91932F909589238C938881AD
:1039D00089230BC0623061F42FB7F8948C91932F38
:1039E000909589238C938881832B88832FBF06C071
:1039F0009FB7F8948C91832B8C939FBFDF91CF91CD
:103A00000895482F50E0CA018E569E4FFC01249124
:103A1000CA0182589E4FFC01949146595E4FFA01AB
:103A20003491332309F440C0222351F1233071F043
:103A3000243028F42130A1F0223011F514C02630B2
:103A4000B1F02730C1F02430D9F404C08091800057
:103A50008F7703C0809180008F7D8093800010C09D
:103A600084B58F7702C084B58F7D84BD09C08091F5
:103A7000B0008F7703C08091B0008F7D8093B0003D
:103A8000E32FF0E0EE0FFF1FEA5AFE4FA591B4912D
:103A90002FB7F894662321F48C919095892302C066
:103AA0008C91892B8C932FBF089508951F920F92AC
:103AB0000FB60F9211242F933F934F938F939F93A1
:103AC000EF93FF938091C00082FD1DC04091C6001E
:103AD00020913E0730913F072F5F3F4F2F77307087
:103AE00080914007909141072817390771F0E091C4
:103AF0003E07F0913F07E254F94F408330933F0770
:103B000020933E0702C08091C600FF91EF919F91E4
:103B10008F914F913F912F910F900FBE0F901F905B
:103B20001895E091D207F091D307E058FF4F8191AB
:103B3000919120813181821B930B8F779070892B1B
:103B400011F00E94551D08951F920F920FB60F920B
:103B500011242F933F938F939F93EF93FF93209183
:103B6000C2073091C3078091C4079091C5072817F9
:103B7000390731F48091C1008F7D8093C10014C05A
:103B8000E091C407F091C507EE5BF84F208180916A
:103B9000C4079091C50701968F7790709093C507E1
:103BA0008093C4072093C600FF91EF919F918F915E
:103BB0003F912F910F900FBE0F901F901895AF92CD
:103BC000BF92DF92EF92FF920F931F93CF93DF93F9
:103BD000EC017A018B01DD24403081EE580780E052
:103BE000680780E0780711F0DD24D39491E0A92ED6
:103BF000B12CEC89FD89DD2069F0C50108A002C067
:103C0000880F991F0A94E2F7808360E079E08DE3E2
:103C100090E005C0108260E874E88EE190E0A801B1
:103C200097010E94C6202150304040405040569598
:103C300047953795279580E12030380720F0DD2023
:103C400011F0DD24D6CFE889F9893083EA89FB8930
:103C5000208319A2EE89FF89408121E030E0C9016B
:103C60000C8C02C0880F991F0A94E2F7482B4083FE
:103C7000EE89FF894081C9010D8C02C0880F991F10
:103C80000A94E2F7482B4083EE89FF894081C901FD
:103C90000E8C02C0880F991F0A94E2F7482B4083CC
:103CA000EE89FF8980810F8C02C0220F331F0A9496
:103CB000E2F7209528232083DF91CF911F910F9168
:103CC000FF90EF90DF90BF90AF900895DC011C96BD
:103CD000ED91FC911D97E058FF4F2191319180812A
:103CE0009181281B390B2F773070C9010895DC01B1
:103CF0001C96ED91FC911D97E058FF4F208131817A
:103D0000E058F040DF01AE57BF4F8D919C91119765
:103D10002817390719F42FEF3FEF07C08D919C91B9
:103D2000E80FF91F8081282F30E0C9010895DC01D8
:103D30001C96ED91FC911D97E058FF4F2081318139
:103D4000E058F040DF01AE57BF4F8D919C91119725
:103D50002817390719F42FEF3FEF10C08D919C9170
:103D60001197E80FF91F20818D919C911197019671
:103D70008F77907011969C938E9330E0C9010895CF
:103D8000DC0191968C919197882339F05496ED91AE
:103D9000FC915597808186FFF9CF91961C920895EA
:103DA000CF93DF93EC01EE85FF85E058FF4F208134
:103DB0003181E058F0402F5F3F4F2F773070DF01A7
:103DC000AE57BF4F8D919C91119728173907D1F3AA
:103DD000E058FF4F80819181E058F040E80FF91FD3
:103DE0006083EE85FF85E058FF4F31832083EE89A5
:103DF000FF89208181E090E00F8C02C0880F991F1D
:103E00000A94E2F7282B208381E089A3EC89FD89BD
:103E100080818064808381E090E0DF91CF9108957C
:103E20001092C9071092C80788EE93E0A0E0B0E0B6
:103E30008093CA079093CB07A093CC07B093CD078C
:103E400084E991E09093C7078093C6078EEB96E0D4
:103E50009093D3078093D20782E497E09093D5079D
:103E60008093D40785EC90E09093D7078093D60792
:103E700084EC90E09093D9078093D80780EC90E091
:103E80009093DB078093DA0781EC90E09093DD0755
:103E90008093DC0782EC90E09093DF078093DE074D
:103EA00086EC90E09093E1078093E00784E08093B4
:103EB000E20783E08093E30787E08093E40785E0EF
:103EC0008093E50781E08093E6070895CF93DF9321
:103ED0000E94051C0E94A707C1E9DDE10E94BF0600
:103EE0002097E1F30E94911DF9CFCF92DF92EF92DC
:103EF000FF920F931F93CF93DF937C016B018A0195
:103F0000C0E0D0E00FC0D6016D916D01D701ED91F9
:103F1000FC910190F081E02DC7010995C80FD91FD0
:103F2000015010400115110571F7CE01DF91CF91BD
:103F30001F910F91FF90EF90DF90CF900895EF9237
:103F4000FF920F931F938C01DC01ED91FC91019086
:103F5000F081E02D6DE009957C01D801ED91FC9197
:103F60000190F081E02DC8016AE009959C012E0DB9
:103F70003F1DC9011F910F91FF90EF900895CF93BE
:103F8000DF93EC016115710519F420E030E00FC0FA
:103F9000DB010D900020E9F71197A61BB70BE88114
:103FA000F9810280F381E02DAD0109959C01C901E1
:103FB000DF91CF9108954F925F927F928F929F925F
:103FC000AF92BF92CF92DF92EF92FF920F931F9327
:103FD000DF93CF93CDB7DEB7A1970FB6F894DEBFCE
:103FE0000FBECDBF2C01742ECB01223008F42AE085
:103FF00019A231E2C32ED12CCC0EDD1E822E9924C3
:10400000AA24BB24672D752FA50194010E94C62008
:1040100079018A01C801B701A50194010E9480209D
:10402000472D461B0894C108D1084A3014F4405D5E
:1040300001C0495CF6014083E114F104010511055A
:1040400021F07E2C5F2DC801DDCFC201B6010E9498
:10405000BF1FA1960FB6F894DEBF0FBECDBFCF91A4
:10406000DF911F910F91FF90EF90DF90CF90BF9065
:10407000AF909F908F907F905F904F900895DC015C
:104080002115310541F4ED91FC910190F081E02D75
:10409000642F099508950E94DB1F0895CF92DF9247
:1040A000EF92FF920F931F936C017B019A0100E046
:1040B00010E0B801A7010E943F208C01C6010E94B8
:1040C0009F1F080F191FC8011F910F91FF90EF90BC
:1040D000DF90CF900895EF92FF920F931F939A0174
:1040E000E62EFF2400E010E0B801A7010E943F2067
:1040F0001F910F91FF90EF9008950E94BF1F0895A8
:10410000629FD001739FF001829FE00DF11D649FBB
:10411000E00DF11D929FF00D839FF00D749FF00D47
:10412000659FF00D9927729FB00DE11DF91F639FE8
:10413000B00DE11DF91FBD01CF0111240895AA1B87
:10414000BB1B51E107C0AA1FBB1FA617B70710F082
:10415000A61BB70B881F991F5A95A9F780959095B4
:10416000BC01CD01089597FB092E07260AD077FDE3
:1041700004D0E5DF06D000201AF4709561957F4FDA
:104180000895F6F7909581959F4F0895A1E21A2E14
:10419000AA1BBB1BFD010DC0AA1FBB1FEE1FFF1FEB
:1041A000A217B307E407F50720F0A21BB30BE40B3B
:1041B000F50B661F771F881F991F1A9469F7609582
:1041C0007095809590959B01AC01BD01CF0108953C
:1041D00097FB092E05260ED057FD04D0D7DF0AD055
:1041E000001C38F450954095309521953F4F4F4F26
:1041F0005F4F0895F6F790958095709561957F4F84
:104200008F4F9F4F0895EE0FFF1F0590F491E02D03
:10421000099411E0CAEAD1E004C0FE010E94052120
:104220002296CC3AD107C9F7F894FFCF436865636B
:104230006B73756D2072656365697665643A2000FD
:10424000202020436865636B73756D20636F6D700C
:10425000757465643A2000FA000000010100010154
:104260000101000000010101010101010100000044
:104270000100010101010101010101010102030429
:104280000101010204010804010402010000FFFF12
:1042900001000000010000000000FFFFFFFF000020
:1042A0000000010000000100FFFF0000000000000E
:1042B000F715751FDD15BC15BA16A916000000000C
:1042C000D01E751F661E971E771EC01EFFFFFFFFC4
:1042D000FFFFFFFFFFFFFFFFFFFFFFFFFFFFFFFFEE
:1042E000FFFFFFFFFFFFFFFFFFFFFFFFFFFFFFFFDE
:1042F000FFFFFFFFFFFFFFFFFFFFFFFFFFFFFFFFCE
:10430000FFFFFFFFFFFFFFFFFFFFFFFFFFFFFFFFBD
:107800000C94343C0C94513C0C94513C0C94513CE1
:107810000C94513C0C94513C0C94513C0C94513CB4
:107820000C94513C0C94513C0C94513C0C94513CA4
:107830000C94513C0C94513C0C94513C0C94513C94
:107840000C94513C0C94513C0C94513C0C94513C84
:107850000C94513C0C94513C0C94513C0C94513C74
:107860000C94513C0C94513C11241FBECFEFD8E036
:10787000DEBFCDBF11E0A0E0B1E0ECE9FFE702C060
:1078800005900D92A230B107D9F712E0A2E0B1E065
:1078900001C01D92AD30B107E1F70E942D3D0C945F
:1078A000CC3F0C94003C982F959595959595959582
:1078B000905D8F708A307CF0282F295A8091C0000B
:1078C00085FFFCCF9093C6008091C00085FFFCCF60
:1078D0002093C6000895282F205DF0CF982F809127
:1078E000C00085FFFCCF9093C6000895EF92FF92F1
:1078F0000F931F93EE24FF2487018091C00087FD22
:1079000017C00894E11CF11C011D111D81E4E8164B
:1079100082E4F8068FE0080780E0180770F3E09132
:107920000401F091050109958091C00087FFE9CF1E
:107930008091C6001F910F91FF90EF9008950E94D3
:10794000763C982F8091C00085FFFCCF9093C600B5
:1079500091362CF490330CF09053892F089597555D
:10796000892F08951F930E949F3C182F0E949F3CCF
:107970001295107F810F1F9108951F93182F882350
:1079800021F00E94763C1150E1F71F9108951F935A
:10799000182F0E94763C803249F0809103018F5F5E
:1079A000809303018530C1F01F9108958091C0003C
:1079B00085FFFCCF84E18093C6008091C00085FFE5
:1079C000FCCF1093C6008091C00085FFFCCF80E102
:1079D0008093C6001F910895E0910401F091050184
:1079E00009951F9108950E94763C803241F0809164
:1079F00003018F5F80930301853081F008958091AA
:107A0000C00085FFFCCF84E18093C6008091C00058
:107A100085FFFCCF80E18093C6000895E0910401CA
:107A2000F09105010995089540E951E08823A1F0FE
:107A30002D9A28EE33E0FA013197F1F721503040CA
:107A4000D1F72D9828EE33E0FA013197F1F7215064
:107A50003040D1F7815061F708953F924F925F9285
:107A60006F927F928F929F92AF92BF92CF92DF924E
:107A7000EF92FF920F931F93CF93DF93000080E16B
:107A80008093C4001092C50088E18093C10086E015
:107A90008093C2005098589A259A81E00E94143D24
:107AA00024E1F22E9EE1E92E85E9D82E0FE0C02ECA
:107AB00010E1B12EAA24A394B1E49B2EA6E58A2E50
:107AC000F2E57F2EE0E26E2E79E4572E63E5462E36
:107AD00050E5352E0E94763C8033B1F18133B9F107
:107AE000803409F46FC0813409F476C0823409F41B
:107AF00085C0853409F488C0803531F1823521F1A3
:107B0000813511F1853509F485C0863509F48DC0BC
:107B1000843609F496C0843709F403C1853709F423
:107B200072C1863709F466C0809103018F5F80932C
:107B30000301853079F6E0910401F0910501099582
:107B40000E94763C803351F60E94F33CC3CF0E94E2
:107B5000763C803249F78091C00085FFFCCFF092DF
:107B6000C6008091C00085FFFCCF9092C600809136
:107B7000C00085FFFCCF8092C6008091C00085FFC9
:107B8000FCCF7092C6008091C00085FFFCCF609250
:107B9000C6008091C00085FFFCCF5092C600809146
:107BA000C00085FFFCCF4092C6008091C00085FFD9
:107BB000FCCF3092C6008091C00085FFFCCFB09210
:107BC000C60088CF0E94763C863808F4BDCF0E945C
:107BD000763C0E94F33C7ECF0E94763C803809F4CC
:107BE0009CC0813809F40BC1823809F43CC1883942
:107BF00009F48FC080E00E94C73C6CCF84E10E94F2
:107C0000BD3C0E94F33C66CF85E00E94BD3C0E94D3
:107C1000F33C60CF0E94763C809306010E94763C44
:107C2000809307010E94F33C55CF0E94763C80333D
:107C300009F41DC183E00E94BD3C80E00E94C73C66
:107C400049CF0E94763C809309020E94763C809343
:107C5000080280910C028E7F80930C020E94763C79
:107C6000853409F415C18091080290910902892B8D
:107C700089F000E010E00E94763CF801E85FFE4FDA
:107C800080830F5F1F4F80910802909109020817AF
:107C9000190788F30E94763C803209F045CF809125
:107CA0000C0280FF01C16091060170910701660F0F
:107CB000771F7093070160930601A0910802B091AD
:107CC00009021097C9F0E8E0F1E09B01AD014E0F09
:107CD0005F1FF999FECF32BD21BD819180BDFA9A17
:107CE000F99A2F5F3F4FE417F50799F76A0F7B1F4B
:107CF00070930701609306018091C00085FFFCCF5F
:107D0000F092C6008091C00085FFFCCFB092C60003
:107D1000E1CE83E00E94C73CDDCE82E00E94C73CFA
:107D2000D9CE0E94763C809309020E94763C8093D3
:107D300008028091060190910701880F991F909386
:107D40000701809306010E94763C853409F4A6C0A1
:107D500080910C028E7F80930C020E94763C8032D0
:107D600009F0B8CE8091C00085FFFCCFF092C6002C
:107D7000609108027091090261157105B9F140E046
:107D800050E080910C02A82FA170B82FB27011C0E2
:107D9000BB2309F45CC0E0910601F0910701319624
:107DA000F0930701E09306014F5F5F4F46175707B7
:107DB000E8F4AA2369F3F999FECF209106013091E6
:107DC000070132BD21BDF89A90B58091C00085FFB2
:107DD000FCCF9093C6002F5F3F4F30930701209355
:107DE00006014F5F5F4F4617570718F38091C00099
:107DF00085FDE5CE8091C00085FFF8CFE0CE81E023
:107E00000E94C73C67CE0E94763C803209F08CCE3F
:107E10008091C00085FFFCCFF092C6008091C00029
:107E200085FFFCCFE092C6008091C00085FFFCCFAB
:107E3000D092C6008091C00085FFFCCFC092C600E2
:107E40008091C00085FFFCCFB092C60043CEE09188
:107E50000601F091070194918091C00085FFFCCF4D
:107E60009093C6009CCF80E10E94C73C33CE0E9415
:107E7000763C0E94763C182F0E94763C112309F430
:107E800083C0113009F484C08FE00E94C73C22CE29
:107E900080910C02816080930C02E5CE80910C02EF
:107EA000816080930C0259CF809107018823880F4D
:107EB000880B8A2180930B02809106019091070123
:107EC000880F991F90930701809306018091080203
:107ED00080FF09C080910802909109020196909359
:107EE000090280930802F894F999FECF1127E091D6
:107EF0000601F0910701C8E0D1E08091080290915D
:107F00000902103091F40091570001700130D9F34B
:107F100003E000935700E89500915700017001308D
:107F2000D9F301E100935700E89509901990009169
:107F3000570001700130D9F301E000935700E89534
:107F40001395103498F011270091570001700130FB
:107F5000D9F305E000935700E895009157000170B0
:107F60000130D9F301E100935700E895329602976A
:107F700009F0C7CF103011F00296E5CF112480919F
:107F8000C00085FFB9CEBCCE8EE10E94C73CA2CD19
:107F900085E90E94C73C9ECDF894FFCF8000FFFF8B
:107FA000FFFFFFFFFFFFFFFFFFFFFFFFFFFFFFFFE1
:107FB000FFFFFFFFFFFFFFFFFFFFFFFFFFFFFFFFD1
:107FC000FFFFFFFFFFFFFFFFFFFFFFFFFFFFFFFFC1
:107FD000FFFFFFFFFFFFFFFFFFFFFFFFFFFFFFFFB1
:107FE000FFFFFFFFFFFFFFFFFFFFFFFFFFFFFFFFA1
:107FF000FFFFFFFFFFFFFFFFFFFFFFFFFFFFFFFF91
:00000001FF
