:100000000C94D5000C94FD000C94FD000C94FA198E
:100010000C94241A0C9487180C94FD000C94FD0089
:100020000C94FD000C94FD000C94FD000C94FD005C
:100030000C94FD000C94FD000C94FD000C94FD004C
:100040000C94C91F0C94FD000C94B1210C94FF2159
:100050000C94FD000C94FD000C94FD000C94FD002C
:100060000C94FD000C94FD002B032F032F03B2030F
:100070003303B203B203B203B2035E035E03AA0307
:10008000AA03AA03AA03AA03AA03AA03AA03AA0308
:10009000AA03AE03AA03AA03AA03AA03AA03AE03F0
:1000A000AA03AA03AA03AE03AA03AA03AA0300C2CF
:1000B00001000100110011000C0000E100000A0025
:1000C00025002500210000960000190039003900A4
:1000D0003600127A00001F0046004600440080707F
:1000E000000022004D004D004A00004B0000360089
:1000F000750075007200403800004A009C009C00AA
:100100009900802500007200EC00EC00E900C012AC
:100110000000E900DA01DA01D70160090000D70127
:10012000B603B603B303B0040000B3036E076E0753
:100130006B07580200006E07DC0EDC0ED80E2C0197
:100140000000DC0EC11DC11DBE1D0000000024000A
:1001500027002A0000000000250028002B000000D6
:1001600000002300260029000404040404040404FD
:100170000202020202020303030303030102040852
:100180001020408001020408102001020408102001
:100190000000000700020100000304060000000048
:1001A00000000000111D6B230A1D11241FBECFEF9C
:1001B000D8E0DEBFCDBF11E0A0E0B1E0E2EEFAE4AE
:1001C00002C005900D92A03AB107D9F717E0A0EA56
:1001D000B1E001C01D92A033B107E1F711E0C8EA18
:1001E000D1E004C02297FE010E946025C43AD107E5
:1001F000C9F70E94C1230C9464250C940000AF92AF
:10020000BF92DF92EF92FF920F931F93CF93DF93F2
:10021000D42E78018901A0918404B09185045D01F8
:10022000A60EB11CB50130E0482F50E0C1E0D0E08F
:100230001FC0E0FE16C0FB0193E0F695E7959A9586
:10024000E1F7E40FF51FEE55FE4FCB01877090707C
:100250005E0102C0AA0CBB1C8A95E2F720812A2904
:10026000208316950795F794E7943F5F6F5F7F4F64
:100270003D15F8F2AD0DB11DB0938504A093840433
:10028000DF91CF911F910F91FF90EF90DF90BF9082
:10029000AF900895CF92DF92EF92FF920F931F934A
:1002A000CF93DF93E42EF42EC0918404D091850483
:1002B000DE011197A60FB11D242F332727FD30959E
:1002C000A20FB31F00E010E020E030E0C82EDD24D4
:1002D00029C0B901A801440F551F661F771FFD01F2
:1002E00023E0F695E7952A95E1F7EE55FE4FEC0DE4
:1002F000FD1D808190E09D012770307002C09595B2
:1003000087952A95E2F78C01222717FD2095322F39
:100310000170107020703070042B152B262B372B9A
:10032000FA941197FF20A9F6CE0DD11DD093850424
:10033000C0938404B801C901DF91CF911F910F913F
:10034000FF90EF90DF90CF90089520E06115710548
:100350008105910549F02F5F203229F09695879508
:1003600077956795F3CF2FE1822F08956F927F9253
:100370009F92AF92BF92CF92DF92EF92FF920F9334
:10038000CF93DF938091A301809322028091A401F7
:10039000809323021092850410928404FEE4AF2E11
:1003A000F2E0BF2ECC24DD24F601EE5DFD4F80810E
:1003B0008952823008F065C083E060E048E00E9426
:1003C0004A01F601E45BFD4F608383E060E043E0B7
:1003D0000E944A016F5FF501608399243601E3E0D2
:1003E000660C771CEA95E1F747C0C92DD0E083E0A1
:1003F00060E047E00E944A01C60DD71DFE01E05BA8
:10040000FD4F660F608383E060E042E00E944A0196
:10041000FE01EC5DFD4F608361FF2DC083E060E075
:1004200044E00E944A0170E6E72E72E0F72EEC0EDF
:10043000FD1EF701608383E060E044E00E944A0112
:10044000FE01E059FD4F608300E054E0CC0FDD1F5A
:100450005A95E1F70CC083E060E048E00E944A0151
:10046000FE01E00FF11DE058FD4F60830F5FF701C3
:100470008081081780F39394F5018081981608F421
:10048000B4CF0894C11CD11C0894A11CB11CF2E08B
:10049000CF16D10409F088CFDF91CF910F91FF9053
:1004A000EF90DF90CF90BF90AF909F907F906F9034
:1004B00008952F923F924F925F926F927F928F9208
:1004C0009F92AF92BF92CF92DF92EF92FF920F93E3
:1004D0001F93DF93CF93CDB7DEB72E970FB6F89467
:1004E000DEBF0FBECDBF80E0E82FF0E0EE55FE4F3F
:1004F00010828F5F8038C1F719821A821B821C829A
:100500001092850410928404E4E3AE2EE2E0BE2E45
:1005100075E0E72EF12CEC0EFD1E63E0C62ED12C0B
:10052000CC0EDD1E4E010894811C911C772473941F
:10053000D5012D913D914D915C91F701208331833F
:100540004283538357FF0DC0D4017C92882799279B
:10055000DC01821B930BA40BB50B80839183A283D8
:10056000B383D7016D917D918D919C910E94A501DE
:10057000F6018083882311F08F5F8083D6010D916F
:100580006D0110E020E030E081E060E045E00E9495
:10059000FF00E4E0F0E0AE0EBF1EEE0EFF1E08947A
:1005A000811C911CFCE3AF16F2E0BF0609F60D8139
:1005B0001E812F813885000F111F221F331F898153
:1005C00090E0A0E0B0E0082B192B2A2B3B2B0D83E9
:1005D0001E832F83388781E060E04B810E94FF00FB
:1005E0000A8110E020E030E089859A85AB85BC85E2
:1005F000880F991FAA1FBB1F082B192B2A2B3B2BD7
:1006000081E060E04C810E94FF002CE3422E22E05A
:10061000522E97E3892E95E0992E8EE4282E82E0C3
:10062000382E66247724F301EE5DFD4F808190E043
:10063000FC01B097E332F10508F094C0EC5CFF4F89
:10064000D2010D911D912D913C91EE0FFF1F059050
:10065000F491E02D099481E060E041E08BC081E0FD
:1006600060E048E087C081E060E043E00E94FF0076
:10067000F4010681178120E030E081E060E04AE08B
:100680000E94FF00D4010D911C9120E030E081E038
:1006900060E04AE00E94FF00F4010281138120E043
:1006A00030E081E060E04AE00E94FF00D40114964F
:1006B0000D911C91159720E030E059C081E060E079
:1006C000F10140810E94FF00EE24C30103E0880F86
:1006D000991F0A95E1F79E878D8737C02E2D30E050
:1006E000F20180819181A281B3810E2C04C0B59565
:1006F000A795979587950A94D2F780FF25C0FF2488
:100700008D859E85820F931F10E7A12E12E0B12EDA
:10071000A80EB91E6C01B4E0CC0CDD1CBA95E1F753
:100720000FC0F601EF0DF11DE058FC4F008110E005
:1007300020E030E081E060E048E00E94FF00F394B8
:10074000D5018C91F81668F3E394F1018081E816E5
:1007500028F212C081E060E040E10CC081E060E07E
:1007600040E208C0D2010D911D912D913C9181E094
:1007700060E04AE00E94FF000894611C711CE4E004
:10078000F0E04E0E5F1E88E090E0880E991E0894FF
:10079000211C311C92E06916710409F044CF80914C
:1007A0008404909185040796A3E096958795AA9571
:1007B000E1F78F5F8093A1012E960FB6F894DEBF0C
:1007C0000FBECDBFCF91DF911F910F91FF90EF90A2
:1007D000DF90CF90BF90AF909F908F907F906F9061
:1007E0005F904F903F902F9008952F923F924F929D
:1007F0005F926F927F928F929F92AF92BF92CF92B1
:10080000DF92EF92FF920F931F93DF93CF93CDB7B9
:10081000DEB72B970FB6F894DEBF0FBECDBF3CE31B
:10082000232E32E0332E1B861A862A852983EA85F9
:10083000FB85EE5DFD4FE081E93288F4E43208F09B
:1008400047C0E13221F1E23220F4E03209F0C1C0C8
:100850000CC0E23209F1E33209F0BBC022C0EB3236
:10086000D8F1E33408F0B5C0ABC08A850E94A4116A
:100870008059914028F481E090E0A0E0B0E0AEC063
:10088000D1011D921D921D921C921397ACC08A85B6
:100890000E948F1290E0A0C085E290E0A0E0B0E05E
:1008A0009DC08A8560E00E94471284E190E00E942A
:1008B00078208A850E94A411A0E0B0E0F101808335
:1008C0009183A283B3838A8564E00E9447128BC020
:1008D0008A850E94131780C0D1011D921D921D921E
:1008E0001C92139710E0EA85FB85E25BFD4FFD83C8
:1008F000EC838A859B8523E0880F991F2A95E1F771
:100900009F838E83AA85BB85A45BBD4FB987A887CB
:1009100050C0F1016080718082809380412E552407
:10092000EE81FF81E40DF51DDF01AC5DBD4F2C9123
:100930002170CF01805A9D4F9B838A837F0104E001
:10094000EE0CFF1C0A95E1F7B0E7CB2EB2E0DB2EF0
:10095000CE0EDF1EA0E8AA2EA3E0BA2EAE0CBF1C5E
:100960008981E05BFD4F6081A885B9854C91EA8162
:10097000FB810081A0E8B2E0EA0EFB1EF601C08018
:100980000E94211190E081709070012E02C0880FAA
:10099000991F0A94E2F7AA2797FDA095BA2F8629F6
:1009A0009729A829B929F10180839183A283B38370
:1009B0001F5FAC81BD818C91181708F4AACF13C0BA
:1009C0008A850E94181DF10160837183828393835D
:1009D0000AC089810E94A411A0E0B0E0F1018083E7
:1009E0009183A283B3838A859B8501969B878A879F
:1009F000A4E0B0E02A0E3B1E029709F016CF2B961A
:100A00000FB6F894DEBF0FBECDBFCF91DF911F911F
:100A10000F91FF90EF90DF90CF90BF90AF909F909D
:100A20008F907F906F905F904F903F902F900895A0
:100A3000EF92FF920F931F93CF93DF930E94B41F07
:100A400040E5E42E42E0F42E0CE412E0C0E0D0E0F9
:100A50008C2FFE01EE5DFD4F6081663281F16732C1
:100A600080F4623209F449C0633230F46032A9F094
:100A7000613209F040C014C06432C9F06532D0F46C
:100A800013C06A3241F16B3228F46832F1F06932F6
:100A9000F8F418C0633478F52AC08C2F60E02BC0BE
:100AA0008C2F0E94B01229C08C2F64E024C08C2FA0
:100AB0006DE002C08C2F6EE00E94DE161EC08C2FEF
:100AC0006FE0FACF8C2F60E1F7CF8C2F61E1F4CF8C
:100AD0008C2F60E002C08C2F64E00E9447128C2FA4
:100AE000F7016081F80140810E94F30806C08C2F55
:100AF0000E944F1E02C00E944712219688E090E09B
:100B0000E80EF91E0F5F1F4FC230D10509F0A0CFCC
:100B1000DF91CF911F910F91FF90EF9008956F9209
:100B20007F928F929F92AF92BF92CF92DF92EF927D
:100B3000FF920F931F93CF93DF931092850410922F
:100B40008404C4E4D2E081E060E041E00E944A0114
:100B5000611571058105910569F181E060E045E06D
:100B60000E944A01462F4F5F81E060E00E944A01E7
:100B70009B01AC01288339834A835B8360FF0BC0F0
:100B800088279927DC01821B930BA40BB50B888364
:100B90009983AA83BB83688179818A819B8122E0C2
:100BA00030E040E050E00E944325288339834A83A7
:100BB0005B8304C0188219821A821B82249682E009
:100BC000CC34D80709F0BFCFE0904402F090450242
:100BD0000091460210914702E114F104010511054C
:100BE00061F48091480290914902A0914A02B0912B
:100BF0004B020097A105B10561F0209148023091A8
:100C0000490240914A0250914B02C801B7010E942B
:100C1000561881E060E04AE00E944A019B01AC0165
:100C200080E0B9010E94261981E060E04AE00E945C
:100C30004A019B01AC0181E0B9010E942619CC2434
:100C4000DD24F601EE5DFD4F80818952823008F08F
:100C500048C0EE247EE4672E72E0772E6C0C7D1C7B
:100C6000460163E0880C991C6A95E1F736C0E401FF
:100C7000CE0DD11DFE01EC5DFD4F808181FD2CC0AC
:100C800081E060E044E00E944A018E01005A1D4F5D
:100C9000F801608381E060E044E00E944A01FE01C7
:100CA000E059FD4F6083FF2458018E0154E0000F8E
:100CB000111F5A95E1F70CC081E060E048E00E9406
:100CC0004A01F801EF0DF11DE058FD4F6083F394E8
:100CD000F5018081F81680F3E394F3018081E81632
:100CE00030F20894C11CD11CF2E0CF16D10409F0F7
:100CF000A8CFDF91CF911F910F91FF90EF90DF90E0
:100D0000CF90BF90AF909F908F907F906F900895FD
:100D1000EF92FF920F931F9381EA91E062EA71E0F4
:100D200041E050E00E9497078093A0018823A9F436
:100D30000E94112060938004709381048093820448
:100D4000909383041091A201143019F40E94371873
:100D500088C0113009F085C016C0813009F081C00B
:100D60000E94112060938004709381048093820418
:100D7000909383041091A201143019F40E94371843
:100D800069C0113011F58091A101823009F069C06C
:100D900080E060E00E94471280E00E94A4118A3F38
:100DA000910580F49091A301892F81508E3F50F4DA
:100DB000892F0E94A6081093A20181E062EA71E0E7
:100DC0000E9464080E9418054CC0123029F40E9449
:100DD000B6010E9418053EC0133089F40E948F05A9
:100DE0000E94F50384E392E068E372E00E943B18FE
:100DF0000E9459021093A2018091A1012EC01530CA
:100E000081F52091A60130E040E050E0542F432FBF
:100E1000322F22278091A501280F311D411D511D20
:100E2000A901332722279091A40180E06091A301BA
:100E3000860F911DAA2797FDA095BA2F280F391F5D
:100E40004A1F5B1F20932B0130932C0140932D01EF
:100E500050932E011093A20181E062EA71E00E949A
:100E6000640880912B0190912C01A0912D01B091EB
:100E70002E010097A105B105E9F00E9411202091F3
:100E80002B0130912C0140912D0150912E01E090C9
:100E90008004F090810400918204109183042E0D4F
:100EA0003F1D401F511F261737074807590710F4E9
:100EB0000E94371880912202843219F480E00E9447
:100EC0008E1680912302843219F481E00E948E16DE
:100ED0001F910F91FF90EF90089560E271EA87E013
:100EE00090E00E949D080E9420180E9472120895AE
:100EF000F999FECF72BD61BDF89A80B50895F99950
:100F0000FECF1FBA72BD61BD40BD0FB6F894FA9A0C
:100F1000F99A0FBE089504C08EE097E00E94F22275
:100F20008EE097E00E94C122892BB1F708956F925D
:100F30007F928F929F92AF92BF92CF92DF92EF9269
:100F4000FF920F931F93CF93DF934C013B01EA0174
:100F50000E9411205B016C017E010027F7FC0095C7
:100F6000102F0FC0209769F00E9411206A197B0989
:100F70008C099D096E157F058007910710F08EEF93
:100F800094C08EE097E00E94C122892B59F3FF2480
:100F900009C08EE097E00E94C122F82E82E390E023
:100FA0000E9478200F2D10E08EE097E00E94C12271
:100FB0000817190774F382E08F1520F00E948B0741
:100FC0008CEF73C0C0E0D0E08EE097E00E94F22288
:100FD000FE01E957FB4F80832196CF15A8F360915E
:100FE0008704E090880490918904F40190838091B3
:100FF0000705681721F0662311F08DEF56C0292FE1
:1010000030E0035010402017310711F08AEF4DC037
:10101000260F311DEAE8F4E08DEFF80E4F2D50E079
:101020004E0F5F1F03C08191280F311DE417F50794
:10103000D1F7307030930905209308058E2D90E08C
:101040008217930711F490E029C08EE097E060E0EA
:1010500071E00E94D8248EE097E06E2D4AE050E0C7
:101060000E94C6248EE097E064E171E00E94D824DB
:1010700060910805709109058EE097E04AE050E024
:101080000E94A9248BEF11C0E92FF0E0D301AE0F2D
:10109000BF1FE957FB4F83818C939F5FF4018081D1
:1010A000981790F3862F611181E0DF91CF911F9106
:1010B0000F91FF90EF90DF90CF90BF90AF909F90F7
:1010C0008F907F906F900895CF93DF93482FA82F34
:1010D000B0E0C9E8D4E0FB0104C08191A80FB11DC4
:1010E00089938E2F861B8417C0F3CD019070909347
:1010F00009058093080580938704409388044E5F18
:101100008EE097E067E874E050E00E94D023DF9122
:10111000CF91089586E894E060E070E00E9478073F
:10112000982F81508E3F20F49093070581E0089519
:101130008EEF8093070580E00895AB01BC018EE03F
:1011400097E00E943A220E948A0808951F93182F60
:1011500086E894E060E070E00E947807811739F03B
:1011600086E894E060E070E0412F0E947F071093D2
:1011700007051F910895582F823010F081E00895DF
:1011800040930C0580932D0584E090E0052E02C06D
:10119000880F991F0A94E2F780930A05809580933F
:1011A0000D05852F8E5F80932E0521E030E0F9013B
:1011B00002C0EE0FFF1F8A95E2F7E0931905052E96
:1011C00002C0220F331F0A94E2F720931705822FE3
:1011D000809580930B0550930E052093180560931E
:1011E0001C0580E008950E94BB08882311F081E06F
:1011F000089580912D05882341F487B18A7F87B9AE
:1012000088B18A7F88B980E0089587B1857F87B9E2
:1012100088B1857F88B980E0089560910C056623C8
:10122000A9F0262F30E02150304080E090E00BC044
:1012300000000000000000000000000000000000AE
:101240000000000001968217930790F387B19091F8
:101250000D05892387B980911905482F50E020EDAD
:1012600037E086B190E084239523892B69F4000050
:10127000000000000000000000000000000000006E
:101280002150304071F766C06623B9F42BC086B197
:1012900090E084239523892B11F082E008950000CB
:1012A000000000000000000000000000000000003E
:1012B0002150304061F786E00895262F30E021501C
:1012C000304080E090E00BC0000000000000000013
:1012D00000000000000000000000000001968217DE
:1012E000930790F387B190910B05892387B980917B
:1012F0001805482F50E020ED37E086B190E08423B8
:101300009523892B71F4000000000000000000000C
:1013100000000000000000002150304071F784E020
:1013200008956623A9F0262F30E02150304080E058
:1013300090E00BC000000000000000000000000072
:10134000000000000000000001968217930790F350
:1013500080E0089587B190910B05892387B980912A
:101360001805482F50E020ED37E091CF582F87B176
:10137000F0910A058F2B87B957FF05C087B190916F
:101380000B05892304C087B190911705892B87B974
:1013900040910C054423A9F0242F30E02150304027
:1013A00080E090E00BC000000000000000000000A2
:1013B0000000000000000000000001968217930763
:1013C00090F387B1E0910D058E2387B980911905BF
:1013D000682F70E020ED37E086B190E086239723F8
:1013E000892B69F4000000000000000000000000EC
:1013F0000000000000002150304071F7CCC24423AF
:10140000A9F0242F30E02150304080E090E00BC064
:1014100000000000000000000000000000000000CC
:101420000000000001968217930790F387B18F2B7D
:1014300087B956FF05C087B190910B05892304C079
:1014400087B190911705892B87B94423A9F0242FE0
:1014500030E02150304080E090E00BC00000000000
:10146000000000000000000000000000000000007C
:1014700001968217930790F387B18E2387B920EDE9
:1014800037E086B190E086239723892B69F400002A
:10149000000000000000000000000000000000004C
:1014A0002150304071F777C24423A9F0242F30E057
:1014B0002150304080E090E00BC0000000000000B0
:1014C0000000000000000000000000000000019685
:1014D0008217930790F387B18F2B87B955FF05C00B
:1014E00087B190910B05892304C087B190911705AE
:1014F000892B87B94423A9F0242F30E021503040B4
:1015000080E090E00BC00000000000000000000040
:101510000000000000000000000001968217930701
:1015200090F387B18E2387B920ED37E086B190E044
:1015300086239723892B69F4000000000000000037
:10154000000000000000000000002150304071F752
:1015500022C24423A9F0242F30E02150304080E003
:1015600090E00BC000000000000000000000000040
:10157000000000000000000001968217930790F31E
:1015800087B18F2B87B954FF05C087B190910B05A8
:10159000892304C087B190911705892B87B944230B
:1015A000A9F0242F30E02150304080E090E00BC0C3
:1015B000000000000000000000000000000000002B
:1015C0000000000001968217930790F387B18E23E5
:1015D00087B920ED37E086B190E086239723892BE9
:1015E00069F400000000000000000000000000009E
:1015F000000000002150304071F7CDC14423A9F014
:10160000242F30E02150304080E090E00BC00000FB
:1016100000000000000000000000000000000000CA
:10162000000001968217930790F387B18F2B87B93B
:1016300053FF05C087B190910B05892304C087B182
:1016400090911705892B87B94423A9F0242F30E006
:101650002150304080E090E00BC00000000000000E
:1016600000000000000000000000000000000196E3
:101670008217930790F387B18E2387B920ED37E067
:1016800086B190E086239723892B69F4000000003F
:1016900000000000000000000000000000002150D9
:1016A000304071F778C14423A9F0242F30E0215055
:1016B000304080E090E00BC000000000000000001F
:1016C00000000000000000000000000001968217EA
:1016D000930790F387B18F2B87B952FF05C087B16D
:1016E00090910B05892304C087B190911705892B30
:1016F00087B94423A9F0242F30E02150304080E006
:1017000090E00BC00000000000000000000000009E
:10171000000000000000000001968217930790F37C
:1017200087B18E2387B920ED37E086B190E086231C
:101730009723892B69F400000000000000000000DE
:1017400000000000000000002150304071F723C16C
:101750004423A9F0242F30E02150304080E090E075
:101760000BC00000000000000000000000000000AE
:1017700000000000000001968217930790F387B1E4
:101780008F2B87B951FF05C087B190910B05892335
:1017900004C087B190911705892B87B94423A9F01C
:1017A000242F30E02150304080E090E00BC000005A
:1017B0000000000000000000000000000000000029
:1017C000000001968217930790F387B18E2387B9A3
:1017D00020ED37E086B190E086239723892B69F4CA
:1017E00000000000000000000000000000000000F9
:1017F00000002150304071F7CEC04423A9F0242FBF
:1018000030E02150304080E090E00BC0000000004C
:1018100000000000000000000000000000000000C8
:1018200001968217930790F387B18F2B87B950FFEA
:1018300005C087B190910B05892304C087B19091B1
:101840001705892B87B94423A9F0242F30E02150B4
:10185000304080E090E00BC000000000000000007D
:101860000000000000000000000000000196821748
:10187000930790F387B18E2387B920ED37E086B1C7
:1018800090E086239723892B69F400000000000074
:101890000000000000000000000000002150304067
:1018A00071F779C04423A9F0242F30E02150304053
:1018B00080E090E00BC0000000000000000000008D
:1018C000000000000000000000000196821793074E
:1018D00090F387B18F2B87B987B190910B0589233E
:1018E00087B94423A9F0242F30E02150304080E014
:1018F00090E00BC0000000000000000000000000AD
:10190000000000000000000001968217930790F38A
:1019100087B18E2387B920ED37E086B190E086232A
:101920009723892B69F400000000000000000000EC
:1019300000000000000000002150304071F72BC073
:1019400086B160910E054423A9F050E0415050400B
:1019500020E030E00CC000000000000000000000AB
:10196000000000000000000000002F5F3F4F241720
:10197000350788F390E002C0959587956A95E2F760
:10198000282F217087B18F2B87B987B190911705C8
:10199000892B87B901C022E0822F0895FF920F930F
:1019A0001F93CF93DF93482F8150803110F008E0D0
:1019B00053C080911C058E7F80931D05AEE1B5E07C
:1019C000FB0102C081918D938E2F861B8417D0F36B
:1019D000F42EF394F0921A0587B190911705892B94
:1019E00087B980910C058823A9F0282F30E0215079
:1019F000304080E090E00BC00000000000000000DC
:101A000000000000000000000000000001968217A6
:101A1000930790F3CDE1D5E010E017C089910E94C3
:101A2000B609082F882381F0813019F40E940D092E
:101A300011C087B190910D05892387B987B1909125
:101A40000B05892387B906C01F5F1F1538F30E9455
:101A50000D09082F10921A05802FDF91CF911F9149
:101A60000F91FF900895DF92EF92FF920F931F93D3
:101A7000CF93DF93EC01D62E87B1A0910A058A2B74
:101A800087B987B190910B05892387B987B18A2BD4
:101A900087B940910C054423A9F0242F30E0215050
:101AA000304080E090E00BC000000000000000002B
:101AB00000000000000000000000000001968217F6
:101AC000930790F387B1B0910D058B2387B980916F
:101AD0001905E82FF0E020ED37E086B190E08E2385
:101AE0009F23892B69F40000000000000000000023
:101AF00000000000000000002150304071F7EFC2EC
:101B000086B170910E0590E0072E02C095958795DD
:101B10000A94E2F7EE24E394E822E0920F054423CE
:101B2000A9F0242F30E02150304080E090E00BC03D
:101B300000000000000000000000000000000000A5
:101B40000000000001968217930790F387B18A2B5B
:101B500087B94423A9F0242F30E02150304080E0A1
:101B600090E00BC00000000000000000000000003A
:101B7000000000000000000001968217930790F318
:101B800087B18B2387B920ED37E086B190E08E23B3
:101B90009F23892B69F40000000000000000000072
:101BA00000000000000000002150304071F797C293
:101BB00086B190E0072E02C0959587950A94E2F7CA
:101BC000FF24F394F822F09210054423A9F0242F67
:101BD00030E02150304080E090E00BC00000000079
:101BE00000000000000000000000000000000000F5
:101BF00001968217930790F387B18A2B87B9442304
:101C0000A9F0242F30E02150304080E090E00BC05C
:101C100000000000000000000000000000000000C4
:101C20000000000001968217930790F387B18B2381
:101C300087B920ED37E086B190E08E239F23892B72
:101C400069F4000000000000000000000000000037
:101C5000000000002150304071F741C286B190E091
:101C6000072E02C0959587950A94E2F7082F017018
:101C7000009311054423A9F0242F30E02150304077
:101C800080E090E00BC000000000000000000000B9
:101C9000000000000000000000000196821793077A
:101CA00090F387B18A2B87B94423A9F0242F30E021
:101CB0002150304080E090E00BC0000000000000A8
:101CC000000000000000000000000000000001967D
:101CD0008217930790F387B18B2387B920ED37E004
:101CE00086B190E08E239F23892B69F400000000C9
:101CF0000000000000000000000000000000215073
:101D0000304071F7ECC186B190E0072E02C0959586
:101D100087950A94E2F7182F117010931205442347
:101D2000A9F0242F30E02150304080E090E00BC03B
:101D300000000000000000000000000000000000A3
:101D40000000000001968217930790F387B18A2B59
:101D500087B94423A9F0242F30E02150304080E09F
:101D600090E00BC000000000000000000000000038
:101D7000000000000000000001968217930790F316
:101D800087B18B2387B920ED37E086B190E08E23B1
:101D90009F23892B69F40000000000000000000070
:101DA00000000000000000002150304071F797C192
:101DB00086B190E0072E02C0959587950A94E2F7C8
:101DC000682F6170609313054423A9F0242F30E03D
:101DD0002150304080E090E00BC000000000000087
:101DE000000000000000000000000000000001965C
:101DF0008217930790F387B18A2B87B94423A9F000
:101E0000242F30E02150304080E090E00BC00000F3
:101E100000000000000000000000000000000000C2
:101E2000000001968217930790F387B18B2387B93F
:101E300020ED37E086B190E08E239F23892B69F453
:101E40000000000000000000000000000000000092
:101E500000002150304071F742C186B190E0072E5A
:101E600002C0959587950A94E2F7582F51705093C8
:101E700014054423A9F0242F30E02150304080E0A5
:101E800090E00BC000000000000000000000000017
:101E9000000000000000000001968217930790F3F5
:101EA00087B18A2B87B94423A9F0242F30E0215031
:101EB000304080E090E00BC0000000000000000017
:101EC00000000000000000000000000001968217E2
:101ED000930790F387B18B2387B920ED37E086B164
:101EE00090E08E239F23892B69F4000000000000FE
:101EF0000000000000000000000000002150304001
:101F000071F7EDC086B190E0072E02C095958795D8
:101F10000A94E2F78170809315054423A9F0242FD9
:101F200030E02150304080E090E00BC00000000025
:101F300000000000000000000000000000000000A1
:101F400001968217930790F387B18A2B87B94423B0
:101F5000A9F0242F30E02150304080E090E00BC009
:101F60000000000000000000000000000000000071
:101F70000000000001968217930790F387B18B232E
:101F800087B920ED37E086B190E08E239F23892B1F
:101F900069F40000000000000000000000000000E4
:101FA000000000002150304071F799C086B190E0E8
:101FB00002C0959587957A95E2F7782F71707093A6
:101FC00016054423A9F0242F30E02150304080E052
:101FD00090E00BC0000000000000000000000000C6
:101FE000000000000000000001968217930790F3A4
:101FF00087B18A2B87B9DD2029F087B19091170529
:10200000892B87B94423A9F0242F30E02150304098
:1020100080E090E00BC00000000000000000000025
:1020200000000000000000000000019682179307E6
:1020300090F387B18B2387B980911505880F872B83
:10204000550F550F582B660F660F660F652B1295AF
:10205000107F162B0295000F007E012BF294FF0CCF
:10206000FF0C80ECF822F02AE794EE24E794EF28A6
:10207000E88220ED37E086B190E08E239F23892B04
:1020800069F40000000000000000000000000000F3
:10209000000000002150304071F721C04423A9F016
:1020A000242F30E02150304080E090E00BC0000051
:1020B0000000000000000000000000000000000020
:1020C000000001968217930790F387B18A2B87B996
:1020D00087B190911705892B87B980E001C082E014
:1020E000DF91CF911F910F91FF90EF90DF900895B6
:1020F0005F926F927F928F929F92AF92BF92CF9298
:10210000DF92EF92FF920F931F93DF93CF930F9283
:10211000CDB7DEB7F82E862E572E982E9A948FE0E4
:10212000891518F428E0E22E7AC0F394F0921A058B
:10213000FA94F0921B0580911C05816080931D0527
:102140009EE1A92E95E0B92EF501CF2CDD24CA0C15
:10215000DB1C01C01192EC15FD05E1F787B19091F0
:102160001705892B87B980910C058823A9F0282FA2
:1021700030E02150304080E090E00BC000000000D3
:10218000000000000000000000000000000000004F
:1021900001968217930790F380911D050E94B6095E
:1021A000E82E882339F400E010E03E010894611C19
:1021B000711C20C00E940D0910921A0530C0C30185
:1021C000692D0E94330DE82E0F5F1F4F9A9491E006
:1021D000981758F487B190910D05892387B987B175
:1021E00090910B05892387B91AC0F801E35EFA4F75
:1021F000898180830F1518F30E940D09E82E109233
:102200001A0510921B05882D952D9C01F90104C01B
:10221000D5018D915D018193AC14BD04C9F78E2D5C
:102220000F90CF91DF911F910F91FF90EF90DF9072
:10223000CF90BF90AF909F908F907F906F905F9066
:102240000895AF92BF92CF92EF92FF920F931F9398
:10225000122F0E94BB08882309F06DC0002339F0BB
:10226000802FB7010E94CE0C882309F064C0CC20D7
:1022700011F481E061C0112309F453C087B190913A
:102280000A05892B87B960910C056623A9F0262FD2
:1022900030E02150304080E090E00BC000000000B2
:1022A000000000000000000000000000000000002E
:1022B00001968217930790F387B190910D058923BA
:1022C00087B980911905482F50E020ED37E086B19D
:1022D00090E084239523892B69F40000000000001E
:1022E000000000000000000000000000215030400D
:1022F00071F721C06623A9F0262F30E0215030402D
:1023000080E090E00BC00000000000000000000032
:1023100000000000000000000000019682179307F3
:1023200090F38C2DB5010E947810982F811191E0C7
:1023300081E0892701C080E01F910F91FF90EF900D
:10234000CF90BF90AF9008958A5F883018F020E05A
:1023500030E016C0877080937C0080917A008064A2
:1023600080937A0080917A0086FDFCCF30917800CE
:1023700020917900922F80E0232F30E0282B392BF9
:10238000C9010895883018F020E030E016C0877049
:1023900080937C0080917A00806480937A008091A1
:1023A0007A0086FDFCCF3091780020917900922F41
:1023B00080E0232F30E0282B392BC9010895382FD6
:1023C000662361F027B184E090E0032E02C0880FFD
:1023D000991F0A94E2F7282B27B90CC027B184E093
:1023E00090E0032E02C0880F991F0A94E2F78095AF
:1023F000822387B9442359F028B184E090E002C0D9
:10240000880F991F3A95E2F7282B28B9089528B12B
:1024100084E090E002C0880F991F3A95E2F780951A
:10242000822388B90895382F662361F027B181E0AF
:1024300090E0032E02C0880F991F0A94E2F7282B20
:1024400027B90CC027B181E090E0032E02C0880FAD
:10245000991F0A94E2F78095822387B9442359F0A3
:1024600028B181E090E002C0880F991F3A95E2F709
:10247000282B28B9089528B181E090E002C0880F88
:10248000991F3A95E2F78095822388B908950F93B2
:102490001F93082F162F823010F080E020C061704B
:1024A000412F48700E94DF11612F6270412F4071EF
:1024B000802F0E9413122AB180E490E002C0880F9E
:1024C000991F0A95E2F7982F282B2AB912FF03C00B
:1024D0008BB1982B03C08BB1909598239BB91F911A
:1024E0000F910895EAE7F0E080818E7F80838081FC
:1024F0008D7F808380818B7F8083808184608083D7
:1025000080818160808380818068808380E060E05A
:102510000E94471281E060E00E9447120895AF9246
:10252000BF92CF92EF92FF920F9392E490932F0578
:1025300062E047E021E001E05FE2E52E55E0F52EA4
:10254000CC24C39457010E942111882311F080915B
:102550002F050F91FF90EF90CF90BF90AF9008950F
:102560001F93182F62E047E00E94F308882311F0C0
:1025700080E005C0812F64E00E94471281E01F9136
:1025800008956F927F928F929F92AF92BF92CF9257
:10259000DF92EF92FF920F931F93CF93DF9380917F
:1025A0004705E82EFF24E70193E0CC0FDD1F9A9545
:1025B000E1F7FE01E85AFA4F86809780940144279C
:1025C00037FD4095542FFE01E459FA4F80819181E7
:1025D000A281B381281739074A075B0724F482E0F8
:1025E000682E712C10C066247724C859DA4F888170
:1025F0009981AA81BB81281739074A075B071CF418
:1026000001E0602E712CC70113E0880F991F1A9505
:10261000E1F7B8E5AB2EB5E0BB2EA80EB91EE70179
:10262000CC0FDD1FCE0DDF1DC60DD71DF4E0CC0F86
:10263000DD1FFA95E1F7C858DA4F8C01085B1A4F95
:10264000CC24DD24F501608171818616970688F41B
:102650006819790980E090E0288139814A815B819D
:102660000E94DB24BC0188279927F80171836083CD
:1026700003C0F801118210820894C11CD11C42E0F1
:1026800050E0A40EB51E24960E5F1F4F53E0C516F2
:10269000D104C1F688E4881691041CF420E030E0EF
:1026A00003C0940127543040870153E0000F111FED
:1026B0005A95E1F7085B1A4F84E690E0FC012E9FE3
:1026C000C0012F9F900D3E9F900D11246CE170E092
:1026D0000E940E25882777FD8095982FF701EE0F31
:1026E000FF1FEE0DFF1DE60DF71D34E0EE0FFF1F7F
:1026F0003A95E1F7E858FA4F2485358546855785A0
:102700000E94DB24BC0188279927F8017783668320
:10271000DF91CF911F910F91FF90EF90DF90CF90BD
:10272000BF90AF909F908F907F906F900895CF93C0
:10273000DF93E0914705F0E073E0EE0FFF1F7A951D
:10274000E1F7CF01885B9A4FDC014D915C91DF018D
:10275000A45BBA4F0D90BC91A02DE65BFA4F01909F
:10276000F081E02DEC016E817F81A417B5070CF09C
:1027700049C0E417F5070CF045C0413451050CF48D
:10278000EEC06832710524F44E3651050CF4E7C0F2
:10279000CD0195958795959587959D0135952795BB
:1027A0003595279535952795820F931F8A0F9B1F87
:1027B0008E179F073CF4CF01880F991F48175907C0
:1027C0000CF4CFC0CF01880F991F9F013595279535
:1027D00035952795821B930B8417950714F485E094
:1027E000C7C0A634B1050CF4BAC0E634F1050CF448
:1027F000B6C06C3871050CF0B6C04C3851050CF4FD
:10280000AEC0B1C0AE17BF07CCF5E832F1050CF48D
:10281000A6C06E31710524F4E634F1050CF49FC0B6
:10282000CD01880F991F841795070CF49AC0CA012F
:102830009595879595958795840F951F8E179F077A
:102840000CF493C0CD0195958795959587958A0F42
:102850009B1F8E179F070CF488C0463451050CF45B
:102860007EC0A634B1050CF47AC06C3871050CF04A
:102870007AC0EC38F1050CF472C075C0A033B10514
:102880000CF46DC06931710524F4A535B1050CF463
:1028900066C020E330E0429FC001439F900D529FED
:1028A000900D1124689414F8959587951694E1F786
:1028B0008A179B0784F4E29FC001E39F900DF29F6B
:1028C000900D112425E0959587952A95E1F78A17B3
:1028D0009B070CF44CC02AE330E0429FC001439FA9
:1028E000900D529F900D1124689414F8959587953A
:1028F0001694E1F78A179B07D4F1E29FC001E39F8A
:10290000900DF29F900D112425E0959587952A95BD
:10291000E1F78A179B075CF14C33510504F1EC3366
:10292000F105ECF06E3671051CF4A837B105BCF06A
:10293000CA0133E0959587953A95E1F7840F951F85
:102940008A179B07A4F0CF0123E0959587952A95D8
:10295000E1F78E0F9F1F8A179B072CF408C081E0B8
:1029600007C084E005C086E003C083E001C082E0C8
:10297000DF91CF9108950F931F9327B130914705B1
:1029800004E010E0C801032E02C0880F991F0A94CA
:10299000E2F7282B27B928B1822B88B927B181E02B
:1029A00090E002C0880F991F3A95E2F7282B27B9CB
:1029B00028B1822B88B961E070E080E090E00E944D
:1029C0001F2027B1C8010090470502C0880F991F3A
:1029D0000A94E2F7282B27B928B18095822388B979
:1029E00061E070E080E090E00E941F2027B1C80104
:1029F0000090470502C0880F991F0A94E2F7282B20
:102A000027B928B1822B88B961E070E080E090E0BE
:102A10000E941F2087B10090470502C0000F111FC0
:102A20000A94E2F7802B87B988B10095082308B98A
:102A300064E670E080E090E00E941F201F910F91FB
:102A40000895CF92DF92EF92FF921F93CF93DF937F
:102A500010E0C0E0D0E0F4E0EF2EF12CE1E0CE2E6B
:102A6000D12C27B1C7010090470502C0880F991FDC
:102A70000A94E2F7282B27B928B1822B88B988E07D
:102A800090E00E947820169527B130914705C60145
:102A9000032E02C0880F991F0A94E2F780958223C3
:102AA00087B986B190E0032E02C0959587950A9468
:102AB000E2F780FD106887B1A70102C0440F551FDF
:102AC0003A95E2F79A01842B87B988B1209528239B
:102AD00028B92196C830D10521F6812FDF91CF91F9
:102AE0001F91FF90EF90DF90CF900895AF92BF922B
:102AF000CF92DF92EF92FF920F931F93CF93DF93CA
:102B000027B181E090E00090470502C0880F991F2F
:102B10000A94E2F78095822387B9AA24BB244DC08A
:102B20000E94211520E030E02F5F3F4F2830310513
:102B3000D9F790E0A0E0B0E00C2E04C0880F991FF8
:102B4000AA1FBB1F0A94D2F7E82AF92A0A2B1B2BCB
:102B50002896C032D10521F78091470590E0FC010D
:102B6000EE0FFF1FE80FF91FEA0DFB1DEE0FFF1F11
:102B7000EE0FFF1FEC0DFD1DEE0FFF1FEE0FFF1FF1
:102B8000E858FA4FE082F182028313830894C11C53
:102B9000D11C84E0C816D10431F0EE24FF24870153
:102BA000C0E0D0E0BDCF0894A11CB11C83E0A81602
:102BB000B10419F4CC24DD2437C0CC24DD24EDCFBE
:102BC00028960E94211520E030E02F5F3F4F2830EB
:102BD0003105D9F790E00C2E02C0880F991F0A9496
:102BE000E2F7AA2797FDA095BA2FE82AF92A0A2B1F
:102BF0001B2BC830D10521F7E0914705F0E0EE0F1F
:102C0000FF1FEC0DFD1DEE0FFF1FEE0FFF1FE8591C
:102C1000FA4FE082F182028313830894C11CD11C15
:102C200082E0C816D10431F0EE24FF248701C0E011
:102C3000D0E0C7CF0E9421150E94211562E070E00C
:102C400080E090E00E941F2081E0DF91CF911F91F2
:102C50000F91FF90EF90DF90CF90BF90AF900895CD
:102C6000CF92DF92EF92FF920F931F93CF93DF9358
:102C7000582F00E010E064E0E62EF12C41E0C42E75
:102C8000D12C47B120914705C701022E02C0880F01
:102C9000991F0A94E2F7482B47B948B1842B88B9A9
:102CA00087B1B60102C0660F771F2A95E2F79B0134
:102CB000862B87B9C52FD0E050FF03C088B1282BE1
:102CC00003C088B12095282328B98EE190E00E94A6
:102CD000782087B197010090470502C0220F331F6B
:102CE0000A94E2F7822B87B988B12095282328B966
:102CF0008EE190E00E9478200F5F1F4F0830110591
:102D000021F0D595C7955C2FBCCFDF91CF911F9156
:102D10000F91FF90EF90DF90CF9008950F931F9346
:102D2000823008F048C08093470527B104E010E0E6
:102D3000A80102C0440F551F8A95E2F7CA01242B4F
:102D400027B928B1822B88B984E190E00E947820CD
:102D500027B1C8010090470502C0880F991F0A9447
:102D6000E2F7282B27B928B18095822388B984E11E
:102D700090E00E94782027B1C8010090470502C06A
:102D8000880F991F0A94E2F7282B27B928B1822BC4
:102D900088B984E190E00E94782087B100904705CF
:102DA00002C0000F111F0A94E2F7802B87B988B187
:102DB0000095082308B91F910F9108951F93162FAE
:102DC0008230D8F480934705E82FF0E0EE0FFF1F24
:102DD000E852FA4F608311820E94BB14812F0E9437
:102DE000301680E89CE00E9478200E94761568E703
:102DF00070E080E090E00E941F201F910895809174
:102E000047050E94C21122E330E0AC01429FC0019D
:102E1000439F900D529F900D112461E270E00E943B
:102E2000FA24CB0108950F931F93CF93DF93823041
:102E300018F0A0E0B0E0FEC08093470527B1C82F8E
:102E4000D0E081E090E00C2E02C0880F991F0A9418
:102E5000E2F78095282327B928B1822388B9FE019B
:102E6000EE0FFF1FE852FA4F008111810D3011055E
:102E700009F0B7C00E94FF16F3E0CC0FDD1FFA95F2
:102E8000E1F7C95CDA4F9F838E8327B104E010E03D
:102E9000C8010090470502C0880F991F0A94E2F705
:102EA000282B27B928B1822B88B984E190E00E94B1
:102EB000782080914705C82FD0E00E94FF16E3E0FC
:102EC000CC0FDD1FEA95E1F7C95CDA4F998388835F
:102ED00027B1C8010090470502C0880F991F0A94C6
:102EE000E2F7282B27B928B18095822388B984E19D
:102EF00090E00E94782080914705C82FD0E00E9482
:102F0000FF1673E0CC0FDD1F7A95E1F7C75CDA4F4F
:102F10009983888327B1C8010090470502C0880FB4
:102F2000991F0A94E2F7282B27B928B1822B88B978
:102F300084E190E00E94782080914705C82FD0E07E
:102F40000E94FF1663E0CC0FDD1F6A95E1F7C55CB8
:102F5000DA4F9983888387B1A0914705B0E00A2EA4
:102F600002C0000F111F0A94E2F7802B87B988B1C5
:102F70000095082308B9FD0153E0EE0FFF1F5A9595
:102F8000E1F79F01285A3A4FE95CFA4F8681978111
:102F9000E9019F838E83808191819983888343E0B7
:102FA000AA0FBB1F4A95E1F7FD013296CF01895C5C
:102FB0009A4FEC0188819981E85AFA4F9183808376
:102FC0001496FD01E95CFA4F80819181A85ABA4FAD
:102FD0008D939C930E94C1120E949713A82FB0E07A
:102FE00029C00E94FF16CC0FDD1FCC0FDD1FC00FC4
:102FF000D11FCC0FDD1FC55EDA4F99838883E09126
:103000004705F0E0EE0FFF1FDF01A852BA4F8D9188
:103010009C910E97EE0FFF1FE80FF91FEE0FFF1F99
:10302000DF01A95CBA4F0D90BC91A02DE85AFA4F70
:10303000B183A083CD01DF91CF911F910F910895AE
:103040008AB1837C8AB98BB1837C8BB9EDE6F0E0E1
:1030500080818C638083E8E6F0E0808184608083F7
:1030600085B1807C85B984B18F6384B9089585B1B9
:10307000807C85B90895FC018091DF059091E00581
:10308000A091E105B091E20580839183A283B3838F
:103090008091E3059091E405A091E505B091E605E6
:1030A000FB0180839183A283B3830895EF92FF9203
:1030B0000F931F93E090DF05F090E0050091E1058C
:1030C0001091E205E61AF70A080B190BE092DF05EA
:1030D000F092E0050093E1051093E2058091E3058D
:1030E0009091E405A091E505B091E605821B930B54
:1030F000A40BB50B8093E3059093E405A093E5053D
:10310000B093E6051F910F91FF90EF9008951F92E5
:103110000F920FB60F9211242F933F934F935F930B
:103120006F937F938F939F93AF93BF93EF93FF938F
:1031300099B18091DC0589279093DC058C73682F09
:1031400070E0CB0184719070892BA9F13091DD057D
:1031500029B189B12695227090E0B4E095958795C4
:10316000BA95E1F78170282B330F330F322B3F7064
:103170003093DD052091DF053091E0054091E105B8
:103180005091E205E091DD05F0E0EE0FFF1FE15AFE
:10319000FE4F80819181AA2797FDA095BA2F820FBB
:1031A000931FA41FB51F8093DF059093E005A093A4
:1031B000E105B093E20568727070672BB1F1309150
:1031C000DE0529B189B126952695227090E075E03B
:1031D000959587957A95E1F78170282B330F330FFA
:1031E000322B3F703093DE052091E3053091E405EA
:1031F0004091E5055091E605E091DE05F0E0EE0F27
:10320000FF1FE15AFE4F80819181AA2797FDA0956B
:10321000BA2F820F931FA41FB51F8093E3059093CD
:10322000E405A093E505B093E605FF91EF91BF910A
:10323000AF919F918F917F916F915F914F913F914E
:103240002F910F900FBE0F901F9018950F931F9303
:10325000CF93DF93EB01882371F58B010170107020
:1032600060FF1AC02C9A6C7F7370C1FF0CC07695FA
:103270006795769567956095709570708AE00E9465
:10328000BD20289A0AC076956795769567958AE05D
:103290000E94BD20289801C02C98CC7FD370CD2BE4
:1032A00011F00023C1F58AE060E070E00E94BD20CB
:1032B00085B18A7F2FC0813071F58B01017010704C
:1032C00060FF1AC02D9A6C7F7370C1FF0CC0769599
:1032D0006795769567956095709570708BE00E9404
:1032E000BD20299A0AC076956795769567958BE0FB
:1032F0000E94BD20299801C02D98CC7FD370CD2B82
:1033000011F0002341F48BE060E070E00E94BD20EA
:1033100085B1857F85B9DF91CF911F910F91089578
:103320000F931F93CF93DF93FC01738D769571708C
:10333000A685B7859585772329F08C91892309F493
:1033400054C004C08C91892309F04FC083899489AB
:1033500020E001972FEF8F3F9207D9F7C589D689D3
:10336000A685B785158560E031E040E050E000E0DB
:10337000CE01202F01972FEF8F3F9207D9F78C9125
:10338000812311F0632B03C0832F80956823330FB3
:103390004F5F5F4F4830510559F78789908D20E086
:1033A00001972FEF8F3F9207D9F7711160958091A8
:1033B000290620912A0690E001968F73907030E0E4
:1033C0008217930779F0E0912906F0E0E751FA4F70
:1033D00060838091290690E001968F7390708093AE
:1033E000290603C0838D8160838FDF91CF911F9168
:1033F0000F9108951F920F920FB60F9211242F93E1
:103400003F934F935F936F937F938F939F93AF936C
:10341000BF93EF93FF938091E7059091E8050097A4
:1034200011F00E949019FF91EF91BF91AF919F9180
:103430008F917F916F915F914F913F912F910F905D
:103440000FBE0F901F9018951F920F920FB60F92FC
:1034500011242F933F934F935F936F937F938F9399
:103460009F93AF93BF93EF93FF938091E705909164
:10347000E805009711F00E949019FF91EF91BF911C
:10348000AF919F918F917F916F915F914F913F91FC
:103490002F910F900FBE0F901F901895CF92DF9233
:1034A000EF92FF920F931F93CF93DF93EC017A017A
:1034B0008B011A8E198E188E1F8A1E8A1D8A1C8AED
:1034C0001B8A20E030E06901CC0CDD1CC20ED31E4B
:1034D000B601660F771F660F771FAB0142555F4F2E
:1034E000FA0185919591A591B4918E159F05A0073C
:1034F000B107E9F4FB01EE54FF4F859194919C8B49
:103500008B8BFB01EC54FF4F859194919E8B8D8B9F
:10351000FB01EA54FF4F85919491988F8F8BFB01AB
:10352000E854FF4F859194919A8F898F06C02F5F41
:103530003F4F2D30310509F0C6CF8F89988D892BEB
:1035400009F449C04C85463108F03DC090916800AF
:10355000483010F484E005C04E3010F082E001C025
:1035600081E0892B80936800483028F4EDE6F0E094
:10357000ADE6B0E00BC04E3028F0ECE6F0E0ACE693
:10358000B0E004C0EBE6F0E0ABE6B0E050814830DC
:1035900040F481E090E002C0880F991F4A95E2F75D
:1035A00010C0242F30E04E3018F42850304002C0B4
:1035B0002E50304081E090E002C0880F991F2A957C
:1035C000E2F7852B8C93898D9A8D20E001972FEF60
:1035D0008F3F9207D9F78091E7059091E8058C1706
:1035E0009D0781F08B8D8E7F8B8F9FB7F894109203
:1035F00029068091290680932A06D093E805C09376
:10360000E7059FBFDF91CF911F910F91FF90EF9042
:10361000DF90CF900895FC014485463180F5483015
:1036200028F4EDE6F0E0ADE6B0E00BC04E3028F453
:10363000EBE6F0E0ABE6B0E004C0ECE6F0E0ACE6D0
:10364000B0E05081483040F481E090E002C0880F43
:10365000991F4A95E2F710C0242F30E04E3018F43D
:103660002850304002C02E50304081E090E002C02F
:10367000880F991F2A95E2F7809585238C930895EA
:10368000FC0183E891E091838083CF010E940B1BB2
:1036900008952091E7053091E8052817390731F49E
:1036A00090912A0680912906981719F42FEF3FEF81
:1036B0000FC0E0912A06F0E0E751FA4F2081809197
:1036C0002A0690E001968F73907080932A0630E06E
:1036D000C90108952091E7053091E80528173907B9
:1036E00019F020E030E00EC08091290620912A06D2
:1036F00090E0805C9F4F821B910960E470E00E9423
:103700000E259C01C90108950F931F93DC01599662
:103710008D919C915A97892B49F481E090E0139602
:103720009C938E93129720E030E097C00FB7F894E7
:103730005B968C915B975196ED91FC9152975096C8
:103740002C91509781FF8DC08081822B8083599668
:103750008D919C915A97059620E001972FEF8F3F0E
:103760009207D9F75B968C915B9781FF35C031E06A
:1037700040E050E070E010E0832F90E08623972334
:103780005196ED91FC91529750962C915097892B20
:1037900029F0808120952823208303C08081822BFB
:1037A000808359968D919C915A97212F01972FEFE5
:1037B0008F3F9207D9F7330F4F5F5F4F4830510566
:1037C000D9F65196ED91FC915297908150968C913B
:1037D00050978095892333C031E040E050E070E09D
:1037E00010E0832F90E0862397235196ED91FC9172
:1037F000529750962C915097892B21F08081822BE3
:10380000808304C0808120952823208359968D9140
:103810009C915A97212F01972FEF8F3F9207D9F74D
:10382000330F4F5F5F4F48305105D9F65196ED91F8
:10383000FC915297808150969C915097892B808360
:103840000FBF59968D919C915A9720E001972FEFC9
:103850008F3F9207D9F721E030E0C9011F910F9106
:103860000895808120952823208371CF2091E7053A
:103870003091E8052817390749F49FB7F89410925A
:1038800029068091290680932A069FBF08952091DA
:10389000E7053091E8052817390731F490912A0699
:1038A00080912906981719F42FEF3FEF0AC0E09195
:1038B0002A06F0E0E751FA4F8081282F332727FDB1
:1038C0003095C90108951F93CF93DF93EC01162F14
:1038D000862F60E00E941D218B8D81FD04C0812F09
:1038E00061E00E945C211C87212F30E0C9018458CF
:1038F0009E4FFC0184918D8728593E4FF9016491B8
:10390000E62FF0E0EE0FFF1FE25AFE4F85919491F3
:103910009F878E87DF91CF911F910895FF920F931C
:103920001F938C01F62E862F61E00E941D218F2DA2
:1039300061E00E945C218F2D90E0FC01E458FE4F75
:10394000E491D8015096EC93509788599E4FFC0112
:103950006491E62FF0E0EE0FFF1FEC5AFE4F8591C9
:10396000949152969C938E9351971F910F91FF9033
:103970000895FF920F931F938C01F62EFC01138282
:10398000128288EE93E0A0E0B0E084839583A68362
:10399000B78383E891E091838083148A138A168A1F
:1039A000158A108E178A128E118E838D2170220F28
:1039B0008C7F822B838FC801642F0E948E1CC801CC
:1039C0006F2D0E94631C1F910F91FF90089581300D
:1039D000910591F46F5F7F4FE1F48BE296E06EE02A
:1039E00040E120E00E94B91C87E496E06FE041E1ED
:1039F00020E00E94B91C0895892B59F46F5F7F4F16
:103A000041F487E496E00E94401B8BE296E00E941E
:103A1000401B089580E090E06FEF7FEF0E94E71C6D
:103A2000089581E090E06FEF7FEF0E94E71C08951A
:103A3000EF92FF920F931F93CF93DF93882309F0A8
:103A400085C08BE296E062E00E94841B8BE296E0E8
:103A50000E946A1B892B09F476C08BE296E00E94D3
:103A6000491B282F80936306807C803C09F06BC043
:103A70001092790610927A0610927B0610927C06BC
:103A8000F22EF094EE244DC0CE2DD0E08BE296E0E5
:103A90000E94491BFE01EC59F94F80838091770603
:103AA000882311F4A0E005C08BE296E00E94491B38
:103AB000A82FFE01E459F94FA083CC59D94FE881D2
:103AC0002091790630917A0640917B0650917C06D0
:103AD00080917706882319F468E070E002C060E105
:103AE00070E0FE26FA2604C0220F331F441F551F24
:103AF0006A95D2F71A2F00E08E2F90E0802B912B41
:103B0000AA2797FDA095BA2F282B392B4A2B5B2B80
:103B10002093790630937A0640937B0650937C0677
:103B2000E39480917406E81608F4AECF8BE296E039
:103B30000E94491B2F2D30E08217930709F48BC098
:103B40008BE296E093C08BE296E099C0813029F039
:103B50002AEF3FEF4FEF5FEF99C087E496E062E016
:103B60000E94841B87E496E00E946A1B892B09F45B
:103B700084C087E496E00E94491B282F8093630647
:103B8000807C803C09F079C01092790610927A0608
:103B900010927B0610927C06F22EF094EE244DC01B
:103BA000CE2DD0E087E496E00E94491BFE01EC593F
:103BB000F94F808380917806882311F4A0E005C036
:103BC00087E496E00E94491BA82FFE01E459F94FB3
:103BD000A083CC59D94FE8812091790630917A069B
:103BE00040917B0650917C0680917806882319F4D9
:103BF00068E070E002C060E170E0FE26FA2604C0D2
:103C0000220F331F441F551F6A95D2F71A2F00E069
:103C10008E2F90E0802B912BAA2797FDA095BA2F8D
:103C2000282B392B4A2B5B2B2093790630937A066D
:103C300040937B0650937C06E39480917506E816CA
:103C400008F4AECF87E496E00E94491B2F2D30E0A8
:103C50008217930749F42091790630917A064091B2
:103C60007B0650917C0612C087E496E00E94361CC9
:103C70002EEF3FEF4FEF5FEF09C087E496E062E081
:103C80000E94841B2CEF3FEF4FEF5FEFB901CA0199
:103C9000DF91CF911F910F91FF90EF9008950F93B7
:103CA0001F93882309F0ADC03A9A3898623318F40C
:103CB000162F1B5210C0683318F4162F12530BC066
:103CC0006D3318F4162F185306C0633410F010E04B
:103CD00002C0162F1D53E62FF0E0BB97DF01A15D58
:103CE000BE4F8C9180937706E95BFE4F8081809375
:103CF00074068BE296E040E659E060E070E00E94D6
:103D00004E1A8BE296E064E00E94841B10927606C5
:103D100001E057C08BE296E00E946A1B892B09F4F0
:103D200050C08BE296E00E94491B049709F049C0FD
:103D300061E070E080E090E00E941F208BE296E05E
:103D400064E00E94841B61E070E080E090E00E94EB
:103D50001F208BE296E064E00E94841B8BE296E0D9
:103D60000E940B1B8BE296E00E94361C8BE296E0D1
:103D700040E051EE60E070E00E944E1A6AE070E0B0
:103D800080E090E00E941F208BE296E00E94491B99
:103D9000807C9070803C910541F48BE296E062E07B
:103DA0000E94841B009376060CC08BE296E00E9472
:103DB0000B1B8BE296E040E659E060E070E00E9469
:103DC0004E1A80917606882309F4A4CF8BE296E000
:103DD00062E00E94841B112389F08BE296E063E489
:103DE0000E94841B8BE296E0612F0E94841B8CEB67
:103DF00018278BE296E0612F0E94841B8BE296E0ED
:103E0000ACC03B9A3998623318F4162F1B5210C07D
:103E1000683318F4162F12530BC06D3318F4162F95
:103E2000185306C0633410F010E002C0162F1D5363
:103E3000E62FF0E0BB97DF01A15DBE4F8C91809330
:103E40007806E95BFE4F80818093750687E496E0F3
:103E500040E659E060E070E00E944E1A87E496E088
:103E600064E00E94841B1092760601E057C087E44C
:103E700096E00E946A1B892B09F450C087E496E003
:103E80000E94491B049709F049C061E070E080E09E
:103E900090E00E941F2087E496E064E00E94841B6B
:103EA00061E070E080E090E00E941F2087E496E0EF
:103EB00064E00E94841B87E496E00E940B1B87E469
:103EC00096E00E94361C87E496E040E051EE60E008
:103ED00070E00E944E1A6AE070E080E090E00E947C
:103EE0001F2087E496E00E94491B807C9070803CF4
:103EF000910541F487E496E062E00E94841B009300
:103F000076060CC087E496E00E940B1B87E496E0DF
:103F100040E659E060E070E00E944E1A809176061B
:103F2000882309F4A4CF87E496E062E00E94841B12
:103F3000112389F087E496E063E40E94841B87E400
:103F400096E0612F0E94841B8CEB182787E496E093
:103F5000612F0E94841B87E496E062E00E94841B2C
:103F600080E01F910F9108950F931F930BE216E0CD
:103F7000C8010E94361CC8010E940B1B07E416E012
:103F8000C8010E94361CC8010E940B1B1F910F9193
:103F900008951F920F920FB60F9211242F933F9303
:103FA0008F939F93AF93BF938091810690918206E8
:103FB000A0918306B0918406309185060196A11DDB
:103FC000B11D232F2D5F2D3720F02D570196A11DF8
:103FD000B11D209385068093810690938206A0935D
:103FE0008306B093840680917D0690917E06A09111
:103FF0007F06B09180060196A11DB11D80937D06BC
:1040000090937E06A0937F06B0938006BF91AF91F8
:104010009F918F913F912F910F900FBE0F901F9006
:1040200018958FB7F89420918106309182064091BF
:104030008306509184068FBFB901CA0108959B0180
:10404000AC017FB7F89480917D0690917E06A09197
:104050007F06B091800666B5A89B05C06F3F19F03A
:104060000196A11DB11D7FBFBA2FA92F982F8827B8
:10407000860F911DA11DB11D62E0880F991FAA1F17
:10408000BB1F6A95D1F7BC012DC0FFB7F894809192
:104090007D0690917E06A0917F06B0918006E6B5E0
:1040A000A89B05C0EF3F19F00196A11DB11DFFBFF0
:1040B000BA2FA92F982F88278E0F911DA11DB11DF2
:1040C000E2E0880F991FAA1FBB1FEA95D1F7861B54
:1040D000970B885E9340C8F22150304040405040DA
:1040E00068517C4F211531054105510571F6089540
:1040F000019739F0880F991F880F991F0297019730
:10410000F1F70895789484B5826084BD84B58160A8
:1041100084BD85B5826085BD85B5816085BDEEE6CF
:10412000F0E0808181608083E1E8F0E010828081AE
:1041300082608083808181608083E0E8F0E080811C
:1041400081608083E1EBF0E0808184608083E0EB3C
:10415000F0E0808181608083EAE7F0E08081846024
:104160008083808182608083808181608083808180
:10417000806880831092C10008951F93CF93DF93CE
:10418000182FEB0161E00E941D21209709F44AC01D
:10419000CF3FD10509F449C0E12FF0E0E057FE4FD1
:1041A00084918330C1F0843028F4813051F0823022
:1041B000B1F50CC0863019F1873049F1843079F5BA
:1041C00014C084B5806884BDC7BD33C084B5806227
:1041D00084BDC8BD2EC0809180008068809380001F
:1041E000D0938900C093880024C0809180008062B1
:1041F00080938000D0938B00C0938A001AC0809176
:10420000B00080688093B000C093B30012C080916A
:10421000B00080628093B000C093B4000AC0C03880
:10422000D1051CF4812F60E002C0812F61E00E9463
:104230005C21DF91CF911F910895CF93DF93482F99
:1042400050E0CA0184589E4FFC01349148595E4F9A
:10425000FA018491882369F190E0880F991FFC018D
:10426000E65BFE4FA591B491FC01EC5AFE4FC5915F
:10427000D491662351F42FB7F8948C91932F909595
:1042800089238C93888189230BC0623061F42FB716
:10429000F8948C91932F909589238C938881832B0C
:1042A00088832FBF06C09FB7F8948C91832B8C9383
:1042B0009FBFDF91CF910895482F50E0CA018057EA
:1042C0009E4FFC012491CA0184589E4FFC01949199
:1042D00048595E4FFA013491332309F440C0222338
:1042E00051F1233071F0243028F42130A1F0223034
:1042F00011F514C02630B1F02730C1F02430D9F4C4
:1043000004C0809180008F7703C0809180008F7DF2
:104310008093800010C084B58F7702C084B58F7DF4
:1043200084BD09C08091B0008F7703C08091B00038
:104330008F7D8093B000E32FF0E0EE0FFF1FEC5A6B
:10434000FE4FA591B4912FB7F894662321F48C9178
:104350009095892302C08C91892B8C932FBF08954F
:1043600008951F920F920FB60F9211242F933F932F
:104370004F938F939F93EF93FF938091C00082FDA3
:104380001DC04091C6002091C6063091C7062F5F20
:104390003F4F2F7330708091C8069091C90628173F
:1043A000390771F0E091C606F091C706EA57F94F58
:1043B00040833093C7062093C60602C08091C60092
:1043C000FF91EF919F918F914F913F912F910F907E
:1043D0000FBE0F901F901895E0911A07F0911B07E0
:1043E000E05CFF4F8191919120813181821B930B81
:1043F0008F739070892B11F00E94B02108951F9245
:104400000F920FB60F9211242F933F938F939F9388
:10441000EF93FF9320910A0730910B0780910C07CF
:1044200090910D072817390731F48091C1008F7DD5
:104430008093C10014C0E0910C07F0910D07E65382
:10444000F94F208180910C0790910D0701968F7391
:10445000907090930D0780930C072093C600FF91F6
:10446000EF919F918F913F912F910F900FBE0F90E1
:104470001F901895AF92BF92DF92EF92FF920F9329
:104480001F93CF93DF93EC017A018B01DD24403041
:1044900081EE580780E0680780E0780711F0DD249E
:1044A000D39491E0A92EB12CEC89FD89DD2069F02F
:1044B000C50108A002C0880F991F0A94E2F7808303
:1044C00060E079E08DE390E005C0108260E874E878
:1044D0008EE190E0A80197010E94212521503040F3
:1044E00040405040569547953795279580E12030BC
:1044F000380720F0DD2011F0DD24D6CFE889F989D6
:104500003083EA89FB89208319A2EE89FF894081E3
:1045100021E030E0C9010C8C02C0880F991F0A9479
:10452000E2F7482B4083EE89FF894081C9010D8C59
:1045300002C0880F991F0A94E2F7482B4083EE8946
:10454000FF894081C9010E8C02C0880F991F0A940F
:10455000E2F7482B4083EE89FF8980810F8C02C0EF
:10456000220F331F0A94E2F7209528232083DF913E
:10457000CF911F910F91FF90EF90DF90BF90AF9080
:104580000895DC011C96ED91FC911D97E05CFF4FB6
:104590002191319180819181281B390B2F733070CB
:1045A000C9010895DC011C96ED91FC911D97E05C1A
:1045B000FF4F20813181E054F040DF01AE5BBF4FFF
:1045C0008D919C9111972817390719F42FEF3FEF20
:1045D00007C08D919C91E80FF91F8081282F30E052
:1045E000C9010895DC011C96ED91FC911D97E05CDA
:1045F000FF4F20813181E054F040DF01AE5BBF4FBF
:104600008D919C9111972817390719F42FEF3FEFDF
:1046100010C08D919C911197E80FF91F20818D9109
:104620009C91119701968F73907011969C938E9325
:1046300030E0C9010895DC0191968C91919788230F
:1046400039F05496ED91FC915597808186FFF9CF12
:1046500091961C920895CF93DF93EC01EE85FF8530
:10466000E05CFF4F20813181E054F0402F5F3F4FED
:104670002F733070DF01AE5BBF4F8D919C9111970E
:1046800028173907D1F3E05CFF4F80819181E05416
:10469000F040E80FF91F6083EE85FF85E05CFF4F77
:1046A00031832083EE89FF89208181E090E00F8CA7
:1046B00002C0880F991F0A94E2F7282B208381E01B
:1046C00089A3EC89FD8980818064808381E090E00A
:1046D000DF91CF910895109211071092100788EE84
:1046E00093E0A0E0B0E08093120790931307A093AB
:1046F0001407B093150783E991E090930F07809317
:104700000E0786E896E090931B0780931A078AECC1
:1047100096E090931D0780931C0785EC90E09093A2
:104720001F0780931E0784EC90E0909321078093ED
:10473000200780EC90E0909323078093220781EC80
:1047400090E0909325078093240782EC90E090936B
:1047500027078093260786EC90E0909329078093A3
:10476000280784E080932A0783E080932B0787E063
:1047700080932C0785E080932D0781E080932E079E
:104780000895CF93DF930E9482200E946D07CCEEA4
:10479000D1E20E9488062097E1F30E94EC21F9CF34
:1047A000CF92DF92EF92FF920F931F93CF93DF93FD
:1047B0007C016B018A01C0E0D0E00FC0D6016D9191
:1047C0006D01D701ED91FC910190F081E02DC701C1
:1047D0000995C80FD91F015010400115110571F737
:1047E000CE01DF91CF911F910F91FF90EF90DF905D
:1047F000CF900895EF92FF920F931F938C01DC01ED
:10480000ED91FC910190F081E02D6DE009957C0126
:10481000D801ED91FC910190F081E02DC8016AE092
:1048200009959C012E0D3F1DC9011F910F91FF900D
:10483000EF900895CF93DF93EC016115710519F4A2
:1048400020E030E00FC0DB010D900020E9F7119768
:10485000A61BB70BE881F9810280F381E02DAD0141
:1048600009959C01C901DF91CF9108954F925F9204
:104870007F928F929F92AF92BF92CF92DF92EF92F0
:10488000FF920F931F93DF93CF93CDB7DEB7A1971E
:104890000FB6F894DEBF0FBECDBF2C01742ECB0136
:1048A000223008F42AE019A231E2C32ED12CCC0E1A
:1048B000DD1E822E9924AA24BB24672D752FA50105
:1048C00094010E94212579018A01C801B701A5013F
:1048D00094010E94DB24472D461B0894C108D1088F
:1048E0004A3014F4405D01C0495CF6014083E11494
:1048F000F1040105110521F07E2C5F2DC801DDCFEB
:10490000C201B6010E941A24A1960FB6F894DEBF28
:104910000FBECDBFCF91DF911F910F91FF90EF9010
:10492000DF90CF90BF90AF909F908F907F905F90DF
:104930004F900895DC012115310541F4ED91FC9172
:104940000190F081E02D642F099508950E9436248E
:104950000895CF92DF92EF92FF920F931F936C0115
:104960007B019A0100E010E0B801A7010E949A249F
:104970008C01C6010E94FA23080F191FC8011F915C
:104980000F91FF90EF90DF90CF900895EF92FF92FC
:104990000F931F939A01E62EFF2400E010E0B80168
:1049A000A7010E949A241F910F91FF90EF90089504
:1049B0000E941A240895629FD001739FF001829F84
:1049C000E00DF11D649FE00DF11D929FF00D839F9E
:1049D000F00D749FF00D659FF00D9927729FB00D3B
:1049E000E11DF91F639FB00DE11DF91FBD01CF014E
:1049F00011240895AA1BBB1B51E107C0AA1FBB1FAE
:104A0000A617B70710F0A61BB70B881F991F5A955A
:104A1000A9F780959095BC01CD01089597FB092ECB
:104A200007260AD077FD04D0E5DF06D000201AF46F
:104A3000709561957F4F0895F6F7909581959F4FFA
:104A40000895A1E21A2EAA1BBB1BFD010DC0AA1FCF
:104A5000BB1FEE1FFF1FA217B307E407F50720F0E7
:104A6000A21BB30BE40BF50B661F771F881F991F62
:104A70001A9469F760957095809590959B01AC01AB
:104A8000BD01CF01089597FB092E05260ED057FDD5
:104A900004D0D7DF0AD0001C38F4509540953095EB
:104AA00021953F4F4F4F5F4F0895F6F790958095B2
:104AB000709561957F4F8F4F9F4F0895EE0FFF1FA9
:104AC0000590F491E02D099411E0C8EAD1E004C00A
:104AD000FE010E9460252296CA3AD107C9F7F894D0
:024AE000FFCF06
:104AE200436865636B73756D20726563656976658E
:104AF200643A2000202020436865636B73756D2043
:104B0200636F6D70757465643A2000FA00000001ED
:104B12000100010101010000000101010101010187
:104B22000100000001000101010101010101010177
:104B3200010203040101010204010804010402004C
:104B420000FFFF01000000010000000000FFFFFF66
:104B5200FF00000000010000000100FFFF00000054
:104B6200000000841BD0236A1B491B471C361C0013
:104B72000000002B23D023C122F222D2221B2300C9
:00000001FF
