:100000000C94D6000C94FE000C94FE000C94191A6B
:100010000C94431A0C94A6180C94FE000C94FE0049
:100020000C94FE000C94FE000C94FE000C94FE0058
:100030000C94FE000C94FE000C94FE000C94FE0048
:100040000C94C1200C94FE000C94CB220C94192328
:100050000C94FE000C94FE000C94FE000C94FE0028
:100060000C94FE000C94FE002C0330033003B30309
:100070003403B303B303B303B3035F035F03AB03FF
:10008000AB03AB03AB03AB03AB03AB03AB03AB0300
:10009000AB03AF03AB03AB03AB03AB03AB03AF03E8
:1000A000AB03AB03AB03AF03AB03AB03AB03AB03DC
:1000B00000C201000100110011000C0000E100006D
:1000C0000A002500250021000096000019003900D3
:1000D00039003600127A00001F0046004600440036
:1000E0008070000022004D004D004A00004B0000CF
:1000F0003600750075007200403800004A009C0010
:100100009C009900802500007200EC00EC00E900E2
:10011000C0120000E900DA01DA01D701600900002D
:10012000D701B603B603B303B0040000B3036E07F0
:100130006E076B07580200006E07DC0EDC0ED80E4F
:100140002C010000DC0EC11DC11DBE1D0000000001
:10015000240027002A0000000000250028002B00B2
:100160000000000023002600290004040404040405
:100170000404020202020202030303030303010256
:100180000408102040800102040810200102040825
:100190001020000000070002010000030406000018
:1001A000000000000000B11D8524AA1D11241FBEFF
:1001B000CFEFD8E0DEBFCDBF11E0A0E0B1E0E2E9D3
:1001C000FBE402C005900D92A438B107D9F717E0FF
:1001D000A4E8B1E001C01D92AC31B107E1F711E034
:1001E000CAEAD1E004C02297FE010E94B825C63AAF
:1001F000D107C9F70E94DB240C94BC250C940000A5
:10020000AF92BF92DF92EF92FF920F931F93CF9323
:10021000DF93D42E78018901A0916804B09169041C
:100220005D01A60EB11CB50130E0482F50E0C1E0E1
:10023000D0E01FC0E0FE16C0FB0193E0F695E79505
:100240009A95E1F7E40FF51FEA57FE4FCB0187704F
:1002500090705E0102C0AA0CBB1C8A95E2F7208157
:100260002A29208316950795F794E7943F5F6F5FDF
:100270007F4F3D15F8F2AD0DB11DB0936904A09309
:100280006804DF91CF911F910F91FF90EF90DF9065
:10029000BF90AF900895CF92DF92EF92FF920F93AD
:1002A0001F93CF93DF93E42EF42EC0916804D09176
:1002B0006904DE011197A60FB11D242F332727FDF6
:1002C0003095A20FB31F00E010E020E030E0C82E10
:1002D000DD2429C0B901A801440F551F661F771FEF
:1002E000FD0123E0F695E7952A95E1F7EA57FE4FE1
:1002F000EC0DFD1D808190E09D012770307002C0E3
:10030000959587952A95E2F78C01222717FD209570
:10031000322F0170107020703070042B152B262B9B
:10032000372BFA941197FF20A9F6CE0DD11DD0934B
:100330006904C0936804B801C901DF91CF911F918E
:100340000F91FF90EF90DF90CF90089520E061151E
:1003500071058105910549F02F5F203229F09695AE
:10036000879577956795F3CF2FE1822F08956F9248
:100370007F929F92AF92BF92CF92DF92EF92FF92C5
:100380000F93CF93DF938091870180930602809132
:100390008801809307021092690410926804F2E3C6
:1003A000AF2EF2E0BF2ECC24DD24F601EA5FFD4F34
:1003B00080818952823008F065C083E060E048E0C7
:1003C0000E944B01F601E05DFD4F608383E060E039
:1003D00043E00E944B016F5FF50160839924360171
:1003E000E3E0660C771CEA95E1F747C0C92DD0E041
:1003F00083E060E047E00E944B01C60DD71DFE017F
:10040000EC5CFD4F660F608383E060E042E00E9499
:100410004B01FE01E85FFD4F608361FF2DC083E06B
:1004200060E044E00E944B0174E4E72E72E0F72E96
:10043000EC0EFD1EF701608383E060E044E00E9463
:100440004B01FE01EC5AFD4F608300E054E0CC0FFD
:10045000DD1F5A95E1F70CC083E060E048E00E94A0
:100460004B01FE01E00FF11DEC59FD4F60830F5F62
:10047000F7018081081780F39394F5018081981625
:1004800008F4B4CF0894C11CD11C0894A11CB11C61
:10049000F2E0CF16D10409F088CFDF91CF910F9110
:1004A000FF90EF90DF90CF90BF90AF909F907F90A4
:1004B0006F9008952F923F924F925F926F927F922A
:1004C0008F929F92AF92BF92CF92DF92EF92FF9264
:1004D0000F931F93DF93CF93CDB7DEB72E970FB651
:1004E000F894DEBF0FBECDBF80E0E82FF0E0EA5702
:1004F000FE4F10828F5F8038C1F719821A821B82EB
:100500001C821092690410926804E8E1AE2EE2E0C9
:10051000BE2E75E0E72EF12CEC0EFD1E63E0C62E1C
:10052000D12CCC0EDD1E4E010894811C911C772429
:100530007394D5012D913D914D915C91F7012083EC
:1005400031834283538357FF0DC0D4017C928827A7
:100550009927DC01821B930BA40BB50B808391833D
:10056000A283B383D7016D917D918D919C910E945F
:10057000A601F6018083882311F08F5F8083D60166
:100580000D916D0110E020E030E081E060E045E099
:100590000E940001E4E0F0E0AE0EBF1EEE0EFF1E72
:1005A0000894811C911CF0E2AF16F2E0BF0609F638
:1005B0000D811E812F813885000F111F221F331FCF
:1005C000898190E0A0E0B0E0082B192B2A2B3B2B6F
:1005D0000D831E832F83388781E060E04B810E946A
:1005E00000010A8110E020E030E089859A85AB8522
:1005F000BC85880F991FAA1FBB1F082B192B2A2BFC
:100600003B2B81E060E04C810E94000120E2422E01
:1006100022E0522E9BE1892E95E0992E82E3282E2E
:1006200082E0382E66247724F301EA5FFD4F808153
:1006300090E0FC01B097E432F10508F094C0EC5C66
:10064000FF4FD2010D911D912D913C91EE0FFF1F97
:100650000590F491E02D099481E060E041E08BC0C9
:1006600081E060E048E087C081E060E043E00E9414
:100670000001F4010681178120E030E081E060E0B4
:100680004AE00E940001D4010D911C9120E030E06D
:1006900081E060E04AE00E940001F40102811381E0
:1006A00020E030E081E060E04AE00E940001D401F7
:1006B00014960D911C91159720E030E059C081E00F
:1006C00060E0F10140810E940001EE24C30103E0DB
:1006D000880F991F0A95E1F79E878D8737C02E2DC9
:1006E00030E0F20180819181A281B3810E2C04C09F
:1006F000B595A795979587950A94D2F780FF25C061
:10070000FF248D859E85820F931F14E5A12E12E094
:10071000B12EA80EB91E6C01B4E0CC0CDD1CBA954C
:10072000E1F70FC0F601EF0DF11DEC59FC4F008110
:1007300010E020E030E081E060E048E00E9400014D
:10074000F394D5018C91F81668F3E394F10180815C
:10075000E81628F212C081E060E040E10CC081E0C0
:1007600060E040E208C0D2010D911D912D913C91B5
:1007700081E060E04AE00E9400010894611C711C65
:10078000E4E0F0E04E0E5F1E88E090E0880E991ED7
:100790000894211C311C92E06916710409F044CFC1
:1007A00080916804909169040796A3E096958795D7
:1007B000AA95E1F78F5F809385012E960FB6F89486
:1007C000DEBF0FBECDBFCF91DF911F910F91FF9084
:1007D000EF90DF90CF90BF90AF909F908F907F90E1
:1007E0006F905F904F903F902F9008952F923F927F
:1007F0004F925F926F927F928F929F92AF92BF9231
:10080000CF92DF92EF92FF920F931F93DF93CF93DC
:10081000CDB7DEB72B970FB6F894DEBF0FBECDBFB6
:1008200030E2232E32E0332E1B861A862A85298356
:10083000EA85FB85EA5FFD4FE081E33498F4EB3213
:1008400008F0C8C0E332B9F1E43240F4E13249F1D2
:10085000E23260F5E03209F0DDC011C0E93208F49F
:1008600041C044C0E43409F4BDC0E43408F4B6C067
:10087000E53409F4C0C0E63409F0CCC0C6C08A85AE
:100880000E94C3118059914028F481E090E0A0E0DB
:10089000B0E0C5C0D1011D921D921D921C9213970C
:1008A000C3C08A850E94AE1290E0B7C085E290E096
:1008B000A0E0B0E0B4C08A8560E00E94661284E1E6
:1008C00090E00E9470218A850E94C311A0E0B0E0F0
:1008D000F10180839183A283B3838A8564E00E94BF
:1008E0006612A2C08A850E94321797C0D1011D925C
:1008F0001D921D921C92139710E0EA85FB85EE5C19
:10090000FD4FFD83EC838A859B8523E0880F991F2B
:100910002A95E1F79F838E83AA85BB85A05DBD4F95
:10092000B987A88750C0F101608071808280938070
:10093000412E5524EE81FF81E40DF51DDF01A85FF6
:10094000BD4F2C912170CF018C5B9D4F9B838A837F
:100950007F0104E0EE0CFF1C0A95E1F7B4E5CB2E15
:10096000B2E0DB2ECE0EDF1EA4E6AA2EA3E0BA2E46
:10097000AE0CBF1C8981EC5CFD4F6081A885B985F8
:100980004C91EA81FB810081A4E6B2E0EA0EFB1EF5
:10099000F601C0800E94401190E081709070012E9D
:1009A00002C0880F991F0A94E2F7AA2797FDA09525
:1009B000BA2F86299729A829B929F1018083918323
:1009C000A283B3831F5FAC81BD818C91181708F49B
:1009D000AACF2AC08A850E94101E07C08A850E945D
:1009E000FA1D0CC08A850E94B81DF10160837183D5
:1009F0008283938319C08A850E94181DD1016D934B
:100A00007D938D939C9313970FC082E090E0A0E0BC
:100A1000B0E005C089810E94C311A0E0B0E0F101FF
:100A200080839183A283B3838A859B8501969B876C
:100A30008A87A4E0B0E02A0E3B1E029709F0F6CEAA
:100A40002B960FB6F894DEBF0FBECDBFCF91DF91CE
:100A50001F910F91FF90EF90DF90CF90BF90AF90DC
:100A60009F908F907F906F905F904F903F902F90CE
:100A70000895EF92FF920F931F93CF93DF930E94FD
:100A8000AC2044E3E42E42E0F42E00E312E0C0E0A8
:100A9000D0E08C2FFE01EA5FFD4F6081693209F4DE
:100AA00046C06A32E8F4643289F1653278F4613222
:100AB00031F1623220F4603209F054C01DC062325C
:100AC00009F452C0633209F04DC01DC0663231F1E5
:100AD0006632F8F0673229F1683209F043C024C069
:100AE0006334E1F1643418F46A3281F523C064346C
:100AF000A9F16534B9F52EC08C2F60E033C08C2F7E
:100B00000E94CF1231C08C2F64E02CC08C2F6DE07E
:100B100002C08C2F6EE00E94FD1626C08C2F6FE065
:100B2000FACF8C2F60E1F7CF8C2F61E1F4CF8C2FBF
:100B300060E002C08C2F64E00E9466128C2FF701E7
:100B40006081F80140810E9412090EC08C2F0E9422
:100B5000471F0AC08C2F60E00E9466128C2F0E94F3
:100B6000061D02C00E946612219688E090E0E80E01
:100B7000F91E0F5F1F4FC230D10509F08ACFDF91F8
:100B8000CF911F910F91FF90EF9008956F927F92F8
:100B90008F929F92AF92BF92CF92DF92EF92FF928D
:100BA0000F931F93CF93DF93109269041092680400
:100BB000C8E2D2E081E060E041E00E944B016115B3
:100BC00071058105910569F181E060E045E00E94D1
:100BD0004B01462F4F5F81E060E00E944B019B017B
:100BE000AC01288339834A835B8360FF0BC088276D
:100BF0009927DC01821B930BA40BB50B8883998387
:100C0000AA83BB83688179818A819B8122E030E05D
:100C100040E050E00E949B25288339834A835B8310
:100C200004C0188219821A821B82249682E0C03383
:100C3000D80709F0BFCFE0902802F0902902009178
:100C40002A0210912B02E114F1040105110561F44F
:100C500080912C0290912D02A0912E02B0912F0232
:100C60000097A105B10561F020912C0230912D0271
:100C700040912E0250912F02C801B7010E947518B1
:100C800081E060E04AE00E944B019B01AC0180E002
:100C9000B9010E94451981E060E04AE00E944B01E1
:100CA0009B01AC0181E0B9010E944519CC24DD24EF
:100CB000F601EA5FFD4F80818952823008F048C01A
:100CC000EE2472E3672E72E0772E6C0C7D1C4601D9
:100CD00063E0880C991C6A95E1F736C0E401CE0DFB
:100CE000D11DFE01E85FFD4F808181FD2CC081E0B8
:100CF00060E044E00E944B018E010C5B1D4FF80147
:100D0000608381E060E044E00E944B01FE01EC5A08
:100D1000FD4F6083FF2458018E0154E0000F111F26
:100D20005A95E1F70CC081E060E048E00E944B0179
:100D3000F801EF0DF11DEC59FD4F6083F394F501BF
:100D40008081F81680F3E394F3018081E81630F295
:100D50000894C11CD11CF2E0CF16D10409F0A8CF31
:100D6000DF91CF911F910F91FF90EF90DF90CF9087
:100D7000BF90AF909F908F907F906F900895EF926B
:100D8000FF920F931F9385E891E066E871E041E0E0
:100D900050E00E94F407809384018823A9F40E9404
:100DA00009216093640470936504809366049093B2
:100DB000670410918601143019F40E94561888C0F7
:100DC000113009F085C016C0813009F081C00E9441
:100DD0000921609364047093650480936604909382
:100DE000670410918601143019F40E94561869C0E6
:100DF000113011F580918501823009F069C080E0E1
:100E000060E00E94661280E00E94C3118A3F910553
:100E100080F490918701892F81508E3F50F4892F63
:100E20000E94C5081093860181E066E871E00E9487
:100E3000C2070E9439054CC0123029F40E94B70144
:100E40000E9439053EC0133089F40E94C6050E94F5
:100E5000F60388E192E06CE172E00E945A180E9469
:100E60005A0210938601809185012EC0153081F5BC
:100E700020918A0130E040E050E0542F432F322F80
:100E8000222780918901280F311D411D511DA90183
:100E9000332722279091880180E060918701860F97
:100EA000911DAA2797FDA095BA2F280F391F4A1F19
:100EB0005B1F20930E0130930F014093100150935C
:100EC00011011093860181E066E871E00E94C2077B
:100ED00080910E0190910F01A0911001B09111012C
:100EE0000097A105B105E9F00E94092120910E01AA
:100EF00030910F014091100150911101E090640474
:100F0000F090650400916604109167042E0D3F1D5A
:100F1000401F511F261737074807590710F40E9432
:100F2000561880910602843219F480E00E94AD16B2
:100F300080910702843219F481E00E94AD161F915E
:100F40000F91FF90EF90089560E271EA87E090E0E2
:100F50000E94BC080E943F180E9491120895F999BE
:100F6000FECF72BD61BDF89A80B50895F999FECFA4
:100F70001FBA72BD61BD40BD0FB6F894FA9AF99AD6
:100F80000FBE0895CF93DF93482FA82FB0E0CDE692
:100F9000D4E0FB0104C08191A80FB11D89938E2F6D
:100FA000861B8417C0F3CD0190709093ED0480935D
:100FB000EC0480936B0440936C044E5F8AEF96E0E0
:100FC0006BE674E050E00E94EA24DF91CF9108952F
:100FD00004C08AEF96E00E940C248AEF96E00E94FB
:100FE000DB23892BB1F708956F927F928F929F92A6
:100FF000AF92BF92CF92DF92EF92FF920F931F9327
:10100000CF93DF934C013B01EA010E9409215B0170
:101010006C017E010027F7FC0095102F0FC0209770
:1010200069F00E9409216A197B098C099D096E15D6
:101030007F058007910710F08EEF7CC08AEF96E065
:101040000E94DB23892B59F3FF2409C08AEF96E025
:101050000E94DB23F82E82E390E00E9470210F2D86
:1010600010E08AEF96E00E94DB230817190774F35B
:1010700082E08F1520F00E94E8078CEF5BC0C0E093
:10108000D0E08AEF96E00E940C24FE01E559FB4F68
:1010900080832196CF15A8F360916B0490916C0426
:1010A00020916D04F40120838091EB04681721F0F6
:1010B000662311F08DEF3EC030E003501040201742
:1010C000310711F08AEF36C0260F311DEEE6F4E04D
:1010D0008DEFF80E4F2D50E04E0F5F1F03C0819132
:1010E000280F311DE417F507D1F730703093ED0468
:1010F0002093EC04892F90E08217930711F490E07D
:1011000012C08AEF96E060E071E00E9430258BEF1C
:1011100011C0E92FF0E0D301AE0FBF1FE559FB4F1F
:1011200083818C939F5FF4018081981790F3862FC1
:10113000611181E0DF91CF911F910F91FF90EF90AE
:10114000DF90CF90BF90AF909F908F907F906F90E7
:1011500008958AE694E060E070E00E94AF07982F5F
:1011600081508E3F20F49093EB0481E008958EEF40
:101170008093EB0480E00895AB01BC018AEF96E018
:101180000E9454230E94A90808951F93182F8AE6ED
:1011900094E060E070E00E94AF07811739F08AE6C2
:1011A00094E060E070E0412F0E94B6071093EB04DA
:1011B0001F910895582F823010F081E008954093D8
:1011C000F0048093110584E090E0052E02C0880FA2
:1011D000991F0A94E2F78093EE0480958093F104BE
:1011E000852F8E5F8093120521E030E0F90102C067
:1011F000EE0FFF1F8A95E2F7E093FD04052E02C073
:10120000220F331F0A94E2F72093FB04822F80956C
:101210008093EF045093F2042093FC046093000544
:1012200080E008950E94DA08882311F081E0089593
:1012300080911105882341F487B18A7F87B988B1ED
:101240008A7F88B980E0089587B1857F87B988B1A2
:10125000857F88B980E008956091F0046623A9F045
:10126000262F30E02150304080E090E00BC000009D
:10127000000000000000000000000000000000006E
:10128000000001968217930790F387B19091F104C3
:10129000892387B98091FD04482F50E020ED37E085
:1012A00086B190E084239523892B69F40000000027
:1012B00000000000000000000000000000002150BD
:1012C000304071F766C06623B9F42BC086B190E058
:1012D00084239523892B11F082E0089500000000FB
:1012E000000000000000000000000000000021508D
:1012F000304061F786E00895262F30E021503040DD
:1013000080E090E00BC00000000000000000000042
:101310000000000000000000000001968217930703
:1013200090F387B19091EF04892387B98091FC04F1
:10133000482F50E020ED37E086B190E084239523DC
:10134000892B71F400000000000000000000000084
:101350000000000000002150304071F784E0089543
:101360006623A9F0262F30E02150304080E090E045
:101370000BC00000000000000000000000000000A2
:1013800000000000000001968217930790F380E0B0
:10139000089587B19091EF04892387B98091FC0467
:1013A000482F50E020ED37E091CF582F87B1F091D2
:1013B000EE048F2B87B957FF05C087B19091EF04DA
:1013C000892304C087B19091FB04892B87B9409190
:1013D000F0044423A9F0242F30E02150304080E075
:1013E00090E00BC0000000000000000000000000C2
:1013F000000000000000000001968217930790F3A0
:1014000087B1E091F1048E2387B98091FD04682FA4
:1014100070E020ED37E086B190E086239723892B9A
:1014200069F400000000000000000000000000005F
:10143000000000002150304071F7CCC24423A9F0D5
:10144000242F30E02150304080E090E00BC00000BD
:10145000000000000000000000000000000000008C
:10146000000001968217930790F387B18F2B87B9FD
:1014700056FF05C087B19091EF04892304C087B15E
:101480009091FB04892B87B94423A9F0242F30E0E5
:101490002150304080E090E00BC0000000000000D0
:1014A00000000000000000000000000000000196A5
:1014B0008217930790F387B18E2387B920ED37E029
:1014C00086B190E086239723892B69F40000000001
:1014D000000000000000000000000000000021509B
:1014E000304071F777C24423A9F0242F30E0215017
:1014F000304080E090E00BC00000000000000000E1
:1015000000000000000000000000000001968217AB
:10151000930790F387B18F2B87B955FF05C087B12B
:101520009091EF04892304C087B19091FB04892B2B
:1015300087B94423A9F0242F30E02150304080E0C7
:1015400090E00BC000000000000000000000000060
:10155000000000000000000001968217930790F33E
:1015600087B18E2387B920ED37E086B190E08623DE
:101570009723892B69F400000000000000000000A0
:1015800000000000000000002150304071F722C22E
:101590004423A9F0242F30E02150304080E090E037
:1015A0000BC0000000000000000000000000000070
:1015B00000000000000001968217930790F387B1A6
:1015C0008F2B87B954FF05C087B19091EF04892311
:1015D00004C087B19091FB04892B87B94423A9F0FB
:1015E000242F30E02150304080E090E00BC000001C
:1015F00000000000000000000000000000000000EB
:10160000000001968217930790F387B18E2387B964
:1016100020ED37E086B190E086239723892B69F48B
:1016200000000000000000000000000000000000BA
:1016300000002150304071F7CDC14423A9F0242F80
:1016400030E02150304080E090E00BC0000000000E
:10165000000000000000000000000000000000008A
:1016600001968217930790F387B18F2B87B953FFA9
:1016700005C087B19091EF04892304C087B1909190
:10168000FB04892B87B94423A9F0242F30E0215093
:10169000304080E090E00BC000000000000000003F
:1016A000000000000000000000000000019682170A
:1016B000930790F387B18E2387B920ED37E086B189
:1016C00090E086239723892B69F400000000000036
:1016D0000000000000000000000000002150304029
:1016E00071F778C14423A9F0242F30E02150304015
:1016F00080E090E00BC0000000000000000000004F
:10170000000000000000000000000196821793070F
:1017100090F387B18F2B87B952FF05C087B19091A5
:10172000EF04892304C087B19091FB04892B87B90A
:101730004423A9F0242F30E02150304080E090E095
:101740000BC00000000000000000000000000000CE
:1017500000000000000001968217930790F387B104
:101760008E2387B920ED37E086B190E0862397235A
:10177000892B69F400000000000000000000000058
:101780000000000000002150304071F723C14423C5
:10179000A9F0242F30E02150304080E090E00BC0D1
:1017A0000000000000000000000000000000000039
:1017B0000000000001968217930790F387B18F2BEA
:1017C00087B951FF05C087B19091EF04892304C008
:1017D00087B19091FB04892B87B94423A9F0242F6A
:1017E00030E02150304080E090E00BC0000000006D
:1017F00000000000000000000000000000000000E9
:1018000001968217930790F387B18E2387B920ED55
:1018100037E086B190E086239723892B69F4000096
:1018200000000000000000000000000000000000B8
:101830002150304071F7CEC04423A9F0242F30E06E
:101840002150304080E090E00BC00000000000001C
:1018500000000000000000000000000000000196F1
:101860008217930790F387B18F2B87B950FF05C07C
:1018700087B19091EF04892304C087B19091FB0454
:10188000892B87B94423A9F0242F30E02150304020
:1018900080E090E00BC000000000000000000000AD
:1018A000000000000000000000000196821793076E
:1018B00090F387B18E2387B920ED37E086B190E0B1
:1018C00086239723892B69F40000000000000000A4
:1018D000000000000000000000002150304071F7BF
:1018E00079C04423A9F0242F30E02150304080E01B
:1018F00090E00BC0000000000000000000000000AD
:10190000000000000000000001968217930790F38A
:1019100087B18F2B87B987B19091EF04892387B95D
:101920004423A9F0242F30E02150304080E090E0A3
:101930000BC00000000000000000000000000000DC
:1019400000000000000001968217930790F387B112
:101950008E2387B920ED37E086B190E08623972368
:10196000892B69F400000000000000000000000066
:101970000000000000002150304071F72BC086B1FC
:101980006091F2044423A9F050E04150504020E01F
:1019900030E00CC00000000000000000000000006B
:1019A00000000000000000002F5F3F4F24173507A4
:1019B00088F390E002C0959587956A95E2F7282F05
:1019C000217087B18F2B87B987B19091FB04892B48
:1019D00087B901C022E0822F0895FF920F931F93D1
:1019E000CF93DF93482F8150803110F008E053C02F
:1019F000809100058E7F80930105A2E0B5E0FB0198
:101A000002C081918D938E2F861B8417D0F3F42E04
:101A1000F394F092FE0487B19091FB04892B87B96F
:101A20008091F0048823A9F0282F30E02150304025
:101A300080E090E00BC0000000000000000000000B
:101A400000000000000000000000019682179307CC
:101A500090F3C1E0D5E010E017C089910E94D5094C
:101A6000082F882381F0813019F40E942C0911C0BD
:101A700087B19091F104892387B987B19091EF04E0
:101A8000892387B906C01F5F1F1538F30E942C09F0
:101A9000082F1092FE04802FDF91CF911F910F919C
:101AA000FF900895DF92EF92FF920F931F93CF93D1
:101AB000DF93EC01D62E87B1A091EE048A2B87B973
:101AC00087B19091EF04892387B987B18A2B87B9B1
:101AD0004091F0044423A9F0242F30E021503040FD
:101AE00080E090E00BC0000000000000000000005B
:101AF000000000000000000000000196821793071C
:101B000090F387B1B091F1048B2387B98091FD04E4
:101B1000E82FF0E020ED37E086B190E08E239F23A0
:101B2000892B69F4000000000000000000000000A4
:101B30000000000000002150304071F7EFC286B174
:101B40007091F20490E0072E02C0959587950A9453
:101B5000E2F7EE24E394E822E092F3044423A9F0B0
:101B6000242F30E02150304080E090E00BC0000096
:101B70000000000000000000000000000000000065
:101B8000000001968217930790F387B18A2B87B9DB
:101B90004423A9F0242F30E02150304080E090E031
:101BA0000BC000000000000000000000000000006A
:101BB00000000000000001968217930790F387B1A0
:101BC0008B2387B920ED37E086B190E08E239F23E9
:101BD000892B69F4000000000000000000000000F4
:101BE0000000000000002150304071F797C286B11C
:101BF00090E0072E02C0959587950A94E2F7FF249E
:101C0000F394F822F092F4044423A9F0242F30E056
:101C10002150304080E090E00BC000000000000048
:101C2000000000000000000000000000000001961D
:101C30008217930790F387B18A2B87B94423A9F0C1
:101C4000242F30E02150304080E090E00BC00000B5
:101C50000000000000000000000000000000000084
:101C6000000001968217930790F387B18B2387B901
:101C700020ED37E086B190E08E239F23892B69F415
:101C80000000000000000000000000000000000054
:101C900000002150304071F741C286B190E0072E1C
:101CA00002C0959587950A94E2F7082F017000937A
:101CB000F5044423A9F0242F30E02150304080E087
:101CC00090E00BC0000000000000000000000000D9
:101CD000000000000000000001968217930790F3B7
:101CE00087B18A2B87B94423A9F0242F30E02150F3
:101CF000304080E090E00BC00000000000000000D9
:101D000000000000000000000000000001968217A3
:101D1000930790F387B18B2387B920ED37E086B125
:101D200090E08E239F23892B69F4000000000000BF
:101D300000000000000000000000000021503040C2
:101D400071F7ECC186B190E0072E02C0959587959A
:101D50000A94E2F7182F11701093F6044423A9F0A7
:101D6000242F30E02150304080E090E00BC0000094
:101D70000000000000000000000000000000000063
:101D8000000001968217930790F387B18A2B87B9D9
:101D90004423A9F0242F30E02150304080E090E02F
:101DA0000BC0000000000000000000000000000068
:101DB00000000000000001968217930790F387B19E
:101DC0008B2387B920ED37E086B190E08E239F23E7
:101DD000892B69F4000000000000000000000000F2
:101DE0000000000000002150304071F797C186B11B
:101DF00090E0072E02C0959587950A94E2F7682F28
:101E000061706093F7044423A9F0242F30E021503F
:101E1000304080E090E00BC00000000000000000B7
:101E20000000000000000000000000000196821782
:101E3000930790F387B18A2B87B94423A9F0242F05
:101E400030E02150304080E090E00BC00000000006
:101E50000000000000000000000000000000000082
:101E600001968217930790F387B18B2387B920EDF2
:101E700037E086B190E08E239F23892B69F4000020
:101E80000000000000000000000000000000000052
:101E90002150304071F742C186B190E0072E02C058
:101EA000959587950A94E2F7582F51705093F8044E
:101EB0004423A9F0242F30E02150304080E090E00E
:101EC0000BC0000000000000000000000000000047
:101ED00000000000000001968217930790F387B17D
:101EE0008A2B87B94423A9F0242F30E021503040B9
:101EF00080E090E00BC00000000000000000000047
:101F00000000000000000000000001968217930707
:101F100090F387B18B2387B920ED37E086B190E04D
:101F20008E239F23892B69F400000000000000002D
:101F3000000000000000000000002150304071F758
:101F4000EDC086B190E0072E02C0959587950A9462
:101F5000E2F781708093F9044423A9F0242F30E044
:101F60002150304080E090E00BC0000000000000F5
:101F700000000000000000000000000000000196CA
:101F80008217930790F387B18A2B87B94423A9F06E
:101F9000242F30E02150304080E090E00BC0000062
:101FA0000000000000000000000000000000000031
:101FB000000001968217930790F387B18B2387B9AE
:101FC00020ED37E086B190E08E239F23892B69F4C2
:101FD0000000000000000000000000000000000001
:101FE00000002150304071F799C086B190E002C0E6
:101FF000959587957A95E2F7782F71707093FA042A
:102000004423A9F0242F30E02150304080E090E0BC
:102010000BC00000000000000000000000000000F5
:1020200000000000000001968217930790F387B12B
:102030008A2B87B9DD2029F087B19091FB04892B89
:1020400087B94423A9F0242F30E02150304080E0AC
:1020500090E00BC000000000000000000000000045
:10206000000000000000000001968217930790F323
:1020700087B18B2387B98091F904880F872B550F7F
:10208000550F582B660F660F660F652B1295107F44
:10209000162B0295000F007E012BF294FF0CFF0C13
:1020A00080ECF822F02AE794EE24E794EF28E88207
:1020B00020ED37E086B190E08E239F23892B69F4D1
:1020C0000000000000000000000000000000000010
:1020D00000002150304071F721C04423A9F0242F83
:1020E00030E02150304080E090E00BC00000000064
:1020F00000000000000000000000000000000000E0
:1021000001968217930790F387B18A2B87B987B11D
:102110009091FB04892B87B980E001C082E0DF91B8
:10212000CF911F910F91FF90EF90DF9008955F92F4
:102130006F927F928F929F92AF92BF92CF92DF92D7
:10214000EF92FF920F931F93DF93CF930F92CDB730
:10215000DEB7F82E862E572E982E9A948FE089158A
:1021600018F428E0E22E7AC0F394F092FE04FA9478
:10217000F092FF048091000581608093010592E058
:10218000A92E95E0B92EF501CF2CDD24CA0CDB1C5D
:1021900001C01192EC15FD05E1F787B19091FB04A8
:1021A000892B87B98091F0048823A9F0282F30E08B
:1021B0002150304080E090E00BC0000000000000A3
:1021C0000000000000000000000000000000019678
:1021D0008217930790F3809101050E94D509E82E9C
:1021E000882339F400E010E03E010894611C711C62
:1021F00020C00E942C091092FE0430C0C301692D3A
:102200000E94520DE82E0F5F1F4F9A9491E098178D
:1022100058F487B19091F104892387B987B19091DF
:10222000EF04892387B91AC0F801EF5FFA4F89815B
:1022300080830F1518F30E942C09E82E1092FE04DB
:102240001092FF04882D952D9C01F90104C0D50141
:102250008D915D018193AC14BD04C9F78E2D0F9053
:10226000CF91DF911F910F91FF90EF90DF90CF9072
:10227000BF90AF909F908F907F906F905F900895E8
:10228000AF92BF92CF92EF92FF920F931F93122FB4
:102290000E94DA08882309F06DC0002339F0802FEE
:1022A000B7010E94ED0C882309F064C0CC2011F422
:1022B00081E061C0112309F453C087B19091EE040D
:1022C000892B87B96091F0046623A9F0262F30E0AE
:1022D0002150304080E090E00BC000000000000082
:1022E0000000000000000000000000000000019657
:1022F0008217930790F387B19091F104892387B9EE
:102300008091FD04482F50E020ED37E086B190E049
:1023100084239523892B69F400000000000000004D
:10232000000000000000000000002150304071F764
:1023300021C06623A9F0262F30E02150304080E0F4
:1023400090E00BC000000000000000000000000052
:10235000000000000000000001968217930790F330
:102360008C2DB5010E949710982F811191E081E08A
:10237000892701C080E01F910F91FF90EF90CF90CF
:10238000BF90AF9008958A5F883018F020E030E069
:1023900016C0877080937C0080917A00806480935F
:1023A0007A0080917A0086FDFCCF309178002091F0
:1023B0007900922F80E0232F30E0282B392BC901A0
:1023C0000895883018F020E030E016C087708093C0
:1023D0007C0080917A00806480937A0080917A00FA
:1023E00086FDFCCF3091780020917900922F80E01B
:1023F000232F30E0282B392BC9010895382F66236D
:1024000061F027B184E090E0032E02C0880F991F8D
:102410000A94E2F7282B27B90CC027B184E090E09A
:10242000032E02C0880F991F0A94E2F78095822339
:1024300087B9442359F028B184E090E002C0880FA6
:10244000991F3A95E2F7282B28B9089528B184E01E
:1024500090E002C0880F991F3A95E2F78095822399
:1024600088B90895382F662361F027B181E090E0A4
:10247000032E02C0880F991F0A94E2F7282B27B970
:102480000CC027B181E090E0032E02C0880F991F95
:102490000A94E2F78095822387B9442359F028B142
:1024A00081E090E002C0880F991F3A95E2F7282B4F
:1024B00028B9089528B181E090E002C0880F991FE3
:1024C0003A95E2F78095822388B908950F931F9378
:1024D000082F162F823010F080E020C06170412F4D
:1024E00048700E94FE11612F6270412F4071802F51
:1024F0000E9432122AB180E490E002C0880F991F36
:102500000A95E2F7982F282B2AB912FF03C08BB146
:10251000982B03C08BB1909598239BB91F910F9175
:102520000895EAE7F0E080818E7F808380818D7F4F
:10253000808380818B7F80838081846080838081A1
:102540008160808380818068808380E060E00E9479
:10255000661281E060E00E9466120895AF92BF9219
:10256000CF92EF92FF920F9392E49093130562E063
:1025700047E021E001E053E1E52E55E0F52ECC24C3
:10258000C39457010E944011882311F080911305D4
:102590000F91FF90EF90CF90BF90AF9008951F9351
:1025A000182F62E047E00E941209882311F080E0B2
:1025B00005C0812F64E00E94661281E01F9108959A
:1025C0006F927F928F929F92AF92BF92CF92DF9243
:1025D000EF92FF920F931F93CF93DF9380912B0580
:1025E000E82EFF24E70193E0CC0FDD1F9A95E1F779
:1025F000FE01E45CFA4F868097809401442737FD02
:102600004095542FFE01E05BFA4F80819181A281B9
:10261000B381281739074A075B0724F482E0682E44
:10262000712C10C066247724C45BDA4F88819981AD
:10263000AA81BB81281739074A075B071CF401E010
:10264000602E712CC70113E0880F991F1A95E1F7CE
:10265000BCE3AB2EB5E0BB2EA80EB91EE701CC0F34
:10266000DD1FCE0DDF1DC60DD71DF4E0CC0FDD1F25
:10267000FA95E1F7C45ADA4F8C01045D1A4FCC2465
:10268000DD24F501608171818616970688F468194A
:10269000790980E090E0288139814A815B810E943C
:1026A0003325BC0188279927F8017183608303C013
:1026B000F801118210820894C11CD11C42E050E044
:1026C000A40EB51E24960E5F1F4F53E0C516D1040D
:1026D000C1F688E4881691041CF420E030E003C0C1
:1026E000940127543040870153E0000F111F5A9581
:1026F000E1F7045D1A4F84E690E0FC012E9FC001D3
:102700002F9F900D3E9F900D11246CE170E00E9470
:102710006625882777FD8095982FF701EE0FFF1F1C
:10272000EE0DFF1DE60DF71D34E0EE0FFF1F3A958D
:10273000E1F7E45AFA4F24853585468557850E948E
:102740003325BC0188279927F80177836683DF91B9
:10275000CF911F910F91FF90EF90DF90CF90BF909E
:10276000AF909F908F907F906F900895CF93DF935D
:10277000E0912B05F0E073E0EE0FFF1F7A95E1F793
:10278000CF01845D9A4FDC014D915C91DF01A05D2A
:10279000BA4F0D90BC91A02DE25DFA4F0190F081EF
:1027A000E02DEC016E817F81A417B5070CF049C0C4
:1027B000E417F5070CF045C0413451050CF4EEC0A8
:1027C0006832710524F44E3651050CF4E7C0CD0192
:1027D00095958795959587959D013595279535957F
:1027E000279535952795820F931F8A0F9B1F8E176C
:1027F0009F073CF4CF01880F991F481759070CF425
:10280000CFC0CF01880F991F9F013595279535952A
:102810002795821B930B8417950714F485E0C7C096
:10282000A634B1050CF4BAC0E634F1050CF4B6C018
:102830006C3871050CF0B6C04C3851050CF4AEC0C4
:10284000B1C0AE17BF07CCF5E832F1050CF4A6C055
:102850006E31710524F4E634F1050CF49FC0CD010E
:10286000880F991F841795070CF49AC0CA01959593
:10287000879595958795840F951F8E179F070CF464
:1028800093C0CD0195958795959587958A0F9B1F48
:102890008E179F070CF488C0463451050CF47EC097
:1028A000A634B1050CF47AC06C3871050CF07AC00E
:1028B000EC38F1050CF472C075C0A033B1050CF40E
:1028C0006DC06931710524F4A535B1050CF466C0FD
:1028D00020E330E0429FC001439F900D529F900D36
:1028E0001124689414F8959587951694E1F78A1742
:1028F0009B0784F4E29FC001E39F900DF29F900D2F
:10290000112425E0959587952A95E1F78A179B076D
:102910000CF44CC02AE330E0429FC001439F900D6D
:10292000529F900D1124689414F8959587951694EC
:10293000E1F78A179B07D4F1E29FC001E39F900D56
:10294000F29F900D112425E0959587952A95E1F742
:102950008A179B075CF14C33510504F1EC33F10508
:10296000ECF06E3671051CF4A837B105BCF0CA0155
:1029700033E0959587953A95E1F7840F951F8A176F
:102980009B07A4F0CF0123E0959587952A95E1F761
:102990008E0F9F1F8A179B072CF408C081E007C089
:1029A00084E005C086E003C083E001C082E0DF91DF
:1029B000CF9108950F931F9327B130912B0504E019
:1029C00010E0C801032E02C0880F991F0A94E2F795
:1029D000282B27B928B1822B88B927B181E090E054
:1029E00002C0880F991F3A95E2F7282B27B928B122
:1029F000822B88B961E070E080E090E00E941721AE
:102A000027B1C80100902B0502C0880F991F0A94B6
:102A1000E2F7282B27B928B18095822388B961E095
:102A200070E080E090E00E94172127B1C80100907B
:102A30002B0502C0880F991F0A94E2F7282B27B9AB
:102A400028B1822B88B961E070E080E090E00E94BC
:102A5000172187B100902B0502C0000F111F0A94A7
:102A6000E2F7802B87B988B10095082308B964E69E
:102A700070E080E090E00E9417211F910F9108956F
:102A8000CF92DF92EF92FF921F93CF93DF9310E0EC
:102A9000C0E0D0E0F4E0EF2EF12CE1E0CE2ED12C1E
:102AA00027B1C70100902B0502C0880F991F0A9417
:102AB000E2F7282B27B928B1822B88B988E090E06B
:102AC0000E947021169527B130912B05C601032E67
:102AD00002C0880F991F0A94E2F78095822387B974
:102AE00086B190E0032E02C0959587950A94E2F78F
:102AF00080FD106887B1A70102C0440F551F3A95A9
:102B0000E2F79A01842B87B988B12095282328B948
:102B10002196C830D10521F6812FDF91CF911F91E9
:102B2000FF90EF90DF90CF900895AF92BF92CF9239
:102B3000DF92EF92FF920F931F93CF93DF9327B112
:102B400081E090E000902B0502C0880F991F0A9445
:102B5000E2F78095822387B9AA24BB244DC00E9446
:102B6000401520E030E02F5F3F4F28303105D9F786
:102B700090E0A0E0B0E00C2E04C0880F991FAA1FBF
:102B8000BB1F0A94D2F7E82AF92A0A2B1B2B289696
:102B9000C032D10521F780912B0590E0FC01EE0FAA
:102BA000FF1FE80FF91FEA0DFB1DEE0FFF1FEE0FD1
:102BB000FF1FEC0DFD1DEE0FFF1FEE0FFF1FE45A70
:102BC000FA4FE082F182028313830894C11CD11C66
:102BD00084E0C816D10431F0EE24FF248701C0E060
:102BE000D0E0BDCF0894A11CB11C83E0A816B104AD
:102BF00019F4CC24DD2437C0CC24DD24EDCF289675
:102C00000E94401520E030E02F5F3F4F2830310513
:102C1000D9F790E00C2E02C0880F991F0A94E2F7B2
:102C2000AA2797FDA095BA2FE82AF92A0A2B1B2B71
:102C3000C830D10521F7E0912B05F0E0EE0FFF1F22
:102C4000EC0DFD1DEE0FFF1FEE0FFF1FE45BFA4FB3
:102C5000E082F182028313830894C11CD11C82E0BC
:102C6000C816D10431F0EE24FF248701C0E0D0E083
:102C7000C7CF0E9440150E94401562E070E080E0DE
:102C800090E00E94172181E0DF91CF911F910F9179
:102C9000FF90EF90DF90CF90BF90AF900895CF92CC
:102CA000DF92EF92FF920F931F93CF93DF93582FF2
:102CB00000E010E064E0E62EF12C41E0C42ED12CBF
:102CC00047B120912B05C701022E02C0880F991F22
:102CD0000A94E2F7482B47B948B1842B88B987B1E9
:102CE000B60102C0660F771F2A95E2F79B01862B7B
:102CF00087B9C52FD0E050FF03C088B1282B03C08F
:102D000088B12095282328B98EE190E00E94702197
:102D100087B1970100902B0502C0220F331F0A9440
:102D2000E2F7822B87B988B12095282328B98EE154
:102D300090E00E9470210F5F1F4F0830110521F0B5
:102D4000D595C7955C2FBCCFDF91CF911F910F9187
:102D5000FF90EF90DF90CF9008950F931F938230F4
:102D600008F048C080932B0527B104E010E0A801CB
:102D700002C0440F551F8A95E2F7CA01242B27B9D8
:102D800028B1822B88B984E190E00E94702127B19C
:102D9000C80100902B0502C0880F991F0A94E2F722
:102DA000282B27B928B18095822388B984E190E047
:102DB0000E94702127B1C80100902B0502C0880F26
:102DC000991F0A94E2F7282B27B928B1822B88B9DA
:102DD00084E190E00E94702187B100902B0502C031
:102DE000000F111F0A94E2F7802B87B988B1009574
:102DF000082308B91F910F9108951F93162F823051
:102E0000D8F480932B05E82FF0E0EE0FFF1FE45479
:102E1000FA4F608311820E94DA14812F0E944F16AC
:102E200080E89CE00E9470210E94951568E770E0A0
:102E300080E090E00E9417211F91089580912B055A
:102E40000E94E11122E330E0AC01429FC001439FA8
:102E5000900D529F900D112461E270E00E94522566
:102E6000CB0108950F931F93CF93DF93823018F017
:102E7000A0E0B0E0FEC080932B0527B1C82FD0E0C2
:102E800081E090E00C2E02C0880F991F0A94E2F7AF
:102E90008095282327B928B1822388B9FE01EE0F37
:102EA000FF1FE454FA4F008111810D30110509F024
:102EB000B7C00E941E17F3E0CC0FDD1FFA95E1F7B3
:102EC000C55EDA4F9F838E8327B104E010E0C8010E
:102ED00000902B0502C0880F991F0A94E2F7282B57
:102EE00027B928B1822B88B984E190E00E94702133
:102EF00080912B05C82FD0E00E941E17E3E0CC0F75
:102F0000DD1FEA95E1F7C55EDA4F9983888327B123
:102F1000C80100902B0502C0880F991F0A94E2F7A0
:102F2000282B27B928B18095822388B984E190E0C5
:102F30000E94702180912B05C82FD0E00E941E179F
:102F400073E0CC0FDD1F7A95E1F7C35EDA4F99830A
:102F5000888327B1C80100902B0502C0880F991FF4
:102F60000A94E2F7282B27B928B1822B88B984E18B
:102F700090E00E94702180912B05C82FD0E00E9424
:102F80001E1763E0CC0FDD1F6A95E1F7C15EDA4FD3
:102F90009983888387B1A0912B05B0E00A2E02C0E7
:102FA000000F111F0A94E2F7802B87B988B10095B2
:102FB000082308B9FD0153E0EE0FFF1F5A95E1F712
:102FC0009F01245C3A4FE55EFA4F86819781E901C3
:102FD0009F838E83808191819983888343E0AA0FA8
:102FE000BB1F4A95E1F7FD013296CF01855E9A4FEE
:102FF000EC0188819981E45CFA4F91838083149677
:10300000FD01E55EFA4F80819181A45CBA4F8D93FA
:103010009C930E94E0120E94B613A82FB0E029C032
:103020000E941E17CC0FDD1FCC0FDD1FC00FD11F5C
:10303000CC0FDD1FC150DB4F99838883E0912B05B6
:10304000F0E0EE0FFF1FDF01A454BA4F8D919C9169
:103050000E97EE0FFF1FE80FF91FEE0FFF1FDF01A6
:10306000A55EBA4F0D90BC91A02DE45CFA4FB183E0
:10307000A083CD01DF91CF911F910F9108958AB167
:10308000837C8AB98BB1837C8BB9EDE6F0E08081DB
:103090008C638083E8E6F0E080818460808385B182
:1030A000807C85B984B18F6384B9089585B1807CB3
:1030B00085B90895FC018091C3059091C405A09144
:1030C000C505B091C60580839183A283B3838091A7
:1030D000C7059091C805A091C905B091CA05FB012B
:1030E00080839183A283B3830895EF92FF920F931D
:1030F0001F93E090C305F090C4050091C5051091A1
:10310000C605E61AF70A080B190BE092C305F09200
:10311000C4050093C5051093C6058091C70590911D
:10312000C805A091C905B091CA05821B930BA40BD9
:10313000B50B8093C7059093C805A093C905B093BC
:10314000CA051F910F91FF90EF9008951F920F9263
:103150000FB60F9211242F933F934F935F936F936A
:103160007F938F939F93AF93BF93EF93FF9399B107
:103170008091C00589279093C0058C73682F70E0FB
:10318000CB0184719070892BA9F13091C10529B1CF
:1031900089B12695227090E0B4E095958795BA950F
:1031A000E1F78170282B330F330F322B3F703093B0
:1031B000C1052091C3053091C4054091C5055091CA
:1031C000C605E091C105F0E0EE0FFF1FED5BFE4F7D
:1031D00080819181AA2797FDA095BA2F820F931F16
:1031E000A41FB51F8093C3059093C405A093C50584
:1031F000B093C60568727070672BB1F13091C2054B
:1032000029B189B126952695227090E075E09595B3
:1032100087957A95E1F78170282B330F330F322B86
:103220003F703093C2052091C7053091C805409189
:10323000C9055091CA05E091C205F0E0EE0FFF1FED
:10324000ED5BFE4F80819181AA2797FDA095BA2F53
:10325000820F931FA41FB51F8093C7059093C805C5
:10326000A093C905B093CA05FF91EF91BF91AF91AB
:103270009F918F917F916F915F914F913F912F918E
:103280000F900FBE0F901F9018950F931F93CF9321
:10329000DF93EB01882371F58B010170107060FFE3
:1032A0001AC02C9A6C7F7370C1FF0CC0769567951D
:1032B000769567956095709570708AE00E94D72129
:1032C000289A0AC076956795769567958AE00E9458
:1032D000D721289801C02C98CC7FD370CD2B11F02A
:1032E0000023C1F58AE060E070E00E94D72185B13B
:1032F0008A7F2FC0813071F58B010170107060FFE3
:103300001AC02D9A6C7F7370C1FF0CC076956795BB
:10331000769567956095709570708BE00E94D721C7
:10332000299A0AC076956795769567958BE00E94F5
:10333000D721299801C02D98CC7FD370CD2B11F0C7
:10334000002341F48BE060E070E00E94D72185B15A
:10335000857F85B9DF91CF911F910F9108950F93CC
:103360001F93CF93DF93FC01738D76957170A685C3
:10337000B7859585772329F08C91892309F454C06A
:1033800004C08C91892309F04FC08389948920E07F
:1033900001972FEF8F3F9207D9F7C589D689A68568
:1033A000B785158560E031E040E050E000E0CE01F7
:1033B000202F01972FEF8F3F9207D9F78C91812310
:1033C00011F0632B03C0832F80956823330F4F5F69
:1033D0005F4F4830510559F78789908D20E001975C
:1033E0002FEF8F3F9207D9F77111609580910D06ED
:1033F00020910E0690E001968F73907030E0821756
:10340000930779F0E0910D06F0E0E353FA4F608303
:1034100080910D0690E001968F73907080930D0659
:1034200003C0838D8160838FDF91CF911F910F91B6
:1034300008951F920F920FB60F9211242F933F936E
:103440004F935F936F937F938F939F93AF93BF93AC
:10345000EF93FF938091CB059091CC05009711F0ED
:103460000E94AF19FF91EF91BF91AF919F918F9102
:103470007F916F915F914F913F912F910F900FBE70
:103480000F901F9018951F920F920FB60F92112454
:103490002F933F934F935F936F937F938F939F935C
:1034A000AF93BF93EF93FF938091CB059091CC05A1
:1034B000009711F00E94AF19FF91EF91BF91AF916A
:1034C0009F918F917F916F915F914F913F912F913C
:1034D0000F900FBE0F901F901895CF92DF92EF9232
:1034E000FF920F931F93CF93DF93EC017A018B012F
:1034F0001A8E198E188E1F8A1E8A1D8A1C8A1B8A94
:1035000020E030E06901CC0CDD1CC20ED31EB601F8
:10351000660F771F660F771FAB0140555F4FFA01AB
:1035200085919591A591B4918E159F05A007B1073E
:10353000E9F4FB01EC54FF4F859194919C8B8B8BAC
:10354000FB01EA54FF4F859194919E8B8D8BFB017B
:10355000E854FF4F85919491988F8F8BFB01E6542F
:10356000FF4F859194919A8F898F06C02F5F3F4FAF
:103570002D30310509F0C6CF8F89988D892B09F43C
:1035800049C04C85463108F03DC0909168004830F4
:1035900010F484E005C04E3010F082E001C081E0FC
:1035A000892B80936800483028F4EDE6F0E0ADE622
:1035B000B0E00BC04E3028F0ECE6F0E0ACE6B0E056
:1035C00004C0EBE6F0E0ABE6B0E05081483040F4F8
:1035D00081E090E002C0880F991F4A95E2F710C081
:1035E000242F30E04E3018F42850304002C02E50C6
:1035F000304081E090E002C0880F991F2A95E2F7E1
:10360000852B8C93898D9A8D20E001972FEF8F3F2A
:103610009207D9F78091CB059091CC058C179D0727
:1036200081F08B8D8E7F8B8F9FB7F89410920D0653
:1036300080910D0680930E06D093CC05C093CB05E8
:103640009FBFDF91CF911F910F91FF90EF90DF907F
:10365000CF900895FC014485463180F5483028F428
:10366000EDE6F0E0ADE6B0E00BC04E3028F4EBE65E
:10367000F0E0ABE6B0E004C0ECE6F0E0ACE6B0E0D1
:103680005081483040F481E090E002C0880F991FDB
:103690004A95E2F710C0242F30E04E3018F428503D
:1036A000304002C02E50304081E090E002C0880FD0
:1036B000991F2A95E2F7809585238C930895FC0144
:1036C00087E691E091838083CF010E942A1B0895B1
:1036D0002091CB053091CC052817390731F4909112
:1036E0000E0680910D06981719F42FEF3FEF0FC0CB
:1036F000E0910E06F0E0E353FA4F208180910E0630
:1037000090E001968F73907080930E0630E0C901AF
:1037100008952091CB053091CC052817390719F071
:1037200020E030E00EC080910D0620910E0690E062
:10373000805C9F4F821B910960E470E00E946625C7
:103740009C01C90108950F931F93DC0159968D9137
:103750009C915A97892B49F481E090E013969C93B1
:103760008E93129720E030E097C00FB7F8945B96E5
:103770008C915B975196ED91FC91529750962C91BC
:10378000509781FF8DC08081822B808359968D91C7
:103790009C915A97059620E001972FEF8F3F920753
:1037A000D9F75B968C915B9781FF35C031E040E0A3
:1037B00050E070E010E0832F90E08623972351962D
:1037C000ED91FC91529750962C915097892B29F0AE
:1037D000808120952823208303C08081822B8083D1
:1037E00059968D919C915A97212F01972FEF8F3FDA
:1037F0009207D9F7330F4F5F5F4F48305105D9F625
:103800005196ED91FC915297908150968C915097E2
:103810008095892333C031E040E050E070E010E053
:10382000832F90E0862397235196ED91FC91529738
:1038300050962C915097892B21F08081822B808388
:1038400004C0808120952823208359968D919C91D6
:103850005A97212F01972FEF8F3F9207D9F7330FF8
:103860004F5F5F4F48305105D9F65196ED91FC916D
:103870005297808150969C915097892B80830FBFDF
:1038800059968D919C915A9720E001972FEF8F3F89
:103890009207D9F721E030E0C9011F910F910895F7
:1038A000808120952823208371CF2091CB053091F2
:1038B000CC052817390749F49FB7F89410920D06E4
:1038C00080910D0680930E069FBF08952091CB0531
:1038D0003091CC052817390731F490910E0680916C
:1038E0000D06981719F42FEF3FEF0AC0E0910E066E
:1038F000F0E0E353FA4F8081282F332727FD3095DE
:10390000C90108951F93CF93DF93EC01162F862FE3
:1039100060E00E9437228B8D81FD04C0812F61E021
:103920000E9476221C87212F30E0C90182589E4FC9
:10393000FC0184918D8726593E4FF9016491E62F51
:10394000F0E0EE0FFF1FE05AFE4F859194919F87A4
:103950008E87DF91CF911F910895FF920F931F9350
:103960008C01F62E862F61E00E9437228F2D61E0B8
:103970000E9476228F2D90E0FC01E258FE4FE491E8
:10398000D8015096EC93509786599E4FFC01649154
:10399000E62FF0E0EE0FFF1FEA5AFE4F859194915B
:1039A00052969C938E9351971F910F91FF9008957B
:1039B000FF920F931F938C01F62EFC01138212824B
:1039C00088EE93E0A0E0B0E084839583A683B7837C
:1039D00087E691E091838083148A138A168A158A78
:1039E000108E178A128E118E838D2170220F8C7F7C
:1039F000822B838FC801642F0E94AD1CC8016F2DDC
:103A00000E94821C1F910F91FF90089510925F06F3
:103A100010925E06109261061092600610925B068C
:103A200010925A0610925D0610925C0680E008958E
:103A3000882369F586E080937C0080917A00806419
:103A400080937A0080917A0086FDFCCF8091780087
:103A500060917900E0E0F0E0362F20E090E0282B44
:103A6000392B40E050E0205931404040504014F4A0
:103A7000E1E0F0E080915E0690915F068E179F076F
:103A800009F43DC0F0935F06E0935E0632C08130DA
:103A900029F02FEF3FEF4FEF5FEF36C087E08093C5
:103AA0007C0080917A00806480937A0080917A0013
:103AB00086FDFCCF8091780060917900E0E0F0E035
:103AC000362F20E090E0282B392B40E050E02059A1
:103AD00031404040504014F4E1E0F0E080915C0659
:103AE00090915D068E179F0751F0F0935D06E0936D
:103AF0005C069C01442737FD4095542F05C09F016B
:103B0000442737FD4095542FB901CA0108958130EB
:103B1000910591F46F5F7F4FE1F48FE096E06EE0E6
:103B200040E120E00E94D81C8BE296E06FE041E18A
:103B300020E00E94D81C0895892B59F46F5F7F4FB5
:103B400041F48BE296E00E945F1B8FE096E00E94BA
:103B50005F1B089580E090E06FEF7FEF0E94871D6C
:103B6000089581E090E06FEF7FEF0E94871D089538
:103B70008823B1F48EE00E94B52160E070E08D5F93
:103B8000934014F061E070E080915A0690915B06DA
:103B90008617970739F170935B0660935A061CC02D
:103BA000813029F02FEF3FEF4FEF5FEF20C08FE024
:103BB0000E94B52160E070E08D5F934014F061E0F9
:103BC00070E080915C0690915D068617970751F032
:103BD00070935D0660935C069C01442737FD409519
:103BE000542F05C09B01442737FD4095542FB90140
:103BF000CA010895882311F48EE008C0813029F0AD
:103C00002FEF3FEF4FEF5FEF08C08FE00E94B5212D
:103C10009C01442737FD4095542FB901CA010895EE
:103C2000EF92FF920F931F93CF93DF93882309F0B6
:103C300085C08FE096E062E00E94A31B8FE096E0D3
:103C40000E94891B892B09F476C08FE096E00E94C0
:103C5000681B282F80934706807C803C09F06BC04E
:103C6000109265061092660610926706109268061A
:103C7000F22EF094EE244DC0CE2DD0E08FE096E0F1
:103C80000E94681BFE01E85BF94F80838091630608
:103C9000882311F4A0E005C08FE096E00E94681B25
:103CA000A82FFE01E05BF94FA083C85BD94FE881E4
:103CB000209165063091660640916706509168062E
:103CC00080916306882319F468E070E002C060E127
:103CD00070E0FE26FA2604C0220F331F441F551F32
:103CE0006A95D2F71A2F00E08E2F90E0802B912B4F
:103CF000AA2797FDA095BA2F282B392B4A2B5B2B8F
:103D000020936506309366064093670650936806D5
:103D1000E39480915806E81608F4AECF8FE096E061
:103D20000E94681B2F2D30E08217930709F48BC087
:103D30008FE096E093C08FE096E099C0813029F043
:103D40002AEF3FEF4FEF5FEF99C08BE296E062E022
:103D50000E94A31B8BE296E00E94891B892B09F429
:103D600084C08BE296E00E94681B282F8093470650
:103D7000807C803C09F079C010926506109266063E
:103D80001092670610926806F22EF094EE244DC051
:103D9000CE2DD0E08BE296E00E94681BFE01E85B2E
:103DA000F94F808380916406882311F4A0E005C058
:103DB0008BE296E00E94681BA82FFE01E05BF94FA2
:103DC000A083C85BD94FE8812091650630916606D3
:103DD000409167065091680680916406882319F423
:103DE00068E070E002C060E170E0FE26FA2604C0E0
:103DF000220F331F441F551F6A95D2F71A2F00E078
:103E00008E2F90E0802B912BAA2797FDA095BA2F9B
:103E1000282B392B4A2B5B2B2093650630936606A3
:103E20004093670650936806E39480915906E8161C
:103E300008F4AECF8BE296E00E94681B2F2D30E095
:103E40008217930749F420916506309166064091E8
:103E500067065091680612C08BE296E00E94551CDE
:103E60002EEF3FEF4FEF5FEF09C08BE296E062E08D
:103E70000E94A31B2CEF3FEF4FEF5FEFB901CA0188
:103E8000DF91CF911F910F91FF90EF9008950F93C5
:103E90001F93882309F0ADC03A9A3898623318F41A
:103EA000162F1B5210C0683318F4162F12530BC074
:103EB0006D3318F4162F185306C0633410F010E059
:103EC00002C0162F1D53E62FF0E0BB97DF01AE5E58
:103ED000BE4F8C9180936306E65DFE4F8081809398
:103EE00058068FE096E040E659E060E070E00E94FE
:103EF0006D1A8FE096E064E00E94A31B10926206A8
:103F000001E057C08FE096E00E94891B892B09F4DD
:103F100050C08FE096E00E94681B049709F049C0EA
:103F200061E070E080E090E00E9417218FE096E071
:103F300064E00E94A31B61E070E080E090E00E94DA
:103F400017218FE096E064E00E94A31B8FE096E0CB
:103F50000E942A1B8FE096E00E94551C8FE096E09D
:103F600040E051EE60E070E00E946D1A6AE070E09F
:103F700080E090E00E9417218FE096E00E94681B8D
:103F8000807C9070803C910541F48FE096E062E087
:103F90000E94A31B009362060CC08FE096E00E9473
:103FA0002A1B8FE096E040E659E060E070E00E9456
:103FB0006D1A80916206882309F4A4CF8FE096E001
:103FC00062E00E94A31B112389F08FE096E063E476
:103FD0000E94A31B8FE096E0612F0E94A31B8CEB35
:103FE00018278FE096E0612F0E94A31B8FE096E0D8
:103FF000ACC03B9A3998623318F4162F1B5210C08C
:10400000683318F4162F12530BC06D3318F4162FA3
:10401000185306C0633410F010E002C0162F1D5371
:10402000E62FF0E0BB97DF01AE5EBE4F8C91809330
:104030006406E65DFE4F8081809359068BE296E030
:1040400040E659E060E070E00E946D1A8BE296E075
:1040500064E00E94A31B1092620601E057C08BE24D
:1040600096E00E94891B892B09F450C08BE296E0F0
:104070000E94681B049709F049C061E070E080E08D
:1040800090E00E9417218BE296E064E00E94A31B5F
:1040900061E070E080E090E00E9417218BE296E002
:1040A00064E00E94A31B8BE296E00E942A1B8BE235
:1040B00096E00E94551C8BE296E040E051EE60E0F5
:1040C00070E00E946D1A6AE070E080E090E00E946B
:1040D00017218BE296E00E94681B807C9070803CE8
:1040E000910541F48BE296E062E00E94A31B0093ED
:1040F00062060CC08BE296E00E942A1B8BE296E0DF
:1041000040E659E060E070E00E946D1A809162061E
:10411000882309F4A4CF8BE296E062E00E94A31BFF
:10412000112389F08BE296E063E40E94A31B8BE2EB
:1041300096E0612F0E94A31B8CEB18278BE296E080
:10414000612F0E94A31B8BE296E062E00E94A31BFA
:1041500080E01F910F9108950F931F930FE016E0D9
:10416000C8010E94551CC8010E942A1B0BE216E0E0
:10417000C8010E94551CC8010E942A1B1F910F9163
:1041800008951F920F920FB60F9211242F933F9311
:104190008F939F93AF93BF9380916D0690916E061E
:1041A000A0916F06B0917006309171060196A11D25
:1041B000B11D232F2D5F2D3720F02D570196A11D06
:1041C000B11D2093710680936D0690936E06A093A7
:1041D0006F06B09370068091690690916A06A0916F
:1041E0006B06B0916C060196A11DB11D8093690606
:1041F00090936A06A0936B06B0936C06BF91AF9143
:104200009F918F913F912F910F900FBE0F901F9014
:1042100018958FB7F89420916D0630916E064091F5
:104220006F06509170068FBFB901CA0108959B01B6
:10423000AC017FB7F8948091690690916A06A091CD
:104240006B06B0916C0666B5A89B05C06F3F19F070
:104250000196A11DB11D7FBFBA2FA92F982F8827C6
:10426000860F911DA11DB11D62E0880F991FAA1F25
:10427000BB1F6A95D1F7BC012DC0FFB7F8948091A0
:10428000690690916A06A0916B06B0916C06E6B53E
:10429000A89B05C0EF3F19F00196A11DB11DFFBFFE
:1042A000BA2FA92F982F88278E0F911DA11DB11D00
:1042B000E2E0880F991FAA1FBB1FEA95D1F7861B62
:1042C000970B885E9340C8F22150304040405040E8
:1042D00068517C4F211531054105510571F608954E
:1042E000019739F0880F991F880F991F029701973E
:1042F000F1F70895789484B5826084BD84B58160B7
:1043000084BD85B5826085BD85B5816085BDEEE6DD
:10431000F0E0808181608083E1E8F0E010828081BC
:1043200082608083808181608083E0E8F0E080812A
:1043300081608083E1EBF0E0808184608083E0EB4A
:10434000F0E0808181608083EAE7F0E08081846032
:10435000808380818260808380818160808380818E
:10436000806880831092C1000895982F8E3008F0E5
:104370009E509770809142018295880F880F807CB3
:10438000892B80937C0080917A00806480937A00EE
:1043900080917A0086FDFCCF2091780040917900D1
:1043A000942F80E030E0282B392BC90108951F930A
:1043B000CF93DF93182FEB0161E00E943722209703
:1043C00009F44AC0CF3FD10509F449C0E12FF0E01C
:1043D000EE56FE4F84918330C1F0843028F4813052
:1043E00051F08230B1F50CC0863019F1873049F1B7
:1043F000843079F514C084B5806884BDC7BD33C0EE
:1044000084B5806284BDC8BD2EC080918000806864
:1044100080938000D0938900C093880024C080914D
:104420008000806280938000D0938B00C0938A00CC
:104430001AC08091B00080688093B000C093B30030
:1044400012C08091B00080628093B000C093B4002D
:104450000AC0C038D1051CF4812F60E002C0812F52
:1044600061E00E947622DF91CF911F910895CF9352
:10447000DF93482F50E0CA0182589E4FFC013491CF
:1044800046595E4FFA018491882369F190E0880FC4
:10449000991FFC01E45BFE4FA591B491FC01EA5A1F
:1044A000FE4FC591D491662351F42FB7F8948C91A7
:1044B000932F909589238C93888189230BC0623038
:1044C00061F42FB7F8948C91932F909589238C9356
:1044D0008881832B88832FBF06C09FB7F8948C9167
:1044E000832B8C939FBFDF91CF910895482F50E08D
:1044F000CA018E569E4FFC012491CA0182589E4FDC
:10450000FC01949146595E4FFA013491332309F42A
:1045100040C0222351F1233071F0243028F421309F
:10452000A1F0223011F514C02630B1F02730C1F0CF
:104530002430D9F404C0809180008F7703C080912B
:1045400080008F7D8093800010C084B58F7702C07B
:1045500084B58F7D84BD09C08091B0008F7703C082
:104560008091B0008F7D8093B000E32FF0E0EE0FDC
:10457000FF1FEA5AFE4FA591B4912FB7F894662316
:1045800021F48C919095892302C08C91892B8C9376
:104590002FBF089508951F920F920FB60F92112406
:1045A0002F933F934F938F939F93EF93FF9380911C
:1045B000C00082FD1DC04091C6002091B20630911E
:1045C000B3062F5F3F4F2F7330708091B4069091E8
:1045D000B5062817390771F0E091B206F091B306DD
:1045E000EE58F94F40833093B3062093B20602C0D1
:1045F0008091C600FF91EF919F918F914F913F91D4
:104600002F910F900FBE0F901F901895E091060705
:10461000F0910707E05CFF4F8191919120813181FA
:10462000821B930B8F739070892B11F00E94CA220A
:1046300008951F920F920FB60F9211242F933F935C
:104640008F939F93EF93FF932091F6063091F70697
:104650008091F8069091F9062817390731F4809176
:10466000C1008F7D8093C10014C0E091F806F091E5
:10467000F906EA54F94F20818091F8069091F906E5
:1046800001968F7390709093F9068093F8062093AB
:10469000C600FF91EF919F918F913F912F910F90C5
:1046A0000FBE0F901F901895AF92BF92DF92EF92BE
:1046B000FF920F931F93CF93DF93EC017A018B014D
:1046C000DD24403081EE580780E0680780E07807FD
:1046D00011F0DD24D39491E0A92EB12CEC89FD8951
:1046E000DD2069F0C50108A002C0880F991F0A9457
:1046F000E2F7808360E079E08DE390E005C010820E
:1047000060E874E88EE190E0A80197010E947925A5
:104710002150304040405040569547953795279559
:1047200080E12030380720F0DD2011F0DD24D6CFE5
:10473000E889F9893083EA89FB89208319A2EE8907
:10474000FF89408121E030E0C9010C8C02C0880F54
:10475000991F0A94E2F7482B4083EE89FF89408134
:10476000C9010D8C02C0880F991F0A94E2F7482BEB
:104770004083EE89FF894081C9010E8C02C0880FF9
:10478000991F0A94E2F7482B4083EE89FF898081C4
:104790000F8C02C0220F331F0A94E2F720952823C2
:1047A0002083DF91CF911F910F91FF90EF90DF90C9
:1047B000BF90AF900895DC011C96ED91FC911D9780
:1047C000E05CFF4F2191319180819181281B390B51
:1047D0002F733070C9010895DC011C96ED91FC9196
:1047E0001D97E05CFF4F20813181E054F040DF01F4
:1047F000AE5BBF4F8D919C9111972817390719F423
:104800002FEF3FEF07C08D919C91E80FF91F80813A
:10481000282F30E0C9010895DC011C96ED91FC9130
:104820001D97E05CFF4F20813181E054F040DF01B3
:10483000AE5BBF4F8D919C9111972817390719F4E2
:104840002FEF3FEF10C08D919C911197E80FF91F4A
:1048500020818D919C91119701968F739070119684
:104860009C938E9330E0C9010895DC0191968C9160
:104870009197882339F05496ED91FC91559780815A
:1048800086FFF9CF91961C920895CF93DF93EC01A8
:10489000EE85FF85E05CFF4F20813181E054F040E0
:1048A0002F5F3F4F2F733070DF01AE5BBF4F8D9195
:1048B0009C91119728173907D1F3E05CFF4F808155
:1048C0009181E054F040E80FF91F6083EE85FF8589
:1048D000E05CFF4F31832083EE89FF89208181E0F6
:1048E00090E00F8C02C0880F991F0A94E2F7282BE2
:1048F000208381E089A3EC89FD89808180648083A5
:1049000081E090E0DF91CF9108951092FD06109222
:10491000FC0688EE93E0A0E0B0E08093FE06909362
:10492000FF06A0930007B093010787E791E09093FB
:10493000FB068093FA0682E796E090930707809340
:10494000060786EB96E0909309078093080785ECAD
:1049500090E090930B0780930A0784EC90E090938B
:104960000D0780930C0780EC90E090930F078093E5
:104970000E0781EC90E0909311078093100782EC72
:1049800090E0909313078093120786EC90E0909349
:1049900015078093140784E08093160783E08093C3
:1049A000170787E08093180785E08093190781E057
:1049B00080931A070895CF93DF930E947A210E9473
:1049C000A407C6E0D3E20E94BF062097E1F30E944D
:1049D0000623F9CFCF92DF92EF92FF920F931F93AE
:1049E000CF93DF937C016B018A01C0E0D0E00FC060
:1049F000D6016D916D01D701ED91FC910190F0818F
:104A0000E02DC7010995C80FD91F015010400115AD
:104A1000110571F7CE01DF91CF911F910F91FF909A
:104A2000EF90DF90CF900895CF93DF93EC01611565
:104A3000710519F420E030E00FC0DB010D9000207B
:104A4000E9F71197A61BB70BE881F9810280F38182
:104A5000E02DAD0109959C01C901DF91CF91089529
:104A60000E9414250895629FD001739FF001829FD8
:104A7000E00DF11D649FE00DF11D929FF00D839FED
:104A8000F00D749FF00D659FF00D9927729FB00D8A
:104A9000E11DF91F639FB00DE11DF91FBD01CF019D
:104AA00011240895AA1BBB1B51E107C0AA1FBB1FFD
:104AB000A617B70710F0A61BB70B881F991F5A95AA
:104AC000A9F780959095BC01CD01089597FB092E1B
:104AD00007260AD077FD04D0E5DF06D000201AF4BF
:104AE000709561957F4F0895F6F7909581959F4F4A
:104AF0000895A1E21A2EAA1BBB1BFD010DC0AA1F1F
:104B0000BB1FEE1FFF1FA217B307E407F50720F036
:104B1000A21BB30BE40BF50B661F771F881F991FB1
:104B20001A9469F760957095809590959B01AC01FA
:104B3000BD01CF01089597FB092E05260ED057FD24
:104B400004D0D7DF0AD0001C38F45095409530953A
:104B500021953F4F4F4F5F4F0895F6F79095809501
:104B6000709561957F4F8F4F9F4F0895EE0FFF1FF8
:104B70000590F491E02D099411E0CAEAD1E004C057
:104B8000FE010E94B8252296CC3AD107C9F7F894C5
:024B9000FFCF55
:104B9200436865636B73756D204661696C00FA004A
:104BA20000000101000101010100000001010101F9
:104BB20001010101000000010001010101010101E7
:104BC20001010101020304010101020401080401BF
:104BD2000402010000FFFF010000000100000000CC
:104BE20000FFFFFFFF00000000010000000100FFC6
:104BF200FF000000000000A31BEA24891B681B665B
:104C02001C551C000000004524EA24DB230C24EC84
:044C12002335240022
:00000001FF
