:100000000C9462000C948A000C948A000C948A0070
:100010000C948A000C94260F0C948A000C948A008D
:100020000C948A000C948A000C948A000C948A0028
:100030000C948A000C948A000C948A000C948A0018
:100040000C94F7110C948A000C94DF130C94261472
:100050000C948A000C948A000C948A000C948A00F8
:100060000C948A000C948A000000000024002700F1
:100070002A0000000000250028002B0000000000DE
:1000800023002600290004040404040404040202DA
:100090000202020203030303030301020408102007
:1000A0004080010204081020010204081020000012
:1000B0000007000201000003040600000000000029
:1000C00000008C1511241FBECFEFD8E0DEBFCDBFDE
:1000D00011E0A0E0B1E0E2EFFEE202C005900D9277
:1000E000AC35B107D9F714E0ACE5B1E001C01D9221
:1000F000A930B107E1F710E0C4ECD0E004C02297CA
:10010000FE010E947317C23CD107C9F70E94DC159B
:100110000C9477170C940000EAE7F0E080818E7F62
:10012000808380818D7F808380818B7F80838081AD
:100130008460808380818160808380818068808307
:1001400008958A5F883018F020E030E016C087708C
:1001500080937C0080917A00806480937A00809103
:100160007A0086FDFCCF3091780020917900922FA3
:1001700080E0232F30E0282B392BC90108958830E7
:1001800018F020E030E016C0877080937C008091EA
:100190007A00806480937A0080917A0086FDFCCF9B
:1001A0003091780020917900922F80E0232F30E069
:1001B000282B392BC9010895382F823010F080E0A8
:1001C000089560FF0CC028B184E090E0032E02C0C7
:1001D000880F991F0A94E2F7282B28B90CC028B180
:1001E00084E090E0032E02C0880F991F0A94E2F782
:1001F0008095822388B927B184E090E0032E02C065
:10020000880F991F0A94E2F7282B27B961FF0CC0C9
:1002100028B181E090E0032E02C0880F991F0A9454
:10022000E2F7282B28B90CC028B181E090E0032E1A
:1002300002C0880F991F0A94E2F78095822388B93B
:1002400027B181E090E0032E02C0880F991F0A9425
:10025000E2F7282B27B962FF0CC02BB180E490E0B5
:10026000032E02C0880F991F0A94E2F7282B2BB99E
:100270000CC02BB180E490E0032E02C0880F991FC0
:100280000A94E2F7809582238BB92AB180E490E04A
:1002900002C0880F991F3A95E2F7282B2AB90895D2
:1002A0006F927F928F929F92AF92BF92CF92DF9286
:1002B000EF92FF920F931F93CF93DF9380916C0186
:1002C000E82EFF24E70193E0CC0FDD1F9A95E1F7BC
:1002D000FE01E358FE4F868097809401442737FD46
:1002E0004095542FFE01EF56FE4F80819181A281EF
:1002F000B381281739074A075B0724F482E0682E88
:10030000712C10C066247724C357DE4F88819981F1
:10031000AA81BB81281739074A075B071CF401E053
:10032000602E712CC70113E0880F991F1A95E1F711
:10033000BDE7AB2EB1E0BB2EA80EB91EE701CC0F76
:10034000DD1FCE0DDF1DC60DD71DF4E0CC0FDD1F68
:10035000FA95E1F7C356DE4F8C0103591E4FCC24AA
:10036000DD24F501608171818616970688F468198D
:10037000790980E090E0288139814A815B810E947F
:10038000EE16BC0188279927F8017183608303C0AA
:10039000F801118210820894C11CD11C42E050E087
:1003A000A40EB51E24960E5F1F4F53E0C516D10450
:1003B000C1F688E4881691041CF420E030E003C004
:1003C000940127543040870153E0000F111F5A95C4
:1003D000E1F703591E4F84E690E0FC012E9FC00117
:1003E0002F9F900D3E9F900D11246CE170E00E94B4
:1003F0002117882777FD8095982FF701EE0FFF1FB3
:10040000EE0DFF1DE60DF71D34E0EE0FFF1F3A95D0
:10041000E1F7E356FE4F24853585468557850E94D2
:10042000EE16BC0188279927F80177836683DF9150
:10043000CF911F910F91FF90EF90DF90CF90BF90E1
:10044000AF909F908F907F906F900895CF93DF93A0
:10045000E0916C01F0E073E0EE0FFF1F7A95E1F799
:10046000CF0183599E4FDC014D915C91DF01AF5864
:10047000BE4F0D90BC91A02DE159FE4F0190F0812F
:10048000E02DEC016E817F81A417B5070CF049C007
:10049000E417F5070CF045C0413451050CF4EEC0EB
:1004A0006832710524F44E3651050CF4E7C0CD01D5
:1004B00095958795959587959D01359527953595C2
:1004C000279535952795820F931F8A0F9B1F8E17AF
:1004D0009F073CF4CF01880F991F481759070CF468
:1004E000CFC0CF01880F991F9F013595279535956E
:1004F0002795821B930B8417950714F485E0C7C0DA
:10050000A634B1050CF4BAC0E634F1050CF4B6C05B
:100510006C3871050CF0B6C04C3851050CF4AEC007
:10052000B1C0AE17BF07CCF5E832F1050CF4A6C098
:100530006E31710524F4E634F1050CF49FC0CD0151
:10054000880F991F841795070CF49AC0CA019595D6
:10055000879595958795840F951F8E179F070CF4A7
:1005600093C0CD0195958795959587958A0F9B1F8B
:100570008E179F070CF488C0463451050CF47EC0DA
:10058000A634B1050CF47AC06C3871050CF07AC051
:10059000EC38F1050CF472C075C0A033B1050CF451
:1005A0006DC06931710524F4A535B1050CF466C040
:1005B00020E330E0429FC001439F900D529F900D79
:1005C0001124689414F8959587951694E1F78A1785
:1005D0009B0784F4E29FC001E39F900DF29F900D72
:1005E000112425E0959587952A95E1F78A179B07B1
:1005F0000CF44CC02AE330E0429FC001439F900DB1
:10060000529F900D1124689414F89595879516942F
:10061000E1F78A179B07D4F1E29FC001E39F900D99
:10062000F29F900D112425E0959587952A95E1F785
:100630008A179B075CF14C33510504F1EC33F1054B
:10064000ECF06E3671051CF4A837B105BCF0CA0198
:1006500033E0959587953A95E1F7840F951F8A17B2
:100660009B07A4F0CF0123E0959587952A95E1F7A4
:100670008E0F9F1F8A179B072CF408C081E007C0CC
:1006800084E005C086E003C083E001C082E0DF9122
:10069000CF9108950F931F9327B130916C0104E01F
:1006A00010E0C801032E02C0880F991F0A94E2F7D8
:1006B000282B27B928B1822B88B927B181E090E097
:1006C00002C0880F991F3A95E2F7282B27B928B165
:1006D000822B88B961E070E080E090E00E944D12CA
:1006E00027B1C80100906C0102C0880F991F0A94BD
:1006F000E2F7282B27B928B18095822388B961E0D9
:1007000070E080E090E00E944D1227B1C801009097
:100710006C0102C0880F991F0A94E2F7282B27B9B1
:1007200028B1822B88B961E070E080E090E00E94FF
:100730004D1287B100906C0102C0000F111F0A9486
:10074000E2F7802B87B988B10095082308B964E6E1
:1007500070E080E090E00E944D121F910F9108958B
:10076000CF92DF92EF92FF921F93CF93DF9310E02F
:10077000C0E0D0E0F4E0EF2EF12CE1E0CE2ED12C61
:1007800027B1C70100906C0102C0880F991F0A941D
:10079000E2F7282B27B928B1822B88B988E090E0AE
:1007A0000E94A612169527B130916C01C601032E46
:1007B00002C0880F991F0A94E2F78095822387B9B7
:1007C00086B190E0032E02C0959587950A94E2F7D2
:1007D00080FD106887B1A70102C0440F551F3A95EC
:1007E000E2F79A01842B87B988B12095282328B98C
:1007F0002196C830D10521F6812FDF91CF911F912D
:10080000FF90EF90DF90CF900895AF92BF92CF927C
:10081000DF92EF92FF920F931F93CF93DF9327B155
:1008200081E090E000906C0102C0880F991F0A944B
:10083000E2F78095822387B9AA24BB244DC00E9489
:10084000B00320E030E02F5F3F4F28303105D9F76B
:1008500090E0A0E0B0E00C2E04C0880F991FAA1F02
:10086000BB1F0A94D2F7E82AF92A0A2B1B2B2896D9
:10087000C032D10521F780916C0190E0FC01EE0FB0
:10088000FF1FE80FF91FEA0DFB1DEE0FFF1FEE0F14
:10089000FF1FEC0DFD1DEE0FFF1FEE0FFF1FE356B8
:1008A000FE4FE082F182028313830894C11CD11CA5
:1008B00084E0C816D10431F0EE24FF248701C0E0A3
:1008C000D0E0BDCF0894A11CB11C83E0A816B104F0
:1008D00019F4CC24DD2437C0CC24DD24EDCF2896B8
:1008E0000E94B00320E030E02F5F3F4F28303105F9
:1008F000D9F790E00C2E02C0880F991F0A94E2F7F6
:10090000AA2797FDA095BA2FE82AF92A0A2B1B2BB4
:10091000C830D10521F7E0916C01F0E0EE0FFF1F28
:10092000EC0DFD1DEE0FFF1FEE0FFF1FE357FE4FF7
:10093000E082F182028313830894C11CD11C82E0FF
:10094000C816D10431F0EE24FF248701C0E0D0E0C6
:10095000C7CF0E94B0030E94B00362E070E080E065
:1009600090E00E944D1281E0DF91CF911F910F9195
:10097000FF90EF90DF90CF90BF90AF900895CF920F
:10098000DF92EF92FF920F931F93CF93DF93582F35
:1009900000E010E064E0E62EF12C41E0C42ED12C02
:1009A00047B120916C01C701022E02C0880F991F28
:1009B0000A94E2F7482B47B948B1842B88B987B12C
:1009C000B60102C0660F771F2A95E2F79B01862BBE
:1009D00087B9C52FD0E050FF03C088B1282B03C0D2
:1009E00088B12095282328B98EE190E00E94A612B4
:1009F00087B1970100906C0102C0220F331F0A9447
:100A0000E2F7822B87B988B12095282328B98EE197
:100A100090E00E94A6120F5F1F4F0830110521F0D1
:100A2000D595C7955C2FBCCFDF91CF911F910F91CA
:100A3000FF90EF90DF90CF9008950F931F93823037
:100A400008F048C080936C0127B104E010E0A801D1
:100A500002C0440F551F8A95E2F7CA01242B27B91B
:100A600028B1822B88B984E190E00E94A61227B1B8
:100A7000C80100906C0102C0880F991F0A94E2F728
:100A8000282B27B928B18095822388B984E190E08A
:100A90000E94A61227B1C80100906C0102C0880F05
:100AA000991F0A94E2F7282B27B928B1822B88B91D
:100AB00084E190E00E94A61287B100906C0102C010
:100AC000000F111F0A94E2F7802B87B988B10095B7
:100AD000082308B91F910F9108951F93162F823094
:100AE000D8F480936C01E82FF0E0EE0FFF1FE35085
:100AF000FE4F608311820E944A03812F0E94BF042F
:100B000080E89CE00E94A6120E94050468E770E05D
:100B100080E090E00E944D121F91089580916C0139
:100B20000E94BF0022E330E0AC01429FC001439F1E
:100B3000900D529F900D112461E270E00E940D17FC
:100B4000CB0108950F931F93CF93DF93823018F05A
:100B5000A0E0B0E0FEC080936C0127B1C82FD0E0C8
:100B600081E090E00C2E02C0880F991F0A94E2F7F2
:100B70008095282327B928B1822388B9FE01EE0F7A
:100B8000FF1FE350FE4F008111810D30110509F068
:100B9000B7C00E948E05F3E0CC0FDD1FFA95E1F798
:100BA000C45ADE4F9F838E8327B104E010E0C80152
:100BB00000906C0102C0880F991F0A94E2F7282B5D
:100BC00027B928B1822B88B984E190E00E94A6124F
:100BD00080916C01C82FD0E00E948E05E3E0CC0F1D
:100BE000DD1FEA95E1F7C45ADE4F9983888327B168
:100BF000C80100906C0102C0880F991F0A94E2F7A7
:100C0000282B27B928B18095822388B984E190E008
:100C10000E94A61280916C01C82FD0E00E948E0520
:100C200073E0CC0FDD1F7A95E1F7C25ADE4F99834E
:100C3000888327B1C80100906C0102C0880F991FFA
:100C40000A94E2F7282B27B928B1822B88B984E1CE
:100C500090E00E94A61280916C01C82FD0E00E9403
:100C60008E0563E0CC0FDD1F6A95E1F7C05ADE4FB9
:100C70009983888387B1A0916C01B0E00A2E02C0ED
:100C8000000F111F0A94E2F7802B87B988B10095F5
:100C9000082308B9FD0153E0EE0FFF1F5A95E1F755
:100CA0009F0123583E4FE45AFE4F86819781E90108
:100CB0009F838E83808191819983888343E0AA0FEB
:100CC000BB1F4A95E1F7FD013296CF01845A9E4F32
:100CD000EC0188819981E358FE4F918380831496BB
:100CE000FD01E45AFE4F80819181A358BE4F8D9340
:100CF0009C930E9450010E942602A82FB0E029C0B8
:100D00000E948E05CC0FDD1FCC0FDD1FC00FD11F41
:100D1000CC0FDD1FC05CDE4F99838883E0916C01AE
:100D2000F0E0EE0FFF1FDF01A350BE4F8D919C91AD
:100D30000E97EE0FFF1FE80FF91FEE0FFF1FDF01E9
:100D4000A45ABE4F0D90BC91A02DE358FE4FB18325
:100D5000A083CD01DF91CF911F910F910895AF92A4
:100D6000BF92DF92EF92FF920F931F93CF93DF9387
:100D7000D42E78018901A0916B02B0916C025D01C3
:100D8000A60EB11CB50130E0482F50E0C1E0D0E024
:100D90001FC0E0FE16C0FB0193E0F695E7959A951B
:100DA000E1F7E40FF51FED5FFD4FCB018770907009
:100DB0005E0102C0AA0CBB1C8A95E2F720812A2999
:100DC000208316950795F794E7943F5F6F5F7F4FF9
:100DD0003D15F8F2AD0DB11DB0936C02A0936B02FE
:100DE000DF91CF911F910F91FF90EF90DF90BF9017
:100DF000AF900895CF92DF92EF92FF920F931F93DF
:100E0000CF93DF93E42EF42EC0916B02D0916C024D
:100E1000DE011197A60FB11D242F332727FD309532
:100E2000A20FB31F00E010E020E030E0C82EDD2468
:100E300029C0B901A801440F551F661F771FFD0186
:100E400023E0F695E7952A95E1F7ED5FFD4FEC0D70
:100E5000FD1D808190E09D012770307002C0959546
:100E600087952A95E2F78C01222717FD2095322FCE
:100E70000170107020703070042B152B262B372B2F
:100E8000FA941197FF20A9F6CE0DD11DD0936C02D4
:100E9000C0936B02B801C901DF91CF911F910F91EF
:100EA000FF90EF90DF90CF90089520E061157105DD
:100EB0008105910549F02F5F203229F0969587959D
:100EC00077956795F3CF2FE1822F08957F928F92C8
:100ED0009F92AF92BF92CF92DF92EF92FF920F93C9
:100EE0001F93DF93CF93CDB7DEB72C970FB6F8944F
:100EF000DEBF0FBECDBFE3E0F2E0119282E0E3344B
:100F0000F807D9F719821A821B821C8210926C0290
:100F100010926B027FE4A72E72E0B72E65E0E62EFA
:100F2000F12CEC0EFD1E53E0C52ED12CCC0EDD1E97
:100F30004E010894811C911C77247394F501208143
:100F4000318142815381F70120833183428353836E
:100F500057FF0EC0F401708288279927DC01821B9D
:100F6000930BA40BB50BF70180839183A283B3830A
:100F7000F70160817181828193810E945507F6019A
:100F80008083882311F08F5F8083F60101916F01C8
:100F900010E020E030E081E060E045E00E94AF0634
:100FA00084E090E0A80EB91EE80EF91E0894811C9A
:100FB000911C97E5A91692E0B90609F0BFCF098107
:100FC00010E020E030E08D819E81AF81B885880FF0
:100FD000991FAA1FBB1F082B192B2A2B3B2B0D83F4
:100FE0001E832F83388781E060E04B810E94AF062B
:100FF0000A8110E020E030E089859A85AB85BC85C8
:10100000880F991FAA1FBB1F082B192B2A2B3B2BBC
:1010100081E060E04C810E94AF06EDE4AE2EE2E09C
:10102000BE2E77E5C72E72E0D72E6CE5E62E61E086
:10103000F62EF50180818E3030F48C3088F48830C3
:1010400009F045C004C08F3009F041C012C0F6015C
:10105000008111812281338181E060E041E03FC065
:10106000F601008111812281338181E060E048E056
:1010700036C0F601008111812281338181E060E078
:1010800043E00E94AF06F7010681178120E030E0BF
:1010900081E060E04AE00E94AF06F7010081118123
:1010A00020E030E081E060E04AE00E94AF06F70116
:1010B0000281138120E030E081E060E04AE00E949C
:1010C000AF06F7010481158120E030E005C0F6018C
:1010D000008111812281338181E060E04AE00E9439
:1010E000AF060894A11CB11C84E090E0C80ED91E84
:1010F000E8E0F0E0EE0EFF1EFFE4AF16F2E0BF0600
:1011000009F097CF80916B0290916C02079653E0A3
:10111000969587955A95E1F78F5F809302022C96FA
:101120000FB6F894DEBF0FBECDBFCF91DF911F91F8
:101130000F91FF90EF90DF90CF90BF90AF909F9076
:101140008F907F9008958F929F92AF92BF92CF928F
:10115000DF92EF92FF920F931F93CF93DF9307E5F8
:1011600012E0C0E0D0E0F5E28F2E912CA12CB12C42
:10117000E1E0CE2ED12CE12CF12C8C2FFE01E35B93
:10118000FD4FE081ED3021F1EE3030F4E83049F0F0
:10119000EC3009F03EC017C0EE3001F1E431C8F583
:1011A00034C08C2F0E94A1008059914030F4F80186
:1011B000C082D182E282F38235C0F80110821182AE
:1011C000128213822FC08C2F0E94AD1190E023C099
:1011D000F80180829182A282B38224C08C2F60E0C9
:1011E0000E94DC0084E190E00E94A6128C2F0E94F5
:1011F000A100A0E0B0E0F80180839183A283B383D3
:101200008C2F64E00E94DC000DC08C2F0E94A20590
:1012100002C00E94A100A0E0B0E0F80180839183A9
:10122000A283B38321960C5F1F4FC230D10509F012
:10123000A4CFDF91CF911F910F91FF90EF90DF909E
:10124000CF90BF90AF909F908F900895CF93DF93F2
:10125000C0E0D0E09C2FFE01E35BFD4F60816E306B
:1012600041F16F3070F46B30E9F06C3028F4862F68
:101270008850823090F513C06C30B9F06D3069F54C
:101280002FC06131F9F0623128F46F30A9F060317C
:1012900021F515C06231C9F06331F9F419C08C2F02
:1012A00060E01CC08C2F61E019C08C2F0E94D3110C
:1012B00017C08C2F64E012C08C2F6DE00BC08C2FF8
:1012C0006EE008C08C2F6FE005C08C2F60E102C07B
:1012D0008C2F61E10E946D0503C0892F0E94DC0004
:1012E0002196C230D10509F0B5CFDF91CF91089595
:1012F0006F927F929F92AF92BF92CF92DF92EF92C6
:10130000FF920F931F93DF93CF9300D000D0CDB700
:10131000DEB710926C0210926B0281E060E042E056
:101320000E94FA06D62E23E4E22E22E0F22E8E014F
:101330000F5F1F4F9AE0B92E8DE0C82EF701808114
:10134000823049F481E060E045E00E94FA066F5F78
:10135000F801608309C0813019F4F801C08204C02B
:10136000882311F4F801B0820894E11CF11C0F5F8E
:101370001F4FF5E4EF16F2E0FF0601F7CD2CDD2458
:10138000C0FE07C081E060E045E00E94FA066F5FA2
:101390006B83C1FE07C081E060E045E00E94FA0671
:1013A0006F5F6C8381E060E049810E94FA06609380
:1013B000450270934602809347029093480281E071
:1013C00060E04A810E94FA066093490270934A02E3
:1013D00080934B0290934C0215E4A12E12E0B12EA3
:1013E000BFE5EB2EB2E0FB2E00E010E0A3E06A2E9A
:1013F000712C6C0E7D1E902EC601002E02C095959C
:1014000087950A94E2F780FF2DC0F301E00FF11FEA
:1014100081E060E040810E94FA069B01AC01F70187
:10142000208331834283538360FF0BC08827992731
:10143000DC01821B930BA40BB50B80839183A283E9
:10144000B383F701608171818281938122E030E072
:1014500040E050E00E945617F70120833183428319
:10146000538305C0F7011082118212821382F801A2
:10147000ED5BFD4F8081882331F4F501608171813E
:10148000892D0E9413100F5F1F4F84E090E0A80E7B
:10149000B91EE80EF91E0230110509F0ACCF93E039
:1014A000C922DD24CD2891F060915F027091600225
:1014B00080916102909162022091630230916402F6
:1014C00040916502509166020E94F50E0F900F90B8
:1014D0000F900F90CF91DF911F910F91FF90EF90A0
:1014E000DF90CF90BF90AF909F907F906F900895C6
:1014F000EF920F931F9382E092E063E072E041E08D
:1015000050E00E948910809301028823D9F40E9440
:101510003F12609367027093680280936902909310
:101520006A0210910302143049F480E060E040E068
:1015300020E000E0EE240E94C50F6CC0113009F0DD
:1015400069C01CC0813009F065C00E943F126093E1
:101550006702709368028093690290936A02109107
:101560000302143049F480E060E040E020E000E055
:10157000EE240E94C50F34C0113011F58091020293
:10158000823009F047C080E060E00E94DC0080E02B
:101590000E94A1008A3F910580F490910402892F56
:1015A00081508E3F50F4892F0E94981110930302AE
:1015B00081E063E072E00E9456110E9426092AC071
:1015C000123091F480910202833021F5809104025F
:1015D00080934D028091050280934E020E9426095D
:1015E0001093030281E012C01330A1F40E94780925
:1015F0000E94A3088FE492E063E572E00E94DA0E95
:101600000E946607109303028091020263E072E079
:101610000E9456110E943F12209167023091680289
:101620004091690250916A0226503F4F4F4F5F4FE1
:10163000261737074807590740F480E060E040E08C
:1016400020E000E0EE240E94C50F80914D028F3013
:1016500019F480E00E941D0580914E028F3019F42C
:1016600081E00E941D051F910F91EF9008956CED90
:1016700075E080E090E00E944D1260E271EA87E040
:1016800090E00E948F110E94C20E0E948C000E9466
:1016900026090895823010F081E0089540936E028B
:1016A00080936D026093710280E00895823010F0A3
:1016B00081E0089540936E0280936D026093710201
:1016C000882341F487B18A7F87B988B18A7F88B936
:1016D00080E0089587B1857F87B988B1857F88B913
:1016E00080E00895F8941092B0001092B10010922A
:1016F000B2008091B10082608093B10078949091A3
:101700006E028091B2008917E0F3089547B12091ED
:101710006D0230E084E090E0022E02C0880F991F35
:101720000A94E2F78095842387B9F8941092B00068
:101730001092B1001092B2008091B1008660809347
:10174000B10078942E5F3F4F06C08091B2008E3773
:1017500010F081E0089586B190E0022E02C09595C8
:1017600087950A94E2F780FFF0CF80E0089587B173
:1017700040916D0221E030E0042E02C0220F331FA1
:101780000A94E2F72095282327B9F8941092B00024
:101790001092B1001092B2008091B10086608093E7
:1017A000B100789406C08091B2008E3710F081E0CD
:1017B000089586B190E0042E02C0959587950A940D
:1017C000E2F780FFF0CF80E0089527B184E090E059
:1017D00000906D0202C0880F991F0A94E2F7282B2F
:1017E00027B908951F93F8941092B0001092B10099
:1017F0001092B2008091B10082608093B100789421
:1018000010916E028091B2008117E0F30E94860B66
:10181000882341F00E94B70B882311F482E02BC08B
:1018200086E029C0F8941092B0001092B100109296
:10183000B2008091B10082608093B1007894809171
:10184000B2008117E0F30E94B70B882311F084E007
:1018500012C0F8941092B0001092B1001092B20031
:101860008091B10082608093B10078948091B20041
:101870008117E0F380E01F910895CF92DF92EF92FD
:10188000FF920F931F93082FC0906D0284E090E0A9
:101890000C2C02C0880F991F0A94E2F7E82E81E011
:1018A00090E00C2C02C0880F991F0A94E2F7F82EE2
:1018B000D0906E0210E087B18E2987B907FF06C06D
:1018C0000E94B70B882329F094E06FC087B18F295D
:1018D00087B9F8941092B0001092B1001092B20043
:1018E0008091B10082608093B10078948091B200C1
:1018F0008D15E0F30E94860B882309F055C0F894FB
:101900001092B0001092B1001092B2008091B1001C
:1019100082608093B10078948091B2008D15E0F3DD
:101920001F5F183011F0000FC6CF87B18E2987B91D
:1019300097B18F2D8095892387B9F8941092B000C4
:101940001092B1001092B2008091B1008260809339
:10195000B10078948091B2008D15E0F30E94860B5F
:10196000882311F596B1F8941092B0001092B1004E
:101970001092B2008091B10082608093B10078949F
:101980008091B2008D15E0F3892F90E002C095950B
:101990008795CA94E2F7982F917087B1E82AE7B843
:1019A00087B1F82AF7B801C092E0892F1F910F91F3
:1019B000FF90EF90DF90CF900895DF92EF92FF922B
:1019C0000F931F93CF93DF93482F8150803110F0F6
:1019D00008E05BC0809171028E7F80937202A3E762
:1019E000B2E0FB0102C081918D938E2F861B84177C
:1019F000D0F3E42EE394E0926F0287B1D0906D02B1
:101A000021E030E00D2C02C0220F331F0A94E2F7D0
:101A1000F22E822B87B9F8941092B0001092B10088
:101A20001092B2008091B10082608093B1007894EE
:101A300090916E028091B2008917E0F3C2E7D2E084
:101A400010E01CC089910E943D0C082F8823A9F04A
:101A5000813019F40E94F20B16C087B124E030E007
:101A600002C0220F331FDA94E2F72095282327B90A
:101A700087B1F094F822F7B806C01F5F1E1510F367
:101A80000E94F20B082F10926F02802FDF91CF91EE
:101A90001F910F91FF90EF90DF9008956F927F92CA
:101AA0009F92AF92BF92CF92DF92EF92FF920F93ED
:101AB0001F93CF93DF937C01FC01108287B190903C
:101AC0006D0224E030E0092C02C0220F331F0A947B
:101AD000E2F7C22E822B87B987B101E010E0092C12
:101AE00002C0000F111F0A94E2F7A02ED02ED0944E
:101AF0008D2187B9B0906E02C0E0D0E080E8682EFA
:101B0000712C87B18C2987B9F8941092B00010928B
:101B1000B1001092B2008091B10082608093B10058
:101B200078948091B2008B15E0F30E94860B882395
:101B300009F064C086B190E080239123892B59F08D
:101B400093010C2E02C0359527950A94E2F7F70110
:101B50008081822B8083F8941092B0001092B100A3
:101B60001092B2008091B10082608093B1007894AD
:101B70008091B2008B15E0F32196C830D10509F0B1
:101B8000C0CF87B18C2987B987B1D822D7B8F8944C
:101B90001092B0001092B1001092B2008091B1008A
:101BA00082608093B10078948091B2008B15E0F34D
:101BB0000E94860B882311F596B1F8941092B0001C
:101BC0001092B1001092B2008091B10082608093B7
:101BD000B10078948091B2008B15E0F3892F90E0EA
:101BE00002C0959587959A94E2F7982F917087B1E6
:101BF000C82AC7B887B1A82AA7B801C092E0892F20
:101C0000DF91CF911F910F91FF90EF90DF90CF90D8
:101C1000BF90AF909F907F906F9008953F924F92AA
:101C20005F926F927F928F929F92AF92BF92CF926C
:101C3000DF92EF92FF920F931F93DF93CF930F9258
:101C4000CDB7DEB7082F462E372E8150803118F0E1
:101C500038E0D32E83C00F5F00936F0201500093D2
:101C600070028091710281608093720223E7822E5C
:101C700022E0922E5401802F90E0880D991D03C020
:101C8000D5011D925D01A816B906D1F787B1509014
:101C90006D0221E030E0052C02C0220F331F0A94B0
:101CA000E2F7C22E822B87B9F8941092B0001092FE
:101CB000B1001092B2008091B10082608093B100B7
:101CC000789490916E028091B2008917E0F3809130
:101CD00072020E943D0CD82E882351F493E7E92E1E
:101CE00092E0F92E10E03E010894611C711C21C0A5
:101CF0000E94F20B10926F0231C0C3010E944E0D80
:101D0000D82EB1E0B81780F487B124E030E002C0EB
:101D1000220F331F5A94E2F72095282327B987B161
:101D2000C094C822C7B81AC08981F70181937F0186
:101D30001F5F101710F30E94F20BD82E10926F0243
:101D400010927002842D932D9C01F90104C0D401DE
:101D50008D914D0181938A149B04C9F78D2D0F90AD
:101D6000CF91DF911F910F91FF90EF90DF90CF9077
:101D7000BF90AF909F908F907F906F905F904F90AB
:101D80003F9008958AB1837C8AB98BB1837C8BB9EB
:101D9000EDE6F0E080818C638083E8E6F0E080810E
:101DA0008460808385B1807C836085B984B18F63D2
:101DB00084B90895FC018091850290918602A091DA
:101DC0008702B091880280839183A283B38380913C
:101DD000890290918A02A0918B02B0918C02FB0142
:101DE00080839183A283B3830895EF92FF920F9330
:101DF0001F93E0908502F090860200918702109177
:101E00008802E61AF70A080B190BE0928502F09295
:101E10008602009387021093880280918902909134
:101E20008A02A0918B02B0918C02821B930BA40BAF
:101E3000B50B8093890290938A02A0938B02B09392
:101E40008C021F910F91FF90EF9008951F920F92B7
:101E50000FB60F9211242F933F934F935F936F937D
:101E60007F938F939F93AF93BF93EF93FF9399B11A
:101E7000809182028927909382028C73682F70E090
:101E8000CB0184719070892BA9F13091830229B123
:101E900089B12695227090E0B4E095958795BA9522
:101EA000E1F78170282B330F330F322B3F703093C3
:101EB00083022091850230918602409187025091E1
:101EC0008802E0918302F0E0EE0FFF1FE55DFE4F18
:101ED00080819181AA2797FDA095BA2F820F931F29
:101EE000A41FB51F8093850290938602A09387025A
:101EF000B093880268727070672BB1F130918402E0
:101F000029B189B126952695227090E075E09595C6
:101F100087957A95E1F78170282B330F330F322B99
:101F20003F70309384022091890230918A0240915F
:101F30008B0250918C02E0918402F0E0EE0FFF1FC3
:101F4000E55DFE4F80819181AA2797FDA095BA2F6C
:101F5000820F931FA41FB51F8093890290938A025A
:101F6000A0938B02B0938C02FF91EF91BF91AF9140
:101F70009F918F917F916F915F914F913F912F91A1
:101F80000F900FBE0F901F901895EF92FF920F9336
:101F90001F93982F162FF22E002311F0289A01C0BC
:101FA0002898EE2011F0299A01C02998992391F0E0
:101FB000442339F08AE0692F70E00E94EB122C98DC
:101FC00011C0692F70E0609570958AE00E94EB1255
:101FD0002C9A08C08AE060E070E00E94EB1285B1A4
:101FE0008B7E85B9112391F0FF2039F08BE0612FB2
:101FF00070E00E94EB122D9811C0612F70E0609587
:1020000070958BE00E94EB122D9A08C08BE060E087
:1020100070E00E94EB1285B1877D85B91F910F9109
:10202000FF90EF9008950F931F93CF93DF93EB01F1
:10203000882371F58B010170107060FF1AC0289A17
:102040006C7F7370C1FF0CC0769567957695679528
:102050006095709570708AE00E94EB122C9A0AC00D
:1020600076956795769567958AE00E94EB122C9895
:1020700001C02898CC7FD370CD2B11F00023C1F57F
:102080008AE060E070E00E94EB1285B18B7E2FC089
:10209000813071F58B010170107060FF1AC0299AB0
:1020A0006C7F7370C1FF0CC07695679576956795C8
:1020B0006095709570708BE00E94EB122D9A0AC0AB
:1020C00076956795769567958BE00E94EB122D9833
:1020D00001C02998CC7FD370CD2B11F0002341F49F
:1020E0008BE060E070E00E94EB1285B1877D85B9DE
:1020F000DF91CF911F910F91089504C08AEE93E074
:102100000E9418158AEE93E00E94E714892BB1F71C
:1021100008956F927F928F929F92AF92BF92CF92CB
:10212000DF92EF92FF920F931F93CF93DF934C01B7
:102130003B01EA010E943F125B016C017E01002716
:10214000F7FC0095102F0FC0209769F00E943F12F6
:102150006A197B098C099D096E157F058007910717
:1021600010F08EEF94C08AEE93E00E94E714892B62
:1021700059F3FF2409C08AEE93E00E94E714F82E79
:1021800082E390E00E94A6120F2D10E08AEE93E009
:102190000E94E7140817190774F382E08F1520F0E6
:1021A0000E947D108CEF73C0C0E0D0E08AEE93E017
:1021B0000E941815FE01E357FD4F80832196CF152D
:1021C000A8F360918D02E0908E0290918F02F4014D
:1021D00090838091CD02681721F0662311F08DEF76
:1021E00056C0292F30E0035010402017310711F05E
:1021F0008AEF4DC0260F311DE0E9F2E08DEFF80EB9
:102200004F2D50E04E0F5F1F03C08191280F311DED
:10221000E417F507D1F730703093CF022093CE0248
:102220008E2D90E08217930711F490E029C08AEE7A
:1022300093E060E071E00E94EB168AEE93E06E2D71
:102240004AE050E00E94D9168AEE93E064E171E022
:102250000E94EB166091CE027091CF028AEE93E05D
:102260004AE050E00E94BC168BEF11C0E92FF0E06D
:10227000D301AE0FBF1FE357FD4F83818C939F5F48
:10228000F4018081981790F3862F611181E0DF912E
:10229000CF911F910F91FF90EF90DF90CF90BF9063
:1022A000AF909F908F907F906F900895CF93DF9322
:1022B000482FA82FB0E0CFE8D2E0FB0104C0819105
:1022C000A80FB11D89938E2F861B8417C0F3CD01F3
:1022D00090709093CF028093CE0280938D024093B2
:1022E0008E024E5F8AEE93E06DE872E050E00E944D
:1022F000EB15DF91CF91089588ED92E060E070E0FA
:102300000E94E411982F81508E3F20F49093CD02CB
:1023100081E008958EEF8093CD0280E00895AB01B7
:10232000BC018AEE93E00E9461140E947C11089522
:102330001F93182F88ED92E060E070E00E94E41196
:10234000811739F088ED92E060E070E0412F0E9443
:10235000EB111093CD021F91089562E04EE10E94AF
:102360004A0B8823F1F482E48093D00281E060ED8F
:1023700072E00E94DD0C8823A1F40E94E50B0E940C
:10238000720B0E94860B882361F40E94720B81E01D
:1023900060ED72E00E940E0E882319F48091D00245
:1023A000089580E008951F93182F62E04EE10E9487
:1023B000560B882311F080E005C0812F64E00E9455
:1023C000DC0081E01F910895F999FECF72BD61BDD7
:1023D000F89A80B50895F999FECF1FBA72BD61BD14
:1023E00040BD0FB6F894FA9AF99A0FBE08951F925D
:1023F0000F920FB60F9211242F933F938F939F93B9
:10240000AF93BF938091DD029091DE02A091DF0235
:10241000B091E0023091E1020196A11DB11D232F80
:102420002D5F2D3720F02D570196A11DB11D209352
:10243000E1028093DD029093DE02A093DF02B0936D
:10244000E0028091D9029091DA02A091DB02B09172
:10245000DC020196A11DB11D8093D9029093DA028E
:10246000A093DB02B093DC02BF91AF919F918F915B
:102470003F912F910F900FBE0F901F9018958FB71F
:10248000F8942091DD023091DE024091DF025091FC
:10249000E0028FBFB901CA0108959B01AC017FB76B
:1024A000F8948091D9029091DA02A091DB02B09168
:1024B000DC0266B5A89B05C06F3F19F00196A11D0F
:1024C000B11D7FBFBA2FA92F982F8827860F911D86
:1024D000A11DB11D62E0880F991FAA1FBB1F6A953D
:1024E000D1F7BC012DC0FFB7F8948091D90290912B
:1024F000DA02A091DB02B091DC02E6B5A89B05C030
:10250000EF3F19F00196A11DB11DFFBFBA2FA92FF2
:10251000982F88278E0F911DA11DB11DE2E0880F15
:10252000991FAA1FBB1FEA95D1F7861B970B885EE0
:102530009340C8F2215030404040504068517C4F99
:10254000211531054105510571F60895019739F0BE
:10255000880F991F880F991F02970197F1F7089527
:10256000789484B5826084BD84B5816084BD85B56E
:10257000826085BD85B5816085BDEEE6F0E0808135
:1025800081608083E1E8F0E0108280818260808356
:10259000808181608083E0E8F0E0808181608083D9
:1025A000E1EBF0E0808184608083E0EBF0E080810B
:1025B00081608083EAE7F0E08081846080838081AD
:1025C0008260808380818160808380818068808355
:1025D0001092C10008951F93CF93DF93182FEB0142
:1025E00061E00E944B13209709F44AC0CF3FD10508
:1025F00009F449C0E12FF0E0E255FF4F84918330A8
:10260000C1F0843028F4813051F08230B1F50CC033
:10261000863019F1873049F1843079F514C084B5DA
:10262000806884BDC7BD33C084B5806284BDC8BD29
:102630002EC080918000806880938000D0938900B4
:10264000C093880024C080918000806280938000C5
:10265000D0938B00C0938A001AC08091B00080682C
:102660008093B000C093B30012C08091B00080622C
:102670008093B000C093B4000AC0C038D1051CF4E8
:10268000812F60E002C0812F61E00E948A13DF91F8
:10269000CF911F910895CF93DF93482F50E0CA0147
:1026A00086569F4FFC0134914A575F4FFA0184913F
:1026B000882369F190E0880F991FFC01E859FF4FCA
:1026C000A591B491FC01EE58FF4FC591D4916623BA
:1026D00051F42FB7F8948C91932F909589238C9374
:1026E000888189230BC0623061F42FB7F8948C91F4
:1026F000932F909589238C938881832B88832FBF78
:1027000006C09FB7F8948C91832B8C939FBFDF9169
:10271000CF910895482F50E0CA0182559F4FFC0188
:102720002491CA0186569F4FFC0194914A575F4FEE
:10273000FA013491332309F440C0222351F12330AC
:1027400071F0243028F42130A1F0223011F514C0AA
:102750002630B1F02730C1F02430D9F404C0809184
:1027600080008F7703C0809180008F7D80938000F0
:1027700010C084B58F7702C084B58F7D84BD09C039
:102780008091B0008F7703C08091B0008F7D8093DF
:10279000B000E32FF0E0EE0FFF1FEE58FF4FA591C2
:1027A000B4912FB7F894662321F48C9190958923E6
:1027B00002C08C91892B8C932FBF089508951F928E
:1027C0000F920FB60F9211242F933F934F938F9335
:1027D0009F93EF93FF934091C60020916203309145
:1027E00063032F5F3F4F2F77307080916403909188
:1027F00065032817390759F0E0916203F0916303EC
:10280000EE51FD4F40833093630320936203FF91A9
:10281000EF919F918F914F913F912F910F900FBE0C
:102820000F901F901895E091F603F091F703E05890
:10283000FF4F8191919120813181821B930B8F7782
:102840009070892B11F00E94DE1308951F920F9251
:102850000FB60F9211242F933F938F939F93EF9373
:10286000FF932091E6033091E7038091E803909174
:10287000E9032817390731F48091C1008F7D8093D7
:10288000C10014C0E091E803F091E903EA59FC4F5C
:1028900020818091E8039091E90301968F779070F1
:1028A0009093E9038093E8032093C600FF91EF9192
:1028B0009F918F913F912F910F900FBE0F901F907E
:1028C0001895AF92BF92DF92EF92FF920F931F93F2
:1028D000CF93DF93EC017A018B01DD24403081EE50
:1028E000580780E0680780E0780711F0DD24D39472
:1028F00091E0A92EB12CEC89FD89DD2069F0C5019C
:102900000E8C02C0880F991F0A94E2F7808360E062
:1029100079E08DE390E005C0108260E874E88EE114
:1029200090E0A80197010E943417215030404040A8
:102930005040569547953795279580E120303807C8
:1029400020F0DD2011F0DD24D6CFE889F98930832D
:10295000EA89FB892083EE89FF89408121E030E00C
:10296000C9010A8C02C0880F991F0A94E2F7482B0C
:102970004083EE89FF894081C9010B8C02C0880F1A
:10298000991F0A94E2F7482B4083EE89FF89408122
:10299000C9010C8C02C0880F991F0A94E2F7482BDA
:1029A0004083EE89FF8980810D8C02C0220F331F86
:1029B0000A94E2F7209528232083DF91CF911F917D
:1029C0000F91FF90EF90DF90BF90AF900895DC01E2
:1029D0001C96ED91FC911D97E058FF4F219131918C
:1029E00080819181281B390B2F773070C9010895A0
:1029F000DC011C96ED91FC911D97E058FF4F208162
:102A00003181E058F040DF01AE57BF4F8D919C916E
:102A100011972817390719F42FEF3FEF07C08D9151
:102A20009C91E80FF91F8081282F30E0C90108959B
:102A3000DC011C96ED91FC911D97E058FF4F208121
:102A40003181E058F040DF01AE57BF4F8D919C912E
:102A500011972817390719F42FEF3FEF10C08D9108
:102A60009C911197E80FF91F20818D919C911197EE
:102A700001968F77907011969C938E9330E0C901E8
:102A80000895FC0186859785DC01A058BF4FFC01A5
:102A9000EE57FF4F2D913C9111978081918128171E
:102AA0003907C1F70895CF93DF93EC01EE85FF85D9
:102AB000E058FF4F20813181E058F0402F5F3F4FB9
:102AC0002F773070DF01AE57BF4F8D919C911197DA
:102AD00028173907D1F3E058FF4F80819181E058E2
:102AE000F040E80FF91F6083EE85FF85E058FF4F47
:102AF00031832083EE89FF89208181E090E00D8C75
:102B000002C0880F991F0A94E2F7282B208381E0E6
:102B100090E0DF91CF9108951092ED031092EC03B5
:102B200088EE93E0A0E0B0E08093EE039093EF0393
:102B3000A093F003B093F1038FE491E09093EB0343
:102B40008093EA0382EE92E09093F7038093F6037A
:102B500086E693E09093F9038093F80385EC90E088
:102B60009093FB038093FA0384EC90E09093FD0331
:102B70008093FC0380EC90E09093FF038093FE032E
:102B800081EC90E0909301048093000486EC90E047
:102B9000909303048093020484E08093040483E010
:102BA0008093050487E08093060485E08093070402
:102BB00081E0809308040895CF93DF930E94B012C0
:102BC0000E94370BC3E1D4E10E94780A2097E1F319
:102BD0000E941314F9CFCF92DF92EF92FF920F93DE
:102BE0001F93CF93DF937C016B018A01C0E0D0E09B
:102BF0000FC0D6016D916D01D701ED91FC9101904F
:102C0000F081E02DC7010995C80FD91F0150104070
:102C10000115110571F7CE01DF91CF911F910F9131
:102C2000FF90EF90DF90CF900895EF92FF920F9377
:102C30001F938C01DC01ED91FC910190F081E02D5E
:102C40006DE009957C01D801ED91FC910190F08136
:102C5000E02DC8016AE009959C012E0D3F1DC901B8
:102C60001F910F91FF90EF900895CF93DF93DB01B9
:102C70000D900020E9F71197A61BB70BEC01E88136
:102C8000F9810280F381E02DAD010995DF91CF91AB
:102C900008954F925F927F928F929F92AF92BF92D0
:102CA000CF92DF92EF92FF920F931F93DF93CF9318
:102CB000CDB7DEB7A1970FB6F894DEBF0FBECDBF7C
:102CC0002C01742ECB01223008F42AE019A231E243
:102CD000C32ED12CCC0EDD1E822E9924AA24BB2417
:102CE000672D752FA50194010E94341779018A017F
:102CF000C801B701A50194010E94EE16472D461B9D
:102D00000894C108D1084A3014F4405D01C0495C00
:102D1000F6014083E114F1040105110521F07E2C38
:102D20005F2DC801DDCFC201B6010E943516A19604
:102D30000FB6F894DEBF0FBECDBFCF91DF911F91CC
:102D40000F91FF90EF90DF90CF90BF90AF909F904A
:102D50008F907F905F904F900895DC012115310591
:102D600041F4ED91FC910190F081E02D642F0995E3
:102D700008950E9449160895CF92DF92EF92FF9234
:102D80000F931F936C017B019A0100E010E0B801E2
:102D9000A7010E94AD168C01C6010E941516080FEE
:102DA000191FC8011F910F91FF90EF90DF90CF90F6
:102DB0000895EF92FF920F931F939A01E62EFF243E
:102DC00000E010E0B801A7010E94AD161F910F911D
:102DD000FF90EF9008950E9435160895629FD001EC
:102DE000739FF001829FE00DF11D649FE00DF11DC6
:102DF000929FF00D839FF00D749FF00D659FF00D75
:102E00009927729FB00DE11DF91F639FB00DE11D61
:102E1000F91FBD01CF0111240895AA1BBB1B51E16D
:102E200007C0AA1FBB1FA617B70710F0A61BB70B3A
:102E3000881F991F5A95A9F780959095BC01CD01DF
:102E4000089597FB092E07260AD077FD04D0E5DF09
:102E500006D000201AF4709561957F4F0895F6F71B
:102E6000909581959F4F0895A1E21A2EAA1BBB1B36
:102E7000FD010DC0AA1FBB1FEE1FFF1FA217B30746
:102E8000E407F50720F0A21BB30BE40BF50B661F5C
:102E9000771F881F991F1A9469F760957095809520
:102EA00090959B01AC01BD01CF01089597FB092EC0
:102EB00005260ED057FD04D0D7DF0AD0001C38F409
:102EC00050954095309521953F4F4F4F5F4F089556
:102ED000F6F790958095709561957F4F8F4F9F4F36
:102EE0000895EE0FFF1F0590F491E02D0994F894DA
:022EF000FFCF12
:102EF200436865636B73756D20726563656976659A
:102F0200643A2000202020436865636B73756D204E
:102F1200636F6D70757465643A20000000FFFF01F5
:102F2200000000010000000000FFFFFFFF000000A2
:102F320000010000000100FFFF000000000000533C
:0C2F420015EB15E7141815F814411500E4
:00000001FF
