:100000000C9462000C948A000C948A000C948A0070
:100010000C948A000C9412180C948A000C948A0098
:100020000C948A000C948A000C948A000C948A0028
:100030000C948A000C948A000C948A000C948A0018
:100040000C941B190C948A000C94031B0C94511BE8
:100050000C948A000C948A000C948A000C948A00F8
:100060000C948A000C948A000000000024002700F1
:100070002A0000000000250028002B0000000000DE
:1000800023002600290004040404040404040202DA
:100090000202020203030303030301020408102007
:1000A0004080010204081020010204081020000012
:1000B0000007000201000003040600000000000029
:1000C0000000BD1C11241FBECFEFD8E0DEBFCDBFA6
:1000D00011E0A0E0B1E0E0E7FDE302C005900D9281
:1000E000A036B107D9F716E0A0E6B1E001C01D9235
:1000F000AA35B107E1F710E0C4ECD0E004C02297C4
:10010000FE010E94B21EC23CD107C9F70E94131D16
:100110000C94B61E0C940000AF92BF92DF92EF9247
:10012000FF920F931F93CF93DF93D42E7801890111
:10013000A0914404B09145045D01A60EB11CB50127
:1001400030E0482F50E0C1E0D0E01FC0E0FE16C014
:10015000FB0193E0F695E7959A95E1F7E40FF51F1B
:10016000EE59FE4FCB01877090705E0102C0AA0C61
:10017000BB1C8A95E2F720812A29208316950795D2
:10018000F794E7943F5F6F5F7F4F3D15F8F2AD0D39
:10019000B11DB0934504A0934404DF91CF911F910A
:1001A0000F91FF90EF90DF90BF90AF900895CF92A6
:1001B000DF92EF92FF920F931F93CF93DF93E42E82
:1001C000F42EC0914404D0914504DE011197A60F8E
:1001D000B11D242F332727FD3095A20FB31F00E058
:1001E00010E020E030E0C82EDD2429C0B901A801CC
:1001F000440F551F661F771FFD0123E0F695E79515
:100200002A95E1F7EE59FE4FEC0DFD1D808190E03F
:100210009D012770307002C0959587952A95E2F769
:100220008C01222717FD2095322F0170107020704D
:100230003070042B152B262B372BFA941197FF20A7
:10024000A9F6CE0DD11DD0934504C0934404B80146
:10025000C901DF91CF911F910F91FF90EF90DF9037
:10026000CF90089520E0611571058105910549F051
:100270002F5F203229F09695879577956795F3CF74
:100280002FE1822F08956F927F929F92AF92BF923B
:10029000CF92DF92EF92FF920F93CF93DF938091F3
:1002A00063018093E201809164018093E3011092E5
:1002B000450410924404FEE0AF2EF2E0BF2ECC24A1
:1002C000DD24F601EE51FE4F80818952823008F024
:1002D00065C083E060E048E00E94D700F601E45F7B
:1002E000FD4F608383E060E043E00E94D7006F5FD2
:1002F000F501608399243601E3E0660C771CEA95EA
:10030000E1F747C0C92DD0E083E060E047E00E94FC
:10031000D700C60DD71DFE01E05FFD4F660F60835D
:1003200083E060E042E00E94D700FE01EC51FE4F06
:10033000608361FF2DC083E060E044E00E94D7004D
:1003400070E2E72E72E0F72EEC0EFD1EF7016083DF
:1003500083E060E044E00E94D700FE01E05DFD4FD5
:10036000608300E054E0CC0FDD1F5A95E1F70CC02C
:1003700083E060E048E00E94D700FE01E00FF11D3D
:10038000E05CFD4F60830F5FF7018081081780F309
:100390009394F5018081981608F4B4CF0894C11C99
:1003A000D11C0894A11CB11CF2E0CF16D10409F0B5
:1003B00088CFDF91CF910F91FF90EF90DF90CF909A
:1003C000BF90AF909F907F906F9008952F923F9233
:1003D0004F925F926F927F928F929F92AF92BF9255
:1003E000CF92DF92EF92FF920F931F93DF93CF9301
:1003F000CDB7DEB72E970FB6F894DEBF0FBECDBFD8
:1004000080E0E82FF0E0EE59FE4F10828F5F8038D9
:10041000C1F719821A821B821C8210924504109225
:100420004404E4EFAE2EE1E0BE2E75E0E72EF12CA1
:10043000EC0EFD1E63E0C62ED12CCC0EDD1E4E014F
:100440000894811C911C77247394F50120813181DB
:1004500042815381F701208331834283538357FFC5
:100460000EC0F401708288279927DC01821B930B50
:10047000A40BB50BF70180839183A283B383F701AB
:1004800060817181828193810E943201F6018083B3
:10049000882311F08F5F8083F60101916F0110E0D6
:1004A00020E030E081E060E045E00E948C0084E0E4
:1004B00090E0A80EB91EE80EF91E0894811C911C4C
:1004C0009CEFA91691E0B90609F0BFCF0D811E81FE
:1004D0002F813885000F111F221F331F898190E063
:1004E000A0E0B0E0082B192B2A2B3B2B0D831E8399
:1004F0002F83388781E060E04B810E948C000A8165
:1005000010E020E030E089859A85AB85BC85880FB6
:10051000991FAA1FBB1F082B192B2A2B3B2B81E0ED
:1005200060E04C810E948C002CEFC22E21E0D22E84
:1005300097EF692E94E0792E8EE0282E82E0382EF7
:1005400044245524F201EE51FE4FE081E33230F4B1
:10055000E132B8F4E03209F09CC00AC0E432D1F0D4
:10056000E43208F496C0E952E23008F092C040C08C
:10057000F601008111812281338181E060E041E058
:1005800090C0F601008111812281338181E060E019
:1005900048E087C0F601008111812281338181E02A
:1005A00060E043E00E948C00F3010681178120E0A7
:1005B00030E081E060E04AE00E948C00F3010081BD
:1005C000118120E030E081E060E04AE00E948C0090
:1005D000F3010281138120E030E081E060E04AE035
:1005E0000E948C00F3010481158120E030E056C0A8
:1005F000F601008111812281338181E060E0F10107
:1006000040810E948C00EE24C20103E0880F991FF4
:100610000A95E1F79E878D8737C02E2D30E0F601D1
:1006200080819181A281B3810E2C04C0B595A795DC
:10063000979587950A94D2F780FF25C0FF248D8572
:100640009E85820F931F10E3812E12E0912E880E5B
:10065000991E5C01B4E0AA0CBB1CBA95E1F70FC06F
:10066000F501EF0DF11DE05CFC4F008110E020E092
:1006700030E081E060E048E00E948C00F394F401F7
:100680008081F81668F3E394F1018081E81628F27E
:100690000AC0F601008111812281338181E060E08E
:1006A0004AE00E948C000894411C511C84E090E0B8
:1006B000C80ED91EE8E0F0E06E0E7F1E0894211CE3
:1006C000311CF2E04F16510409F03CCF80914404F4
:1006D000909145040796A3E096958795AA95E1F732
:1006E0008F5F809361012E960FB6F894DEBF0FBE28
:1006F000CDBFCF91DF911F910F91FF90EF90DF90D1
:10070000CF90BF90AF909F908F907F906F905F90B1
:100710004F903F902F9008952F923F924F925F926B
:100720006F92AF92BF92CF92DF92EF92FF920F93B0
:100730001F93DF93CF93CDB7DEB72E970FB6F89404
:10074000DEBF0FBECDBF5CEF252E51E0352E1E86DD
:100750001D866D84ED85FE85EE51FE4FE081E3320E
:1007600091F1E43240F4E132F1F0E23208F5E032A6
:1007700009F0C0C006C0E932E8F1EB3208F0BAC0B7
:100780003DC08D850E942F118059914028F481E051
:1007900090E0A0E0B0E0B3C0D1011D921D921D9287
:1007A0001C921397B1C08D850E941A1290E0A5C0CB
:1007B00025E230E040E050E0D1012D933D934D9390
:1007C0005C931397A1C08D8560E00E94D21184E1F3
:1007D00090E00E94CA198D850E942F11A0E0B0E020
:1007E000F10180839183A283B3838D8564E00E94AD
:1007F000D2118AC08D850E949E167FC0D1011D92A4
:100800001D921D921C92139710E0ED85FE85E25F0C
:10081000FD4FF887EF832D853E8543E0220F331F80
:100820004A95E1F73A8729874D855E85445F5D4F9C
:100830005C874B8758C0D1018D919D910D90BC91E3
:10084000A02D89839A83AB83BC83412E5524E985EF
:10085000FA85E40DF51DDF01AC51BE4F2C912170DE
:10086000AF01405E5D4F5E834D83DF0194E0AA0FD0
:10087000BB1F9A95E1F780E3C82E82E0D82ECE0EFA
:10088000DF1E00E4A02E03E0B02EAA0EBB1E862DB4
:10089000E05FFD4F6081EB85FC854081ED81FE814D
:1008A0000081A05CBD4F7D01D601CC900E94AC10B0
:1008B00090E081709070012E02C0880F991F0A94F9
:1008C000E2F7AA2797FDA095BA2F29813A814B819B
:1008D0005C81822B932BA42BB52BF1018083918318
:1008E000A283B3831F5FAF81B8858C91181708F47A
:1008F000A2CF0AC0862D0E942F11A0E0B0E0F10126
:1009000080839183A283B3832D853E852F5F3F4FE4
:100910003E872D8744E050E0240E351E22303105FD
:1009200009F017CF2E960FB6F894DEBF0FBECDBFDD
:10093000CF91DF911F910F91FF90EF90DF90CF90BB
:10094000BF90AF906F905F904F903F902F90089521
:10095000EF92FF920F931F93CF93DF9360E1E62E08
:1009600062E0F62E0CE012E0C0E0D0E08C2FFE0139
:10097000EE51FE4F6081653261F1663278F4623289
:1009800009F446C0633228F46032B1F06132F1F507
:1009900016C06332C1F06432C9F518C0683211F173
:1009A000693228F46632C1F0673281F518C06932C5
:1009B000F1F06A3259F51EC08C2F60E027C08C2FF1
:1009C0000E943B1225C08C2F64E020C08C2F6DE06C
:1009D0000BC08C2F6EE008C08C2F6FE005C08C2FF1
:1009E00060E102C08C2F61E10E94691611C08C2F5A
:1009F00060E002C08C2F64E00E94D2118C2FF701BE
:100A00006081F80140810E947E0802C00E94D211DC
:100A1000219688E090E0E80EF91E0F5F1F4FC2306C
:100A2000D10509F0A3CFDF91CF911F910F91FF90D6
:100A3000EF9008956F927F928F929F92AF92BF92A4
:100A4000CF92DF92EF92FF920F931F93CF93DF939A
:100A50001092450410924404C4E0D2E081E060E0CA
:100A600041E00E94D700611571058105910569F18A
:100A700081E060E045E00E94D700462F4F5F81E0B3
:100A800060E00E94D7009B01AC01288339834A8330
:100A90005B8360FF0BC088279927DC01821B930BC7
:100AA000A40BB50B88839983AA83BB836881798162
:100AB0008A819B8122E030E040E050E00E94951E58
:100AC000288339834A835B8304C0188219821A827F
:100AD0001B82249682E0CC30D80709F0BFCFE0908B
:100AE0000402F09005020091060210910702E11441
:100AF000F1040105110561F4809108029091090249
:100B0000A0910A02B0910B020097A105B10561F016
:100B1000209108023091090240910A0250910B0283
:100B2000C801B7010E94E11781E060E04AE00E943D
:100B3000D7009B01AC0180E0B9010E94B11881E0AF
:100B400060E04AE00E94D7009B01AC0181E0B9015E
:100B50000E94B118CC24DD24F601EE51FE4F8081B5
:100B60008952823008F048C0EE24FEE06F2EF2E099
:100B70007F2E6C0C7D1C4601E3E0880C991CEA95E5
:100B8000E1F736C0E401CE0DD11DFE01EC51FE4F60
:100B9000808181FD2CC081E060E044E00E94D700AC
:100BA0008E01005E1D4FF801608381E060E044E04B
:100BB0000E94D700FE01E05DFD4F6083FF245801D5
:100BC0008E0174E0000F111F7A95E1F70CC081E0EF
:100BD00060E048E00E94D700F801EF0DF11DE05CF5
:100BE000FD4F6083F394F5018081F81680F3E39460
:100BF000F3018081E81630F20894C11CD11CF2E0A8
:100C0000CF16D10409F0A8CFDF91CF911F910F919A
:100C1000FF90EF90DF90CF90BF90AF909F908F901C
:100C20007F906F900895EF92FF920F931F9381E64C
:100C300091E062E671E041E050E00E94220780937B
:100C400060018823A9F40E946319609340047093A3
:100C50004104809342049093430410916201143044
:100C600019F40E94C21788C0113009F085C016C05F
:100C7000813009F081C00E94631960934004709331
:100C80004104809342049093430410916201143014
:100C900019F40E94C21769C0113011F580916101E9
:100CA000823009F069C080E060E00E94D21180E0EB
:100CB0000E942F118A3F910580F490916301892F42
:100CC00081508E3F50F4892F0E94310810936201A9
:100CD00081E062E671E00E94EF070E94A8044CC028
:100CE000123029F40E9443010E94A8043EC0133030
:100CF00089F40E941A050E948C0384EF91E068EF4A
:100D000071E00E94C6170E94E60110936201809173
:100D100061012EC0153081F52091660130E040E080
:100D200050E0542F432F322F222780916501280F46
:100D3000311D411D511DA9013327222790916401C6
:100D400080E060916301860F911DAA2797FDA09511
:100D5000BA2F280F391F4A1F5B1F20932B01309396
:100D60002C0140932D0150932E011093620181E0DC
:100D700062E671E00E94EF0780912B0190912C01B7
:100D8000A0912D01B0912E010097A105B105E9F0C8
:100D90000E94631920912B0130912C0140912D016B
:100DA00050912E01E0904004F090410400914204E3
:100DB000109143042E0D3F1D401F511F261737076A
:100DC0004807590710F40E94C2178091E20184324B
:100DD00019F480E00E9419168091E301843219F41D
:100DE00081E00E9419161F910F91FF90EF900895D6
:100DF00060E271EA87E090E00E9428080E94AB1749
:100E00000E94FD110895F999FECF72BD61BDF89A57
:100E100080B50895F999FECF1FBA72BD61BD40BD7E
:100E20000FB6F894FA9AF99A0FBE089504C088E3B1
:100E300096E00E94441C88E396E00E94131C892BD4
:100E4000B1F708956F927F928F929F92AF92BF9267
:100E5000CF92DF92EF92FF920F931F93CF93DF9386
:100E60004C013B01EA010E9463195B016C017E01A8
:100E70000027F7FC0095102F0FC0209769F00E9403
:100E800063196A197B098C099D096E157F05800716
:100E9000910710F08EEF94C088E396E00E94131C37
:100EA000892B59F3FF2409C088E396E00E94131CA4
:100EB000F82E82E390E00E94CA190F2D10E088E31B
:100EC00096E00E94131C0817190774F382E08F152F
:100ED00020F00E9416078CEF73C0C0E0D0E088E3DA
:100EE00096E00E94441CFE01E95BFB4F8083219643
:100EF000CF15A8F360914704E0904804909149040D
:100F0000F40190838091C704681721F0662311F0E3
:100F10008DEF56C0292F30E00350104020173107C5
:100F200011F08AEF4DC0260F311DEAE4F4E08DEF99
:100F3000F80E4F2D50E04E0F5F1F03C08191280F18
:100F4000311DE417F507D1F730703093C9042093B1
:100F5000C8048E2D90E08217930711F490E029C009
:100F600088E396E060E071E00E942A1E88E396E044
:100F70006E2D4AE050E00E94181E88E396E064E17E
:100F800071E00E942A1E6091C8047091C90488E330
:100F900096E04AE050E00E94FB1D8BEF11C0E92F64
:100FA000F0E0D301AE0FBF1FE95BFB4F83818C9351
:100FB0009F5FF4018081981790F3862F611181E083
:100FC000DF91CF911F910F91FF90EF90DF90CF9025
:100FD000BF90AF909F908F907F906F900895CF9328
:100FE000DF93482FA82FB0E0C9E4D4E0FB0104C090
:100FF0008191A80FB11D89938E2F861B8417C0F392
:10100000CD0190709093C9048093C80480934704E5
:10101000409348044E5F88E396E067E474E050E054
:101020000E94221DDF91CF91089586E494E060E054
:1010300070E00E940307982F81508E3F20F4909318
:10104000C70481E008958EEF8093C70480E008957F
:10105000AB01BC0188E396E00E948C1B0E9415083E
:1010600008951F93182F86E494E060E070E00E94DA
:101070000307811739F086E494E060E070E0412FC7
:101080000E940A071093C7041F910895582F8230B9
:1010900010F081E008954093CC048093ED0484E047
:1010A00090E0052E02C0880F991F0A94E2F7809302
:1010B000CA0480958093CD04852F8E5F8093EE04C3
:1010C00021E030E0F90102C0EE0FFF1F8A95E2F740
:1010D000E093D904052E02C0220F331F0A94E2F7D1
:1010E0002093D704822F80958093CB045093CE0415
:1010F0002093D8046093DC0480E008950E944608A1
:10110000882311F081E008958091ED04882341F453
:1011100087B18A7F87B988B18A7F88B980E00895CE
:1011200087B1857F87B988B1857F88B980E00895C8
:101130006091CC046623A9F0262F30E02150304086
:1011400080E090E00BC00000000000000000000004
:1011500000000000000000000000019682179307C5
:1011600090F387B19091CD04892387B98091D904F8
:10117000482F50E020ED37E086B190E0842395239E
:10118000892B69F40000000000000000000000004E
:101190000000000000002150304071F766C0662357
:1011A000B9F42BC086B190E084239523892B11F0EC
:1011B00082E0089500000000000000000000000030
:1011C0000000000000002150304061F786E00895E3
:1011D000262F30E02150304080E090E00BC000002E
:1011E00000000000000000000000000000000000FF
:1011F000000001968217930790F387B19091CB047A
:10120000892387B98091D804482F50E020ED37E03A
:1012100086B190E084239523892B71F400000000AF
:10122000000000000000000000000000000021504D
:10123000304071F784E008956623A9F0262F30E04E
:101240002150304080E090E00BC000000000000022
:1012500000000000000000000000000000000196F7
:101260008217930790F380E0089587B19091CB04A3
:10127000892387B98091D804482F50E020ED37E0CA
:1012800091CF582F87B1F091CA048F2B87B957FFA0
:1012900005C087B19091CB04892304C087B1909198
:1012A000D704892B87B94091CC044423A9F0242F7B
:1012B00030E02150304080E090E00BC000000000A2
:1012C000000000000000000000000000000000001E
:1012D00001968217930790F387B1E091CD048E2396
:1012E00087B98091D904682F70E020ED37E086B18E
:1012F00090E086239723892B69F40000000000000A
:1013000000000000000000000000000021503040FC
:1013100071F7CCC24423A9F0242F30E02150304093
:1013200080E090E00BC00000000000000000000022
:1013300000000000000000000000019682179307E3
:1013400090F387B18F2B87B956FF05C087B1909175
:10135000CB04892304C087B19091D704892B87B926
:101360004423A9F0242F30E02150304080E090E069
:101370000BC00000000000000000000000000000A2
:1013800000000000000001968217930790F387B1D8
:101390008E2387B920ED37E086B190E0862397232E
:1013A000892B69F40000000000000000000000002C
:1013B0000000000000002150304071F777C2442344
:1013C000A9F0242F30E02150304080E090E00BC0A5
:1013D000000000000000000000000000000000000D
:1013E0000000000001968217930790F387B18F2BBE
:1013F00087B955FF05C087B19091CB04892304C0FC
:1014000087B19091D704892B87B94423A9F0242F61
:1014100030E02150304080E090E00BC00000000040
:1014200000000000000000000000000000000000BC
:1014300001968217930790F387B18E2387B920ED29
:1014400037E086B190E086239723892B69F400006A
:10145000000000000000000000000000000000008C
:101460002150304071F722C24423A9F0242F30E0EC
:101470002150304080E090E00BC0000000000000F0
:1014800000000000000000000000000000000196C5
:101490008217930790F387B18F2B87B954FF05C04C
:1014A00087B19091CB04892304C087B19091D70470
:1014B000892B87B94423A9F0242F30E021503040F4
:1014C00080E090E00BC00000000000000000000081
:1014D0000000000000000000000001968217930742
:1014E00090F387B18E2387B920ED37E086B190E085
:1014F00086239723892B69F4000000000000000078
:10150000000000000000000000002150304071F792
:10151000CDC14423A9F0242F30E02150304080E099
:1015200090E00BC000000000000000000000000080
:10153000000000000000000001968217930790F35E
:1015400087B18F2B87B953FF05C087B19091CB042A
:10155000892304C087B19091D704892B87B944238C
:10156000A9F0242F30E02150304080E090E00BC003
:10157000000000000000000000000000000000006B
:101580000000000001968217930790F387B18E2325
:1015900087B920ED37E086B190E086239723892B29
:1015A00069F40000000000000000000000000000DE
:1015B000000000002150304071F778C14423A9F0A9
:1015C000242F30E02150304080E090E00BC000003C
:1015D000000000000000000000000000000000000B
:1015E000000001968217930790F387B18F2B87B97C
:1015F00052FF05C087B19091CB04892304C087B105
:101600009091D704892B87B94423A9F0242F30E087
:101610002150304080E090E00BC00000000000004E
:101620000000000000000000000000000000019623
:101630008217930790F387B18E2387B920ED37E0A7
:1016400086B190E086239723892B69F4000000007F
:101650000000000000000000000000000000215019
:10166000304071F723C14423A9F0242F30E02150EA
:10167000304080E090E00BC000000000000000005F
:10168000000000000000000000000000019682172A
:10169000930790F387B18F2B87B951FF05C087B1AE
:1016A0009091CB04892304C087B19091D704892BF2
:1016B00087B94423A9F0242F30E02150304080E046
:1016C00090E00BC0000000000000000000000000DF
:1016D000000000000000000001968217930790F3BD
:1016E00087B18E2387B920ED37E086B190E086235D
:1016F0009723892B69F4000000000000000000001F
:1017000000000000000000002150304071F7CEC002
:101710004423A9F0242F30E02150304080E090E0B5
:101720000BC00000000000000000000000000000EE
:1017300000000000000001968217930790F387B124
:101740008F2B87B950FF05C087B19091CB048923B7
:1017500004C087B19091D704892B87B94423A9F09D
:10176000242F30E02150304080E090E00BC000009A
:101770000000000000000000000000000000000069
:10178000000001968217930790F387B18E2387B9E3
:1017900020ED37E086B190E086239723892B69F40A
:1017A0000000000000000000000000000000000039
:1017B00000002150304071F779C04423A9F0242F54
:1017C00030E02150304080E090E00BC0000000008D
:1017D0000000000000000000000000000000000009
:1017E00001968217930790F387B18F2B87B987B142
:1017F0009091CB04892387B94423A9F0242F30E0AA
:101800002150304080E090E00BC00000000000005C
:101810000000000000000000000000000000019631
:101820008217930790F387B18E2387B920ED37E0B5
:1018300086B190E086239723892B69F4000000008D
:101840000000000000000000000000000000215027
:10185000304071F72BC086B16091CE044423A9F0CB
:1018600050E04150504020E030E00CC0000000004B
:101870000000000000000000000000000000000068
:101880002F5F3F4F2417350788F390E002C09595EE
:1018900087956A95E2F7282F217087B18F2B87B93A
:1018A00087B19091D704892B87B901C022E0822F9C
:1018B0000895FF920F931F93CF93DF93482F81508A
:1018C000803110F008E053C08091DC048E7F80935B
:1018D000DD04AEEDB4E0FB0102C081918D938E2F4B
:1018E000861B8417D0F3F42EF394F092DA0487B1B8
:1018F0009091D704892B87B98091CC048823A9F0D3
:10190000282F30E02150304080E090E00BC00000F4
:1019100000000000000000000000000000000000C7
:10192000000001968217930790F3CDEDD4E010E00C
:1019300017C089910E944109082F882381F08130C6
:1019400019F40E94980811C087B19091CD048923A1
:1019500087B987B19091CB04892387B906C01F5FEF
:101960001F1538F30E949808082F1092DA04802F70
:10197000DF91CF911F910F91FF900895DF92EF9229
:10198000FF920F931F93CF93DF93EC01D62E87B175
:10199000A091CA048A2B87B987B19091CB0489237F
:1019A00087B987B18A2B87B94091CC044423A9F029
:1019B000242F30E02150304080E090E00BC0000048
:1019C0000000000000000000000000000000000017
:1019D000000001968217930790F387B1B091CD0470
:1019E0008B2387B98091D904E82FF0E020ED37E010
:1019F00086B190E08E239F23892B69F400000000BC
:101A00000000000000000000000000000000215065
:101A1000304071F7EFC286B17091CE0490E0072E8E
:101A200002C0959587950A94E2F7EE24E394E822A4
:101A3000E092CF044423A9F0242F30E0215030401D
:101A400080E090E00BC000000000000000000000FB
:101A500000000000000000000000019682179307BC
:101A600090F387B18A2B87B94423A9F0242F30E063
:101A70002150304080E090E00BC0000000000000EA
:101A800000000000000000000000000000000196BF
:101A90008217930790F387B18B2387B920ED37E046
:101AA00086B190E08E239F23892B69F4000000000B
:101AB00000000000000000000000000000002150B5
:101AC000304071F797C286B190E0072E02C095951D
:101AD00087950A94E2F7FF24F394F822F092D00459
:101AE0004423A9F0242F30E02150304080E090E0E2
:101AF0000BC000000000000000000000000000001B
:101B000000000000000001968217930790F387B150
:101B10008A2B87B94423A9F0242F30E0215030408C
:101B200080E090E00BC0000000000000000000001A
:101B300000000000000000000000019682179307DB
:101B400090F387B18B2387B920ED37E086B190E021
:101B50008E239F23892B69F4000000000000000001
:101B6000000000000000000000002150304071F72C
:101B700041C286B190E0072E02C0959587950A94E0
:101B8000E2F7082F01700093D1044423A9F0242F19
:101B900030E02150304080E090E00BC000000000B9
:101BA0000000000000000000000000000000000035
:101BB00001968217930790F387B18A2B87B9442344
:101BC000A9F0242F30E02150304080E090E00BC09D
:101BD0000000000000000000000000000000000005
:101BE0000000000001968217930790F387B18B23C2
:101BF00087B920ED37E086B190E08E239F23892BB3
:101C000069F4000000000000000000000000000077
:101C1000000000002150304071F7ECC186B190E027
:101C2000072E02C0959587950A94E2F7182F117038
:101C30001093D2044423A9F0242F30E021503040E7
:101C400080E090E00BC000000000000000000000F9
:101C500000000000000000000000019682179307BA
:101C600090F387B18A2B87B94423A9F0242F30E061
:101C70002150304080E090E00BC0000000000000E8
:101C800000000000000000000000000000000196BD
:101C90008217930790F387B18B2387B920ED37E044
:101CA00086B190E08E239F23892B69F40000000009
:101CB00000000000000000000000000000002150B3
:101CC000304071F797C186B190E0072E02C095951C
:101CD00087950A94E2F7682F61706093D3044423D8
:101CE000A9F0242F30E02150304080E090E00BC07C
:101CF00000000000000000000000000000000000E4
:101D00000000000001968217930790F387B18A2B99
:101D100087B94423A9F0242F30E02150304080E0DF
:101D200090E00BC000000000000000000000000078
:101D3000000000000000000001968217930790F356
:101D400087B18B2387B920ED37E086B190E08E23F1
:101D50009F23892B69F400000000000000000000B0
:101D600000000000000000002150304071F742C127
:101D700086B190E0072E02C0959587950A94E2F708
:101D8000582F51705093D4044423A9F0242F30E0ED
:101D90002150304080E090E00BC0000000000000C7
:101DA000000000000000000000000000000001969C
:101DB0008217930790F387B18A2B87B94423A9F040
:101DC000242F30E02150304080E090E00BC0000034
:101DD0000000000000000000000000000000000003
:101DE000000001968217930790F387B18B2387B980
:101DF00020ED37E086B190E08E239F23892B69F494
:101E000000000000000000000000000000000000D2
:101E100000002150304071F7EDC086B190E0072EF0
:101E200002C0959587950A94E2F781708093D50456
:101E30004423A9F0242F30E02150304080E090E08E
:101E40000BC00000000000000000000000000000C7
:101E500000000000000001968217930790F387B1FD
:101E60008A2B87B94423A9F0242F30E02150304039
:101E700080E090E00BC000000000000000000000C7
:101E80000000000000000000000001968217930788
:101E900090F387B18B2387B920ED37E086B190E0CE
:101EA0008E239F23892B69F40000000000000000AE
:101EB000000000000000000000002150304071F7D9
:101EC00099C086B190E002C0959587957A95E2F722
:101ED000782F71707093D6044423A9F0242F30E03A
:101EE0002150304080E090E00BC000000000000076
:101EF000000000000000000000000000000001964B
:101F00008217930790F387B18A2B87B9DD2029F0D8
:101F100087B19091D704892B87B94423A9F0242F46
:101F200030E02150304080E090E00BC00000000025
:101F300000000000000000000000000000000000A1
:101F400001968217930790F387B18B2387B980910D
:101F5000D504880F872B550F550F582B660F660F2A
:101F6000660F652B1295107F162B0295000F007ED1
:101F7000012BF294FF0CFF0C80ECF822F02AE7947E
:101F8000EE24E794EF28E88220ED37E086B190E078
:101F90008E239F23892B69F40000000000000000BD
:101FA000000000000000000000002150304071F7E8
:101FB00021C04423A9F0242F30E02150304080E09C
:101FC00090E00BC0000000000000000000000000D6
:101FD000000000000000000001968217930790F3B4
:101FE00087B18A2B87B987B19091D704892B87B99C
:101FF00080E001C082E0DF91CF911F910F91FF90AF
:10200000EF90DF9008955F926F927F928F929F92F0
:10201000AF92BF92CF92DF92EF92FF920F931F93F6
:10202000DF93CF930F92CDB7DEB7F82E862E572EC3
:10203000982E9A948FE0891518F428E0E22E7AC041
:10204000F394F092DA04FA94F092DB048091DC04C9
:1020500081608093DD049EEDA92E94E0B92EF501F8
:10206000CF2CDD24CA0CDB1C01C01192EC15FD0540
:10207000E1F787B19091D704892B87B98091CC047F
:102080008823A9F0282F30E02150304080E090E0F4
:102090000BC0000000000000000000000000000075
:1020A00000000000000001968217930790F38091D2
:1020B000DD040E944109E82E882339F400E010E095
:1020C0003E010894611C711C20C00E949808109267
:1020D000DA0430C0C301692D0E94BE0CE82E0F5FE8
:1020E0001F4F9A9491E0981758F487B19091CD04BE
:1020F000892387B987B19091CB04892387B91AC006
:10210000F801E352FB4F898180830F1518F30E9479
:102110009808E82E1092DA041092DB04882D952D91
:102120009C01F90104C0D5018D915D018193AC142E
:10213000BD04C9F78E2D0F90CF91DF911F910F91A4
:10214000FF90EF90DF90CF90BF90AF909F908F90D7
:102150007F906F905F900895AF92BF92CF92EF9271
:10216000FF920F931F93122F0E944608882309F0B5
:102170006DC0002339F0802FB7010E94590C8823CD
:1021800009F064C0CC2011F481E061C0112309F48E
:1021900053C087B19091CA04892B87B96091CC0450
:1021A0006623A9F0262F30E02150304080E090E0F7
:1021B0000BC0000000000000000000000000000054
:1021C00000000000000001968217930790F387B18A
:1021D0009091CD04892387B98091D904482F50E08C
:1021E00020ED37E086B190E084239523892B69F4B4
:1021F00000000000000000000000000000000000DF
:1022000000002150304071F721C06623A9F0262F2D
:1022100030E02150304080E090E00BC00000000032
:1022200000000000000000000000000000000000AE
:1022300001968217930790F38C2DB5010E9403102D
:10224000982F811191E081E0892701C080E01F91E2
:102250000F91FF90EF90CF90BF90AF9008958A5F5D
:10226000883018F020E030E016C0877080937C0042
:1022700080917A00806480937A0080917A0086FD54
:10228000FCCF3091780020917900922F80E0232FAD
:1022900030E0282B392BC9010895883018F020E050
:1022A00030E016C0877080937C0080917A00806453
:1022B00080937A0080917A0086FDFCCF309178007F
:1022C00020917900922F80E0232F30E0282B392BAA
:1022D000C9010895382F662361F027B184E090E0AA
:1022E000032E02C0880F991F0A94E2F7282B27B902
:1022F0000CC027B184E090E0032E02C0880F991F24
:102300000A94E2F78095822387B9442359F028B1D3
:1023100084E090E002C0880F991F3A95E2F7282BDD
:1023200028B9089528B184E090E002C0880F991F71
:102330003A95E2F78095822388B90895382F66236D
:1023400061F027B181E090E0032E02C0880F991F51
:102350000A94E2F7282B27B90CC027B181E090E05E
:10236000032E02C0880F991F0A94E2F780958223FA
:1023700087B9442359F028B181E090E002C0880F6A
:10238000991F3A95E2F7282B28B9089528B181E0E2
:1023900090E002C0880F991F3A95E2F7809582235A
:1023A00088B908950F931F93082F162F823010F0CD
:1023B00080E020C06170412F48700E946A11612F37
:1023C0006270412F4071802F0E949E112AB180E4DB
:1023D00090E002C0880F991F0A95E2F7982F282BEA
:1023E0002AB912FF03C08BB1982B03C08BB1909513
:1023F00098239BB91F910F910895EAE7F0E080813F
:102400008E7F808380818D7F808380818B7F80839E
:102410008081846080838081816080838081806806
:10242000808380E060E00E94D21181E060E00E9441
:10243000D2110895AF92BF92CF92EF92FF920F9375
:1024400092E49093EF0462E047E021E001E05FEE68
:10245000E52E54E0F52ECC24C39457010E94AC1015
:10246000882311F08091EF040F91FF90EF90CF90AF
:10247000BF90AF9008951F93182F62E047E00E942D
:102480007E08882311F080E005C0812F64E00E945F
:10249000D21181E01F9108956F927F928F929F9247
:1024A000AF92BF92CF92DF92EF92FF920F931F9362
:1024B000CF93DF9380910705E82EFF24E70193E097
:1024C000CC0FDD1F9A95E1F7FE01E85EFA4F86809A
:1024D00097809401442737FD4095542FFE01E45D19
:1024E000FA4F80819181A281B381281739074A0769
:1024F0005B0724F482E0682E712C10C066247724D8
:10250000C85DDA4F88819981AA81BB812817390774
:102510004A075B071CF401E0602E712CC70113E031
:10252000880F991F1A95E1F7B8E1AB2EB5E0BB2EE5
:10253000A80EB91EE701CC0FDD1FCE0DDF1DC60DA5
:10254000D71DF4E0CC0FDD1FFA95E1F7C85CDA4F38
:102550008C01085F1A4FCC24DD24F5016081718164
:102560008616970688F46819790980E090E028813A
:1025700039814A815B810E942D1EBC0188279927E1
:10258000F8017183608303C0F801118210820894FE
:10259000C11CD11C42E050E0A40EB51E24960E5F73
:1025A0001F4F53E0C516D104C1F688E48816910484
:1025B0001CF420E030E003C0940127543040870130
:1025C00053E0000F111F5A95E1F7085F1A4F84E698
:1025D00090E0FC012E9FC0012F9F900D3E9F900D1B
:1025E00011246CE170E00E94601E882777FD8095C1
:1025F000982FF701EE0FFF1FEE0DFF1DE60DF71DE3
:1026000034E0EE0FFF1F3A95E1F7E85CFA4F2485BE
:102610003585468557850E942D1EBC018827992740
:10262000F80177836683DF91CF911F910F91FF901F
:10263000EF90DF90CF90BF90AF909F908F907F9062
:102640006F900895CF93DF93E0910705F0E073E07A
:10265000EE0FFF1F7A95E1F7CF01885F9A4FDC01FB
:102660004D915C91DF01A45FBA4F0D90BC91A02DFC
:10267000E65FFA4F0190F081E02DEC016E817F81E1
:10268000A417B5070CF049C0E417F5070CF045C0D6
:10269000413451050CF4EEC06832710524F44E3615
:1026A00051050CF4E7C0CD019595879595958795D3
:1026B0009D01359527953595279535952795820F59
:1026C000931F8A0F9B1F8E179F073CF4CF01880F23
:1026D000991F481759070CF4CFC0CF01880F991FD5
:1026E0009F013595279535952795821B930B841768
:1026F000950714F485E0C7C0A634B1050CF4BAC040
:10270000E634F1050CF4B6C06C3871050CF0B6C0B7
:102710004C3851050CF4AEC0B1C0AE17BF07CCF5B4
:10272000E832F1050CF4A6C06E31710524F4E634EC
:10273000F1050CF49FC0CD01880F991F84179507F0
:102740000CF49AC0CA019595879595958795840F45
:10275000951F8E179F070CF493C0CD019595879513
:10276000959587958A0F9B1F8E179F070CF488C03D
:10277000463451050CF47EC0A634B1050CF47AC081
:102780006C3871050CF07AC0EC38F1050CF472C0AD
:1027900075C0A033B1050CF46DC06931710524F426
:1027A000A535B1050CF466C020E330E0429FC001BE
:1027B000439F900D529F900D1124689414F89595A5
:1027C00087951694E1F78A179B0784F4E29FC0016E
:1027D000E39F900DF29F900D112425E0959587952C
:1027E0002A95E1F78A179B070CF44CC02AE330E0E6
:1027F000429FC001439F900D529F900D11246894F9
:1028000014F8959587951694E1F78A179B07D4F1EC
:10281000E29FC001E39F900DF29F900D112425E0EF
:10282000959587952A95E1F78A179B075CF14C33BC
:10283000510504F1EC33F105ECF06E3671051CF432
:10284000A837B105BCF0CA0133E0959587953A9554
:10285000E1F7840F951F8A179B07A4F0CF0123E0AF
:10286000959587952A95E1F78E0F9F1F8A179B07ED
:102870002CF408C081E007C084E005C086E003C0F6
:1028800083E001C082E0DF91CF9108950F931F9301
:1028900027B13091070504E010E0C801032E02C003
:1028A000880F991F0A94E2F7282B27B928B1822BA9
:1028B00088B927B181E090E002C0880F991F3A954E
:1028C000E2F7282B27B928B1822B88B961E070E0A4
:1028D00080E090E00E94711927B1C80100900705BF
:1028E00002C0880F991F0A94E2F7282B27B928B154
:1028F0008095822388B961E070E080E090E00E94DA
:10290000711927B1C8010090070502C0880F991FEF
:102910000A94E2F7282B27B928B1822B88B961E005
:1029200070E080E090E00E94711987B10090070587
:1029300002C0000F111F0A94E2F7802B87B988B1FB
:102940000095082308B964E670E080E090E00E94FA
:1029500071191F910F910895CF92DF92EF92FF921C
:102960001F93CF93DF9310E0C0E0D0E0F4E0EF2EB0
:10297000F12CE1E0CE2ED12C27B1C7010090070544
:1029800002C0880F991F0A94E2F7282B27B928B1B3
:10299000822B88B988E090E00E94CA19169527B169
:1029A00030910705C601032E02C0880F991F0A94B3
:1029B000E2F78095822387B986B190E0032E02C0AA
:1029C000959587950A94E2F780FD106887B1A70175
:1029D00002C0440F551F3A95E2F79A01842B87B93C
:1029E00088B12095282328B92196C830D10521F631
:1029F000812FDF91CF911F91FF90EF90DF90CF90CB
:102A00000895AF92BF92CF92DF92EF92FF920F9311
:102A10001F93CF93DF9327B181E090E000900705EB
:102A200002C0880F991F0A94E2F78095822387B924
:102A3000AA24BB244DC00E94AC1420E030E02F5FDC
:102A40003F4F28303105D9F790E0A0E0B0E00C2EE0
:102A500004C0880F991FAA1FBB1F0A94D2F7E82A47
:102A6000F92A0A2B1B2B2896C032D10521F7809119
:102A7000070590E0FC01EE0FFF1FE80FF91FEA0DBC
:102A8000FB1DEE0FFF1FEE0FFF1FEC0DFD1DEE0FE8
:102A9000FF1FEE0FFF1FE85CFA4FE082F182028316
:102AA00013830894C11CD11C84E0C816D10431F0F2
:102AB000EE24FF248701C0E0D0E0BDCF0894A11C24
:102AC000B11C83E0A816B10419F4CC24DD2437C06E
:102AD000CC24DD24EDCF28960E94AC1420E030E019
:102AE0002F5F3F4F28303105D9F790E00C2E02C000
:102AF000880F991F0A94E2F7AA2797FDA095BA2F8D
:102B0000E82AF92A0A2B1B2BC830D10521F7E091BE
:102B10000705F0E0EE0FFF1FEC0DFD1DEE0FFF1F90
:102B2000EE0FFF1FE85DFA4FE082F182028313830C
:102B30000894C11CD11C82E0C816D10431F0EE24E7
:102B4000FF248701C0E0D0E0C7CF0E94AC140E94F0
:102B5000AC1462E070E080E090E00E94711981E0C6
:102B6000DF91CF911F910F91FF90EF90DF90CF9069
:102B7000BF90AF900895CF92DF92EF92FF920F93A4
:102B80001F93CF93DF93582F00E010E064E0E62E10
:102B9000F12C41E0C42ED12C47B120910705C7018B
:102BA000022E02C0880F991F0A94E2F7482B47B9FA
:102BB00048B1842B88B987B1B60102C0660F771F70
:102BC0002A95E2F79B01862B87B9C52FD0E050FFED
:102BD00003C088B1282B03C088B12095282328B9C9
:102BE0008EE190E00E94CA1987B197010090070515
:102BF00002C0220F331F0A94E2F7822B87B988B1F3
:102C00002095282328B98EE190E00E94CA190F5F11
:102C10001F4F0830110521F0D595C7955C2FBCCF0B
:102C2000DF91CF911F910F91FF90EF90DF90CF90A8
:102C300008950F931F93823008F048C080930705D2
:102C400027B104E010E0A80102C0440F551F8A9587
:102C5000E2F7CA01242B27B928B1822B88B984E175
:102C600090E00E94CA1927B1C8010090070502C070
:102C7000880F991F0A94E2F7282B27B928B180956D
:102C8000822388B984E190E00E94CA1927B1C80163
:102C90000090070502C0880F991F0A94E2F7282BBD
:102CA00027B928B1822B88B984E190E00E94CA1923
:102CB00087B10090070502C0000F111F0A94E2F7C8
:102CC000802B87B988B10095082308B91F910F910F
:102CD00008951F93162F8230D8F480930705E82FAC
:102CE000F0E0EE0FFF1FE856FA4F608311820E945A
:102CF0004614812F0E94BB1580E89CE00E94CA19EF
:102D00000E94011568E770E080E090E00E94711970
:102D10001F910895809107050E944D1122E330E034
:102D2000AC01429FC001439F900D529F900D112412
:102D300061E270E00E944C1ECB0108950F931F9337
:102D4000CF93DF93823018F0A0E0B0E0FEC0809314
:102D5000070527B1C82FD0E081E090E00C2E02C01B
:102D6000880F991F0A94E2F78095282327B928B184
:102D7000822388B9FE01EE0FFF1FE856FA4F00814B
:102D800011810D30110509F0B7C00E948A16F3E0D9
:102D9000CC0FDD1FFA95E1F7C950DB4F9F838E837F
:102DA00027B104E010E0C8010090070502C0880FB9
:102DB000991F0A94E2F7282B27B928B1822B88B9EA
:102DC00084E190E00E94CA1980910705C82FD0E0E5
:102DD0000E948A16E3E0CC0FDD1FEA95E1F7C950A7
:102DE000DB4F9983888327B1C8010090070502C093
:102DF000880F991F0A94E2F7282B27B928B18095EC
:102E0000822388B984E190E00E94CA198091070565
:102E1000C82FD0E00E948A1673E0CC0FDD1F7A9590
:102E2000E1F7C750DB4F9983888327B1C801009031
:102E3000070502C0880F991F0A94E2F7282B27B9CB
:102E400028B1822B88B984E190E00E94CA19809150
:102E50000705C82FD0E00E948A1663E0CC0FDD1F63
:102E60006A95E1F7C550DB4F9983888387B1A091BC
:102E70000705B0E00A2E02C0000F111F0A94E2F706
:102E8000802B87B988B10095082308B9FD0153E06C
:102E9000EE0FFF1F5A95E1F79F01285E3A4FE95068
:102EA000FB4F86819781E9019F838E838081918189
:102EB0009983888343E0AA0FBB1F4A95E1F7FD0180
:102EC0003296CF0189509B4FEC0188819981E85E51
:102ED000FA4F918380831496FD01E950FB4F808166
:102EE0009181A85EBA4F8D939C930E944C120E94D0
:102EF0002213A82FB0E029C00E948A16CC0FDD1F34
:102F0000CC0FDD1FC00FD11FCC0FDD1FC552DB4F13
:102F100099838883E0910705F0E0EE0FFF1FDF0142
:102F2000A856BA4F8D919C910E97EE0FFF1FE80F98
:102F3000F91FEE0FFF1FDF01A950BB4F0D90BC9191
:102F4000A02DE85EFA4FB183A083CD01DF91CF9130
:102F50001F910F9108958AB1837C8AB98BB1837CCC
:102F60008BB9EDE6F0E080818C638083E8E6F0E0E9
:102F700080818460808385B1807C85B984B18F63D2
:102F800084B9089585B1807C85B90895FC0180914C
:102F90009F059091A005A091A105B091A205808305
:102FA0009183A283B3838091A3059091A405A091FE
:102FB000A505B091A605FB0180839183A283B3830D
:102FC0000895EF92FF920F931F93E0909F05F0906A
:102FD000A0050091A1051091A205E61AF70A080BB9
:102FE000190BE0929F05F092A0050093A1051093A4
:102FF000A2058091A3059091A405A091A505B0918B
:10300000A605821B930BA40BB50B8093A30590938D
:10301000A405A093A505B093A6051F910F91FF905D
:10302000EF9008951F920F920FB60F9211242F93D5
:103030003F934F935F936F937F938F939F93AF9340
:10304000BF93EF93FF9399B180919C05892790934B
:103050009C058C73682F70E0CB0184719070892B74
:10306000A9F130919D0529B189B12695227090E092
:10307000B4E095958795BA95E1F78170282B330FC9
:10308000330F322B3F7030939D0520919F05309177
:10309000A0054091A1055091A205E0919D05F0E0A9
:1030A000EE0FFF1FE15DFE4F80819181AA2797FD02
:1030B000A095BA2F820F931FA41FB51F80939F0561
:1030C0009093A005A093A105B093A20568727070BB
:1030D000672BB1F130919E0529B189B126952695CE
:1030E000227090E075E0959587957A95E1F781706B
:1030F000282B330F330F322B3F7030939E052091D6
:10310000A3053091A4054091A5055091A605E09135
:103110009E05F0E0EE0FFF1FE15DFE4F8081918183
:10312000AA2797FDA095BA2F820F931FA41FB51F42
:103130008093A3059093A405A093A505B093A6053D
:10314000FF91EF91BF91AF919F918F917F916F917F
:103150005F914F913F912F910F900FBE0F901F9055
:1031600018950F931F93CF93DF93EB01882371F58D
:103170008B010170107060FF1AC02C9A6C7F737005
:10318000C1FF0CC0769567957695679560957095AB
:1031900070708AE00E940F1A289A0AC07695679587
:1031A000769567958AE00E940F1A289801C02C989E
:1031B000CC7FD370CD2B11F00023C1F58AE060E005
:1031C00070E00E940F1A85B18A7F2FC0813071F59F
:1031D0008B010170107060FF1AC02D9A6C7F7370A4
:1031E000C1FF0CC07695679576956795609570954B
:1031F00070708BE00E940F1A299A0AC07695679525
:10320000769567958BE00E940F1A299801C02D983A
:10321000CC7FD370CD2B11F0002341F48BE060E024
:1032200070E00E940F1A85B1857F85B9DF91CF913B
:103230001F910F9108951F920F920FB60F921124B4
:103240002F933F938F939F93AF93BF938091AB0541
:103250009091AC05A091AD05B091AE053091AF0550
:103260000196A11DB11D232F2D5F2D3720F02D5765
:103270000196A11DB11D2093AF058093AB059093DE
:10328000AC05A093AD05B093AE058091A7059091D4
:10329000A805A091A905B091AA050196A11DB11D8F
:1032A0008093A7059093A805A093A905B093AA05BC
:1032B000BF91AF919F918F913F912F910F900FBE32
:1032C0000F901F9018958FB7F8942091AB0530910F
:1032D000AC054091AD055091AE058FBFB901CA0153
:1032E00008959B01AC017FB7F8948091A705909158
:1032F000A805A091A905B091AA0566B5A89B05C02F
:103300006F3F19F00196A11DB11D7FBFBA2FA92FE4
:10331000982F8827860F911DA11DB11D62E0880F8F
:10332000991FAA1FBB1F6A95D1F7BC012DC0FFB71B
:10333000F8948091A7059091A805A091A905B09156
:10334000AA05E6B5A89B05C0EF3F19F00196A11D9F
:10335000B11DFFBFBA2FA92F982F88278E0F911D5F
:10336000A11DB11DE2E0880F991FAA1FBB1FEA959E
:10337000D1F7861B970B885E9340C8F221503040EE
:103380004040504068517C4F2115310541055105A1
:1033900071F60895019739F0880F991F880F991FCA
:1033A00002970197F1F70895789484B5826084BDFF
:1033B00084B5816084BD85B5826085BD85B5816039
:1033C00085BDEEE6F0E0808181608083E1E8F0E099
:1033D0001082808182608083808181608083E0E8C8
:1033E000F0E0808181608083E1EBF0E080818460A7
:1033F0008083E0EBF0E0808181608083EAE7F0E0A9
:10340000808184608083808182608083808181600C
:1034100080838081806880831092C10008951F930B
:10342000CF93DF93182FEB0161E00E946F1A209772
:1034300009F44AC0CF3FD10509F449C0E12FF0E0BB
:10344000E255FF4F84918330C1F0843028F48130FD
:1034500051F08230B1F50CC0863019F1873049F156
:10346000843079F514C084B5806884BDC7BD33C08D
:1034700084B5806284BDC8BD2EC080918000806804
:1034800080938000D0938900C093880024C08091ED
:103490008000806280938000D0938B00C0938A006C
:1034A0001AC08091B00080688093B000C093B300D0
:1034B00012C08091B00080628093B000C093B400CD
:1034C0000AC0C038D1051CF4812F60E002C0812FF2
:1034D00061E00E94AE1ADF91CF911F910895CF93C2
:1034E000DF93482F50E0CA0186569F4FFC0134916C
:1034F0004A575F4FFA018491882369F190E0880F61
:10350000991FFC01E859FF4FA591B491FC01EE58B9
:10351000FF4FC591D491662351F42FB7F8948C9145
:10352000932F909589238C93888189230BC06230D7
:1035300061F42FB7F8948C91932F909589238C93F5
:103540008881832B88832FBF06C09FB7F8948C9106
:10355000832B8C939FBFDF91CF910895482F50E02C
:10356000CA0182559F4FFC012491CA0186569F4F84
:10357000FC0194914A575F4FFA013491332309F4C7
:1035800040C0222351F1233071F0243028F421303F
:10359000A1F0223011F514C02630B1F02730C1F06F
:1035A0002430D9F404C0809180008F7703C08091CB
:1035B00080008F7D8093800010C084B58F7702C01B
:1035C00084B58F7D84BD09C08091B0008F7703C022
:1035D0008091B0008F7D8093B000E32FF0E0EE0F7C
:1035E000FF1FEE58FF4FA591B4912FB7F8946623B3
:1035F00021F48C919095892302C08C91892B8C9316
:103600002FBF089508951F920F920FB60F921124A5
:103610002F933F934F938F939F93EF93FF938091BB
:10362000C00082FD1DC04091C6002091F005309180
:10363000F1052F5F3F4F2F7330708091F20590910D
:10364000F3052817390771F0E091F005F091F105C5
:10365000E055FA4F40833093F1052093F00502C006
:103660008091C600FF91EF919F918F914F913F9173
:103670002F910F900FBE0F901F901895E091440668
:10368000F0914506E05CFF4F81919191208131815D
:10369000821B930B8F739070892B11F00E94021B79
:1036A00008951F920F920FB60F9211242F933F93FC
:1036B0008F939F93EF93FF932091340630913506BB
:1036C00080913606909137062817390731F480919A
:1036D000C1008F7D8093C10014C0E0913606F09147
:1036E0003706EC50FA4F20818091360690913706CC
:1036F00001968F73907090933706809336062093CF
:10370000C600FF91EF919F918F913F912F910F9064
:103710000FBE0F901F901895AF92BF92DF92EF925D
:10372000FF920F931F93CF93DF93EC017A018B01EC
:10373000DD24403081EE580780E0680780E078079C
:1037400011F0DD24D39491E0A92EB12CEC89FD89F0
:10375000DD2069F0C50108A002C0880F991F0A94F6
:10376000E2F7808360E079E08DE390E005C01082AD
:1037700060E874E88EE190E0A80197010E94731E52
:1037800021503040404050405695479537952795F9
:1037900080E12030380720F0DD2011F0DD24D6CF85
:1037A000E889F9893083EA89FB89208319A2EE89A7
:1037B000FF89408121E030E0C9010C8C02C0880FF4
:1037C000991F0A94E2F7482B4083EE89FF894081D4
:1037D000C9010D8C02C0880F991F0A94E2F7482B8B
:1037E0004083EE89FF894081C9010E8C02C0880F99
:1037F000991F0A94E2F7482B4083EE89FF89808164
:103800000F8C02C0220F331F0A94E2F72095282361
:103810002083DF91CF911F910F91FF90EF90DF9068
:10382000BF90AF900895DC011C96ED91FC911D971F
:10383000E05CFF4F2191319180819181281B390BF0
:103840002F733070C9010895DC011C96ED91FC9135
:103850001D97E05CFF4F20813181E054F040DF0193
:10386000AE5BBF4F8D919C9111972817390719F4C2
:103870002FEF3FEF07C08D919C91E80FF91F8081DA
:10388000282F30E0C9010895DC011C96ED91FC91D0
:103890001D97E05CFF4F20813181E054F040DF0153
:1038A000AE5BBF4F8D919C9111972817390719F482
:1038B0002FEF3FEF10C08D919C911197E80FF91FEA
:1038C00020818D919C91119701968F739070119624
:1038D0009C938E9330E0C9010895DC0191968C9100
:1038E0009197882339F05496ED91FC9155978081FA
:1038F00086FFF9CF91961C920895CF93DF93EC0148
:10390000EE85FF85E05CFF4F20813181E054F0407F
:103910002F5F3F4F2F733070DF01AE5BBF4F8D9134
:103920009C91119728173907D1F3E05CFF4F8081F4
:103930009181E054F040E80FF91F6083EE85FF8528
:10394000E05CFF4F31832083EE89FF89208181E095
:1039500090E00F8C02C0880F991F0A94E2F7282B81
:10396000208381E089A3EC89FD8980818064808344
:1039700081E090E0DF91CF91089510923B06109284
:103980003A0688EE93E0A0E0B0E080933C06909386
:103990003D06A0933E06B0933F0683E591E09093E9
:1039A00039068093380680EB95E090934506809326
:1039B000440684EF95E0909347068093460685EC95
:1039C00090E0909349068093480684EC90E09093B1
:1039D0004B0680934A0680EC90E090934D068093CE
:1039E0004C0681EC90E090934F0680934E0682EC5B
:1039F00090E0909351068093500686EC90E090936F
:103A000053068093520684E08093540683E08093AB
:103A1000550687E08093560685E08093570681E03F
:103A2000809358060895CF93DF930E94D4190E9483
:103A3000F806CEE3DBE10E9413062097E1F30E9433
:103A40003E1BF9CFCF92DF92EF92FF920F931F931D
:103A5000CF93DF937C016B018A01C0E0D0E00FC0FF
:103A6000D6016D916D01D701ED91FC910190F0812E
:103A7000E02DC7010995C80FD91F0150104001154D
:103A8000110571F7CE01DF91CF911F910F91FF903A
:103A9000EF90DF90CF900895EF92FF920F931F93D6
:103AA0008C01DC01ED91FC910190F081E02D6DE045
:103AB00009957C01D801ED91FC910190F081E02DF8
:103AC000C8016AE009959C012E0D3F1DC9011F9197
:103AD0000F91FF90EF900895CF93DF93EC01611564
:103AE000710519F420E030E00FC0DB010D900020DB
:103AF000E9F71197A61BB70BE881F9810280F381E2
:103B0000E02DAD0109959C01C901DF91CF91089588
:103B10004F925F927F928F929F92AF92BF92CF927D
:103B2000DF92EF92FF920F931F93DF93CF93CDB766
:103B3000DEB7A1970FB6F894DEBF0FBECDBF2C0144
:103B4000742ECB01223008F42AE019A231E2C32EF0
:103B5000D12CCC0EDD1E822E9924AA24BB24672DE5
:103B6000752FA50194010E94731E79018A01C80175
:103B7000B701A50194010E942D1E472D461B0894F4
:103B8000C108D1084A3014F4405D01C0495CF60117
:103B90004083E114F1040105110521F07E2C5F2D15
:103BA000C801DDCFC201B6010E946C1DA1960FB6FF
:103BB000F894DEBF0FBECDBFCF91DF911F910F9163
:103BC000FF90EF90DF90CF90BF90AF909F908F903D
:103BD0007F905F904F900895DC012115310541F4ED
:103BE000ED91FC910190F081E02D642F09950895ED
:103BF0000E94881D0895CF92DF92EF92FF920F935B
:103C00001F936C017B019A0100E010E0B801A7014D
:103C10000E94EC1D8C01C6010E944C1D080F191F4B
:103C2000C8011F910F91FF90EF90DF90CF90089502
:103C3000EF92FF920F931F939A01E62EFF2400E06C
:103C400010E0B801A7010E94EC1D1F910F91FF9099
:103C5000EF9008950E946C1D0895629FD001739F9C
:103C6000F001829FE00DF11D649FE00DF11D929F18
:103C7000F00D839FF00D749FF00D659FF00D992757
:103C8000729FB00DE11DF91F639FB00DE11DF91F7B
:103C9000BD01CF0111240895AA1BBB1B51E107C030
:103CA000AA1FBB1FA617B70710F0A61BB70B881FCC
:103CB000991F5A95A9F780959095BC01CD0108955B
:103CC00097FB092E07260AD077FD04D0E5DF06D042
:103CD00000201AF4709561957F4F0895F6F790953E
:103CE00081959F4F0895A1E21A2EAA1BBB1BFD01CF
:103CF0000DC0AA1FBB1FEE1FFF1FA217B307E407CB
:103D0000F50720F0A21BB30BE40BF50B661F771F22
:103D1000881F991F1A9469F7609570958095909502
:103D20009B01AC01BD01CF01089597FB092E05262B
:103D30000ED057FD04D0D7DF0AD0001C38F45095C0
:103D40004095309521953F4F4F4F5F4F0895F6F7BF
:103D500090958095709561957F4F8F4F9F4F0895F7
:103D6000EE0FFF1F0590F491E02D0994F894FFCF1A
:103D7000436865636B73756D20726563656976650D
:103D8000643A2000202020436865636B73756D20C2
:103D9000636F6D70757465643A2000FA000000006E
:103DA00000FFFF01000000010000000000FFFFFF16
:103DB000FF00000000010000000100FFFF00000004
:103DC0000000007D1C221D131C441C241C6D1C00C3
:00000001FF
