:100000000C9435000C945D000C945D000C945D0024
:100010000C945D000C945D000C945D000C945D00EC
:100020000C945D000C945D000C945D000C945D00DC
:100030000C945D000C945D000C945D000C945D00CC
:100040000C9498000C945D000C9475010C94BC0108
:100050000C945D000C945D000C945D000C945D00AC
:100060000C945D000C945D00240311241FBECFEF9F
:10007000D8E0DEBFCDBF11E0A0E0B1E0E8EEF9E0EE
:1000800002C005900D92AE32B107D9F712E0AEE290
:10009000B1E001C01D92AE35B107E1F710E0CAE64C
:1000A000D0E004C02297FE010E94EE04C836D107BA
:1000B000C9F70E9474030C94F2040C9400000F938F
:1000C0001F936AE070E080E090E00E94E0000FE3A0
:1000D00012E0C80160911C010E94E90260911C01BC
:1000E00070911D01C8014AE050E00E948504809192
:1000F0001C0190911D01019690931D0180931C019C
:100100001F910F9108958FE392E040E855E260E07F
:1001100070E00E94F7018FE392E00E94220388239F
:10012000D1F38FE392E060E071E00E9498040895BB
:100130001F920F920FB60F9211242F933F938F931C
:100140009F93AF93BF938091320190913301A0911F
:100150003401B0913501309136010196A11DB11DD8
:10016000232F2D5F2D3720F02D570196A11DB11D96
:10017000209336018093320190933301A093340190
:10018000B093350180912E0190912F01A091300103
:10019000B09131010196A11DB11D80932E01909364
:1001A0002F01A0933001B0933101BF91AF919F9186
:1001B0008F913F912F910F900FBE0F901F90189528
:1001C0009B01AC017FB7F89480912E0190912F0193
:1001D000A0913001B091310166B5A89B05C06F3F79
:1001E00019F00196A11DB11D7FBFBA2FA92F982F1D
:1001F0008827860F911DA11DB11D62E0880F991FF0
:10020000AA1FBB1F6A95D1F7BC012DC0FFB7F89498
:1002100080912E0190912F01A0913001B091310178
:10022000E6B5A89B05C0EF3F19F00196A11DB11DD1
:10023000FFBFBA2FA92F982F88278E0F911DA11DC0
:10024000B11DE2E0880F991FAA1FBB1FEA95D1F7E5
:10025000861B970B885E9340C8F221503040404087
:10026000504068517C4F211531054105510571F60B
:100270000895789484B5826084BD84B5816084BD1E
:1002800085B5826085BD85B5816085BDEEE6F0E00F
:10029000808181608083E1E8F0E01082808182606B
:1002A0008083808181608083E0E8F0E080818160EC
:1002B0008083E1EBF0E0808184608083E0EBF0E01C
:1002C000808181608083EAE7F0E0808184608083C0
:1002D000808182608083808181608083808180686A
:1002E00080831092C100089508951F920F920FB657
:1002F0000F9211242F933F934F938F939F93EF93DC
:10030000FF934091C6002091B7013091B8012F5F53
:100310003F4F2F7730708091B9019091BA01281723
:10032000390759F0E091B701F091B801E95CFE4F4F
:1003300040833093B8012093B701FF91EF919F91D3
:100340008F914F913F912F910F900FBE0F901F9063
:100350001895E0914B02F0914C02E058FF4F8191CB
:10036000919120813181821B930B8F779070892B23
:1003700011F00E94740108951F920F920FB60F9210
:1003800011242F933F938F939F93EF93FF9320918B
:100390003B0230913C0280913D0290913E02281731
:1003A000390731F48091C1008F7D8093C10014C062
:1003B000E0913D02F0913E02E554FE4F2081809194
:1003C0003D0290913E0201968F77907090933E028D
:1003D00080933D022093C600FF91EF919F918F91F2
:1003E0003F912F910F900FBE0F901F901895AF92D5
:1003F000BF92DF92EF92FF920F931F93CF93DF9301
:10040000EC017A018B01DD24403081EE580780E059
:10041000680780E0780711F0DD24D39491E0A92EDD
:10042000B12CEC89FD89DD2069F0C5010E8C02C07C
:10043000880F991F0A94E2F7808360E079E08DE3EA
:1004400090E005C0108260E874E88EE190E0A801B9
:1004500097010E94CA0421503040404050405695B8
:1004600047953795279580E12030380720F0DD202B
:1004700011F0DD24D6CFE889F9893083EA89FB8938
:100480002083EE89FF89408121E030E0C9010A8C98
:1004900002C0880F991F0A94E2F7482B4083EE8927
:1004A000FF894081C9010B8C02C0880F991F0A94F3
:1004B000E2F7482B4083EE89FF894081C9010C8C0B
:1004C00002C0880F991F0A94E2F7482B4083EE89F7
:1004D000FF8980810D8C02C0220F331F0A94E2F73E
:1004E000209528232083DF91CF911F910F91FF90BA
:1004F000EF90DF90BF90AF900895DC011C96ED91D6
:10050000FC911D97E058FF4F21913191808191819D
:10051000281B390B2F773070C9010895DC011C9618
:10052000ED91FC911D97E058FF4F20813181E058FB
:10053000F040DF01AE57BF4F8D919C911197281766
:10054000390719F42FEF3FEF07C08D919C91E80F09
:10055000F91F8081282F30E0C9010895DC011C9625
:10056000ED91FC911D97E058FF4F20813181E058BB
:10057000F040DF01AE57BF4F8D919C911197281726
:10058000390719F42FEF3FEF10C08D919C9111970F
:10059000E80FF91F20818D919C91119701968F771B
:1005A000907011969C938E9330E0C9010895FC01E0
:1005B00086859785DC01A058BF4FFC01EE57FF4FA1
:1005C0002D913C9111978081918128173907C1F7AE
:1005D0000895CF93DF93EC01EE85FF85E058FF4F40
:1005E00020813181E058F0402F5F3F4F2F773070EE
:1005F000DF01AE57BF4F8D919C9111972817390796
:10060000D1F3E058FF4F80819181E058F040E80F2E
:10061000F91F6083EE85FF85E058FF4F318320830B
:10062000EE89FF89208181E090E00D8C02C0880F67
:10063000991F0A94E2F7282B208381E090E0DF9154
:10064000CF91089581E008951092420210924102E4
:1006500088EE93E0A0E0B0E08093430290934402E0
:10066000A0934502B093460282E291E0909340024B
:1006700080933F0287E391E090934C0280934B027A
:100680008BEB91E090934E0280934D0285EC90E0CD
:100690009093500280934F0284EC90E0909352022A
:1006A0008093510280EC90E0909354028093530227
:1006B00081EC90E0909356028093550286EC90E096
:1006C000909358028093570284E08093590283E00C
:1006D00080935A0287E080935B0285E080935C02FE
:1006E00081E080935D020895CF93DF930E943901EA
:1006F0000E948300C9EAD1E00E945F002097E1F3E5
:100700000E94A901F9CFCF92DF92EF92FF920F934F
:100710001F93CF93DF937C016B018A01C0E0D0E08F
:100720000FC0D6016D916D01D701ED91FC91019043
:10073000F081E02DC7010995C80FD91F0150104065
:100740000115110571F7CE01DF91CF911F910F9126
:10075000FF90EF90DF90CF900895EF92FF920F936C
:100760001F938C01DC01ED91FC910190F081E02D53
:100770006DE009957C01D801ED91FC910190F0812B
:10078000E02DC8016AE009959C012E0D3F1DC901AD
:100790001F910F91FF90EF900895CF93DF93DB01AE
:1007A0000D900020E9F71197A61BB70BEC01E8812B
:1007B000F9810280F381E02DAD010995DF91CF91A0
:1007C00008954F925F927F928F929F92AF92BF92C5
:1007D000CF92DF92EF92FF920F931F93DF93CF930D
:1007E000CDB7DEB7A1970FB6F894DEBF0FBECDBF71
:1007F0002C01742ECB01223008F42AE019A231E238
:10080000C32ED12CCC0EDD1E822E9924AA24BB240B
:10081000672D752FA50194010E94CA0479018A01F0
:10082000C801B701A50194010E94AB04472D461BE6
:100830000894C108D1084A3014F4405D01C0495CF5
:10084000F6014083E114F1040105110521F07E2C2D
:100850005F2DC801DDCFC201B6010E94CD03A19674
:100860000FB6F894DEBF0FBECDBFCF91DF911F91C1
:100870000F91FF90EF90DF90CF90BF90AF909F903F
:100880008F907F905F904F900895CF92DF92EF927C
:10089000FF920F931F93CF93DF93EC016A017B01CB
:1008A0002115310541F4E881F9810190F081E02DB5
:1008B000642F09951FC02A303105D1F477FF17C086
:1008C000E881F9810190F081E02D6DE209958C01BC
:1008D00044275527BA014C195D096E097F09CE01DD
:1008E0002AE00E94E1039801280F391F04C02AE082
:1008F0000E94E1039C01C901DF91CF911F910F91EB
:10090000FF90EF90DF90CF900895EF92FF920F93BA
:100910001F937B019A010027F7FC0095102FB80167
:10092000A7010E9445041F910F91FF90EF90089539
:10093000EF92FF920F931F937C010E94CD038C01D5
:10094000C7010E94AD03080F191FC8011F910F9125
:10095000FF90EF900895629FD001739FF001829FF6
:10096000E00DF11D649FE00DF11D929FF00D839F3E
:10097000F00D749FF00D659FF00D9927729FB00DDB
:10098000E11DF91F639FB00DE11DF91FBD01CF01EE
:1009900011240895A1E21A2EAA1BBB1BFD010DC054
:1009A000AA1FBB1FEE1FFF1FA217B307E407F5071F
:1009B00020F0A21BB30BE40BF50B661F771F881FFB
:1009C000991F1A9469F760957095809590959B0191
:1009D000AC01BD01CF010895EE0FFF1F0590F4910A
:0809E000E02D0994F894FFCF0B
:1009E8004153434949205461626C65207E20436825
:1009F80061726163746572204D61700021000000AE
:0E0A08000000E90283037D02AE028E02D702D7
:00000001FF
