:100000000C9463000C948B000C948B000C948B006C
:100010000C948B000C948B000C948B000C948B0034
:100020000C948B000C948B000C948B000C948B0024
:100030000C948B000C948B000C948B000C948B0014
:100040000C94390A0C948B000C94EF060C94360730
:100050000C948B000C948B000C948B000C948B00F4
:100060000C94F6030C948B00000000002400270081
:100070002A0000000000250028002B0000000000DE
:1000800023002600290004040404040404040202DA
:100090000202020203030303030301020408102007
:1000A0004080010204081020010204081020000012
:1000B0000007000201000003040600000000000029
:1000C000000033039E0811241FBECFEFD8E0DEBF2F
:1000D000CDBF11E0A0E0B1E0EAE0F6E102C005909A
:1000E0000D92A432B107D9F713E0A4E2B1E001C048
:1000F0001D92A934B107E1F710E0C6ECD0E004C0CE
:100100002297FE010E94FF0AC23CD107C9F70E9454
:10011000EE080C94030B0C94000080E00E949B06F8
:100120009C01442737FD4095542F2093260130939E
:100130002701409328015093290180913E0190911D
:100140003F01892B19F52130310541055105F1F4A5
:1001500081E00E949B062091320130913301409151
:10016000340150913501892B29F421503040404011
:10017000504004C02F5F3F4F4F4F5F4F20933201DD
:10018000309333014093340150933501809126011F
:100190009091270190933F0180933E01809132011D
:1001A00090913301A0913401B091350180934A01BF
:1001B00090934B01A0934C01B0934D0182E00E94BB
:1001C0009B069C01442737FD4095542F20932A011C
:1001D00030932B0140932C0150932D0180914001CD
:1001E00090914101892B19F52130310541055105C7
:1001F000F1F484E00E949B06209136013091370192
:100200004091380150913901892B29F42150304017
:100210004040504004C02F5F3F4F4F4F5F4F2093EF
:100220003601309337014093380150933901809162
:100230002A0190912B01909341018093400180917C
:10024000360190913701A0913801B0913901809326
:100250004E0190934F01A0935001B093510187E05C
:100260000E949B069C01442737FD4095542F209304
:100270002E0130932F014093300150933101809132
:10028000420190914301892B19F521303105410537
:100290005105F1F488E00E949B0620913A013091CB
:1002A0003B0140913C0150913D01892B29F42150A3
:1002B00030404040504004C02F5F3F4F4F4F5F4F92
:1002C00020933A0130933B0140933C0150933D0110
:1002D00080912E0190912F019093430180934201D0
:1002E00080913A0190913B01A0913C01B0913D0178
:1002F0008093520190935301A0935401B093550100
:100300000895609144017091450177FD09C0660F21
:10031000771F8BE00E94A8058AE060E070E00FC0C4
:100320008BE060E070E00E94A8056091440170914C
:100330004501660F771F709561957F4F8AE00E9497
:10034000A805609146017091470177FD09C0660FCD
:10035000771F86E00E94A80589E060E070E00FC08A
:1003600086E060E070E00E94A8056091460170910F
:100370004701660F771F709561957F4F89E00E9456
:10038000A805609148017091490177FD09C0660F89
:10039000771F85E00E94A80583E060E070E00FC051
:1003A00085E060E070E00E94A805609148017091CE
:1003B0004901660F771F709561957F4F83E00E941A
:1003C000A805089509C08FE991E00E94D602682F20
:1003D00081E293E00E9427098FE991E00E94CD021B
:1003E00002978CF78FE991E00E94D602BC0181E26E
:1003F00093E04AE050E00E94070A08950E948D00B1
:100400000E94810180910201882309F445C08091F6
:100410002401909125010196909325018093240158
:100420000B9704F1109225011092240140914E0186
:1004300050914F01609150017091510181E293E020
:100440002AE030E00E94C70981E293E060E071E0B9
:100450000E94260A8CE061E00E9447068DE061E080
:100460000E9447068CE060E00E9447068DE060E055
:100470000E94470680E490E09093450180934401F8
:1004800080EC9FEF909347018093460180E290E0DB
:10049000909349018093480108958FE991E064E0C9
:1004A00070E00E94CA038FE991E062EE71E00E9461
:1004B0002E0380E00E94A5058BE061E00E94080603
:1004C0008AE061E00E94080686E061E00E9408067A
:1004D00089E061E00E94080685E061E00E9408066C
:1004E00083E061E00E94080680E060E00E94080668
:1004F00081E060E00E94080682E060E00E94080659
:1005000084E060E00E94080687E060E00E94080640
:1005100088E060E00E9408068CE061E00E94080626
:100520008DE061E00E9408068CE061E00E944706D1
:100530008DE061E00E9447068BE060E070E00E9481
:10054000A8058AE060E070E00E94A80586E060E00F
:1005500070E00E94A80589E060E070E00E94A805B4
:1005600085E060E070E00E94A80583E060E070E054
:100570000E94A80580910201882371F081E293E036
:1005800040E051EE60E070E00E94710781E293E08C
:100590000E949C088823D1F308952091770130E0D0
:1005A00080917601281B3109C90108954091760197
:1005B00080917701481718F02FEF3FEF0AC0E42F22
:1005C000F0E0EA5AFE4F8081282F30E04F5F4093E1
:1005D0007601C9010895E091760180917701E817CD
:1005E00018F0EFEFFFEF06C0F0E0EA5AFE4F80810F
:1005F000E82FF0E0CF0108950895AC0120919D010E
:1006000030919E0121153105E1F0909176018091A4
:1006100077019817B0F090E008C0FA01EA0FFB1FCD
:100620008081AA5ABE4F8C939F5FA92FB0E0A61776
:10063000B7079CF31092760160937701CB01F90123
:1006400009950895E0919B01F0919C01309729F064
:1006500010929801109299010995089570939E0146
:1006600060939D0108951092A2011092A10188EE5D
:1006700093E0A0E0B0E08093A3019093A401A09345
:10068000A501B093A60188E091E09093A00180932A
:100690009F010895CF92DF92EF92FF920F931F93E5
:1006A000CF93DF937C016B018A0180919A018823AB
:1006B000A1F0C0E0D0E00DC0D701ED91FC91D601D2
:1006C000AC0FBD1F0190F081E02DC7016C91099521
:1006D0002196C017D10780F304C0CB01642F0E947C
:1006E000D103C801DF91CF911F910F91FF90EF903F
:1006F000DF90CF900895DF93CF930F92CDB7DEB701
:10070000FC01698380919A018823C9F08091990145
:10071000803238F081E090E09383828320E030E003
:1007200015C080919801E82FF0E0E858FE4F9981BC
:1007300090838F5F809398018093990105C0CE01CB
:10074000019661E00E94D10321E030E0C9010F90E1
:10075000CF91DF9108951092760110927701109257
:100760009801109299010E94870508950F931F9395
:100770008C01862F0E94CD0382E293E00E94F10358
:100780008DEF92E00E94EC03C8010E94AB031F9121
:100790000F9108950E94B6030895880F8093BA00C0
:1007A0000895482F613210F081E008958091AB01E7
:1007B000843011F082E008956093F601A5EDB1E078
:1007C000842F9C01F90102C081918D938E2F841B8F
:1007D0008617D0F380E008959093B2018093B10121
:1007E00008959093B0018093AF0108951F920F92E6
:1007F0000FB60F9211242F933F934F935F936F93F4
:100800007F938F939F93AF93BF93EF93FF938091C9
:10081000B90090E0887F90708036910509F4F2C0AD
:1008200081369105CCF58832910509F47BC0893277
:100830009105B4F48031910509F46FC081319105BF
:100840003CF4009709F447C1089709F04FC165C00F
:100850008831910509F466C0809709F047C182C0CC
:100860008034910509F4A4C08134910544F48033A7
:10087000910509F482C0C89709F038C189C0803554
:10088000910509F489C08835910509F496C088342A
:10089000910509F02BC1AEC08839910509F413C147
:1008A00089399105ECF48837910509F4ABC0893793
:1008B00091054CF48836910509F4A4C08037910560
:1008C00009F014C19FC08838910509F4FCC0803933
:1008D000910509F49DC08038910509F007C198C0C1
:1008E000803B910509F4C6C0813B91054CF4803AE8
:1008F000910509F49FC0883A910509F0F7C0BAC084
:10090000803C910509F4E3C0883C910509F4DFC0FF
:10091000883B910509F0EAC0C2C08091AC01809388
:10092000BB00CFC09091D3018091D401981768F497
:100930009091D301E92FF0E0ED54FE4F8081809338
:10094000BB009F5F9093D301BCC08091AD01882311
:1009500009F44BC085ED8093BC008091BC0084FD00
:10096000FCCFC2C080E28093180285ED8093BC006A
:100970008091BC0084FDFCCFB7C080E38093180257
:1009800085ED8093BC008091BC0084FDFCCFACC0A1
:1009900088E3809318029BC08091D3019091BB00A3
:1009A000E82FF0E0ED54FE4F90838F5F8093D301EA
:1009B0009091D3018091D40182C08091D301909114
:1009C000BB00E82FF0E0ED54FE4F90838F5F8093E3
:1009D000D3018091AD01882341F085ED8093BC0067
:1009E0008091BC0084FDFCCF7FC081E08093AE018C
:1009F00084EA6EC085ED8093BC008091BC0084FDCC
:100A0000FCCF72C083E08093AB011092170259C0F3
:100A100080911702803208F056C0809117029091A1
:100A2000BB00E82FF0E0E950FE4F90838F5F80938A
:100A3000170247C080911702803230F4E09117020C
:100A4000F0E0E950FE4F108285ED8093BC0080916C
:100A5000BC0084FDFCCF1092AB0160911702E091C5
:100A6000B101F091B20187EF91E070E00995109229
:100A700017022DC084E08093AB011092F501109213
:100A8000F601E091AF01F091B00109958091F60176
:100A9000882329F481E08093F6011092D50190918A
:100AA000F501E92FF0E0EB52FE4F80818093BB000F
:100AB0009F5F9093F5019091F5018091F601981751
:100AC00010F485EC01C085E88093BC000FC085EC74
:100AD0008093BC0009C01092180285ED8093BC0081
:100AE0008091BC0084FDFCCF1092AB01FF91EF918F
:100AF000BF91AF919F918F917F916F915F914F9136
:100B00003F912F910F900FBE0F901F90189510924C
:100B1000AB0181E08093AD011092AE0182E161E012
:100B20000E94470683E161E00E944706E9EBF0E09E
:100B300080818E7F808380818D7F808388E4809315
:100B4000B80085E48093BC00089580930301089564
:100B50001F93CF93DF93182FEB0161E00E940806EB
:100B6000209709F44AC0CF3FD10509F449C0E12FCD
:100B7000F0E0E255FF4F84918330C1F0843028F4D7
:100B8000813051F08230B1F50CC0863019F18730D8
:100B900049F1843079F514C084B5806884BDC7BD3F
:100BA00033C084B5806284BDC8BD2EC080918000F2
:100BB000806880938000D0938900C093880024C00F
:100BC00080918000806280938000D0938B00C093DE
:100BD0008A001AC08091B00080688093B000C093F2
:100BE000B30012C08091B00080628093B000C093C7
:100BF000B4000AC0C038D1051CF4812F60E002C0E7
:100C0000812F61E00E944706DF91CF911F910895E7
:100C1000CF93DF93482F50E0CA0186569F4FFC01C7
:100C200034914A575F4FFA018491882369F190E02B
:100C3000880F991FFC01E859FF4FA591B491FC0161
:100C4000EE58FF4FC591D491662351F42FB7F89415
:100C50008C91932F909589238C93888189230BC045
:100C6000623061F42FB7F8948C91932F909589237B
:100C70008C938881832B88832FBF06C09FB7F894FD
:100C80008C91832B8C939FBFDF91CF910895482F38
:100C900050E0CA0182559F4FFC012491CA0186563B
:100CA0009F4FFC0194914A575F4FFA0134913323CF
:100CB00009F440C0222351F1233071F0243028F48C
:100CC0002130A1F0223011F514C02630B1F02730C8
:100CD000C1F02430D9F404C0809180008F7703C024
:100CE000809180008F7D8093800010C084B58F77C5
:100CF00002C084B58F7D84BD09C08091B0008F771C
:100D000003C08091B0008F7D8093B000E32FF0E0AE
:100D1000EE0FFF1FEE58FF4FA591B4912FB7F89437
:100D2000662321F48C919095892302C08C91892BA4
:100D30008C932FBF0895682F70E0CB0182559F4F91
:100D4000FC012491CB0186569F4FFC0144916A57C8
:100D50007F4FFB019491992319F420E030E03CC0CF
:100D6000222351F1233071F0243028F42130A1F0F6
:100D7000223011F514C02630B1F02730C1F02430F4
:100D8000D9F404C0809180008F7703C080918000E7
:100D90008F7D8093800010C084B58F7702C084B5AA
:100DA0008F7D84BD09C08091B0008F7703C0809192
:100DB000B0008F7D8093B000892F90E0880F991F3D
:100DC00084589F4FFC01A591B4918C9120E030E0B4
:100DD000842311F021E030E0C901089508951F92A5
:100DE0000F920FB60F9211242F933F934F938F932F
:100DF0009F93EF93FF934091C60020919902309109
:100E00009A022F5F3F4F2F77307080919B02909115
:100E10009C022817390759F0E0919902F0919A0243
:100E2000E75EFD4F408330939A0220939902FF9131
:100E3000EF919F918F914F913F912F910F900FBE06
:100E40000F901F901895E0912D03F0912E03E0581C
:100E5000FF4F8191919120813181821B930B8F777C
:100E60009070892B11F00E94EE0608951F920F9248
:100E70000FB60F9211242F933F938F939F93EF936D
:100E8000FF9320911D0330911E0380911F039091C9
:100E900020032817390731F48091C1008F7D80939A
:100EA000C10014C0E0911F03F0912003E356FD4FF1
:100EB000208180911F039091200301968F7790707D
:100EC0009093200380931F032093C600FF91EF911E
:100ED0009F918F913F912F910F900FBE0F901F9078
:100EE0001895AF92BF92DF92EF92FF920F931F93EC
:100EF000CF93DF93EC017A018B01DD24403081EE4A
:100F0000580780E0680780E0780711F0DD24D3946B
:100F100091E0A92EB12CEC89FD89DD2069F0C50195
:100F20000E8C02C0880F991F0A94E2F7808360E05C
:100F300079E08DE390E005C0108260E874E88EE10E
:100F400090E0A80197010E94DB0A21503040404008
:100F50005040569547953795279580E120303807C2
:100F600020F0DD2011F0DD24D6CFE889F989308327
:100F7000EA89FB892083EE89FF89408121E030E006
:100F8000C9010A8C02C0880F991F0A94E2F7482B06
:100F90004083EE89FF894081C9010B8C02C0880F14
:100FA000991F0A94E2F7482B4083EE89FF8940811C
:100FB000C9010C8C02C0880F991F0A94E2F7482BD4
:100FC0004083EE89FF8980810D8C02C0220F331F80
:100FD0000A94E2F7209528232083DF91CF911F9177
:100FE0000F91FF90EF90DF90BF90AF900895DC01DC
:100FF0001C96ED91FC911D97E058FF4F2191319186
:1010000080819181281B390B2F773070C901089599
:10101000DC011C96ED91FC911D97E058FF4F20815B
:101020003181E058F040DF01AE57BF4F8D919C9168
:1010300011972817390719F42FEF3FEF07C08D914B
:101040009C91E80FF91F8081282F30E0C901089595
:10105000DC011C96ED91FC911D97E058FF4F20811B
:101060003181E058F040DF01AE57BF4F8D919C9128
:1010700011972817390719F42FEF3FEF10C08D9102
:101080009C911197E80FF91F20818D919C911197E8
:1010900001968F77907011969C938E9330E0C901E2
:1010A0000895FC0186859785DC01A058BF4FFC019F
:1010B000EE57FF4F2D913C91119780819181281718
:1010C0003907C1F70895CF93DF93EC01EE85FF85D3
:1010D000E058FF4F20813181E058F0402F5F3F4FB3
:1010E0002F773070DF01AE57BF4F8D919C911197D4
:1010F00028173907D1F3E058FF4F80819181E058DC
:10110000F040E80FF91F6083EE85FF85E058FF4F40
:1011100031832083EE89FF89208181E090E00D8C6E
:1011200002C0880F991F0A94E2F7282B208381E0E0
:1011300090E0DF91CF91089581E00895109224030B
:101140001092230388EE93E0A0E0B0E080932503A3
:1011500090932603A0932703B093280388E191E09E
:10116000909322038093210389E192E090932E03D0
:1011700080932D038DE992E09093300380932F03A9
:1011800085EC90E0909332038093310384EC90E0FF
:10119000909334038093330380EC90E09093360374
:1011A0008093350381EC90E090933803809337036C
:1011B00086EC90E090933A038093390384E0809327
:1011C0003B0383E080933C0387E080933D0385E00D
:1011D00080933E0381E080933F030895CF93DF9394
:1011E0000E94810A0E944D02C3E2D7E00E94FE01E4
:1011F0002097E1F30E942307F9CFCF92DF92EF927D
:10120000FF920F931F93CF93DF937C016B018A01B1
:10121000C0E0D0E00FC0D6016D916D01D701ED9116
:10122000FC910190F081E02DC7010995C80FD91FED
:10123000015010400115110571F7CE01DF91CF91DA
:101240001F910F91FF90EF90DF90CF900895DC01F8
:10125000ED91FC910190F081E02D09950895EF92B8
:10126000FF920F931F938C01DC01ED91FC91019093
:10127000F081E02D6DE009957C01D801ED91FC91A4
:101280000190F081E02DC8016AE009959C012E0DC6
:101290003F1DC9011F910F91FF90EF900895CF93CB
:1012A000DF93DB010D900020E9F71197A61BB70B28
:1012B000EC01E881F9810280F381E02DAD0109950F
:1012C000DF91CF9108954F925F927F928F929F927C
:1012D000AF92BF92CF92DF92EF92FF920F931F9344
:1012E000DF93CF93CDB7DEB7A1970FB6F894DEBFEB
:1012F0000FBECDBF2C01742ECB01223008F42AE0A2
:1013000019A231E2C32ED12CCC0EDD1E822E9924DF
:10131000AA24BB24672D752FA50194010E94DB0A26
:1013200079018A01C801B701A50194010E94BC0A94
:10133000472D461B0894C108D1084A3014F4405D7B
:1013400001C0495CF6014083E114F1040105110577
:1013500021F07E2C5F2DC801DDCFC201B6010E94B5
:101360004F09A1960FB6F894DEBF0FBECDBFCF9147
:10137000DF911F910F91FF90EF90DF90CF90BF9082
:10138000AF909F908F907F905F904F900895CF92F5
:10139000DF92EF92FF920F931F93CF93DF93EC01B5
:1013A0006A017B012115310541F4E881F981019041
:1013B000F081E02D642F09951FC02A303105D1F44A
:1013C00077FF17C0E881F9810190F081E02D6DE28F
:1013D00009958C0144275527BA014C195D096E09FE
:1013E0007F09CE012AE00E9463099801280F391F66
:1013F00004C02AE00E9463099C01C901DF91CF91DA
:101400001F910F91FF90EF90DF90CF900895CF92B2
:10141000DF92EF92FF920F931F936C017B019A0171
:101420000027F7FC0095102FB801A7010E94C709FB
:101430008C01C6010E942F09080F191FC8011F91B6
:101440000F91FF90EF90DF90CF900895EF92FF9271
:101450000F931F937C010E944F098C01C7010E94CA
:101460002F09080F191FC8011F910F91FF90EF90CE
:1014700008951F920F920FB60F9211242F933F934E
:101480008F939F93AF93BF938091440390914503B3
:10149000A0914603B0914703309148030196A11DE6
:1014A000B11D232F2D5F2D3720F02D570196A11D43
:1014B000B11D209348038093440390934503A09368
:1014C0004603B09347038091400390914103A0915C
:1014D0004203B09143030196A11DB11D80934003C7
:1014E00090934103A0934203B0934303BF91AF9104
:1014F0009F918F913F912F910F900FBE0F901F9052
:101500001895789484B5826084BD84B5816084BD6B
:1015100085B5826085BD85B5816085BDEEE6F0E06C
:10152000808181608083E1E8F0E0108280818260C8
:101530008083808181608083E0E8F0E08081816049
:101540008083E1EBF0E0808184608083E0EBF0E079
:10155000808181608083EAE7F0E08081846080831D
:1015600080818260808380818160808380818068C7
:1015700080831092C1000895629FD001739FF00193
:10158000829FE00DF11D649FE00DF11D929FF00D13
:10159000839FF00D749FF00D659FF00D9927729F4A
:1015A000B00DE11DF91F639FB00DE11DF91FBD01D5
:1015B000CF0111240895A1E21A2EAA1BBB1BFD0125
:1015C0000DC0AA1FBB1FEE1FFF1FA217B307E40722
:1015D000F50720F0A21BB30BE40BF50B661F771F7A
:1015E000881F991F1A9469F760957095809590955A
:1015F0009B01AC01BD01CF010895EE0FFF1F0590C7
:0A160000F491E02D0994F894FFCF57
:10160A0020000101000000007B034A03CD02D6023C
:10161A00EB02FC02000000006308FD08F707280837
:04162A000808510853
:00000001FF
