:100000000C9465000C948D000C948D000C948D0064
:100010000C948D000C948D000C948D000C948D002C
:100020000C948D000C948D000C948D000C948D001C
:100030000C948D000C948D000C948D000C948D000C
:100040000C944D0D0C948D000C942C090C94730998
:100050000C948D000C948D000C948D000C948D00EC
:100060000C9433060C948D0000000000240027003F
:100070002A0000000000250028002B0000000000DE
:1000800023002600290004040404040404040202DA
:100090000202020203030303030301020408102007
:1000A0004080010204081020010204081020000012
:1000B0000007000201000003040600000000000029
:1000C00000009402A005D90A8D0211241FBECFEFB3
:1000D000D8E0DEBFCDBF11E0A0E0B1E0E6EBFCE18F
:1000E00002C005900D92A832B107D9F713E0A8E23B
:1000F000B1E001C01D92A036B107E1F710E0C8ECF5
:10010000D0E004C02297FE010E94130EC23CD1072A
:10011000C9F70E94290B0C944E0E0C940000CF934B
:10012000DF93BC018230910510F462E070E0A09191
:100130005E03B0915F03ED01E0E0F0E040E050E0ED
:1001400021C0888199818617970769F48A819B81EC
:10015000309719F09383828304C090935F03809358
:100160005E03FE0134C06817790738F44115510564
:1001700019F08417950708F4AC01FE018A819B8170
:100180009C01E9012097E9F641155105A9F1CA0141
:10019000861B970B049708F4BA01E0E0F0E02AC050
:1001A0008D919C91119784179507F9F46417750741
:1001B00081F412968D919C911397309719F0938347
:1001C000828304C090935F0380935E03FD013296A7
:1001D0004CC0CA01861B970BFD01E80FF91F619304
:1001E000719302978D939C9340C0FD01828193810E
:1001F0009C01D9011097A1F680915C0390915D0359
:10020000892B41F4809103019091040190935D0347
:1002100080935C0340910501509106014115510501
:1002200041F44DB75EB78091010190910201481BE6
:10023000590B20915C0330915D03CA01821B930B23
:100240008617970780F0AB014E5F5F4F84179507C5
:1002500050F0420F531F50935D0340935C03F9012C
:100260006193719302C0E0E0F0E0CF01DF91CF91A4
:100270000895CF93DF93009709F450C0EC012297C3
:100280001B821A82A0915E03B0915F03109709F15F
:1002900040E050E0AC17BD0708F1BB83AA83FE0124
:1002A00021913191E20FF31FAE17BF0779F48D91C1
:1002B0009C911197280F391F2E5F3F4F3983288358
:1002C00012968D919C9113979B838A8341155105BA
:1002D00071F4D0935F03C0935E0320C012968D919A
:1002E0009C911397AD01009711F0DC01D3CFFA0177
:1002F000D383C28321913191E20FF31FCE17DF0721
:1003000069F488819981280F391F2E5F3F4FFA01C8
:10031000318320838A819B8193838283DF91CF9174
:100320000895A0E0B0E0E7E9F1E00C94190E6C014B
:10033000009729F4CB010E948F006C01C1C08EEFA1
:10034000882E8FEF982E8C0C9D1C8601060F171F90
:100350000815190508F4B2C0F401A081B181A617EF
:10036000B707B8F0A530B10508F4AAC0CD010497CD
:100370008617970708F4A4C01297A61BB70BF801BD
:10038000A193B193D4016D937C93CF010E94390165
:1003900097C07B01EA1AFB0AEEEFFFEFEE0EFF1E9D
:1003A00036016A0E7B1EC0915E03D0915F03442428
:1003B0005524AA24BB244AC0C615D705E1F54881B7
:1003C00059814E155F05B8F1CA0104978E159F0536
:1003D000B0F41296A40FB51FF401B183A0832A8153
:1003E0003B814114510431F0D20113963C932E937A
:1003F000129766C030935F0320935E0361C08A81C9
:100400009B81F80193838283425050404E195F09CB
:10041000518340834114510431F0D20113961C934F
:100420000E93129704C010935F0300935E03F401D0
:100430007183608345C088819981A816B90608F444
:100440005C012E018A819B819C01E901209709F0C2
:10045000B3CF80915C0390915D0386159705E9F415
:10046000A616B706D0F4209105013091060121159A
:10047000310541F42DB73EB7809101019091020101
:10048000281B390B02171307C8F410935D03009360
:100490005C03D4016D937C9313C0CB010E948F0049
:1004A000EC01009759F0F40140815181B6010E949E
:1004B0006602C6010E9439016E0102C0CC24DD240F
:1004C000C601CDB7DEB7E0E10C94350EFB01DC01CF
:1004D00002C001900D9241505040D8F70895FB01A1
:1004E000DC0101900D920020E1F708958130910523
:1004F00051F46F5F7F4F81F486E491E060E071E03A
:100500000E94140D0895892B39F46F5F7F4F21F4F9
:1005100086E491E00E94470D089580E090E06FEF3F
:100520007FEF0E947602089581E090E06FEF7FEF09
:100530000E94760208958EE00E94C40790936101A4
:10054000809360018FE00E94C407909363018093C1
:10055000620180E10E94C407909365018093640169
:1005600081E10E94C407909367018093660108951A
:1005700082E10E94D9089C01442737FD4095542F01
:10058000209328013093290140932A0150932B0195
:100590008091400190914101892B19F5213031055D
:1005A00041055105F1F483E10E94D90820913401FD
:1005B000309135014091360150913701892B29F452
:1005C000215030404040504004C02F5F3F4F4F4FBC
:1005D0005F4F20933401309335014093360150939F
:1005E00037018091280190912901909341018093D6
:1005F00040018091340190913501A0913601B09174
:1006000037018093540190935501A0935601B09304
:10061000570182E00E94D9089C01442737FD40958C
:10062000542F20932C0130932D0140932E01509391
:100630002F018091420190914301892B19F52130BE
:10064000310541055105F1F484E00E94D90820915B
:1006500038013091390140913A0150913B01892B89
:1006600029F4215030404040504004C02F5F3F4F9C
:100670004F4F5F4F209338013093390140933A0137
:1006800050933B0180912C0190912D019093430157
:10069000809342018091380190913901A0913A01F3
:1006A000B0913B018093580190935901A0935A0156
:1006B000B0935B0187E00E94D9089C01442737FD75
:1006C0004095542F209330013093310140933201F3
:1006D000509333018091440190914501892B19F584
:1006E0002130310541055105F1F488E00E94D90817
:1006F00020913C0130913D0140913E0150913F01DC
:10070000892B29F4215030404040504004C02F5FD5
:100710003F4F4F4F5F4F20933C0130933D0140933B
:100720003E0150933F0180913001909131019093AF
:1007300045018093440180913C0190913D01A0913D
:100740003E01B0913F0180935C0190935D01A093C5
:100750005E01B0935F01089560914E0170914F0169
:1007600077FD09C0660F771F8BE00E94E6078AE0DD
:1007700060E070E00FC08BE060E070E00E94E60790
:1007800060914E0170914F01660F771F70956195D2
:100790007F4F8AE00E94E6076091500170915101FD
:1007A00077FD09C0660F771F86E00E94E60789E0A3
:1007B00060E070E00FC086E060E070E00E94E60755
:1007C0006091500170915101660F771F709561958E
:1007D0007F4F89E00E94E6076091520170915301BA
:1007E00077FD09C0660F771F85E00E94E60783E06A
:1007F00060E070E00FC085E060E070E00E94E60716
:100800006091520170915301660F771F7095619549
:100810007F4F83E00E94E6070895809168019091E0
:100820006901892B19F08CE061E002C08CE060E086
:100830000E94850880916A0190916B01892B19F0C3
:100840008DE061E002C08DE060E00E9485080895BF
:100850000E94B8020E94AC030E940D040E949B02F9
:10086000089586E491E060E070E00E94560CFC017F
:1008700083E393E060810E94620B86E491E060E094
:1008800070E00E94560CFC01E081E53309F449C098
:10089000E63334F4E13371F0E43309F093C038C047
:1008A000E73309F456C0E7330CF44AC0E83309F0E3
:1008B00089C070C086E491E061E070E00E94560C4F
:1008C000FC018081992787FD909590934F0180933B
:1008D0004E0186E491E062E070E00E94560CFC015B
:1008E0008081992787FD90959093510180935001C5
:1008F00086E491E063E070E00E94560CFC01808188
:10090000992787FD909590935301809352015AC087
:100910004091340150913501609136017091370159
:1009200008C0409138015091390160913A017091AD
:100930003B0183E393E02AE030E00E94420C42C096
:1009400040913C0150913D0160913E0170913F0109
:10095000F0CF86E491E061E070E00E94560CFC016B
:100960008081992787FD9095C09790936901809326
:10097000680186E491E062E070E00E94560CFC01A0
:100980008081992787FD9095C09790936B01809304
:100990006A0118C083E393E0609160010E94A00A9D
:1009A00083E393E0609162010E94A00A83E393E0F5
:1009B000609164010E94A00A83E393E06091660164
:1009C0000E94A00A10924D0186E491E060E071E07F
:1009D0000E942E0D08951F930EC083E393E00E94A2
:1009E000650A182F86E491E0612F0E94CE0C1A3020
:1009F00011F40E94310483E393E00E94340A892BAE
:100A000061F71F91089583E393E040E052EC61E0C9
:100A100070E00E94AE0986E491E068EC70E00E940C
:100A2000850C8BE061E00E9446088AE061E00E944C
:100A3000460886E061E00E94460889E061E00E9485
:100A4000460885E061E00E94460883E061E00E947C
:100A5000460882E160E00E94460883E160E00E946F
:100A6000460882E060E00E94460884E060E00E9460
:100A7000460887E060E00E94460888E060E00E9447
:100A800046088CE061E00E9446088DE061E00E942B
:100A900046088CE061E00E9485088DE061E00E94DC
:100AA00085088BE060E070E00E94E6078AE060E085
:100AB00070E00E94E60786E060E070E00E94E607D2
:100AC00089E060E070E00E94E60785E060E070E0A9
:100AD0000E94E60783E060E070E00E94E607089568
:100AE00020918D0130E080918C01281B3109C901D2
:100AF000089540918C0180918D01481718F02FEFD7
:100B00003FEF0AC0E42FF0E0E459FE4F8081282F28
:100B100030E04F5F40938C01C9010895E0918C0152
:100B200080918D01E81718F0EFEFFFEF06C0F0E0BD
:100B3000E459FE4F8081E82FF0E0CF010895089539
:100B40001092B4011092B30188EE93E0A0E0B0E0FF
:100B50008093B5019093B601A093B701B093B8010B
:100B60008CE091E09093B2018093B1010895CF920F
:100B7000DF92EF92FF920F931F93CF93DF937C014D
:100B80006B018A018091B0018823A1F0C0E0D0E020
:100B90000DC0D701ED91FC91D601AC0FBD1F0190A6
:100BA000F081E02DC7016C9109952196C017D107FE
:100BB00080F304C0CB01642F0E941806C801DF91A6
:100BC000CF911F910F91FF90EF90DF90CF900895FC
:100BD000DF93CF930F92CDB7DEB7FC01698380918D
:100BE000B0018823C9F08091AF01803238F081E0F4
:100BF00090E09383828320E030E015C08091AE01C5
:100C0000E82FF0E0E257FE4F998190838F5F809349
:100C1000AE018093AF0105C0CE01019661E00E9454
:100C2000180621E030E0C9010F90CF91DF910895BF
:100C3000482F613210F081E008958091BD01843029
:100C400011F082E0089560930802A7EEB1E0842FCE
:100C50009C01F90102C081918D938E2F841B861710
:100C6000D0F380E008951F920F920FB60F921124D7
:100C70002F933F934F935F936F937F938F939F93A4
:100C8000AF93BF93EF93FF938091B90090E0887F7B
:100C900090708036910509F4F2C081369105CCF54B
:100CA0008832910509F47BC089329105B4F4803112
:100CB000910509F46FC0813191053CF4009709F466
:100CC00047C1089709F04FC165C08831910509F403
:100CD00066C0809709F047C182C08034910509F44D
:100CE000A4C08134910544F48033910509F482C095
:100CF000C89709F038C189C08035910509F489C0C9
:100D00008835910509F496C08834910509F02BC106
:100D1000AEC08839910509F413C189399105ECF405
:100D20008837910509F4ABC0893791054CF48836B2
:100D3000910509F4A4C08037910509F014C19FC042
:100D40008838910509F4FCC08039910509F49DC0EB
:100D50008038910509F007C198C0803B910509F4DE
:100D6000C6C0813B91054CF4803A910509F49FC0BF
:100D7000883A910509F0F7C0BAC0803C910509F4A2
:100D8000E3C0883C910509F4DFC0883B910509F078
:100D9000EAC0C2C08091BE018093BB00CFC09091D9
:100DA000E5018091E601981768F49091E501E92F3B
:100DB000F0E0EB53FE4F80818093BB009F5F9093E8
:100DC000E501BCC08091BF01882309F44BC085EDCB
:100DD0008093BC008091BC0084FDFCCFC2C080E247
:100DE00080932A0285ED8093BC008091BC0084FD35
:100DF000FCCFB7C080E380932A0285ED8093BC00CE
:100E00008091BC0084FDFCCFACC088E380932A02B3
:100E10009BC08091E5019091BB00E82FF0E0EB537F
:100E2000FE4F90838F5F8093E5019091E501809163
:100E3000E60182C08091E5019091BB00E82FF0E0CF
:100E4000EB53FE4F90838F5F8093E5018091BF014C
:100E5000882341F085ED8093BC008091BC0084FD27
:100E6000FCCF7FC081E08093C00184EA6EC085ED35
:100E70008093BC008091BC0084FDFCCF72C083E0F5
:100E80008093BD011092290259C0809129028032BD
:100E900008F056C0809129029091BB00E82FF0E045
:100EA000E75FFD4F90838F5F8093290247C0809159
:100EB0002902803230F4E0912902F0E0E75FFD4F33
:100EC000108285ED8093BC008091BC0084FDFCCF36
:100ED0001092BD0160912902E091C301F091C4011B
:100EE00089E092E070E00995109229022DC084E01B
:100EF0008093BD011092070210920802E091C10197
:100F0000F091C201099580910802882329F481E0BB
:100F1000809308021092E70190910702E92FF0E018
:100F2000E951FE4F80818093BB009F5F9093070241
:100F30009091070280910802981710F485EC01C087
:100F400085E88093BC000FC085EC8093BC0009C08D
:100F500010922A0285ED8093BC008091BC0084FD34
:100F6000FCCF1092BD01FF91EF91BF91AF919F9186
:100F70008F917F916F915F914F913F912F910F9042
:100F80000FBE0F901F901895982F8E3008F09E502E
:100F90009770809107018295880F880F807C892B3C
:100FA00080937C0080917A00806480937A008091A5
:100FB0007A0086FDFCCF2091780040917900942F33
:100FC00080E030E0282B392BC90108951F93CF937F
:100FD000DF93182FEB0161E00E944608209709F487
:100FE0004AC0CF3FD10509F449C0E12FF0E0E255F6
:100FF000FF4F84918330C1F0843028F4813051F068
:101000008230B1F50CC0863019F1873049F1843057
:1010100079F514C084B5806884BDC7BD33C084B57C
:10102000806284BDC8BD2EC080918000806880939E
:101030008000D0938900C093880024C080918000F4
:10104000806280938000D0938B00C0938A001AC086
:101050008091B00080688093B000C093B30012C04C
:101060008091B00080628093B000C093B4000AC049
:10107000C038D1051CF4812F60E002C0812F61E0EF
:101080000E948508DF91CF911F910895CF93DF9340
:10109000482F50E0CA0186569F4FFC0134914A57B1
:1010A0005F4FFA018491882369F190E0880F991FBE
:1010B000FC01E859FF4FA591B491FC01EE58FF4F98
:1010C000C591D491662351F42FB7F8948C91932F46
:1010D000909589238C93888189230BC0623061F4B9
:1010E0002FB7F8948C91932F909589238C938881B6
:1010F000832B88832FBF06C09FB7F8948C91832BD6
:101100008C939FBFDF91CF910895482F50E0CA0183
:1011100082559F4FFC012491CA0186569F4FFC01C6
:1011200094914A575F4FFA013491332309F440C038
:10113000222351F1233071F0243028F42130A1F022
:10114000223011F514C02630B1F02730C1F0243020
:10115000D9F404C0809180008F7703C08091800013
:101160008F7D8093800010C084B58F7702C084B5D6
:101170008F7D84BD09C08091B0008F7703C08091BE
:10118000B0008F7D8093B000E32FF0E0EE0FFF1FE3
:10119000EE58FF4FA591B4912FB7F894662321F430
:1011A0008C919095892302C08C91892B8C932FBFB1
:1011B0000895682F70E0CB0182559F4FFC01249168
:1011C000CB0186569F4FFC0144916A577F4FFB012C
:1011D0009491992319F420E030E03CC0222351F18E
:1011E000233071F0243028F42130A1F0223011F5A1
:1011F00014C02630B1F02730C1F02430D9F404C037
:10120000809180008F7703C0809180008F7D8093D4
:10121000800010C084B58F7702C084B58F7D84BDF7
:1012200009C08091B0008F7703C08091B0008F7D9E
:101230008093B000892F90E0880F991F84589F4FAA
:10124000FC01A591B4918C9120E030E0842311F051
:1012500021E030E0C90108951F920F920FB60F925E
:1012600011242F933F934F938F939F93EF93FF936B
:101270004091C6002091AB023091AC022F5F3F4FEE
:101280002F7730708091AD029091AE022817390708
:1012900059F0E091AB02F091AC02E55DFD4F408367
:1012A0003093AC022093AB02FF91EF919F918F910D
:1012B0004F913F912F910F900FBE0F901F90189557
:1012C000E0913F03F0914003E058FF4F81919191ED
:1012D00020813181821B930B8F779070892B11F0C5
:1012E0000E94EB0408951F920F920FB60F921124E3
:1012F0002F933F938F939F93EF93FF9320912F030F
:1013000030913003809131039091320328173907CF
:1013100031F48091C1008F7D8093C10014C0E091B1
:101320003103F0913203E155FD4F2081809131036B
:101330009091320301968F7790709093320380934F
:1013400031032093C600FF91EF919F918F913F91C0
:101350002F910F900FBE0F901F901895AF92BF92D4
:10136000DF92EF92FF920F931F93CF93DF93EC01E5
:101370007A018B01DD24403081EE580780E0680758
:1013800080E0780711F0DD24D39491E0A92EB12CF0
:10139000EC89FD89DD2069F0C5010E8C02C0880F43
:1013A000991F0A94E2F7808360E079E08DE390E092
:1013B00005C0108260E874E88EE190E0A801970112
:1013C0000E94EF0D215030404040504056954795C7
:1013D0003795279580E12030380720F0DD2011F087
:1013E000DD24D6CFE889F9893083EA89FB89208317
:1013F000EE89FF89408121E030E0C9010A8C02C0FA
:10140000880F991F0A94E2F7482B4083EE89FF89E1
:101410004081C9010B8C02C0880F991F0A94E2F722
:10142000482B4083EE89FF894081C9010C8C02C0A2
:10143000880F991F0A94E2F7482B4083EE89FF89B1
:1014400080810D8C02C0220F331F0A94E2F7209591
:1014500028232083DF91CF911F910F91FF90EF9070
:10146000DF90BF90AF900895DC011C96ED91FC9148
:101470001D97E058FF4F2191319180819181281B68
:10148000390B2F773070C9010895DC011C96ED915E
:10149000FC911D97E058FF4F20813181E058F040CA
:1014A000DF01AE57BF4F8D919C91119728173907D7
:1014B00019F42FEF3FEF07C08D919C91E80FF91FB2
:1014C0008081282F30E0C9010895DC011C96ED9140
:1014D000FC911D97E058FF4F20813181E058F0408A
:1014E000DF01AE57BF4F8D919C9111972817390797
:1014F00019F42FEF3FEF10C08D919C911197E80FD9
:10150000F91F20818D919C91119701968F77907092
:1015100011969C938E9330E0C9010895FC01868555
:101520009785DC01A058BF4FFC01EE57FF4F2D916E
:101530003C9111978081918128173907C1F708954F
:10154000CF93DF93EC01EE85FF85E058FF4F2081BC
:101550003181E058F0402F5F3F4F2F773070DF012F
:10156000AE57BF4F8D919C91119728173907D1F332
:10157000E058FF4F80819181E058F040E80FF91F5B
:101580006083EE85FF85E058FF4F31832083EE892D
:10159000FF89208181E090E00D8C02C0880F991FA7
:1015A0000A94E2F7282B208381E090E0DF91CF912D
:1015B0000895109236031092350388EE93E0A0E070
:1015C000B0E08093370390933803A0933903B0932E
:1015D0003A038CE191E090933403809333038BE2E0
:1015E00092E09093400380933F038FEA92E09093C0
:1015F00042038093410385EC90E0909344038093F1
:10160000430384EC90E0909346038093450380EC81
:1016100090E0909348038093470381EC90E090938F
:101620004A038093490386EC90E090934C038093A7
:101630004B0384E080934D0383E080934E0387E067
:1016400080934F0385E08093500381E080935103A2
:101650000895CF93DF930E94950D0E940305C0E685
:10166000D9E00E9428042097E1F30E946009F9CF95
:10167000CF92DF92EF92FF920F931F93CF93DF935E
:101680007C016B018A01C0E0D0E00FC0D6016D91F2
:101690006D01D701ED91FC910190F081E02DC70122
:1016A0000995C80FD91F015010400115110571F798
:1016B000CE01DF91CF911F910F91FF90EF90DF90BE
:1016C000CF900895DC01ED91FC910190F081E02D27
:1016D00009950895EF92FF920F931F938C01DC01FF
:1016E000ED91FC910190F081E02D6DE009957C0178
:1016F000D801ED91FC910190F081E02DC8016AE0E4
:1017000009959C012E0D3F1DC9011F910F91FF905E
:10171000EF900895CF93DF93DB010D900020E9F760
:101720001197A61BB70BEC01E881F9810280F381C8
:10173000E02DAD010995DF91CF9108954F925F9211
:101740007F928F929F92AF92BF92CF92DF92EF9251
:10175000FF920F931F93DF93CF93CDB7DEB7A1977F
:101760000FB6F894DEBF0FBECDBF2C01742ECB0197
:10177000223008F42AE019A231E2C32ED12CCC0E7B
:10178000DD1E822E9924AA24BB24672D752FA50166
:1017900094010E94EF0D79018A01C801B701A501EA
:1017A00094010E94D00D472D461B0894C108D10812
:1017B0004A3014F4405D01C0495CF6014083E114F5
:1017C000F1040105110521F07E2C5F2DC801DDCF4C
:1017D000C201B6010E948A0BA1960FB6F894DEBF33
:1017E0000FBECDBFCF91DF911F910F91FF90EF9072
:1017F000DF90CF90BF90AF909F908F907F905F9041
:101800004F900895CF92DF92EF92FF920F931F9324
:10181000CF93DF93EC016A017B012115310541F47F
:10182000E881F9810190F081E02D642F09951FC0B6
:101830002A303105D1F477FF17C0E881F981019092
:10184000F081E02D6DE209958C0144275527BA01FE
:101850004C195D096E097F09CE012AE00E949E0B9A
:101860009801280F391F04C02AE00E949E0B9C019A
:10187000C901DF91CF911F910F91FF90EF90DF9001
:10188000CF900895EF92FF920F931F937C010E94D7
:10189000020C8C01C7010E946A0B9C01200F311FB2
:1018A000C9011F910F91FF90EF900895FC019B01DA
:1018B000848195816817790728F4608171816115A9
:1018C000710529F41092520362E573E002C0620FC1
:1018D000731FCB0108950F931F93CF93DF93EC01F8
:1018E0008B016F5F7F4F888199810E9491010097E2
:1018F00011F480E005C0998388831B830A8381E00B
:10190000DF91CF911F910F910895CF93DF93EC0159
:1019100088819981892B29F08A819B818617970775
:1019200060F4CE010E946B0C882341F08C819D8174
:10193000892B19F4E881F981108281E0DF91CF9140
:101940000895EF92FF920F931F93CF93DF93EC01D3
:101950007B016C817D81E114F104C1F041155105D9
:1019600099F08A01060F171FB8010E94850C882381
:1019700069F0888199812C813D81820F931FB70185
:101980000E946F021D830C8381E001C080E0DF9123
:10199000CF911F910F91FF90EF900895DF93CF9318
:1019A00000D0CDB7DEB769831A82BE016F5F7F4F6B
:1019B00041E050E00E94A10C0F900F90CF91DF9179
:1019C0000895CF93DF93EC0188819981009711F0FE
:1019D0000E943901198218821D821C821B821A8280
:1019E000DF91CF910895EF92FF920F931F93CF93C2
:1019F000DF93EC017B018A01BA010E94850C8823E8
:101A000021F4CE010E94E10C07C01D830C83888164
:101A10009981B7010E946F02CE01DF91CF911F9192
:101A20000F91FF90EF900895CF93DF93EC0119820F
:101A300018821B821A821D821C821E82611571050A
:101A400051F0DB010D900020E9F71197A61BB70BB1
:101A5000AD010E94F30CDF91CF9108950F931F9376
:101A6000182F092F6115710559F0DB010D90002029
:101A7000E9F71197A61BB70BAD010E94F30C02C04A
:101A80000E94E10C812F902F1F910F910895FC016E
:101A9000808191810E94390108951F920F920FB6A3
:101AA0000F9211242F933F938F939F93AF93BF93E4
:101AB0008091570390915803A0915903B0915A0314
:101AC00030915B030196A11DB11D232F2D5F2D3792
:101AD00020F02D570196A11DB11D20935B0380932B
:101AE000570390935803A0935903B0935A038091DE
:101AF000530390915403A0915503B091560301965E
:101B0000A11DB11D8093530390935403A0935503DB
:101B1000B0935603BF91AF919F918F913F912F91B9
:101B20000F900FBE0F901F901895789484B5826027
:101B300084BD84B5816084BD85B5826085BD85B571
:101B4000816085BDEEE6F0E0808181608083E1E820
:101B5000F0E0108280818260808380818160808358
:101B6000E0E8F0E0808181608083E1EBF0E080815B
:101B700084608083E0EBF0E0808181608083EAE72D
:101B8000F0E08081846080838081826080838081B6
:101B9000816080838081806880831092C100089575
:101BA000629FD001739FF001829FE00DF11D649F41
:101BB000E00DF11D929FF00D839FF00D749FF00DCD
:101BC000659FF00D9927729FB00DE11DF91F639F6E
:101BD000B00DE11DF91FBD01CF0111240895A1E24F
:101BE0001A2EAA1BBB1BFD010DC0AA1FBB1FEE1F97
:101BF000FF1FA217B307E407F50720F0A21BB30BE2
:101C0000E40BF50B661F771F881F991F1A9469F75D
:101C100060957095809590959B01AC01BD01CF01B9
:101C20000895EE0FFF1F0590F491E02D09942F9277
:101C30003F924F925F926F927F928F929F92AF925C
:101C4000BF92CF92DF92EF92FF920F931F93CF93A9
:101C5000DF93CDB7DEB7CA1BDB0B0FB6F894DEBF40
:101C60000FBECDBF09942A88398848885F846E8466
:101C70007D848C849B84AA84B984C884DF80EE80B0
:101C8000FD800C811B81AA81B981CE0FD11D0FB6B9
:101C9000F894DEBF0FBECDBFED01089510E0C8EC93
:101CA000D0E004C0FE010E94130E2296CA3CD10768
:061CB000C9F7F894FFCF14
:101CB600002000600300000100000000E805B705F1
:101CC600700579058E059F0500000000A00A380BF7
:081CD600340A650A450A8E0A72
:00000001FF
