:100000000C9462000C948A000C948A000C948A0070
:100010000C948A000C948A000C948A000C948A0038
:100020000C948A000C948A000C948A000C948A0028
:100030000C948A000C948A000C948A000C948A0018
:100040000C94AD070C948A000C948A000C948A00DE
:100050000C948A000C948A000C948A000C948A00F8
:100060000C9484040C948A000000000024002700F3
:100070002A0000000000250028002B0000000000DE
:1000800023002600290004040404040404040202DA
:100090000202020203030303030301020408102007
:1000A0004080010204081020010204081020000012
:1000B0000007000201000003040600000000000029
:1000C0000000C10311241FBECFEFD8E0DEBFCDBFBB
:1000D00011E0A0E0B1E0E0E7F0E102C005900D9290
:1000E000AC31B107D9F712E0ACE1B1E001C01D922B
:1000F000A834B107E1F710E0C4ECD0E004C02297C7
:10010000FE010E943208C23CD107C9F70E949E0737
:100110000C9436080C940000DC0101C06D93415032
:100120005040E0F708958EE00E94360690937101EA
:10013000809370018FE00E94360690937301809344
:10014000720180E10E9436069093750180937401DC
:1001500081E10E943606909377018093760108959D
:1001600080E00E944B079C01442737FD4095542FA7
:1001700020931C0130931D0140931E0150931F01D9
:100180008091340190913501892B19F52130310589
:1001900041055105F1F481E00E944B0720912801AF
:1001A0003091290140912A0150912B01892B29F48A
:1001B000215030404040504004C02F5F3F4F4F4FD0
:1001C0005F4F209328013093290140932A015093D7
:1001D0002B0180911C0190911D019093350180931A
:1001E00034018091280190912901A0912A01B091B8
:1001F0002B018093640190936501A0936601B093F5
:10020000670182E00E944B079C01442737FD40951F
:10021000542F2093200130932101409322015093C9
:1002200023018091360190913701892B19F52130F6
:10023000310541055105F1F484E00E944B072091FE
:100240002C0130912D0140912E0150912F01892BCD
:1002500029F4215030404040504004C02F5F3F4FB0
:100260004F4F5F4F20932C0130932D0140932E016F
:1002700050932F018091200190912101909337019B
:100280008093360180912C0190912D01A0912E0137
:10029000B0912F018093680190936901A0936A0146
:1002A000B0936B0187E00E944B079C01442737FD08
:1002B0004095542F2093240130932501409326012B
:1002C000509327018091380190913901892B19F5BC
:1002D0002130310541055105F1F488E00E944B07BA
:1002E0002091300130913101409132015091330120
:1002F000892B29F4215030404040504004C02F5FEA
:100300003F4F4F4F5F4F2093300130933101409367
:1003100032015093330180912401909125019093F3
:100320003901809338018091300190913101A09181
:100330003201B091330180936C0190936D01A093D1
:100340006E01B0936F01089560915E0170915F013D
:1003500077FD09C0660F771F8BE00E9458068AE080
:1003600060E070E00FC08BE060E070E00E94580633
:1003700060915E0170915F01660F771F70956195C6
:100380007F4F8AE00E945806609160017091610180
:1003900077FD09C0660F771F86E00E94580689E046
:1003A00060E070E00FC086E060E070E00E945806F8
:1003B0006091600170916101660F771F7095619582
:1003C0007F4F89E00E94580660916201709163013D
:1003D00077FD09C0660F771F85E00E94580683E00D
:1003E00060E070E00FC085E060E070E00E945806B9
:1003F0006091620170916301660F771F709561953E
:100400007F4F83E00E945806089580917801909173
:100410007901892B19F08CE061E002C08CE060E08A
:100420000E94F70680917A0190917B01892B19F047
:100430008DE061E002C08DE060E00E94F706089563
:100440000E94B0000E94A4010E9405020E94930035
:10045000089584E090E090935D0180935C0185ECC9
:1004600091E06CE371E044E050E00E94D80380E04A
:1004700091E060E270E04BE050E00E948C00089553
:10048000CF93DF93C0E0D1E009C085EC91E00E94FA
:100490005F0380933A0190933B01899385EC91E04F
:1004A0000E945603892B89F780910001843099F1CD
:1004B00085304CF4813099F082300CF07DC0882377
:1004C00009F47AC075C0863009F444C086301CF146
:1004D0008C3009F43FC08D3009F06AC052C0809161
:1004E0000101992787FD909590935F0180935E01AC
:1004F00080910201992787FD9095909361018093E7
:10050000600180910301992787FD90959093630185
:100510008093620131C08091300190913101A091AE
:100520003201B091330180933F01292F3A2F4B2F95
:10053000552747FD5A9520933E019D01552737FDCC
:100540005095452F20933D018B2F9927AA27BB2734
:1005500080933C0180910101992787FD90959093AC
:1005600079018093780180910201992787FD909508
:1005700090937B0180937A0110925D0110925C014F
:100580001BC08091700180933C0180917201809327
:100590003D018091740180933E01809176018093AA
:1005A0003F0184E090E090935D0180935C0104C082
:1005B0001092790110927801DF91CF9108950F93F5
:1005C0001F9305EC11E0C80166E070E00E9458043A
:1005D000C80169E272E00E94BC03C80160E472E0F5
:1005E0000E94B70380E00E9433068BE061E00E9426
:1005F000B8068AE061E00E94B80686E061E00E94E9
:10060000B80689E061E00E94B80685E061E00E94DA
:10061000B80683E061E00E94B80680E060E00E94D6
:10062000B80681E060E00E94B80682E060E00E94C7
:10063000B80684E060E00E94B80687E060E00E94AF
:10064000B80688E060E00E94B8068CE061E00E9495
:10065000B8068DE061E00E94B8068CE061E00E947F
:10066000F7068DE061E00E94F7068BE060E070E045
:100670000E9458068AE060E070E00E94580686E01A
:1006800060E070E00E94580689E060E070E00E943F
:10069000580685E060E070E00E94580683E060E064
:1006A00070E00E9458061F910F91089520919D01BE
:1006B00030E080919C01281B3109C90108954091C7
:1006C0009C0180919D01481718F02FEF3FEF0AC061
:1006D000E42FF0E0E458FE4F8081282F30E04F5F98
:1006E00040939C01C9010895E0919C0180919D0176
:1006F000E81718F0EFEFFFEF06C0F0E0E458FE4F08
:100700008081E82FF0E0CF0108950895AC01209199
:10071000C3013091C40121153105E1F090919C0194
:1007200080919D019817B0F090E008C0FA01EA0F9F
:10073000FB1F8081A458BE4F8C939F5FA92FB0E010
:10074000A617B7079CF310929C0160939D01CB0103
:10075000F90109950895E091C101F091C201309726
:1007600029F01092BE011092BF010995089570936F
:10077000C4016093C30108957093C2016093C101E5
:1007800008951092C8011092C70188EE93E0A0E08E
:10079000B0E08093C9019093CA01A093CB01B093BC
:1007A000CC0180E191E09093C6018093C50108954A
:1007B000CF92DF92EF92FF920F931F93CF93DF932D
:1007C0007C016B018A018091C0018823A1F0C0E007
:1007D000D0E00DC0D701ED91FC91D601AC0FBD1F4B
:1007E0000190F081E02DC7016C9109952196C01709
:1007F000D10780F304C0CB01642F0E945F04C801BD
:10080000DF91CF911F910F91FF90EF90DF90CF90EC
:100810000895DF93CF930F92CDB7DEB7FC016983C4
:100820008091C0018823C9F08091BF01803238F0E7
:1008300081E090E09383828320E030E015C08091D6
:10084000BE01E82FF0E0E256FE4F998190838F5F62
:100850008093BE018093BF0105C0CE01019661E087
:100860000E945F0421E030E0C9010F90CF91DF9139
:10087000089510929C0110929D011092BE01109259
:10088000BF010E94150608950F931F938C01862FB8
:100890000E945B048BEA93E00E947F0486E893E069
:1008A0000E947A04C8010E9439041F910F91089593
:1008B0000E9444040895880F8093BA000895482F39
:1008C000613210F081E008958091D101843011F0FF
:1008D00082E0089560931C02ABEFB1E0842F9C018D
:1008E000F90102C081918D938E2F841B8617D0F35E
:1008F00080E008959093D8018093D7010895909354
:10090000D6018093D50108951F920F920FB60F92D2
:1009100011242F933F934F935F936F937F938F9304
:100920009F93AF93BF93EF93FF938091B90090E0B3
:10093000887F90708036910509F4F2C08136910568
:10094000CCF58832910509F47BC089329105B4F465
:100950008031910509F46FC0813191053CF4009715
:1009600009F447C1089709F04FC165C08831910566
:1009700009F466C0809709F047C182C080349105B0
:1009800009F4A4C08134910544F48033910509F43D
:1009900082C0C89709F038C189C08035910509F433
:1009A00089C08835910509F496C08834910509F00D
:1009B0002BC1AEC08839910509F413C1893991055D
:1009C000ECF48837910509F4ABC0893791054CF4F4
:1009D0008836910509F4A4C08037910509F014C147
:1009E0009FC08838910509F4FCC08039910509F44D
:1009F0009DC08038910509F007C198C0803B9105E2
:100A000009F4C6C0813B91054CF4803A910509F484
:100A10009FC0883A910509F0F7C0BAC0803C9105A3
:100A200009F4E3C0883C910509F4DFC0883B9105D7
:100A300009F0EAC0C2C08091D2018093BB00CFC050
:100A40009091F9018091FA01981768F49091F90159
:100A5000E92FF0E0E752FE4F80818093BB009F5F5B
:100A60009093F901BCC08091D301882309F44BC055
:100A700085ED8093BC008091BC0084FDFCCFC2C09A
:100A800080E280933E0285ED8093BC008091BC00A3
:100A900084FDFCCFB7C080E380933E0285ED809358
:100AA000BC008091BC0084FDFCCFACC088E3809387
:100AB0003E029BC08091F9019091BB00E82FF0E0CD
:100AC000E752FE4F90838F5F8093F9019091F90177
:100AD0008091FA0182C08091F9019091BB00E82FCA
:100AE000F0E0E752FE4F90838F5F8093F901809191
:100AF000D301882341F085ED8093BC008091BC0038
:100B000084FDFCCF7FC081E08093D40184EA6EC075
:100B100085ED8093BC008091BC0084FDFCCF72C049
:100B200083E08093D10110923D0259C080913D0233
:100B3000803208F056C080913D029091BB00E82FB2
:100B4000F0E0E35EFD4F90838F5F80933D0247C0EE
:100B500080913D02803230F4E0913D02F0E0E35EAE
:100B6000FD4F108285ED8093BC008091BC0084FD18
:100B7000FCCF1092D10160913D02E091D701F0913C
:100B8000D8018DE192E070E0099510923D022DC0F0
:100B900084E08093D10110921B0210921C02E0911C
:100BA000D501F091D601099580911C02882329F482
:100BB00081E080931C021092FB0190911B02E92FAF
:100BC000F0E0E550FE4F80818093BB009F5F9093E3
:100BD0001B0290911B0280911C02981710F485EC67
:100BE00001C085E88093BC000FC085EC8093BC00F9
:100BF00009C010923E0285ED8093BC008091BC003C
:100C000084FDFCCF1092D101FF91EF91BF91AF9184
:100C10009F918F917F916F915F914F913F912F9114
:100C20000F900FBE0F901F9018951092D10181E088
:100C30008093D3011092D40182E161E00E94F70613
:100C400083E161E00E94F706E9EBF0E080818E7FAE
:100C5000808380818D7F808388E48093B80085E4E1
:100C60008093BC00089580930B010895982F8E30D7
:100C700008F09E50977080910B018295880F880F25
:100C8000807C892B80937C0080917A0080648093A3
:100C90007A0080917A0086FDFCCF20917800409107
:100CA0007900942F80E030E0282B392BC90108957A
:100CB0001F93CF93DF93182FEB0161E00E94B806DA
:100CC000209709F44AC0CF3FD10509F449C0E12F6C
:100CD000F0E0E255FF4F84918330C1F0843028F476
:100CE000813051F08230B1F50CC0863019F1873077
:100CF00049F1843079F514C084B5806884BDC7BDDE
:100D000033C084B5806284BDC8BD2EC08091800090
:100D1000806880938000D0938900C093880024C0AD
:100D200080918000806280938000D0938B00C0937C
:100D30008A001AC08091B00080688093B000C09390
:100D4000B30012C08091B00080628093B000C09365
:100D5000B4000AC0C038D1051CF4812F60E002C085
:100D6000812F61E00E94F706DF91CF911F910895D6
:100D7000CF93DF93482F50E0CA0186569F4FFC0166
:100D800034914A575F4FFA018491882369F190E0CA
:100D9000880F991FFC01E859FF4FA591B491FC0100
:100DA000EE58FF4FC591D491662351F42FB7F894B4
:100DB0008C91932F909589238C93888189230BC0E4
:100DC000623061F42FB7F8948C91932F909589231A
:100DD0008C938881832B88832FBF06C09FB7F8949C
:100DE0008C91832B8C939FBFDF91CF910895482FD7
:100DF00050E0CA0182559F4FFC012491CA018656DA
:100E00009F4FFC0194914A575F4FFA01349133236D
:100E100009F440C0222351F1233071F0243028F42A
:100E20002130A1F0223011F514C02630B1F0273066
:100E3000C1F02430D9F404C0809180008F7703C0C2
:100E4000809180008F7D8093800010C084B58F7763
:100E500002C084B58F7D84BD09C08091B0008F77BA
:100E600003C08091B0008F7D8093B000E32FF0E04D
:100E7000EE0FFF1FEE58FF4FA591B4912FB7F894D6
:100E8000662321F48C919095892302C08C91892B43
:100E90008C932FBF0895682F70E0CB0182559F4F30
:100EA000FC012491CB0186569F4FFC0144916A5767
:100EB0007F4FFB019491992319F420E030E03CC06E
:100EC000222351F1233071F0243028F42130A1F095
:100ED000223011F514C02630B1F02730C1F0243093
:100EE000D9F404C0809180008F7703C08091800086
:100EF0008F7D8093800010C084B58F7702C084B549
:100F00008F7D84BD09C08091B0008F7703C0809130
:100F1000B0008F7D8093B000892F90E0880F991FDB
:100F200084589F4FFC01A591B4918C9120E030E052
:100F3000842311F021E030E0C9010895CF93DF93BD
:100F40000E94F5070E94DF02C0E0D0E00E9420026C
:100F50002097E1F30E940000F9CF1F920F920FB685
:100F60000F9211242F933F938F939F93AF93BF932F
:100F70008091430290914402A0914502B0914602B3
:100F8000309147020196A11DB11D232F2D5F2D37F2
:100F900020F02D570196A11DB11D2093470280938B
:100FA000430290934402A0934502B093460280917D
:100FB0003F0290914002A0914102B09142020196FD
:100FC000A11DB11D80933F0290934002A093410266
:100FD000B0934202BF91AF919F918F913F912F911A
:100FE0000F900FBE0F901F901895789484B5826073
:100FF00084BD84B5816084BD85B5826085BD85B5BD
:10100000816085BDEEE6F0E0808181608083E1E86B
:10101000F0E01082808182608083808181608083A3
:10102000E0E8F0E0808181608083E1EBF0E08081A6
:1010300084608083E0EBF0E0808181608083EAE778
:10104000F0E0808184608083808182608083808101
:10105000816080838081806880831092C1000895C0
:10106000EE0FFF1F0590F491E02D0994F894FFCF47
:10107000200000000000000000000001000000004F
:0C1080000904D80356035F0374038503C2
:00000001FF
