:100000000C9462000C948A000C948A000C948A0070
:100010000C948A000C948A000C948A000C948A0038
:100020000C948A000C948A000C948A000C948A0028
:100030000C948A000C948A000C948A000C948A0018
:100040000C946A070C948A000C948A000C948A0021
:100050000C948A000C948A000C948A000C948A00F8
:100060000C9463040C948A00000000002400270014
:100070002A0000000000250028002B0000000000DE
:1000800023002600290004040404040404040202DA
:100090000202020203030303030301020408102007
:1000A0004080010204081020010204081020000012
:1000B0000007000201000003040600000000000029
:1000C0000000A00311241FBECFEFD8E0DEBFCDBFDC
:1000D00011E0A0E0B1E0EAEEFFE002C005900D9271
:1000E000AE31B107D9F712E0AEE1B1E001C01D9227
:1000F000A434B107E1F710E0C4ECD0E004C02297CB
:10010000FE010E94EF07C23CD107C9F70E945B07BE
:100110000C94F3070C940000DC0101C06D93415076
:100120005040E0F7089580E00E9408079C014427B2
:1001300037FD4095542F20932001309321014093A7
:100140002201509323018091380190913901892B2C
:1001500019F52130310541055105F1F481E00E9486
:10016000080720912C0130912D0140912E015091D2
:100170002F01892B29F4215030404040504004C0C9
:100180002F5F3F4F4F4F5F4F20932C0130932D0136
:1001900040932E0150932F018091200190912101D5
:1001A000909339018093380180912C0190912D0119
:1001B000A0912E01B0912F01809368019093690165
:1001C000A0936A01B0936B0182E00E9408079C0132
:1001D000442737FD4095542F209324013093250167
:1001E000409326015093270180913A0190913B0161
:1001F000892B19F52130310541055105F1F484E0D1
:100200000E94080720913001309131014091320164
:1002100050913301892B29F4215030404040504007
:1002200004C02F5F3F4F4F4F5F4F209330013093FB
:100230003101409332015093330180912401909118
:10024000250190933B0180933A0180913001909178
:100250003101A0913201B091330180936C019093F0
:100260006D01A0936E01B0936F0187E00E940807B3
:100270009C01442737FD4095542F2093280130934B
:10028000290140932A0150932B0180913C019091C8
:100290003D01892B19F52130310541055105F1F456
:1002A00088E00E9408072091340130913501409187
:1002B000360150913701892B29F4215030404040BC
:1002C000504004C02F5F3F4F4F4F5F4F209334018A
:1002D00030933501409336015093370180912801C6
:1002E0009091290190933D0180933C0180913401CC
:1002F00090913501A0913601B09137018093700142
:1003000090937101A0937201B0937301089560916D
:1003100062017091630177FD09C0660F771F8BE062
:100320000E9415068AE060E070E00FC08BE060E09C
:1003300070E00E9415066091620170916301660F82
:10034000771F709561957F4F8AE00E941506609136
:1003500064017091650177FD09C0660F771F86E023
:100360000E94150689E060E070E00FC086E060E062
:1003700070E00E9415066091640170916501660F3E
:10038000771F709561957F4F89E00E9415066091F7
:1003900066017091670177FD09C0660F771F85E0E0
:1003A0000E94150683E060E070E00FC085E060E029
:1003B00070E00E9415066091660170916701660FFA
:1003C000771F709561957F4F83E00E941506089511
:1003D0008091740190917501892B19F08CE061E096
:1003E00002C08CE060E00E94B4068091760190919A
:1003F0007701892B19F08DE061E002C08DE060E0AB
:100400000E94B40608950E9493000E948701809183
:1004100000018823F9F080911E0190911F0101963F
:1004200090931F0180931E01069764F010921F01A4
:1004300010921E018CE061E00E94B4068DE061E044
:100440000E94B4068CE060E00E94B4068DE060E09B
:100450000E94B4060E94E801089584E090E0909321
:1004600061018093600181EC91E060E471E044E01F
:1004700050E00E94B70381E091E060E270E04BE061
:1004800050E00E948C000895CF93DF93C1E0D1E04B
:1004900009C081EC91E00E943E0380933E0190935D
:1004A0003F01899381EC91E00E943503892B89F704
:1004B00080910101853051F1863034F4813051F062
:1004C000843009F058C022C0863001F18C3009F028
:1004D00052C03BC080910201992787FD909590936F
:1004E00063018093620180910301992787FD9095B4
:1004F000909365018093640180910401992787FDA1
:100500009095909367018093660131C0809134018A
:1005100090913501A0913601B0913701809343014C
:10052000292F3A2F4B2F552747FD5A9520934201EB
:100530009D01552737FD5095452F209341018B2F65
:100540009927AA27BB278093400180910201992710
:1005500087FD9095909375018093740180910301BC
:10056000992787FD9095909377018093760110925B
:10057000610110926001DF91CF9108950F931F9355
:1005800001EC11E0C80166E070E00E943704C80188
:100590006DE272E00E949B03C80164E472E00E9475
:1005A000960380E00E9412068BE061E00E947506CF
:1005B0008AE061E00E94750686E061E00E947506AF
:1005C00089E061E00E94750685E061E00E947506A1
:1005D00083E061E00E94750680E060E00E9475069D
:1005E00081E060E00E94750682E060E00E9475068E
:1005F00084E060E00E94750687E060E00E94750676
:1006000088E060E00E9475068CE061E00E9475065B
:100610008DE061E00E9475068CE061E00E94B40606
:100620008DE061E00E94B4068BE060E070E00E9423
:1006300015068AE060E070E00E94150686E060E042
:1006400070E00E94150689E060E070E00E941506E7
:1006500085E060E070E00E94150683E060E070E0F5
:100660000E9415061F910F9108952091990130E085
:1006700080919801281B3109C90108954091980182
:1006800080919901481718F02FEF3FEF0AC0E42F2F
:10069000F0E0E858FE4F8081282F30E04F5F409314
:1006A0009801C9010895E091980180919901E81796
:1006B00018F0EFEFFFEF06C0F0E0E858FE4F808142
:1006C000E82FF0E0CF0108950895AC012091BF011B
:1006D0003091C00121153105E1F090919801809190
:1006E00099019817B0F090E008C0FA01EA0FFB1FDB
:1006F0008081A858BE4F8C939F5FA92FB0E0A617AA
:10070000B7079CF31092980160939901CB01F9010E
:1007100009950895E091BD01F091BE01309729F04F
:100720001092BA011092BB01099508957093C0010F
:100730006093BF0108957093BE016093BD01089559
:100740001092C4011092C30188EE93E0A0E0B0E0E3
:100750008093C5019093C601A093C701B093C801CF
:1007600081E191E09093C2018093C1010895CF92FD
:10077000DF92EF92FF920F931F93CF93DF937C0151
:100780006B018A018091BC018823A1F0C0E0D0E018
:100790000DC0D701ED91FC91D601AC0FBD1F0190AA
:1007A000F081E02DC7016C9109952196C017D10702
:1007B00080F304C0CB01642F0E943E04C801DF9186
:1007C000CF911F910F91FF90EF90DF90CF90089500
:1007D000DF93CF930F92CDB7DEB7FC016983809191
:1007E000BC018823C9F08091BB01803238F081E0E0
:1007F00090E09383828320E030E015C08091BA01BD
:10080000E82FF0E0E656FE4F998190838F5F80934A
:10081000BA018093BB0105C0CE01019661E00E9440
:100820003E0421E030E0C9010F90CF91DF9108959F
:1008300010929801109299011092BA011092BB0186
:100840000E94F40508950F931F938C01862F0E9438
:100850003A048AE893E00E945E0485E693E00E94F1
:100860005904C8010E9418041F910F9108950E9415
:1008700023040895880F8093BA000895482F6132A9
:1008800010F081E008958091CD01843011F082E074
:10089000089560931802A7EFB1E0842F9C01F9013D
:1008A00002C081918D938E2F841B8617D0F380E038
:1008B00008959093D4018093D30108959093D20129
:1008C0008093D10108951F920F920FB60F921124B9
:1008D0002F933F934F935F936F937F938F939F9348
:1008E000AF93BF93EF93FF938091B90090E0887F1F
:1008F00090708036910509F4F2C081369105CCF5EF
:100900008832910509F47BC089329105B4F48031B5
:10091000910509F46FC0813191053CF4009709F409
:1009200047C1089709F04FC165C08831910509F4A6
:1009300066C0809709F047C182C08034910509F4F0
:10094000A4C08134910544F48033910509F482C038
:10095000C89709F038C189C08035910509F489C06C
:100960008835910509F496C08834910509F02BC1AA
:10097000AEC08839910509F413C189399105ECF4A9
:100980008837910509F4ABC0893791054CF4883656
:10099000910509F4A4C08037910509F014C19FC0E6
:1009A0008838910509F4FCC08039910509F49DC08F
:1009B0008038910509F007C198C0803B910509F482
:1009C000C6C0813B91054CF4803A910509F49FC063
:1009D000883A910509F0F7C0BAC0803C910509F446
:1009E000E3C0883C910509F4DFC0883B910509F01C
:1009F000EAC0C2C08091CE018093BB00CFC090916D
:100A0000F5018091F601981768F49091F501E92FAE
:100A1000F0E0EB52FE4F80818093BB009F5F90938C
:100A2000F501BCC08091CF01882309F44BC085ED4E
:100A30008093BC008091BC0084FDFCCFC2C080E2EA
:100A400080933A0285ED8093BC008091BC0084FDC8
:100A5000FCCFB7C080E380933A0285ED8093BC0061
:100A60008091BC0084FDFCCFACC088E380933A0247
:100A70009BC08091F5019091BB00E82FF0E0EB5214
:100A8000FE4F90838F5F8093F5019091F5018091E7
:100A9000F60182C08091F5019091BB00E82FF0E053
:100AA000EB52FE4F90838F5F8093F5018091CF01D1
:100AB000882341F085ED8093BC008091BC0084FDCB
:100AC000FCCF7FC081E08093D00184EA6EC085EDC9
:100AD0008093BC008091BC0084FDFCCF72C083E099
:100AE0008093CD011092390259C080913902803231
:100AF00008F056C0809139029091BB00E82FF0E0D9
:100B0000E75EFD4F90838F5F8093390247C08091ED
:100B10003902803230F4E0913902F0E0E75EFD4FB7
:100B2000108285ED8093BC008091BC0084FDFCCFD9
:100B30001092CD0160913902E091D301F091D4017E
:100B400089E192E070E00995109239022DC084E0AD
:100B50008093CD011092170210921802E091D101FA
:100B6000F091D201099580911802882329F481E03F
:100B7000809318021092F70190911702E92FF0E08C
:100B8000E950FE4F80818093BB009F5F90931702D6
:100B90009091170280911802981710F485EC01C00B
:100BA00085E88093BC000FC085EC8093BC0009C031
:100BB00010923A0285ED8093BC008091BC0084FDC8
:100BC000FCCF1092CD01FF91EF91BF91AF919F911A
:100BD0008F917F916F915F914F913F912F910F90E6
:100BE0000FBE0F901F9018951092CD0181E0809359
:100BF000CF011092D00182E161E00E94B40683E14E
:100C000061E00E94B406E9EBF0E080818E7F808392
:100C100080818D7F808388E48093B80085E4809311
:100C2000BC00089580930C0108951F93CF93DF9328
:100C3000182FEB0161E00E947506209709F44AC065
:100C4000CF3FD10509F449C0E12FF0E0E255FF4F55
:100C500084918330C1F0843028F4813051F08230A7
:100C6000B1F50CC0863019F1873049F1843079F53F
:100C700014C084B5806884BDC7BD33C084B58062AC
:100C800084BDC8BD2EC080918000806880938000A4
:100C9000D0938900C093880024C080918000806236
:100CA00080938000D0938B00C0938A001AC08091FB
:100CB000B00080688093B000C093B30012C08091F0
:100CC000B00080628093B000C093B4000AC0C03806
:100CD000D1051CF4812F60E002C0812F61E00E94E9
:100CE000B406DF91CF911F910895CF93DF93482FE2
:100CF00050E0CA0186569F4FFC0134914A575F4F1E
:100D0000FA018491882369F190E0880F991FFC0112
:100D1000E859FF4FA591B491FC01EE58FF4FC591E2
:100D2000D491662351F42FB7F8948C91932F90951A
:100D300089238C93888189230BC0623061F42FB79B
:100D4000F8948C91932F909589238C938881832B91
:100D500088832FBF06C09FB7F8948C91832B8C9308
:100D60009FBFDF91CF910895482F50E0CA0182556F
:100D70009F4FFC012491CA0186569F4FFC0194911C
:100D80004A575F4FFA013491332309F440C02223BC
:100D900051F1233071F0243028F42130A1F02230B9
:100DA00011F514C02630B1F02730C1F02430D9F449
:100DB00004C0809180008F7703C0809180008F7D78
:100DC0008093800010C084B58F7702C084B58F7D7A
:100DD00084BD09C08091B0008F7703C08091B000BE
:100DE0008F7D8093B000E32FF0E0EE0FFF1FEE58F1
:100DF000FF4FA591B4912FB7F894662321F48C91FD
:100E00009095892302C08C91892B8C932FBF0895D4
:100E1000682F70E0CB0182559F4FFC012491CB01DC
:100E200086569F4FFC0144916A577F4FFB01949176
:100E3000992319F420E030E03CC0222351F1233003
:100E400071F0243028F42130A1F0223011F514C0C3
:100E50002630B1F02730C1F02430D9F404C080919D
:100E600080008F7703C0809180008F7D8093800009
:100E700010C084B58F7702C084B58F7D84BD09C052
:100E80008091B0008F7703C08091B0008F7D8093F8
:100E9000B000892F90E0880F991F84589F4FFC0164
:100EA000A591B4918C9120E030E0842311F021E0F1
:100EB00030E0C9010895CF93DF930E94B2070E94EA
:100EC000BE02C0E0D0E00E9403022097E1F30E943E
:100ED0000000F9CF1F920F920FB60F9211242F939B
:100EE0003F938F939F93AF93BF9380913F029091D5
:100EF0004002A0914102B09142023091430201961A
:100F0000A11DB11D232F2D5F2D3720F02D570196E8
:100F1000A11DB11D2093430280933F029093400294
:100F2000A0934102B093420280913B0290913C0217
:100F3000A0913D02B0913E020196A11DB11D80938A
:100F40003B0290933C02A0933D02B0933E02BF91BE
:100F5000AF919F918F913F912F910F900FBE0F9066
:100F60001F901895789484B5826084BD84B58160A3
:100F700084BD85B5826085BD85B5816085BDEEE6A1
:100F8000F0E0808181608083E1E8F0E01082808180
:100F900082608083808181608083E0E8F0E08081EE
:100FA00081608083E1EBF0E0808184608083E0EB0E
:100FB000F0E0808181608083EAE7F0E080818460F6
:100FC0008083808182608083808181608083808152
:100FD000806880831092C1000895EE0FFF1F059076
:0A0FE000F491E02D0994F894FFCF7E
:100FEA0001200000000000000000000001000000D5
:0E0FFA0000E803B70335033E0353036403000E
:00000001FF
