:100000000C9437000C945F000C945F000C945F001C
:100010000C945F000C945F000C945F000C945F00E4
:100020000C945F000C945F000C945F000C945F00D4
:100030000C945F000C945F000C945F000C945F00C4
:100040000C943A060C945F000C94AA020C94F102F2
:100050000C945F000C945F000C945F000C945F00A4
:100060000C945F000C945F00660257045F02112439
:100070001FBECFEFD8E0DEBFCDBF11E0A0E0B1E002
:10008000E2E5FEE002C005900D92A831B107D9F774
:1000900012E0A8E1B1E001C01D92A435B107E1F77B
:1000A00010E0CCE6D0E004C02297FE010E94E106F9
:1000B000C836D107C9F70E94A7040C941C070C94FA
:1000C0000000CF93DF93BC018230910510F462E011
:1000D00070E0A0915202B0915302ED01E0E0F0E037
:1000E00040E050E021C0888199818617970769F424
:1000F0008A819B81309719F09383828304C0909307
:10010000530280935202FE0134C06817790738F415
:100110004115510519F08417950708F4AC01FE014B
:100120008A819B819C01E9012097E9F641155105DF
:10013000A9F1CA01861B970B049708F4BA01E0E005
:10014000F0E02AC08D919C91119784179507F9F4DE
:100150006417750781F412968D919C9113973097CF
:1001600019F09383828304C09093530280935202C8
:10017000FD0132964CC0CA01861B970BFD01E80FAA
:10018000F91F6193719302978D939C9340C0FD0179
:10019000828193819C01D9011097A1F68091500230
:1001A00090915102892B41F48091030190910401B7
:1001B00090935102809350024091050150910601A5
:1001C0004115510541F44DB75EB780910101909101
:1001D0000201481B590B2091500230915102CA0173
:1001E000821B930B8617970780F0AB014E5F5F4F22
:1001F0008417950750F0420F531F509351024093BC
:100200005002F9016193719302C0E0E0F0E0CF0188
:10021000DF91CF910895CF93DF93009709F450C0F9
:10022000EC0122971B821A82A0915202B0915302D4
:10023000109709F140E050E0AC17BD0708F1BB830F
:10024000AA83FE0121913191E20FF31FAE17BF0780
:1002500079F48D919C911197280F391F2E5F3F4F94
:100260003983288312968D919C9113979B838A835F
:100270004115510571F4D0935302C093520220C02E
:1002800012968D919C911397AD01009711F0DC01AE
:10029000D3CFFA01D383C28321913191E20FF31FAF
:1002A000CE17DF0769F488819981280F391F2E5FE7
:1002B0003F4FFA01318320838A819B81938382831C
:1002C000DF91CF910895A0E0B0E0E9E6F1E00C9471
:1002D000E7066C01009729F4CB010E9461006C01D4
:1002E000C1C08EEF882E8FEF982E8C0C9D1C86013E
:1002F000060F171F0815190508F4B2C0F401A081F4
:10030000B181A617B707B8F0A530B10508F4AAC0A7
:10031000CD0104978617970708F4A4C01297A61B6F
:10032000B70BF801A193B193D4016D937C93CF01E6
:100330000E940B0197C07B01EA1AFB0AEEEFFFEF68
:10034000EE0EFF1E36016A0E7B1EC0915202D09146
:10035000530244245524AA24BB244AC0C615D705F9
:10036000E1F5488159814E155F05B8F1CA0104973E
:100370008E159F05B0F41296A40FB51FF401B1833A
:10038000A0832A813B814114510431F0D20113969C
:100390003C932E93129766C03093530220935202DF
:1003A00061C08A819B81F8019383828342505040CF
:1003B0004E195F09518340834114510431F0D20139
:1003C00013961C930E93129704C01093530200933C
:1003D0005202F4017183608345C088819981A81617
:1003E000B90608F45C012E018A819B819C01E90118
:1003F000209709F0B3CF8091500290915102861559
:100400009705E9F4A616B706D0F4209105013091BE
:1004100006012115310541F42DB73EB78091010148
:1004200090910201281B390B02171307C8F410938F
:10043000510200935002D4016D937C9313C0CB0101
:100440000E946100EC01009759F0F4014081518154
:10045000B6010E943802C6010E940B016E0102C063
:10046000CC24DD24C601CDB7DEB7E0E10C94030750
:10047000FB01DC0102C001900D9241505040D8F7C1
:100480000895FB01DC0101900D920020E1F7089531
:100490008130910551F46F5F7F4F81F488E191E0E5
:1004A00060E071E00E9401060895892B39F46F5FC6
:1004B0007F4F21F488E191E00E943406089580E0A6
:1004C00090E06FEF7FEF0E944802089581E090E096
:1004D0006FEF7FEF0E94480208950F931F9301E092
:1004E0000EC088E292E00E94E303182F88E191E0B9
:1004F000612F0E94BB051A3011F400931F0188E29E
:1005000092E00E94B203892B61F71F910F91089529
:1005100080911F01882371F088E292E068E171E028
:100520000E94330588E191E060E071E00E941B06C3
:1005300010921F01089588E292E040E052EC61E0E1
:1005400070E00E942C0388E191E068EC70E00E946A
:10055000720508951F920F920FB60F9211242F93D8
:100560003F934F938F939F93EF93FF934091C600D8
:100570002091A0013091A1012F5F3F4F2F77307064
:100580008091A2019091A3012817390759F0E091B9
:10059000A001F091A101E05EFE4F40833093A101E4
:1005A0002093A001FF91EF919F918F914F913F91E7
:1005B0002F910F900FBE0F901F901895E09134026D
:1005C000F0913502E058FF4F819191912081318166
:1005D000821B930B8F779070892B11F00E946D0214
:1005E00008951F920F920FB60F9211242F933F93ED
:1005F0008F939F93EF93FF932091240230912502D4
:1006000080912602909127022817390731F48091B2
:10061000C1008F7D8093C10014C0E0912602F0914B
:100620002702EC55FE4F20818091260290912702EF
:1006300001968F77907090932702809326022093E3
:10064000C600FF91EF919F918F913F912F910F9055
:100650000FBE0F901F901895AF92BF92DF92EF924E
:10066000FF920F931F93CF93DF93EC017A018B01DD
:10067000DD24403081EE580780E0680780E078078D
:1006800011F0DD24D39491E0A92EB12CEC89FD89E1
:10069000DD2069F0C5010E8C02C0880F991F0A94F5
:1006A000E2F7808360E079E08DE390E005C010829E
:1006B00060E874E88EE190E0A80197010E94BD0611
:1006C00021503040404050405695479537952795EA
:1006D00080E12030380720F0DD2011F0DD24D6CF76
:1006E000E889F9893083EA89FB892083EE89FF89CB
:1006F000408121E030E0C9010A8C02C0880F991FB7
:100700000A94E2F7482B4083EE89FF894081C901B2
:100710000B8C02C0880F991F0A94E2F7482B408384
:10072000EE89FF894081C9010C8C02C0880F991F96
:100730000A94E2F7482B4083EE89FF8980810D8C73
:1007400002C0220F331F0A94E2F72095282320834A
:10075000DF91CF911F910F91FF90EF90DF90BF90AD
:10076000AF900895DC011C96ED91FC911D97E05827
:10077000FF4F2191319180819181281B390B2F7777
:100780003070C9010895DC011C96ED91FC911D9714
:10079000E058FF4F20813181E058F040DF01AE5733
:1007A000BF4F8D919C9111972817390719F42FEF9E
:1007B0003FEF07C08D919C91E80FF91F8081282F92
:1007C00030E0C9010895DC011C96ED91FC911D9764
:1007D000E058FF4F20813181E058F040DF01AE57F3
:1007E000BF4F8D919C9111972817390719F42FEF5E
:1007F0003FEF10C08D919C911197E80FF91F208158
:100800008D919C91119701968F77907011969C9382
:100810008E9330E0C9010895FC0186859785DC013F
:10082000A058BF4FFC01EE57FF4F2D913C911197FF
:100830008081918128173907C1F70895CF93DF93FD
:10084000EC01EE85FF85E058FF4F20813181E058B3
:10085000F0402F5F3F4F2F773070DF01AE57BF4F13
:100860008D919C91119728173907D1F3E058FF4FCC
:1008700080819181E058F040E80FF91F6083EE8598
:10088000FF85E058FF4F31832083EE89FF89208167
:1008900081E090E00D8C02C0880F991F0A94E2F766
:1008A000282B208381E090E0DF91CF910895109272
:1008B0002B0210922A0288EE93E0A0E0B0E0809331
:1008C0002C0290932D02A0932E02B0932F028BE066
:1008D00091E0909329028093280280E291E0909326
:1008E00035028093340284EA91E09093370280933A
:1008F000360285EC90E0909339028093380284ECC4
:1009000090E090933B0280933A0280EC90E09093C9
:100910003D0280933C0281EC90E090933F028093F3
:100920003E0286EC90E0909341028093400284E086
:100930008093420283E08093430287E080934402E5
:1009400085E08093450281E0809346020895CF932D
:10095000DF930E9482060E949B02CEEDD2E00E94AD
:1009600088022097E1F30E94DE02F9CFCF92DF9256
:10097000EF92FF920F931F93CF93DF937C016B0154
:100980008A01C0E0D0E00FC0D6016D916D01D701A2
:10099000ED91FC910190F081E02DC7010995C80F00
:1009A000D91F015010400115110571F7CE01DF91DB
:1009B000CF911F910F91FF90EF90DF90CF9008950E
:1009C000EF92FF920F931F938C01DC01ED91FC914C
:1009D0000190F081E02D6DE009957C01D801ED9149
:1009E000FC910190F081E02DC8016AE009959C011D
:1009F0002E0D3F1DC9011F910F91FF90EF9008959B
:100A0000AF92BF92CF92DF92EF92FF920F931F931C
:100A1000CF93DF935C016B01EE24FF24C0E0D0E0B4
:100A200010C0D501ED91FC9100811181C601BE017C
:100A30000E944705682FC501F8010995E80EF91EC7
:100A40002196F60184819581C817D90750F3C70113
:100A5000DF91CF911F910F91FF90EF90DF90CF909A
:100A6000BF90AF900895EF92FF920F931F937C0178
:100A70000E9400058C01C7010E94E0049C01200F28
:100A8000311FC9011F910F91FF90EF900895FC0154
:100A9000848195816817790748F40190F081E02DF1
:100AA000309721F0E60FF71F8081089580E00895C8
:100AB0000F931F93CF93DF93EC018B016F5F7F4FF9
:100AC000888199810E946301009711F480E005C03C
:100AD000998388831B830A8381E0DF91CF911F91E3
:100AE0000F910895CF93DF93EC0188819981892B31
:100AF00029F08A819B818617970760F4CE010E94B6
:100B00005805882341F08C819D81892B19F4E88157
:100B1000F981108281E0DF91CF910895EF92FF92E9
:100B20000F931F93CF93DF93EC017B016C817D8149
:100B3000E114F104C1F04115510599F08A01060F45
:100B4000171FB8010E947205882369F08881998176
:100B50002C813D81820F931FB7010E9441021D83AA
:100B60000C8381E001C080E0DF91CF911F910F9154
:100B7000FF90EF900895DF93CF9300D0CDB7DEB70D
:100B800069831A82BE016F5F7F4F41E050E00E948F
:100B90008E050F900F90CF91DF910895CF93DF9343
:100BA000EC0188819981009711F00E940B01198254
:100BB00018821D821C821B821A82DF91CF910895B8
:100BC000EF92FF920F931F93CF93DF93EC017B0182
:100BD0008A01BA010E947205882321F4CE010E9485
:100BE000CE0507C01D830C8388819981B7010E94BF
:100BF0004102CE01DF91CF911F910F91FF90EF90B5
:100C00000895CF93DF93EC01198218821B821A8218
:100C10001D821C821E826115710551F0DB010D9051
:100C20000020E9F71197A61BB70BAD010E94E00564
:100C3000DF91CF9108950F931F93182F092F6115FE
:100C4000710559F0DB010D900020E9F71197A61B03
:100C5000B70BAD010E94E00502C00E94CE05812FB6
:100C6000902F1F910F910895FC01808191810E9426
:100C70000B0108951F920F920FB60F9211242F931C
:100C80003F938F939F93AF93BF9380914B0290912B
:100C90004C02A0914D02B0914E0230914F0201964C
:100CA000A11DB11D232F2D5F2D3720F02D5701964B
:100CB000A11DB11D20934F0280934B0290934C02D3
:100CC000A0934D02B0934E0280914702909148024A
:100CD000A0914902B0914A020196A11DB11D8093D5
:100CE000470290934802A0934902B0934A02BF91F1
:100CF000AF919F918F913F912F910F900FBE0F90C9
:100D00001F901895789484B5826084BD84B5816005
:100D100084BD85B5826085BD85B5816085BDEEE603
:100D2000F0E0808181608083E1E8F0E010828081E2
:100D300082608083808181608083E0E8F0E0808150
:100D400081608083E1EBF0E0808184608083E0EB70
:100D5000F0E0808181608083EAE7F0E08081846058
:100D600080838081826080838081816080838081B4
:100D7000806880831092C1000895A1E21A2EAA1BF8
:100D8000BB1BFD010DC0AA1FBB1FEE1FFF1FA2173B
:100D9000B307E407F50720F0A21BB30BE40BF50B38
:100DA000661F771F881F991F1A9469F760957095C1
:100DB000809590959B01AC01BD01CF010895EE0F88
:100DC000FF1F0590F491E02D09942F923F924F92CE
:100DD0005F926F927F928F929F92AF92BF92CF92CB
:100DE000DF92EF92FF920F931F93CF93DF93CDB7D4
:100DF000DEB7CA1BDB0B0FB6F894DEBF0FBECDBF4C
:100E000009942A88398848885F846E847D848C841C
:100E10009B84AA84B984C884DF80EE80FD800C8125
:100E20001B81AA81B981CE0FD11D0FB6F894DEBF08
:100E30000FBECDBFED01089510E0CCE6D0E004C0B8
:100E4000FE010E94E1062296CE36D107C9F7F8943A
:020E5000FFCFD2
:100E520000200054020000000000001E04B604B28C
:080E620003E303C3030C0400C9
:00000001FF
