:100000000C94D6000C94FE000C94FE000C946C1A18
:100010000C94961A0C94A6180C94FE000C94FE00F6
:100020000C94FE000C94FE000C94FE000C94FE0058
:100030000C94FE000C94FE000C94FE000C94FE0048
:100040000C944B210C94FE000C9455230C94A32388
:100050000C94FE000C94FE000C94FE000C94FE0028
:100060000C94FE000C94FE002C0330033003B30309
:100070003403B303B303B303B3035F035F03AB03FF
:10008000AB03AB03AB03AB03AB03AB03AB03AB0300
:10009000AB03AF03AB03AB03AB03AB03AB03AF03E8
:1000A000AB03AB03AB03AF03AB03AB03AB03AB03DC
:1000B00000C201000100110011000C0000E100006D
:1000C0000A002500250021000096000019003900D3
:1000D00039003600127A00001F0046004600440036
:1000E0008070000022004D004D004A00004B0000CF
:1000F0003600750075007200403800004A009C0010
:100100009C009900802500007200EC00EC00E900E2
:10011000C0120000E900DA01DA01D701600900002D
:10012000D701B603B603B303B0040000B3036E07F0
:100130006E076B07580200006E07DC0EDC0ED80E4F
:100140002C010000DC0EC11DC11DBE1D0000000001
:10015000240027002A0000000000250028002B00B2
:100160000000000023002600290004040404040405
:100170000404020202020202030303030303010256
:100180000408102040800102040810200102040825
:100190001020000000070002010000030406000018
:1001A000000000000000041E0F25FD1D11241FBECD
:1001B000CFEFD8E0DEBFCDBF11E0A0E0B1E0E6EACE
:1001C000FCE402C005900D92A438B107D9F717E0FE
:1001D000A4E8B1E001C01D92A832B107E1F711E037
:1001E000CAEAD1E004C02297FE010E944226C63A24
:1001F000D107C9F70E9465250C9446260C9400008F
:10020000AF92BF92DF92EF92FF920F931F93CF9323
:10021000DF93D42E78018901A0916804B09169041C
:100220005D01A60EB11CB50130E0482F50E0C1E0E1
:10023000D0E01FC0E0FE16C0FB0193E0F695E79505
:100240009A95E1F7E40FF51FEA57FE4FCB0187704F
:1002500090705E0102C0AA0CBB1C8A95E2F7208157
:100260002A29208316950795F794E7943F5F6F5FDF
:100270007F4F3D15F8F2AD0DB11DB0936904A09309
:100280006804DF91CF911F910F91FF90EF90DF9065
:10029000BF90AF900895CF92DF92EF92FF920F93AD
:1002A0001F93CF93DF93E42EF42EC0916804D09176
:1002B0006904DE011197A60FB11D242F332727FDF6
:1002C0003095A20FB31F00E010E020E030E0C82E10
:1002D000DD2429C0B901A801440F551F661F771FEF
:1002E000FD0123E0F695E7952A95E1F7EA57FE4FE1
:1002F000EC0DFD1D808190E09D012770307002C0E3
:10030000959587952A95E2F78C01222717FD209570
:10031000322F0170107020703070042B152B262B9B
:10032000372BFA941197FF20A9F6CE0DD11DD0934B
:100330006904C0936804B801C901DF91CF911F918E
:100340000F91FF90EF90DF90CF90089520E061151E
:1003500071058105910549F02F5F203229F09695AE
:10036000879577956795F3CF2FE1822F08956F9248
:100370007F929F92AF92BF92CF92DF92EF92FF92C5
:100380000F93CF93DF938091870180930602809132
:100390008801809307021092690410926804F2E3C6
:1003A000AF2EF2E0BF2ECC24DD24F601EA5FFD4F34
:1003B00080818952823008F065C083E060E048E0C7
:1003C0000E944B01F601E05DFD4F608383E060E039
:1003D00043E00E944B016F5FF50160839924360171
:1003E000E3E0660C771CEA95E1F747C0C92DD0E041
:1003F00083E060E047E00E944B01C60DD71DFE017F
:10040000EC5CFD4F660F608383E060E042E00E9499
:100410004B01FE01E85FFD4F608361FF2DC083E06B
:1004200060E044E00E944B0174E4E72E72E0F72E96
:10043000EC0EFD1EF701608383E060E044E00E9463
:100440004B01FE01EC5AFD4F608300E054E0CC0FFD
:10045000DD1F5A95E1F70CC083E060E048E00E94A0
:100460004B01FE01E00FF11DEC59FD4F60830F5F62
:10047000F7018081081780F39394F5018081981625
:1004800008F4B4CF0894C11CD11C0894A11CB11C61
:10049000F2E0CF16D10409F088CFDF91CF910F9110
:1004A000FF90EF90DF90CF90BF90AF909F907F90A4
:1004B0006F9008952F923F924F925F926F927F922A
:1004C0008F929F92AF92BF92CF92DF92EF92FF9264
:1004D0000F931F93DF93CF93CDB7DEB72E970FB651
:1004E000F894DEBF0FBECDBF80E0E82FF0E0EA5702
:1004F000FE4F10828F5F8038C1F719821A821B82EB
:100500001C821092690410926804E8E1AE2EE2E0C9
:10051000BE2E75E0E72EF12CEC0EFD1E63E0C62E1C
:10052000D12CCC0EDD1E4E010894811C911C772429
:100530007394D5012D913D914D915C91F7012083EC
:1005400031834283538357FF0DC0D4017C928827A7
:100550009927DC01821B930BA40BB50B808391833D
:10056000A283B383D7016D917D918D919C910E945F
:10057000A601F6018083882311F08F5F8083D60166
:100580000D916D0110E020E030E081E060E045E099
:100590000E940001E4E0F0E0AE0EBF1EEE0EFF1E72
:1005A0000894811C911CF0E2AF16F2E0BF0609F638
:1005B0000D811E812F813885000F111F221F331FCF
:1005C000898190E0A0E0B0E0082B192B2A2B3B2B6F
:1005D0000D831E832F83388781E060E04B810E946A
:1005E00000010A8110E020E030E089859A85AB8522
:1005F000BC85880F991FAA1FBB1F082B192B2A2BFC
:100600003B2B81E060E04C810E94000120E2422E01
:1006100022E0522E9BE1892E95E0992E82E3282E2E
:1006200082E0382E66247724F301EA5FFD4F808153
:1006300090E0FC01B097E432F10508F094C0EC5C66
:10064000FF4FD2010D911D912D913C91EE0FFF1F97
:100650000590F491E02D099481E060E041E08BC0C9
:1006600081E060E048E087C081E060E043E00E9414
:100670000001F4010681178120E030E081E060E0B4
:100680004AE00E940001D4010D911C9120E030E06D
:1006900081E060E04AE00E940001F40102811381E0
:1006A00020E030E081E060E04AE00E940001D401F7
:1006B00014960D911C91159720E030E059C081E00F
:1006C00060E0F10140810E940001EE24C30103E0DB
:1006D000880F991F0A95E1F79E878D8737C02E2DC9
:1006E00030E0F20180819181A281B3810E2C04C09F
:1006F000B595A795979587950A94D2F780FF25C061
:10070000FF248D859E85820F931F14E5A12E12E094
:10071000B12EA80EB91E6C01B4E0CC0CDD1CBA954C
:10072000E1F70FC0F601EF0DF11DEC59FC4F008110
:1007300010E020E030E081E060E048E00E9400014D
:10074000F394D5018C91F81668F3E394F10180815C
:10075000E81628F212C081E060E040E10CC081E0C0
:1007600060E040E208C0D2010D911D912D913C91B5
:1007700081E060E04AE00E9400010894611C711C65
:10078000E4E0F0E04E0E5F1E88E090E0880E991ED7
:100790000894211C311C92E06916710409F044CFC1
:1007A00080916804909169040796A3E096958795D7
:1007B000AA95E1F78F5F809385012E960FB6F89486
:1007C000DEBF0FBECDBFCF91DF911F910F91FF9084
:1007D000EF90DF90CF90BF90AF909F908F907F90E1
:1007E0006F905F904F903F902F9008952F923F927F
:1007F0004F925F926F927F928F929F92AF92BF9231
:10080000CF92DF92EF92FF920F931F93DF93CF93DC
:10081000CDB7DEB72B970FB6F894DEBF0FBECDBFB6
:1008200030E2232E32E0332E1B861A862A85298356
:10083000EA85FB85EA5FFD4FE081E33498F4EB3213
:1008400008F0C8C0E332B9F1E43240F4E13249F1D2
:10085000E23260F5E03209F0DDC011C0E93208F49F
:1008600041C044C0E43409F4BDC0E43408F4B6C067
:10087000E53409F4C0C0E63409F0CCC0C6C08A85AE
:100880000E94C3118059914028F481E090E0A0E0DB
:10089000B0E0C5C0D1011D921D921D921C9213970C
:1008A000C3C08A850E94AE1290E0B7C085E290E096
:1008B000A0E0B0E0B4C08A8560E00E94661284E1E6
:1008C00090E00E94FA218A850E94C311A0E0B0E066
:1008D000F10180839183A283B3838A8564E00E94BF
:1008E0006612A2C08A850E94321797C0D1011D925C
:1008F0001D921D921C92139710E0EA85FB85EE5C19
:10090000FD4FFD83EC838A859B8523E0880F991F2B
:100910002A95E1F79F838E83AA85BB85A05DBD4F95
:10092000B987A88750C0F101608071808280938070
:10093000412E5524EE81FF81E40DF51DDF01A85FF6
:10094000BD4F2C912170CF018C5B9D4F9B838A837F
:100950007F0104E0EE0CFF1C0A95E1F7B4E5CB2E15
:10096000B2E0DB2ECE0EDF1EA4E6AA2EA3E0BA2E46
:10097000AE0CBF1C8981EC5CFD4F6081A885B985F8
:100980004C91EA81FB810081A4E6B2E0EA0EFB1EF5
:10099000F601C0800E94401190E081709070012E9D
:1009A00002C0880F991F0A94E2F7AA2797FDA09525
:1009B000BA2F86299729A829B929F1018083918323
:1009C000A283B3831F5FAC81BD818C91181708F49B
:1009D000AACF2AC08A850E949A1E07C08A850E94D3
:1009E0004D1E0CC08A850E940B1EF101608371832D
:1009F0008283938319C08A850E946B1DD1016D93F8
:100A00007D938D939C9313970FC082E090E0A0E0BC
:100A1000B0E005C089810E94C311A0E0B0E0F101FF
:100A200080839183A283B3838A859B8501969B876C
:100A30008A87A4E0B0E02A0E3B1E029709F0F6CEAA
:100A40002B960FB6F894DEBF0FBECDBFCF91DF91CE
:100A50001F910F91FF90EF90DF90CF90BF90AF90DC
:100A60009F908F907F906F905F904F903F902F90CE
:100A70000895EF92FF920F931F93CF93DF930E94FD
:100A8000362144E3E42E42E0F42E00E312E0C0E01D
:100A9000D0E08C2FFE01EA5FFD4F6081693209F4DE
:100AA00046C06A32E8F4643289F1653278F4613222
:100AB00031F1623220F4603209F054C01DC062325C
:100AC00009F452C0633209F04DC01DC0663231F1E5
:100AD0006632F8F0673229F1683209F043C024C069
:100AE0006334E1F1643418F46A3281F523C064346C
:100AF000A9F16534B9F52EC08C2F60E033C08C2F7E
:100B00000E94CF1231C08C2F64E02CC08C2F6DE07E
:100B100002C08C2F6EE00E94FD1626C08C2F6FE065
:100B2000FACF8C2F60E1F7CF8C2F61E1F4CF8C2FBF
:100B300060E002C08C2F64E00E9466128C2FF701E7
:100B40006081F80140810E9412090EC08C2F0E9422
:100B5000D11F0AC08C2F60E00E9466128C2F0E9469
:100B6000591D02C00E946612219688E090E0E80EAE
:100B7000F91E0F5F1F4FC230D10509F08ACFDF91F8
:100B8000CF911F910F91FF90EF9008956F927F92F8
:100B90008F929F92AF92BF92CF92DF92EF92FF928D
:100BA0000F931F93CF93DF93109269041092680400
:100BB000C8E2D2E081E060E041E00E944B016115B3
:100BC00071058105910569F181E060E045E00E94D1
:100BD0004B01462F4F5F81E060E00E944B019B017B
:100BE000AC01288339834A835B8360FF0BC088276D
:100BF0009927DC01821B930BA40BB50B8883998387
:100C0000AA83BB83688179818A819B8122E030E05D
:100C100040E050E00E942526288339834A835B8385
:100C200004C0188219821A821B82249682E0C03383
:100C3000D80709F0BFCFE0902802F0902902009178
:100C40002A0210912B02E114F1040105110561F44F
:100C500080912C0290912D02A0912E02B0912F0232
:100C60000097A105B10561F020912C0230912D0271
:100C700040912E0250912F02C801B7010E947518B1
:100C800081E060E04AE00E944B019B01AC0180E002
:100C9000B9010E94AB1981E060E04AE00E944B017B
:100CA0009B01AC0181E0B9010E94AB19CC24DD2489
:100CB000F601EA5FFD4F80818952823008F048C01A
:100CC000EE2472E3672E72E0772E6C0C7D1C4601D9
:100CD00063E0880C991C6A95E1F736C0E401CE0DFB
:100CE000D11DFE01E85FFD4F808181FD2CC081E0B8
:100CF00060E044E00E944B018E010C5B1D4FF80147
:100D0000608381E060E044E00E944B01FE01EC5A08
:100D1000FD4F6083FF2458018E0154E0000F111F26
:100D20005A95E1F70CC081E060E048E00E944B0179
:100D3000F801EF0DF11DEC59FD4F6083F394F501BF
:100D40008081F81680F3E394F3018081E81630F295
:100D50000894C11CD11CF2E0CF16D10409F0A8CF31
:100D6000DF91CF911F910F91FF90EF90DF90CF9087
:100D7000BF90AF909F908F907F906F900895EF926B
:100D8000FF920F931F9385E891E066E871E041E0E0
:100D900050E00E94F407809384018823A9F40E9404
:100DA0009321609364047093650480936604909328
:100DB000670410918601143019F40E94561888C0F7
:100DC000113009F085C016C0813009F081C00E9441
:100DD00093216093640470936504809366049093F8
:100DE000670410918601143019F40E94561869C0E6
:100DF000113011F580918501823009F069C080E0E1
:100E000060E00E94661280E00E94C3118A3F910553
:100E100080F490918701892F81508E3F50F4892F63
:100E20000E94C5081093860181E066E871E00E9487
:100E3000C2070E9439054CC0123029F40E94B70144
:100E40000E9439053EC0133089F40E94C6050E94F5
:100E5000F60388E192E06CE172E00E945A180E9469
:100E60005A0210938601809185012EC0153081F5BC
:100E700020918A0130E040E050E0542F432F322F80
:100E8000222780918901280F311D411D511DA90183
:100E9000332722279091880180E060918701860F97
:100EA000911DAA2797FDA095BA2F280F391F4A1F19
:100EB0005B1F20930E0130930F014093100150935C
:100EC00011011093860181E066E871E00E94C2077B
:100ED00080910E0190910F01A0911001B09111012C
:100EE0000097A105B105E9F00E94932120910E0120
:100EF00030910F014091100150911101E090640474
:100F0000F090650400916604109167042E0D3F1D5A
:100F1000401F511F261737074807590710F40E9432
:100F2000561880910602843219F480E00E94AD16B2
:100F300080910702843219F481E00E94AD161F915E
:100F40000F91FF90EF90089560E271EA87E090E0E2
:100F50000E94BC080E943F180E9491120895F999BE
:100F6000FECF72BD61BDF89A80B50895F999FECFA4
:100F70001FBA72BD61BD40BD0FB6F894FA9AF99AD6
:100F80000FBE0895CF93DF93482FA82FB0E0CDE692
:100F9000D4E0FB0104C08191A80FB11D89938E2F6D
:100FA000861B8417C0F3CD0190709093ED0480935D
:100FB000EC0480936B0440936C044E5F86E097E0F2
:100FC0006BE674E050E00E947425DF91CF910895A4
:100FD00004C086E097E00E94962486E097E00E9495
:100FE0006524892BB1F708956F927F928F929F921B
:100FF000AF92BF92CF92DF92EF92FF920F931F9327
:10100000CF93DF934C013B01EA010E9493215B01E6
:101010006C017E010027F7FC0095102F0FC0209770
:1010200069F00E9493216A197B098C099D096E154C
:101030007F058007910710F08EEF7CC086E097E077
:101040000E946524892B59F3FF2409C086E097E0AC
:101050000E946524F82E82E390E00E94FA210F2D71
:1010600010E086E097E00E9465240817190774F3E2
:1010700082E08F1520F00E94E8078CEF5BC0C0E093
:10108000D0E086E097E00E949624FE01E559FB4FF0
:1010900080832196CF15A8F360916B0490916C0426
:1010A00020916D04F40120838091EB04681721F0F6
:1010B000662311F08DEF3EC030E003501040201742
:1010C000310711F08AEF36C0260F311DEEE6F4E04D
:1010D0008DEFF80E4F2D50E04E0F5F1F03C0819132
:1010E000280F311DE417F507D1F730703093ED0468
:1010F0002093EC04892F90E08217930711F490E07D
:1011000012C086E097E060E071E00E94BA258BEFA4
:1011100011C0E92FF0E0D301AE0FBF1FE559FB4F1F
:1011200083818C939F5FF4018081981790F3862FC1
:10113000611181E0DF91CF911F910F91FF90EF90AE
:10114000DF90CF90BF90AF909F908F907F906F90E7
:1011500008958AE694E060E070E00E94AF07982F5F
:1011600081508E3F20F49093EB0481E008958EEF40
:101170008093EB0480E00895AB01BC0186E097E02A
:101180000E94DE230E94A90808951F93182F8AE663
:1011900094E060E070E00E94AF07811739F08AE6C2
:1011A00094E060E070E0412F0E94B6071093EB04DA
:1011B0001F910895582F823010F081E008954093D8
:1011C000F0048093110584E090E0052E02C0880FA2
:1011D000991F0A94E2F78093EE0480958093F104BE
:1011E000852F8E5F8093120521E030E0F90102C067
:1011F000EE0FFF1F8A95E2F7E093FD04052E02C073
:10120000220F331F0A94E2F72093FB04822F80956C
:101210008093EF045093F2042093FC046093000544
:1012200080E008950E94DA08882311F081E0089593
:1012300080911105882341F487B18A7F87B988B1ED
:101240008A7F88B980E0089587B1857F87B988B1A2
:10125000857F88B980E008956091F0046623A9F045
:10126000262F30E02150304080E090E00BC000009D
:10127000000000000000000000000000000000006E
:10128000000001968217930790F387B19091F104C3
:10129000892387B98091FD04482F50E020ED37E085
:1012A00086B190E084239523892B69F40000000027
:1012B00000000000000000000000000000002150BD
:1012C000304071F766C06623B9F42BC086B190E058
:1012D00084239523892B11F082E0089500000000FB
:1012E000000000000000000000000000000021508D
:1012F000304061F786E00895262F30E021503040DD
:1013000080E090E00BC00000000000000000000042
:101310000000000000000000000001968217930703
:1013200090F387B19091EF04892387B98091FC04F1
:10133000482F50E020ED37E086B190E084239523DC
:10134000892B71F400000000000000000000000084
:101350000000000000002150304071F784E0089543
:101360006623A9F0262F30E02150304080E090E045
:101370000BC00000000000000000000000000000A2
:1013800000000000000001968217930790F380E0B0
:10139000089587B19091EF04892387B98091FC0467
:1013A000482F50E020ED37E091CF582F87B1F091D2
:1013B000EE048F2B87B957FF05C087B19091EF04DA
:1013C000892304C087B19091FB04892B87B9409190
:1013D000F0044423A9F0242F30E02150304080E075
:1013E00090E00BC0000000000000000000000000C2
:1013F000000000000000000001968217930790F3A0
:1014000087B1E091F1048E2387B98091FD04682FA4
:1014100070E020ED37E086B190E086239723892B9A
:1014200069F400000000000000000000000000005F
:10143000000000002150304071F7CCC24423A9F0D5
:10144000242F30E02150304080E090E00BC00000BD
:10145000000000000000000000000000000000008C
:10146000000001968217930790F387B18F2B87B9FD
:1014700056FF05C087B19091EF04892304C087B15E
:101480009091FB04892B87B94423A9F0242F30E0E5
:101490002150304080E090E00BC0000000000000D0
:1014A00000000000000000000000000000000196A5
:1014B0008217930790F387B18E2387B920ED37E029
:1014C00086B190E086239723892B69F40000000001
:1014D000000000000000000000000000000021509B
:1014E000304071F777C24423A9F0242F30E0215017
:1014F000304080E090E00BC00000000000000000E1
:1015000000000000000000000000000001968217AB
:10151000930790F387B18F2B87B955FF05C087B12B
:101520009091EF04892304C087B19091FB04892B2B
:1015300087B94423A9F0242F30E02150304080E0C7
:1015400090E00BC000000000000000000000000060
:10155000000000000000000001968217930790F33E
:1015600087B18E2387B920ED37E086B190E08623DE
:101570009723892B69F400000000000000000000A0
:1015800000000000000000002150304071F722C22E
:101590004423A9F0242F30E02150304080E090E037
:1015A0000BC0000000000000000000000000000070
:1015B00000000000000001968217930790F387B1A6
:1015C0008F2B87B954FF05C087B19091EF04892311
:1015D00004C087B19091FB04892B87B94423A9F0FB
:1015E000242F30E02150304080E090E00BC000001C
:1015F00000000000000000000000000000000000EB
:10160000000001968217930790F387B18E2387B964
:1016100020ED37E086B190E086239723892B69F48B
:1016200000000000000000000000000000000000BA
:1016300000002150304071F7CDC14423A9F0242F80
:1016400030E02150304080E090E00BC0000000000E
:10165000000000000000000000000000000000008A
:1016600001968217930790F387B18F2B87B953FFA9
:1016700005C087B19091EF04892304C087B1909190
:10168000FB04892B87B94423A9F0242F30E0215093
:10169000304080E090E00BC000000000000000003F
:1016A000000000000000000000000000019682170A
:1016B000930790F387B18E2387B920ED37E086B189
:1016C00090E086239723892B69F400000000000036
:1016D0000000000000000000000000002150304029
:1016E00071F778C14423A9F0242F30E02150304015
:1016F00080E090E00BC0000000000000000000004F
:10170000000000000000000000000196821793070F
:1017100090F387B18F2B87B952FF05C087B19091A5
:10172000EF04892304C087B19091FB04892B87B90A
:101730004423A9F0242F30E02150304080E090E095
:101740000BC00000000000000000000000000000CE
:1017500000000000000001968217930790F387B104
:101760008E2387B920ED37E086B190E0862397235A
:10177000892B69F400000000000000000000000058
:101780000000000000002150304071F723C14423C5
:10179000A9F0242F30E02150304080E090E00BC0D1
:1017A0000000000000000000000000000000000039
:1017B0000000000001968217930790F387B18F2BEA
:1017C00087B951FF05C087B19091EF04892304C008
:1017D00087B19091FB04892B87B94423A9F0242F6A
:1017E00030E02150304080E090E00BC0000000006D
:1017F00000000000000000000000000000000000E9
:1018000001968217930790F387B18E2387B920ED55
:1018100037E086B190E086239723892B69F4000096
:1018200000000000000000000000000000000000B8
:101830002150304071F7CEC04423A9F0242F30E06E
:101840002150304080E090E00BC00000000000001C
:1018500000000000000000000000000000000196F1
:101860008217930790F387B18F2B87B950FF05C07C
:1018700087B19091EF04892304C087B19091FB0454
:10188000892B87B94423A9F0242F30E02150304020
:1018900080E090E00BC000000000000000000000AD
:1018A000000000000000000000000196821793076E
:1018B00090F387B18E2387B920ED37E086B190E0B1
:1018C00086239723892B69F40000000000000000A4
:1018D000000000000000000000002150304071F7BF
:1018E00079C04423A9F0242F30E02150304080E01B
:1018F00090E00BC0000000000000000000000000AD
:10190000000000000000000001968217930790F38A
:1019100087B18F2B87B987B19091EF04892387B95D
:101920004423A9F0242F30E02150304080E090E0A3
:101930000BC00000000000000000000000000000DC
:1019400000000000000001968217930790F387B112
:101950008E2387B920ED37E086B190E08623972368
:10196000892B69F400000000000000000000000066
:101970000000000000002150304071F72BC086B1FC
:101980006091F2044423A9F050E04150504020E01F
:1019900030E00CC00000000000000000000000006B
:1019A00000000000000000002F5F3F4F24173507A4
:1019B00088F390E002C0959587956A95E2F7282F05
:1019C000217087B18F2B87B987B19091FB04892B48
:1019D00087B901C022E0822F0895FF920F931F93D1
:1019E000CF93DF93482F8150803110F008E053C02F
:1019F000809100058E7F80930105A2E0B5E0FB0198
:101A000002C081918D938E2F861B8417D0F3F42E04
:101A1000F394F092FE0487B19091FB04892B87B96F
:101A20008091F0048823A9F0282F30E02150304025
:101A300080E090E00BC0000000000000000000000B
:101A400000000000000000000000019682179307CC
:101A500090F3C1E0D5E010E017C089910E94D5094C
:101A6000082F882381F0813019F40E942C0911C0BD
:101A700087B19091F104892387B987B19091EF04E0
:101A8000892387B906C01F5F1F1538F30E942C09F0
:101A9000082F1092FE04802FDF91CF911F910F919C
:101AA000FF900895DF92EF92FF920F931F93CF93D1
:101AB000DF93EC01D62E87B1A091EE048A2B87B973
:101AC00087B19091EF04892387B987B18A2B87B9B1
:101AD0004091F0044423A9F0242F30E021503040FD
:101AE00080E090E00BC0000000000000000000005B
:101AF000000000000000000000000196821793071C
:101B000090F387B1B091F1048B2387B98091FD04E4
:101B1000E82FF0E020ED37E086B190E08E239F23A0
:101B2000892B69F4000000000000000000000000A4
:101B30000000000000002150304071F7EFC286B174
:101B40007091F20490E0072E02C0959587950A9453
:101B5000E2F7EE24E394E822E092F3044423A9F0B0
:101B6000242F30E02150304080E090E00BC0000096
:101B70000000000000000000000000000000000065
:101B8000000001968217930790F387B18A2B87B9DB
:101B90004423A9F0242F30E02150304080E090E031
:101BA0000BC000000000000000000000000000006A
:101BB00000000000000001968217930790F387B1A0
:101BC0008B2387B920ED37E086B190E08E239F23E9
:101BD000892B69F4000000000000000000000000F4
:101BE0000000000000002150304071F797C286B11C
:101BF00090E0072E02C0959587950A94E2F7FF249E
:101C0000F394F822F092F4044423A9F0242F30E056
:101C10002150304080E090E00BC000000000000048
:101C2000000000000000000000000000000001961D
:101C30008217930790F387B18A2B87B94423A9F0C1
:101C4000242F30E02150304080E090E00BC00000B5
:101C50000000000000000000000000000000000084
:101C6000000001968217930790F387B18B2387B901
:101C700020ED37E086B190E08E239F23892B69F415
:101C80000000000000000000000000000000000054
:101C900000002150304071F741C286B190E0072E1C
:101CA00002C0959587950A94E2F7082F017000937A
:101CB000F5044423A9F0242F30E02150304080E087
:101CC00090E00BC0000000000000000000000000D9
:101CD000000000000000000001968217930790F3B7
:101CE00087B18A2B87B94423A9F0242F30E02150F3
:101CF000304080E090E00BC00000000000000000D9
:101D000000000000000000000000000001968217A3
:101D1000930790F387B18B2387B920ED37E086B125
:101D200090E08E239F23892B69F4000000000000BF
:101D300000000000000000000000000021503040C2
:101D400071F7ECC186B190E0072E02C0959587959A
:101D50000A94E2F7182F11701093F6044423A9F0A7
:101D6000242F30E02150304080E090E00BC0000094
:101D70000000000000000000000000000000000063
:101D8000000001968217930790F387B18A2B87B9D9
:101D90004423A9F0242F30E02150304080E090E02F
:101DA0000BC0000000000000000000000000000068
:101DB00000000000000001968217930790F387B19E
:101DC0008B2387B920ED37E086B190E08E239F23E7
:101DD000892B69F4000000000000000000000000F2
:101DE0000000000000002150304071F797C186B11B
:101DF00090E0072E02C0959587950A94E2F7682F28
:101E000061706093F7044423A9F0242F30E021503F
:101E1000304080E090E00BC00000000000000000B7
:101E20000000000000000000000000000196821782
:101E3000930790F387B18A2B87B94423A9F0242F05
:101E400030E02150304080E090E00BC00000000006
:101E50000000000000000000000000000000000082
:101E600001968217930790F387B18B2387B920EDF2
:101E700037E086B190E08E239F23892B69F4000020
:101E80000000000000000000000000000000000052
:101E90002150304071F742C186B190E0072E02C058
:101EA000959587950A94E2F7582F51705093F8044E
:101EB0004423A9F0242F30E02150304080E090E00E
:101EC0000BC0000000000000000000000000000047
:101ED00000000000000001968217930790F387B17D
:101EE0008A2B87B94423A9F0242F30E021503040B9
:101EF00080E090E00BC00000000000000000000047
:101F00000000000000000000000001968217930707
:101F100090F387B18B2387B920ED37E086B190E04D
:101F20008E239F23892B69F400000000000000002D
:101F3000000000000000000000002150304071F758
:101F4000EDC086B190E0072E02C0959587950A9462
:101F5000E2F781708093F9044423A9F0242F30E044
:101F60002150304080E090E00BC0000000000000F5
:101F700000000000000000000000000000000196CA
:101F80008217930790F387B18A2B87B94423A9F06E
:101F9000242F30E02150304080E090E00BC0000062
:101FA0000000000000000000000000000000000031
:101FB000000001968217930790F387B18B2387B9AE
:101FC00020ED37E086B190E08E239F23892B69F4C2
:101FD0000000000000000000000000000000000001
:101FE00000002150304071F799C086B190E002C0E6
:101FF000959587957A95E2F7782F71707093FA042A
:102000004423A9F0242F30E02150304080E090E0BC
:102010000BC00000000000000000000000000000F5
:1020200000000000000001968217930790F387B12B
:102030008A2B87B9DD2029F087B19091FB04892B89
:1020400087B94423A9F0242F30E02150304080E0AC
:1020500090E00BC000000000000000000000000045
:10206000000000000000000001968217930790F323
:1020700087B18B2387B98091F904880F872B550F7F
:10208000550F582B660F660F660F652B1295107F44
:10209000162B0295000F007E012BF294FF0CFF0C13
:1020A00080ECF822F02AE794EE24E794EF28E88207
:1020B00020ED37E086B190E08E239F23892B69F4D1
:1020C0000000000000000000000000000000000010
:1020D00000002150304071F721C04423A9F0242F83
:1020E00030E02150304080E090E00BC00000000064
:1020F00000000000000000000000000000000000E0
:1021000001968217930790F387B18A2B87B987B11D
:102110009091FB04892B87B980E001C082E0DF91B8
:10212000CF911F910F91FF90EF90DF9008955F92F4
:102130006F927F928F929F92AF92BF92CF92DF92D7
:10214000EF92FF920F931F93DF93CF930F92CDB730
:10215000DEB7F82E862E572E982E9A948FE089158A
:1021600018F428E0E22E7AC0F394F092FE04FA9478
:10217000F092FF048091000581608093010592E058
:10218000A92E95E0B92EF501CF2CDD24CA0CDB1C5D
:1021900001C01192EC15FD05E1F787B19091FB04A8
:1021A000892B87B98091F0048823A9F0282F30E08B
:1021B0002150304080E090E00BC0000000000000A3
:1021C0000000000000000000000000000000019678
:1021D0008217930790F3809101050E94D509E82E9C
:1021E000882339F400E010E03E010894611C711C62
:1021F00020C00E942C091092FE0430C0C301692D3A
:102200000E94520DE82E0F5F1F4F9A9491E098178D
:1022100058F487B19091F104892387B987B19091DF
:10222000EF04892387B91AC0F801EF5FFA4F89815B
:1022300080830F1518F30E942C09E82E1092FE04DB
:102240001092FF04882D952D9C01F90104C0D50141
:102250008D915D018193AC14BD04C9F78E2D0F9053
:10226000CF91DF911F910F91FF90EF90DF90CF9072
:10227000BF90AF909F908F907F906F905F900895E8
:10228000AF92BF92CF92EF92FF920F931F93122FB4
:102290000E94DA08882309F06DC0002339F0802FEE
:1022A000B7010E94ED0C882309F064C0CC2011F422
:1022B00081E061C0112309F453C087B19091EE040D
:1022C000892B87B96091F0046623A9F0262F30E0AE
:1022D0002150304080E090E00BC000000000000082
:1022E0000000000000000000000000000000019657
:1022F0008217930790F387B19091F104892387B9EE
:102300008091FD04482F50E020ED37E086B190E049
:1023100084239523892B69F400000000000000004D
:10232000000000000000000000002150304071F764
:1023300021C06623A9F0262F30E02150304080E0F4
:1023400090E00BC000000000000000000000000052
:10235000000000000000000001968217930790F330
:102360008C2DB5010E949710982F811191E081E08A
:10237000892701C080E01F910F91FF90EF90CF90CF
:10238000BF90AF9008958A5F883018F020E030E069
:1023900016C0877080937C0080917A00806480935F
:1023A0007A0080917A0086FDFCCF309178002091F0
:1023B0007900922F80E0232F30E0282B392BC901A0
:1023C0000895883018F020E030E016C087708093C0
:1023D0007C0080917A00806480937A0080917A00FA
:1023E00086FDFCCF3091780020917900922F80E01B
:1023F000232F30E0282B392BC9010895382F66236D
:1024000061F027B184E090E0032E02C0880F991F8D
:102410000A94E2F7282B27B90CC027B184E090E09A
:10242000032E02C0880F991F0A94E2F78095822339
:1024300087B9442359F028B184E090E002C0880FA6
:10244000991F3A95E2F7282B28B9089528B184E01E
:1024500090E002C0880F991F3A95E2F78095822399
:1024600088B90895382F662361F027B181E090E0A4
:10247000032E02C0880F991F0A94E2F7282B27B970
:102480000CC027B181E090E0032E02C0880F991F95
:102490000A94E2F78095822387B9442359F028B142
:1024A00081E090E002C0880F991F3A95E2F7282B4F
:1024B00028B9089528B181E090E002C0880F991FE3
:1024C0003A95E2F78095822388B908950F931F9378
:1024D000082F162F823010F080E020C06170412F4D
:1024E00048700E94FE11612F6270412F4071802F51
:1024F0000E9432122AB180E490E002C0880F991F36
:102500000A95E2F7982F282B2AB912FF03C08BB146
:10251000982B03C08BB1909598239BB91F910F9175
:102520000895EAE7F0E080818E7F808380818D7F4F
:10253000808380818B7F80838081846080838081A1
:102540008160808380818068808380E060E00E9479
:10255000661281E060E00E9466120895AF92BF9219
:10256000CF92EF92FF920F9392E49093130562E063
:1025700047E021E001E053E1E52E55E0F52ECC24C3
:10258000C39457010E944011882311F080911305D4
:102590000F91FF90EF90CF90BF90AF9008951F9351
:1025A000182F62E047E00E941209882311F080E0B2
:1025B00005C0812F64E00E94661281E01F9108959A
:1025C0006F927F928F929F92AF92BF92CF92DF9243
:1025D000EF92FF920F931F93CF93DF9380912B0580
:1025E000E82EFF24E70193E0CC0FDD1F9A95E1F779
:1025F000FE01E45CFA4F868097809401442737FD02
:102600004095542FFE01E05BFA4F80819181A281B9
:10261000B381281739074A075B0724F482E0682E44
:10262000712C10C066247724C45BDA4F88819981AD
:10263000AA81BB81281739074A075B071CF401E010
:10264000602E712CC70113E0880F991F1A95E1F7CE
:10265000BCE3AB2EB5E0BB2EA80EB91EE701CC0F34
:10266000DD1FCE0DDF1DC60DD71DF4E0CC0FDD1F25
:10267000FA95E1F7C45ADA4F8C01045D1A4FCC2465
:10268000DD24F501608171818616970688F468194A
:10269000790980E090E0288139814A815B810E943C
:1026A000BD25BC0188279927F8017183608303C089
:1026B000F801118210820894C11CD11C42E050E044
:1026C000A40EB51E24960E5F1F4F53E0C516D1040D
:1026D000C1F688E4881691041CF420E030E003C0C1
:1026E000940127543040870153E0000F111F5A9581
:1026F000E1F7045D1A4F84E690E0FC012E9FC001D3
:102700002F9F900D3E9F900D11246CE170E00E9470
:10271000F025882777FD8095982FF701EE0FFF1F92
:10272000EE0DFF1DE60DF71D34E0EE0FFF1F3A958D
:10273000E1F7E45AFA4F24853585468557850E948E
:10274000BD25BC0188279927F80177836683DF912F
:10275000CF911F910F91FF90EF90DF90CF90BF909E
:10276000AF909F908F907F906F900895CF93DF935D
:10277000E0912B05F0E073E0EE0FFF1F7A95E1F793
:10278000CF01845D9A4FDC014D915C91DF01A05D2A
:10279000BA4F0D90BC91A02DE25DFA4F0190F081EF
:1027A000E02DEC016E817F81A417B5070CF049C0C4
:1027B000E417F5070CF045C0413451050CF4EEC0A8
:1027C0006832710524F44E3651050CF4E7C0CD0192
:1027D00095958795959587959D013595279535957F
:1027E000279535952795820F931F8A0F9B1F8E176C
:1027F0009F073CF4CF01880F991F481759070CF425
:10280000CFC0CF01880F991F9F013595279535952A
:102810002795821B930B8417950714F485E0C7C096
:10282000A634B1050CF4BAC0E634F1050CF4B6C018
:102830006C3871050CF0B6C04C3851050CF4AEC0C4
:10284000B1C0AE17BF07CCF5E832F1050CF4A6C055
:102850006E31710524F4E634F1050CF49FC0CD010E
:10286000880F991F841795070CF49AC0CA01959593
:10287000879595958795840F951F8E179F070CF464
:1028800093C0CD0195958795959587958A0F9B1F48
:102890008E179F070CF488C0463451050CF47EC097
:1028A000A634B1050CF47AC06C3871050CF07AC00E
:1028B000EC38F1050CF472C075C0A033B1050CF40E
:1028C0006DC06931710524F4A535B1050CF466C0FD
:1028D00020E330E0429FC001439F900D529F900D36
:1028E0001124689414F8959587951694E1F78A1742
:1028F0009B0784F4E29FC001E39F900DF29F900D2F
:10290000112425E0959587952A95E1F78A179B076D
:102910000CF44CC02AE330E0429FC001439F900D6D
:10292000529F900D1124689414F8959587951694EC
:10293000E1F78A179B07D4F1E29FC001E39F900D56
:10294000F29F900D112425E0959587952A95E1F742
:102950008A179B075CF14C33510504F1EC33F10508
:10296000ECF06E3671051CF4A837B105BCF0CA0155
:1029700033E0959587953A95E1F7840F951F8A176F
:102980009B07A4F0CF0123E0959587952A95E1F761
:102990008E0F9F1F8A179B072CF408C081E007C089
:1029A00084E005C086E003C083E001C082E0DF91DF
:1029B000CF9108950F931F9327B130912B0504E019
:1029C00010E0C801032E02C0880F991F0A94E2F795
:1029D000282B27B928B1822B88B927B181E090E054
:1029E00002C0880F991F3A95E2F7282B27B928B122
:1029F000822B88B961E070E080E090E00E94A12124
:102A000027B1C80100902B0502C0880F991F0A94B6
:102A1000E2F7282B27B928B18095822388B961E095
:102A200070E080E090E00E94A12127B1C8010090F1
:102A30002B0502C0880F991F0A94E2F7282B27B9AB
:102A400028B1822B88B961E070E080E090E00E94BC
:102A5000A12187B100902B0502C0000F111F0A941D
:102A6000E2F7802B87B988B10095082308B964E69E
:102A700070E080E090E00E94A1211F910F910895E5
:102A8000CF92DF92EF92FF921F93CF93DF9310E0EC
:102A9000C0E0D0E0F4E0EF2EF12CE1E0CE2ED12C1E
:102AA00027B1C70100902B0502C0880F991F0A9417
:102AB000E2F7282B27B928B1822B88B988E090E06B
:102AC0000E94FA21169527B130912B05C601032EDD
:102AD00002C0880F991F0A94E2F78095822387B974
:102AE00086B190E0032E02C0959587950A94E2F78F
:102AF00080FD106887B1A70102C0440F551F3A95A9
:102B0000E2F79A01842B87B988B12095282328B948
:102B10002196C830D10521F6812FDF91CF911F91E9
:102B2000FF90EF90DF90CF900895AF92BF92CF9239
:102B3000DF92EF92FF920F931F93CF93DF9327B112
:102B400081E090E000902B0502C0880F991F0A9445
:102B5000E2F78095822387B9AA24BB244DC00E9446
:102B6000401520E030E02F5F3F4F28303105D9F786
:102B700090E0A0E0B0E00C2E04C0880F991FAA1FBF
:102B8000BB1F0A94D2F7E82AF92A0A2B1B2B289696
:102B9000C032D10521F780912B0590E0FC01EE0FAA
:102BA000FF1FE80FF91FEA0DFB1DEE0FFF1FEE0FD1
:102BB000FF1FEC0DFD1DEE0FFF1FEE0FFF1FE45A70
:102BC000FA4FE082F182028313830894C11CD11C66
:102BD00084E0C816D10431F0EE24FF248701C0E060
:102BE000D0E0BDCF0894A11CB11C83E0A816B104AD
:102BF00019F4CC24DD2437C0CC24DD24EDCF289675
:102C00000E94401520E030E02F5F3F4F2830310513
:102C1000D9F790E00C2E02C0880F991F0A94E2F7B2
:102C2000AA2797FDA095BA2FE82AF92A0A2B1B2B71
:102C3000C830D10521F7E0912B05F0E0EE0FFF1F22
:102C4000EC0DFD1DEE0FFF1FEE0FFF1FE45BFA4FB3
:102C5000E082F182028313830894C11CD11C82E0BC
:102C6000C816D10431F0EE24FF248701C0E0D0E083
:102C7000C7CF0E9440150E94401562E070E080E0DE
:102C800090E00E94A12181E0DF91CF911F910F91EF
:102C9000FF90EF90DF90CF90BF90AF900895CF92CC
:102CA000DF92EF92FF920F931F93CF93DF93582FF2
:102CB00000E010E064E0E62EF12C41E0C42ED12CBF
:102CC00047B120912B05C701022E02C0880F991F22
:102CD0000A94E2F7482B47B948B1842B88B987B1E9
:102CE000B60102C0660F771F2A95E2F79B01862B7B
:102CF00087B9C52FD0E050FF03C088B1282B03C08F
:102D000088B12095282328B98EE190E00E94FA210D
:102D100087B1970100902B0502C0220F331F0A9440
:102D2000E2F7822B87B988B12095282328B98EE154
:102D300090E00E94FA210F5F1F4F0830110521F02B
:102D4000D595C7955C2FBCCFDF91CF911F910F9187
:102D5000FF90EF90DF90CF9008950F931F938230F4
:102D600008F048C080932B0527B104E010E0A801CB
:102D700002C0440F551F8A95E2F7CA01242B27B9D8
:102D800028B1822B88B984E190E00E94FA2127B112
:102D9000C80100902B0502C0880F991F0A94E2F722
:102DA000282B27B928B18095822388B984E190E047
:102DB0000E94FA2127B1C80100902B0502C0880F9C
:102DC000991F0A94E2F7282B27B928B1822B88B9DA
:102DD00084E190E00E94FA2187B100902B0502C0A7
:102DE000000F111F0A94E2F7802B87B988B1009574
:102DF000082308B91F910F9108951F93162F823051
:102E0000D8F480932B05E82FF0E0EE0FFF1FE45479
:102E1000FA4F608311820E94DA14812F0E944F16AC
:102E200080E89CE00E94FA210E94951568E770E016
:102E300080E090E00E94A1211F91089580912B05D0
:102E40000E94E11122E330E0AC01429FC001439FA8
:102E5000900D529F900D112461E270E00E94DC25DC
:102E6000CB0108950F931F93CF93DF93823018F017
:102E7000A0E0B0E0FEC080932B0527B1C82FD0E0C2
:102E800081E090E00C2E02C0880F991F0A94E2F7AF
:102E90008095282327B928B1822388B9FE01EE0F37
:102EA000FF1FE454FA4F008111810D30110509F024
:102EB000B7C00E941E17F3E0CC0FDD1FFA95E1F7B3
:102EC000C55EDA4F9F838E8327B104E010E0C8010E
:102ED00000902B0502C0880F991F0A94E2F7282B57
:102EE00027B928B1822B88B984E190E00E94FA21A9
:102EF00080912B05C82FD0E00E941E17E3E0CC0F75
:102F0000DD1FEA95E1F7C55EDA4F9983888327B123
:102F1000C80100902B0502C0880F991F0A94E2F7A0
:102F2000282B27B928B18095822388B984E190E0C5
:102F30000E94FA2180912B05C82FD0E00E941E1715
:102F400073E0CC0FDD1F7A95E1F7C35EDA4F99830A
:102F5000888327B1C80100902B0502C0880F991FF4
:102F60000A94E2F7282B27B928B1822B88B984E18B
:102F700090E00E94FA2180912B05C82FD0E00E949A
:102F80001E1763E0CC0FDD1F6A95E1F7C15EDA4FD3
:102F90009983888387B1A0912B05B0E00A2E02C0E7
:102FA000000F111F0A94E2F7802B87B988B10095B2
:102FB000082308B9FD0153E0EE0FFF1F5A95E1F712
:102FC0009F01245C3A4FE55EFA4F86819781E901C3
:102FD0009F838E83808191819983888343E0AA0FA8
:102FE000BB1F4A95E1F7FD013296CF01855E9A4FEE
:102FF000EC0188819981E45CFA4F91838083149677
:10300000FD01E55EFA4F80819181A45CBA4F8D93FA
:103010009C930E94E0120E94B613A82FB0E029C032
:103020000E941E17CC0FDD1FCC0FDD1FC00FD11F5C
:10303000CC0FDD1FC150DB4F99838883E0912B05B6
:10304000F0E0EE0FFF1FDF01A454BA4F8D919C9169
:103050000E97EE0FFF1FE80FF91FEE0FFF1FDF01A6
:10306000A55EBA4F0D90BC91A02DE45CFA4FB183E0
:10307000A083CD01DF91CF911F910F9108958AB167
:10308000837C8AB98BB1837C8BB9EDE6F0E08081DB
:103090008C638083E8E6F0E080818460808385B182
:1030A000807C85B984B18F6384B9089585B1807CB3
:1030B00085B90895FC018091CB059091CC05A09134
:1030C000CD05B091CE0580839183A283B383809197
:1030D000CF059091D005A091D105B091D205FB010B
:1030E00080839183A283B3830895EF92FF920F931D
:1030F0001F93E090CB05F090CC050091CD05109189
:10310000CE05E61AF70A080B190BE092CB05F092F0
:10311000CC050093CD051093CE058091CF059091FD
:10312000D005A091D105B091D205821B930BA40BC1
:10313000B50B8093CF059093D005A093D105B093A4
:10314000D2051F910F91FF90EF9008951F920F925B
:103150000FB60F9211242F933F934F935F936F936A
:103160007F938F939F93AF93BF93EF93FF9399B107
:103170008091C80589279093C8058C73682F70E0EB
:10318000CB0184719070892BA9F13091C90529B1C7
:1031900089B12695227090E0B4E095958795BA950F
:1031A000E1F78170282B330F330F322B3F703093B0
:1031B000C9052091CB053091CC054091CD055091AA
:1031C000CE05E091C905F0E0EE0FFF1FED5BFE4F6D
:1031D00080819181AA2797FDA095BA2F820F931F16
:1031E000A41FB51F8093CB059093CC05A093CD056C
:1031F000B093CE0568727070672BB1F13091CA053B
:1032000029B189B126952695227090E075E09595B3
:1032100087957A95E1F78170282B330F330F322B86
:103220003F703093CA052091CF053091D005409171
:10323000D1055091D205E091CA05F0E0EE0FFF1FD5
:10324000ED5BFE4F80819181AA2797FDA095BA2F53
:10325000820F931FA41FB51F8093CF059093D005B5
:10326000A093D105B093D205FF91EF91BF91AF919B
:103270009F918F917F916F915F914F913F912F918E
:103280000F900FBE0F901F901895CF93DF93EC0116
:103290000E9493219E01369527953695279540915A
:1032A000D3055091D4056093C4057093C5058093F0
:1032B000C6059093C705C1FF07C08091D3059091C3
:1032C000D40581FF07C00CC08091D3059091D4052F
:1032D00081FF06C0D093D405C093D30520E004C07D
:1032E000D093D405C093D305822FDF91CF91089559
:1032F000CF93DF93EC010E9493219E013695279591
:10330000369527954091D5055091D6056093C00517
:103310007093C1058093C2059093C305C1FF07C098
:103320008091D5059091D60581FF07C00CC0809192
:10333000D5059091D60581FF06C0D093D605C093E0
:10334000D50520E004C0D093D605C093D505822FC3
:10335000DF91CF9108950F931F93CF93DF93EB01EC
:10336000882329F5CB010E947819682F8E010170FE
:103370001070C0FF0CC0C1FF03C028982C9A02C077
:10338000289A2C988AE070E00E94612202C0289A54
:103390002C9ACC7FD370CD2B11F0002371F58AE0ED
:1033A00060E070E00E946122289A2C9A26C0813049
:1033B00021F5CB010E944519682F8E010170107014
:1033C000C0FF0CC0C1FF03C0299A2D9802C02998E4
:1033D0002D9A8BE070E00E94612202C0299A2D9AFA
:1033E000CC7FD370CD2B11F0002339F48BE060E05B
:1033F00070E00E946122299A2D9ADF91CF911F914E
:103400000F9108950F931F93CF93DF93FC01738D5A
:1034100076957170A685B7859585772329F08C916F
:10342000892309F454C004C08C91892309F04FC04A
:103430008389948920E001972FEF8F3F9207D9F776
:10344000C589D689A685B785158560E031E040E05D
:1034500050E000E0CE01202F01972FEF8F3F920721
:10346000D9F78C91812311F0632B03C0832F8095B2
:103470006823330F4F5F5F4F4830510559F78789F5
:10348000908D20E001972FEF8F3F9207D9F77111B0
:1034900060958091190620911A0690E001968F732D
:1034A000907030E08217930779F0E0911906F0E010
:1034B000E752FA4F60838091190690E001968F736E
:1034C00090708093190603C0838D8160838FDF9194
:1034D000CF911F910F9108951F920F920FB60F92E7
:1034E00011242F933F934F935F936F937F938F9309
:1034F0009F93AF93BF93EF93FF938091D7059091E4
:10350000D805009711F00E94021AFF91EF91BF9128
:10351000AF919F918F917F916F915F914F913F916B
:103520002F910F900FBE0F901F9018951F920F9222
:103530000FB60F9211242F933F934F935F936F9386
:103540007F938F939F93AF93BF93EF93FF9380915C
:10355000D7059091D805009711F00E94021AFF91AB
:10356000EF91BF91AF919F918F917F916F915F91FB
:103570004F913F912F910F900FBE0F901F90189574
:10358000CF92DF92EF92FF920F931F93CF93DF932F
:10359000EC017A018B011A8E198E188E1F8A1E8AF1
:1035A0001D8A1C8A1B8A20E030E06901CC0CDD1CDE
:1035B000C20ED31EB601660F771F660F771FAB01D1
:1035C00040555F4FFA0185919591A591B4918E1563
:1035D0009F05A007B107E9F4FB01EC54FF4F85916B
:1035E00094919C8B8B8BFB01EA54FF4F85919491B6
:1035F0009E8B8D8BFB01E854FF4F85919491988FA2
:103600008F8BFB01E654FF4F859194919A8F898FA0
:1036100006C02F5F3F4F2D30310509F0C6CF8F898F
:10362000988D892B09F449C04C85463108F03DC07E
:1036300090916800483010F484E005C04E3010F0DE
:1036400082E001C081E0892B80936800483028F433
:10365000EDE6F0E0ADE6B0E00BC04E3028F0ECE671
:10366000F0E0ACE6B0E004C0EBE6F0E0ABE6B0E0E2
:103670005081483040F481E090E002C0880F991FEB
:103680004A95E2F710C0242F30E04E3018F428504D
:10369000304002C02E50304081E090E002C0880FE0
:1036A000991F2A95E2F7852B8C93898D9A8D20E0BE
:1036B00001972FEF8F3F9207D9F78091D70590910F
:1036C000D8058C179D0781F08B8D8E7F8B8F9FB7D0
:1036D000F894109219068091190680931A06D093D7
:1036E000D805C093D7059FBFDF91CF911F910F9150
:1036F000FF90EF90DF90CF900895FC014485463114
:1037000080F5483028F4EDE6F0E0ADE6B0E00BC01F
:103710004E3028F4EBE6F0E0ABE6B0E004C0ECE6B7
:10372000F0E0ACE6B0E05081483040F481E090E059
:1037300002C0880F991F4A95E2F710C0242F30E08D
:103740004E3018F42850304002C02E50304081E0F6
:1037500090E002C0880F991F2A95E2F78095852393
:103760008C930895FC0187E691E091838083CF01DB
:103770000E947D1B08952091D7053091D805281708
:10378000390731F490911A0680911906981719F4A7
:103790002FEF3FEF0FC0E0911A06F0E0E752FA4F2B
:1037A000208180911A0690E001968F73907080932B
:1037B0001A0630E0C90108952091D7053091D80547
:1037C0002817390719F020E030E00EC08091190663
:1037D00020911A0690E0805C9F4F821B910960E463
:1037E00070E00E94F0259C01C90108950F931F937A
:1037F000DC0159968D919C915A97892B49F481E06F
:1038000090E013969C938E93129720E030E097C03F
:103810000FB7F8945B968C915B975196ED91FC9164
:10382000529750962C91509781FF8DC08081822BAA
:10383000808359968D919C915A97059620E0019727
:103840002FEF8F3F9207D9F75B968C915B9781FFA3
:1038500035C031E040E050E070E010E0832F90E0B0
:10386000862397235196ED91FC91529750962C9177
:103870005097892B29F0808120952823208303C02D
:103880008081822B808359968D919C915A97212F0C
:1038900001972FEF8F3F9207D9F7330F4F5F5F4F9D
:1038A00048305105D9F65196ED91FC91529790818F
:1038B00050968C9150978095892333C031E040E039
:1038C00050E070E010E0832F90E08623972351961C
:1038D000ED91FC91529750962C915097892B21F0A5
:1038E0008081822B808304C08081209528232083BF
:1038F00059968D919C915A97212F01972FEF8F3FC9
:103900009207D9F7330F4F5F5F4F48305105D9F613
:103910005196ED91FC915297808150969C915097D1
:10392000892B80830FBF59968D919C915A9720E0E7
:1039300001972FEF8F3F9207D9F721E030E0C901BF
:103940001F910F910895808120952823208371CFA6
:103950002091D7053091D8052817390749F49FB72A
:10396000F894109219068091190680931A069FBF49
:1039700008952091D7053091D8052817390731F4DB
:1039800090911A0680911906981719F42FEF3FEFBE
:103990000AC0E0911A06F0E0E752FA4F8081282F22
:1039A000332727FD3095C90108951F93CF93DF93E7
:1039B000EC01162F862F60E00E94C1228B8D81FDC5
:1039C00004C0812F61E00E9400231C87212F30E07A
:1039D000C90182589E4FFC0184918D8726593E4F24
:1039E000F9016491E62FF0E0EE0FFF1FE05AFE4F61
:1039F000859194919F878E87DF91CF911F91089534
:103A0000FF920F931F938C01F62E862F61E00E9488
:103A1000C1228F2D61E00E9400238F2D90E0FC01D8
:103A2000E258FE4FE491D8015096EC935097865996
:103A30009E4FFC016491E62FF0E0EE0FFF1FEA5A63
:103A4000FE4F8591949152969C938E9351971F911E
:103A50000F91FF900895FF920F931F938C01F62E04
:103A6000FC011382128288EE93E0A0E0B0E0848330
:103A70009583A683B78387E691E091838083148A38
:103A8000138A168A158A108E178A128E118E838DCC
:103A90002170220F8C7F822B838FC801642F0E949C
:103AA000001DC8016F2D0E94D51C1F910F91FF9022
:103AB000089510926B0610926A0610926D0610928D
:103AC0006C061092670610926606109269061092B4
:103AD000680680E00895882369F586E080937C007D
:103AE00080917A00806480937A0080917A0086FDCC
:103AF000FCCF8091780060917900E0E0F0E0362F13
:103B000020E090E0282B392B40E050E02059314054
:103B10004040504014F4E1E0F0E080916A0690915A
:103B20006B068E179F0709F43DC0F0936B06E09378
:103B30006A0632C0813029F02FEF3FEF4FEF5FEF81
:103B400036C087E080937C0080917A008064809307
:103B50007A0080917A0086FDFCCF80917800609198
:103B60007900E0E0F0E0362F20E090E0282B392BC0
:103B700040E050E0205931404040504014F4E1E032
:103B8000F0E080916806909169068E179F0751F0CA
:103B9000F0936906E09368069C01442737FD409541
:103BA000542F05C09F01442737FD4095542FB9017C
:103BB000CA0108958130910591F46F5F7F4FE1F460
:103BC0008BE196E06EE040E120E00E942B1D87E350
:103BD00096E06FE041E120E00E942B1D0895892BC3
:103BE00059F46F5F7F4F41F487E396E00E94B21B68
:103BF0008BE196E00E94B21B089580E090E06FEFA9
:103C00007FEF0E94DA1D089581E090E06FEF7FEF73
:103C10000E94DA1D08958823B1F48EE00E943F22AD
:103C200060E070E08D5F934014F061E070E080919F
:103C30006606909167068617970739F170936706B5
:103C4000609366061CC0813029F02FEF3FEF4FEFE5
:103C50005FEF20C08FE00E943F2260E070E08D5F48
:103C6000934014F061E070E08091680690916906DD
:103C70008617970751F070936906609368069C0158
:103C8000442737FD4095542F05C09B01442737FD3D
:103C90004095542FB901CA010895EF92FF920F93F6
:103CA0001F93CF93DF938823A9F4EE24FF24870189
:103CB000C0E0D0E08EE00E943F22AA2797FDA095A9
:103CC000BA2FE80EF91E0A1F1B1F2196C431D10519
:103CD00089F71BC0813029F02FEF3FEF4FEF5FEFE7
:103CE00020C0EE24FF248701C0E0D0E08FE00E94D6
:103CF0003F22AA2797FDA095BA2FE80EF91E0A1FAA
:103D00001B1F2196C431D10589F7C801B70124E1F1
:103D100030E040E050E00E942526C901DA019C0114
:103D2000AD01B901CA01DF91CF911F910F91FF90B1
:103D3000EF900895EF92FF920F931F93CF93DF932D
:103D4000882309F085C08BE196E062E00E94F61BB3
:103D50008BE196E00E94DC1B892B09F476C08BE195
:103D600096E00E94BB1B282F80935306807C803CEA
:103D700009F06BC0109271061092720610927306D1
:103D800010927406F22EF094EE244DC0CE2DD0E0A9
:103D90008BE196E00E94BB1BFE01EC5AF94F808339
:103DA00080916F06882311F4A0E005C08BE196E0B6
:103DB0000E94BB1BA82FFE01E45AF94FA083CC5AE6
:103DC000D94FE881209171063091720640917306B7
:103DD0005091740680916F06882319F468E070E0B2
:103DE00002C060E170E0FE26FA2604C0220F331FF5
:103DF000441F551F6A95D2F71A2F00E08E2F90E0CE
:103E0000802B912BAA2797FDA095BA2F282B392B11
:103E10004A2B5B2B209371063093720640937306F6
:103E200050937406E39480916406E81608F4AECFCC
:103E30008BE196E00E94BB1B2F2D30E08217930789
:103E400009F48BC08BE196E093C08BE196E099C0BA
:103E5000813029F02AEF3FEF4FEF5FEF99C087E302
:103E600096E062E00E94F61B87E396E00E94DC1B6E
:103E7000892B09F484C087E396E00E94BB1B282F9E
:103E800080935306807C803C09F079C010927106C3
:103E9000109272061092730610927406F22EF0942D
:103EA000EE244DC0CE2DD0E087E396E00E94BB1BF0
:103EB000FE01EC5AF94F808380917006882311F43B
:103EC000A0E005C087E396E00E94BB1BA82FFE017F
:103ED000E45AF94FA083CC5AD94FE881209171065A
:103EE000309172064091730650917406809170066D
:103EF000882319F468E070E002C060E170E0FE26FB
:103F0000FA2604C0220F331F441F551F6A95D2F7AB
:103F10001A2F00E08E2F90E0802B912BAA2797FD7F
:103F2000A095BA2F282B392B4A2B5B2B2093710697
:103F3000309372064093730650937406E394809115
:103F40006506E81608F4AECF87E396E00E94BB1B37
:103F50002F2D30E08217930749F42091710630919C
:103F60007206409173065091740612C087E396E082
:103F70000E94A81C2EEF3FEF4FEF5FEF09C087E3D1
:103F800096E062E00E94F61B2CEF3FEF4FEF5FEFF1
:103F9000B901CA01DF91CF911F910F91FF90EF906E
:103FA00008950F931F93882309F0ADC03A9A38986B
:103FB000623318F4162F1B5210C0683318F4162FF2
:103FC00012530BC06D3318F4162F185306C0633408
:103FD00010F010E002C0162F1D53E62FF0E0BB9743
:103FE000DF01AE5EBE4F8C9180936F06E65DFE4FA3
:103FF0008081809364068BE196E040E659E060E0C2
:1040000070E00E94C01A8BE196E064E00E94F61B0B
:1040100010926E0601E057C08BE196E00E94DC1B17
:10402000892B09F450C08BE196E00E94BB1B0497DA
:1040300009F049C061E070E080E090E00E94A121B9
:104040008BE196E064E00E94F61B61E070E080E0A6
:1040500090E00E94A1218BE196E064E00E94F61BB3
:104060008BE196E00E947D1B8BE196E00E94A81CEC
:104070008BE196E040E051EE60E070E00E94C01AF3
:104080006AE070E080E090E00E94A1218BE196E080
:104090000E94BB1B807C9070803C910541F48BE1B9
:1040A00096E062E00E94F61B00936E060CC08BE166
:1040B00096E00E947D1B8BE196E040E659E060E0CF
:1040C00070E00E94C01A80916E06882309F4A4CF84
:1040D0008BE196E062E00E94F61B112389F08BE1F0
:1040E00096E063E40E94F61B8BE196E0612F0E944C
:1040F000F61B8CEB18278BE196E0612F0E94F61BD4
:104100008BE196E0ACC03B9A3998623318F4162FD5
:104110001B5210C0683318F4162F12530BC06D33A6
:1041200018F4162F185306C0633410F010E002C0C4
:10413000162F1D53E62FF0E0BB97DF01AE5EBE4F9A
:104140008C9180937006E65DFE4F808180936506BA
:1041500087E396E040E659E060E070E00E94C01A14
:1041600087E396E064E00E94F61B10926E0601E081
:1041700057C087E396E00E94DC1B892B09F450C0EE
:1041800087E396E00E94BB1B049709F049C061E0F9
:1041900070E080E090E00E94A12187E396E064E077
:1041A0000E94F61B61E070E080E090E00E94A12197
:1041B00087E396E064E00E94F61B87E396E00E94A6
:1041C0007D1B87E396E00E94A81C87E396E040E011
:1041D00051EE60E070E00E94C01A6AE070E080E09A
:1041E00090E00E94A12187E396E00E94BB1B807CA7
:1041F0009070803C910541F487E396E062E00E9474
:10420000F61B00936E060CC087E396E00E947D1BB0
:1042100087E396E040E659E060E070E00E94C01A53
:1042200080916E06882309F4A4CF87E396E062E0CC
:104230000E94F61B112389F087E396E063E40E9455
:10424000F61B87E396E0612F0E94F61B8CEB182784
:1042500087E396E0612F0E94F61B87E396E062E019
:104260000E94F61B80E01F910F9108950F931F93FA
:104270000BE116E0C8010E94A81CC8010E947D1B2A
:1042800007E316E0C8010E94A81CC8010E947D1B1C
:104290001F910F9108951F920F920FB60F92112444
:1042A0002F933F938F939F93AF93BF938091790602
:1042B00090917A06A0917B06B0917C0630917D06A4
:1042C0000196A11DB11D232F2D5F2D3720F02D57F5
:1042D0000196A11DB11D20937D06809379069093D0
:1042E0007A06A0937B06B0937C0680917506909128
:1042F0007606A0917706B09178060196A11DB11DB2
:104300008093750690937606A0937706B09378060F
:10431000BF91AF919F918F913F912F910F900FBEC1
:104320000F901F9018958FB7F894209179063091CF
:104330007A0640917B0650917C068FBFB901CA0175
:1043400008959B01AC017FB7F89480917506909118
:104350007606A0917706B091780666B5A89B05C051
:104360006F3F19F00196A11DB11D7FBFBA2FA92F74
:10437000982F8827860F911DA11DB11D62E0880F1F
:10438000991FAA1FBB1F6A95D1F7BC012DC0FFB7AB
:10439000F8948091750690917606A0917706B09179
:1043A0007806E6B5A89B05C0EF3F19F00196A11D60
:1043B000B11DFFBFBA2FA92F982F88278E0F911DEF
:1043C000A11DB11DE2E0880F991FAA1FBB1FEA952E
:1043D000D1F7861B970B885E9340C8F2215030407E
:1043E0004040504068517C4F211531054105510531
:1043F00071F60895019739F0880F991F880F991F5A
:1044000002970197F1F70895789484B5826084BD8E
:1044100084B5816084BD85B5826085BD85B58160C8
:1044200085BDEEE6F0E0808181608083E1E8F0E028
:104430001082808182608083808181608083E0E857
:10444000F0E0808181608083E1EBF0E08081846036
:104450008083E0EBF0E0808181608083EAE7F0E038
:10446000808184608083808182608083808181609C
:1044700080838081806880831092C1000895982F86
:104480008E3008F09E509770809142018295880F7F
:10449000880F807C892B80937C0080917A008064D7
:1044A00080937A0080917A0086FDFCCF209178007D
:1044B00040917900942F80E030E0282B392BC901FE
:1044C00008951F93CF93DF93182FEB0161E00E94B3
:1044D000C122209709F44AC0CF3FD10509F449C051
:1044E000E12FF0E0EE56FE4F84918330C1F084302E
:1044F00028F4813051F08230B1F50CC0863019F1CA
:10450000873049F1843079F514C084B5806884BD62
:10451000C7BD33C084B5806284BDC8BD2EC0809144
:104520008000806880938000D0938900C0938800C9
:1045300024C080918000806280938000D0938B00A3
:10454000C0938A001AC08091B00080688093B00048
:10455000C093B30012C08091B00080628093B0001D
:10456000C093B4000AC0C038D1051CF4812F60E0AC
:1045700002C0812F61E00E940023DF91CF911F9143
:104580000895CF93DF93482F50E0CA0182589E4F81
:10459000FC01349146595E4FFA018491882369F1F8
:1045A00090E0880F991FFC01E45BFE4FA591B49148
:1045B000FC01EA5AFE4FC591D491662351F42FB7FE
:1045C000F8948C91932F909589238C9388818923DB
:1045D0000BC0623061F42FB7F8948C91932F9095B3
:1045E00089238C938881832B88832FBF06C09FB734
:1045F000F8948C91832B8C939FBFDF91CF9108957A
:10460000482F50E0CA018E569E4FFC012491CA01EA
:1046100082589E4FFC01949146595E4FFA013491A5
:10462000332309F440C0222351F1233071F02430A8
:1046300028F42130A1F0223011F514C02630B1F059
:104640002730C1F02430D9F404C0809180008F77E6
:1046500003C0809180008F7D8093800010C084B55E
:104660008F7702C084B58F7D84BD09C08091B00072
:104670008F7703C08091B0008F7D8093B000E32FCF
:10468000F0E0EE0FFF1FEA5AFE4FA591B4912FB74D
:10469000F894662321F48C919095892302C08C9123
:1046A000892B8C932FBF089508951F920F920FB6F8
:1046B0000F9211242F933F934F938F939F93EF93D8
:1046C000FF938091C00082FD1DC04091C6002091E3
:1046D000BE063091BF062F5F3F4F2F733070809121
:1046E000C0069091C1062817390771F0E091BE0607
:1046F000F091BF06E258F94F40833093BF062093F4
:10470000BE0602C08091C600FF91EF919F918F91EC
:104710004F913F912F910F900FBE0F901F901895C2
:10472000E0911207F0911307E05CFF4F81919191A6
:1047300020813181821B930B8F739070892B11F034
:104740000E94542308951F920F920FB60F921124C6
:104750002F933F938F939F93EF93FF9320910207A3
:1047600030910307809104079091050728173907B6
:1047700031F48091C1008F7D8093C10014C0E0911D
:104780000407F0910507EE53F94F2081809104074B
:104790009091050701968F73907090930507809311
:1047A00004072093C600FF91EF919F918F913F9155
:1047B0002F910F900FBE0F901F901895AF92BF9240
:1047C000DF92EF92FF920F931F93CF93DF93EC0151
:1047D0007A018B01DD24403081EE580780E06807C4
:1047E00080E0780711F0DD24D39491E0A92EB12C5C
:1047F000EC89FD89DD2069F0C50108A002C0880FA1
:10480000991F0A94E2F7808360E079E08DE390E0FD
:1048100005C0108260E874E88EE190E0A80197017D
:104820000E94032621503040404050405695479505
:104830003795279580E12030380720F0DD2011F0F2
:10484000DD24D6CFE889F9893083EA89FB89208382
:1048500019A2EE89FF89408121E030E0C9010C8C6A
:1048600002C0880F991F0A94E2F7482B4083EE8913
:10487000FF894081C9010D8C02C0880F991F0A94DD
:10488000E2F7482B4083EE89FF894081C9010E8CF5
:1048900002C0880F991F0A94E2F7482B4083EE89E3
:1048A000FF8980810F8C02C0220F331F0A94E2F728
:1048B000209528232083DF91CF911F910F91FF90A6
:1048C000EF90DF90BF90AF900895DC011C96ED91C2
:1048D000FC911D97E05CFF4F219131918081918186
:1048E000281B390B2F733070C9010895DC011C9609
:1048F000ED91FC911D97E05CFF4F20813181E054E8
:10490000F040DF01AE5BBF4F8D919C91119728174E
:10491000390719F42FEF3FEF07C08D919C91E80FF5
:10492000F91F8081282F30E0C9010895DC011C9611
:10493000ED91FC911D97E05CFF4F20813181E054A7
:10494000F040DF01AE5BBF4F8D919C91119728170E
:10495000390719F42FEF3FEF10C08D919C911197FB
:10496000E80FF91F20818D919C91119701968F730B
:10497000907011969C938E9330E0C9010895DC01EC
:1049800091968C919197882339F05496ED91FC91F2
:104990005597808186FFF9CF91961C920895CF9309
:1049A000DF93EC01EE85FF85E05CFF4F20813181D4
:1049B000E054F0402F5F3F4F2F733070DF01AE5B4C
:1049C000BF4F8D919C91119728173907D1F3E05C67
:1049D000FF4F80819181E054F040E80FF91F608320
:1049E000EE85FF85E05CFF4F31832083EE89FF89F0
:1049F000208181E090E00F8C02C0880F991F0A94FB
:104A0000E2F7282B208381E089A3EC89FD8980814E
:104A10008064808381E090E0DF91CF9108951092CF
:104A200009071092080788EE93E0A0E0B0E08093B9
:104A30000A0790930B07A0930C07B0930D0787E725
:104A400091E090930707809306078EE796E0909396
:104A500013078093120782EC96E0909315078093DA
:104A6000140785EC90E0909317078093160784EC69
:104A700090E0909319078093180780EC90E0909352
:104A80001B0780931A0781EC90E090931D07809399
:104A90001C0782EC90E090931F0780931E0786EC22
:104AA00090E0909321078093200784E08093220771
:104AB00083E08093230787E08093240785E0809339
:104AC000250781E0809326070895CF93DF930E9406
:104AD00004220E94A407C0E9D3E20E94BF062097E7
:104AE000E1F30E949023F9CFCF92DF92EF92FF92F1
:104AF0000F931F93CF93DF937C016B018A01C0E07A
:104B0000D0E00FC0D6016D916D01D701ED91FC9100
:104B10000190F081E02DC7010995C80FD91F015000
:104B200010400115110571F7CE01DF91CF911F9152
:104B30000F91FF90EF90DF90CF900895CF93DF9388
:104B4000EC016115710519F420E030E00FC0DB01C4
:104B50000D900020E9F71197A61BB70BE881F981AA
:104B60000280F381E02DAD0109959C01C901DF911F
:104B7000CF9108950E949E250895629FD001739F52
:104B8000F001829FE00DF11D649FE00DF11D929FE9
:104B9000F00D839FF00D749FF00D659FF00D992728
:104BA000729FB00DE11DF91F639FB00DE11DF91F4C
:104BB000BD01CF0111240895AA1BBB1B51E107C001
:104BC000AA1FBB1FA617B70710F0A61BB70B881F9D
:104BD000991F5A95A9F780959095BC01CD0108952C
:104BE00097FB092E07260AD077FD04D0E5DF06D013
:104BF00000201AF4709561957F4F0895F6F790950F
:104C000081959F4F0895A1E21A2EAA1BBB1BFD019F
:104C10000DC0AA1FBB1FEE1FFF1FA217B307E4079B
:104C2000F50720F0A21BB30BE40BF50B661F771FF3
:104C3000881F991F1A9469F76095709580959095D3
:104C40009B01AC01BD01CF01089597FB092E0526FC
:104C50000ED057FD04D0D7DF0AD0001C38F4509591
:104C60004095309521953F4F4F4F5F4F0895F6F790
:104C700090958095709561957F4F8F4F9F4F0895C8
:104C8000EE0FFF1F0590F491E02D099411E0CAEAA0
:104C9000D1E004C0FE010E9442262296CC3AD10700
:104CA000C9F7F894FFCF436865636B73756D204651
:104CB00061696C00FA0000000101000101010100BE
:104CC00000000101010101010101000000010001DA
:104CD00001010101010101010101020304010101BE
:104CE0000204010804010402010000FFFF010000AA
:104CF00000010000000000FFFFFFFF0000000001B6
:104D00000000000100FFFF000000000000F61B741F
:104D100025DC1BBB1BB91CA81C00000000CF2474A1
:104D200025652496247624BF2400FFFFFFFFFFFFA4
:104D3000FFFFFFFFFFFFFFFFFFFFFFFFFFFFFFFF83
:104D4000FFFFFFFFFFFFFFFFFFFFFFFFFFFFFFFF73
:104D5000FFFFFFFFFFFFFFFFFFFFFFFFFFFFFFFF63
:104D6000FFFFFFFFFFFFFFFFFFFFFFFFFFFFFFFF53
:107800000C94343C0C94513C0C94513C0C94513CE1
:107810000C94513C0C94513C0C94513C0C94513CB4
:107820000C94513C0C94513C0C94513C0C94513CA4
:107830000C94513C0C94513C0C94513C0C94513C94
:107840000C94513C0C94513C0C94513C0C94513C84
:107850000C94513C0C94513C0C94513C0C94513C74
:107860000C94513C0C94513C11241FBECFEFD8E036
:10787000DEBFCDBF11E0A0E0B1E0ECE9FFE702C060
:1078800005900D92A230B107D9F712E0A2E0B1E065
:1078900001C01D92AD30B107E1F70E942D3D0C945F
:1078A000CC3F0C94003C982F959595959595959582
:1078B000905D8F708A307CF0282F295A8091C0000B
:1078C00085FFFCCF9093C6008091C00085FFFCCF60
:1078D0002093C6000895282F205DF0CF982F809127
:1078E000C00085FFFCCF9093C6000895EF92FF92F1
:1078F0000F931F93EE24FF2487018091C00087FD22
:1079000017C00894E11CF11C011D111D81E4E8164B
:1079100082E4F8068FE0080780E0180770F3E09132
:107920000401F091050109958091C00087FFE9CF1E
:107930008091C6001F910F91FF90EF9008950E94D3
:10794000763C982F8091C00085FFFCCF9093C600B5
:1079500091362CF490330CF09053892F089597555D
:10796000892F08951F930E949F3C182F0E949F3CCF
:107970001295107F810F1F9108951F93182F882350
:1079800021F00E94763C1150E1F71F9108951F935A
:10799000182F0E94763C803249F0809103018F5F5E
:1079A000809303018530C1F01F9108958091C0003C
:1079B00085FFFCCF84E18093C6008091C00085FFE5
:1079C000FCCF1093C6008091C00085FFFCCF80E102
:1079D0008093C6001F910895E0910401F091050184
:1079E00009951F9108950E94763C803241F0809164
:1079F00003018F5F80930301853081F008958091AA
:107A0000C00085FFFCCF84E18093C6008091C00058
:107A100085FFFCCF80E18093C6000895E0910401CA
:107A2000F09105010995089540E951E08823A1F0FE
:107A30002D9A28EE33E0FA013197F1F721503040CA
:107A4000D1F72D9828EE33E0FA013197F1F7215064
:107A50003040D1F7815061F708953F924F925F9285
:107A60006F927F928F929F92AF92BF92CF92DF924E
:107A7000EF92FF920F931F93CF93DF93000080E16B
:107A80008093C4001092C50088E18093C10086E015
:107A90008093C2005098589A259A81E00E94143D24
:107AA00024E1F22E9EE1E92E85E9D82E0FE0C02ECA
:107AB00010E1B12EAA24A394B1E49B2EA6E58A2E50
:107AC000F2E57F2EE0E26E2E79E4572E63E5462E36
:107AD00050E5352E0E94763C8033B1F18133B9F107
:107AE000803409F46FC0813409F476C0823409F41B
:107AF00085C0853409F488C0803531F1823521F1A3
:107B0000813511F1853509F485C0863509F48DC0BC
:107B1000843609F496C0843709F403C1853709F423
:107B200072C1863709F466C0809103018F5F80932C
:107B30000301853079F6E0910401F0910501099582
:107B40000E94763C803351F60E94F33CC3CF0E94E2
:107B5000763C803249F78091C00085FFFCCFF092DF
:107B6000C6008091C00085FFFCCF9092C600809136
:107B7000C00085FFFCCF8092C6008091C00085FFC9
:107B8000FCCF7092C6008091C00085FFFCCF609250
:107B9000C6008091C00085FFFCCF5092C600809146
:107BA000C00085FFFCCF4092C6008091C00085FFD9
:107BB000FCCF3092C6008091C00085FFFCCFB09210
:107BC000C60088CF0E94763C863808F4BDCF0E945C
:107BD000763C0E94F33C7ECF0E94763C803809F4CC
:107BE0009CC0813809F40BC1823809F43CC1883942
:107BF00009F48FC080E00E94C73C6CCF84E10E94F2
:107C0000BD3C0E94F33C66CF85E00E94BD3C0E94D3
:107C1000F33C60CF0E94763C809306010E94763C44
:107C2000809307010E94F33C55CF0E94763C80333D
:107C300009F41DC183E00E94BD3C80E00E94C73C66
:107C400049CF0E94763C809309020E94763C809343
:107C5000080280910C028E7F80930C020E94763C79
:107C6000853409F415C18091080290910902892B8D
:107C700089F000E010E00E94763CF801E85FFE4FDA
:107C800080830F5F1F4F80910802909109020817AF
:107C9000190788F30E94763C803209F045CF809125
:107CA0000C0280FF01C16091060170910701660F0F
:107CB000771F7093070160930601A0910802B091AD
:107CC00009021097C9F0E8E0F1E09B01AD014E0F09
:107CD0005F1FF999FECF32BD21BD819180BDFA9A17
:107CE000F99A2F5F3F4FE417F50799F76A0F7B1F4B
:107CF00070930701609306018091C00085FFFCCF5F
:107D0000F092C6008091C00085FFFCCFB092C60003
:107D1000E1CE83E00E94C73CDDCE82E00E94C73CFA
:107D2000D9CE0E94763C809309020E94763C8093D3
:107D300008028091060190910701880F991F909386
:107D40000701809306010E94763C853409F4A6C0A1
:107D500080910C028E7F80930C020E94763C8032D0
:107D600009F0B8CE8091C00085FFFCCFF092C6002C
:107D7000609108027091090261157105B9F140E046
:107D800050E080910C02A82FA170B82FB27011C0E2
:107D9000BB2309F45CC0E0910601F0910701319624
:107DA000F0930701E09306014F5F5F4F46175707B7
:107DB000E8F4AA2369F3F999FECF209106013091E6
:107DC000070132BD21BDF89A90B58091C00085FFB2
:107DD000FCCF9093C6002F5F3F4F30930701209355
:107DE00006014F5F5F4F4617570718F38091C00099
:107DF00085FDE5CE8091C00085FFF8CFE0CE81E023
:107E00000E94C73C67CE0E94763C803209F08CCE3F
:107E10008091C00085FFFCCFF092C6008091C00029
:107E200085FFFCCFE092C6008091C00085FFFCCFAB
:107E3000D092C6008091C00085FFFCCFC092C600E2
:107E40008091C00085FFFCCFB092C60043CEE09188
:107E50000601F091070194918091C00085FFFCCF4D
:107E60009093C6009CCF80E10E94C73C33CE0E9415
:107E7000763C0E94763C182F0E94763C112309F430
:107E800083C0113009F484C08FE00E94C73C22CE29
:107E900080910C02816080930C02E5CE80910C02EF
:107EA000816080930C0259CF809107018823880F4D
:107EB000880B8A2180930B02809106019091070123
:107EC000880F991F90930701809306018091080203
:107ED00080FF09C080910802909109020196909359
:107EE000090280930802F894F999FECF1127E091D6
:107EF0000601F0910701C8E0D1E08091080290915D
:107F00000902103091F40091570001700130D9F34B
:107F100003E000935700E89500915700017001308D
:107F2000D9F301E100935700E89509901990009169
:107F3000570001700130D9F301E000935700E89534
:107F40001395103498F011270091570001700130FB
:107F5000D9F305E000935700E895009157000170B0
:107F60000130D9F301E100935700E895329602976A
:107F700009F0C7CF103011F00296E5CF112480919F
:107F8000C00085FFB9CEBCCE8EE10E94C73CA2CD19
:107F900085E90E94C73C9ECDF894FFCF8000FFFF8B
:107FA000FFFFFFFFFFFFFFFFFFFFFFFFFFFFFFFFE1
:107FB000FFFFFFFFFFFFFFFFFFFFFFFFFFFFFFFFD1
:107FC000FFFFFFFFFFFFFFFFFFFFFFFFFFFFFFFFC1
:107FD000FFFFFFFFFFFFFFFFFFFFFFFFFFFFFFFFB1
:107FE000FFFFFFFFFFFFFFFFFFFFFFFFFFFFFFFFA1
:107FF000FFFFFFFFFFFFFFFFFFFFFFFFFFFFFFFF91
:00000001FF
